{
  "contractName": "BossBondingCalculator",
  "abi": [
    {
      "inputs": [
        {
          "internalType": "contract IERC20",
          "name": "_BOSS",
          "type": "address"
        }
      ],
      "stateMutability": "nonpayable",
      "type": "constructor"
    },
    {
      "inputs": [],
      "name": "BOSS",
      "outputs": [
        {
          "internalType": "contract IERC20",
          "name": "",
          "type": "address"
        }
      ],
      "stateMutability": "view",
      "type": "function"
    },
    {
      "inputs": [
        {
          "internalType": "address",
          "name": "_pair",
          "type": "address"
        }
      ],
      "name": "getKValue",
      "outputs": [
        {
          "internalType": "uint256",
          "name": "k_",
          "type": "uint256"
        }
      ],
      "stateMutability": "view",
      "type": "function"
    },
    {
      "inputs": [
        {
          "internalType": "address",
          "name": "_pair",
          "type": "address"
        }
      ],
      "name": "getTotalValue",
      "outputs": [
        {
          "internalType": "uint256",
          "name": "_value",
          "type": "uint256"
        }
      ],
      "stateMutability": "view",
      "type": "function"
    },
    {
      "inputs": [
        {
          "internalType": "address",
          "name": "_pair",
          "type": "address"
        },
        {
          "internalType": "uint256",
          "name": "amount_",
          "type": "uint256"
        }
      ],
      "name": "valuation",
      "outputs": [
        {
          "internalType": "uint256",
          "name": "_value",
          "type": "uint256"
        }
      ],
      "stateMutability": "view",
      "type": "function"
    },
    {
      "inputs": [
        {
          "internalType": "address",
          "name": "_pair",
          "type": "address"
        }
      ],
      "name": "markdown",
      "outputs": [
        {
          "internalType": "uint256",
          "name": "",
          "type": "uint256"
        }
      ],
      "stateMutability": "view",
      "type": "function"
    }
  ],
  "bytecode": "0x60806040523480156200001157600080fd5b5060405162001ce538038062001ce5833981810160405281019062000037919062000137565b600073ffffffffffffffffffffffffffffffffffffffff168173ffffffffffffffffffffffffffffffffffffffff1614156200007257600080fd5b806000806101000a81548173ffffffffffffffffffffffffffffffffffffffff021916908373ffffffffffffffffffffffffffffffffffffffff1602179055505062000169565b600080fd5b600073ffffffffffffffffffffffffffffffffffffffff82169050919050565b6000620000eb82620000be565b9050919050565b6000620000ff82620000de565b9050919050565b6200011181620000f2565b81146200011d57600080fd5b50565b600081519050620001318162000106565b92915050565b60006020828403121562000150576200014f620000b9565b5b6000620001608482850162000120565b91505092915050565b611b6c80620001796000396000f3fe608060405234801561001057600080fd5b50600436106100575760003560e01c806332da80a31461005c5780634249719f1461008c578063490084ef146100bc57806368637549146100ec578063c25af4c61461011c575b600080fd5b610076600480360381019061007191906110d0565b61013a565b6040516100839190611116565b60405180910390f35b6100a660048036038101906100a1919061115d565b6102f1565b6040516100b39190611116565b60405180910390f35b6100d660048036038101906100d191906110d0565b6103b8565b6040516100e39190611116565b60405180910390f35b610106600480360381019061010191906110d0565b61070b565b6040516101139190611116565b60405180910390f35b610124610747565b60405161013191906111fc565b60405180910390f35b60008060008373ffffffffffffffffffffffffffffffffffffffff16630902f1ac6040518163ffffffff1660e01b8152600401606060405180830381865afa15801561018a573d6000803e3d6000fd5b505050506040513d601f19601f820116820180604052508101906101ae9190611299565b506dffffffffffffffffffffffffffff1691506dffffffffffffffffffffffffffff16915060008060009054906101000a900473ffffffffffffffffffffffffffffffffffffffff1673ffffffffffffffffffffffffffffffffffffffff168573ffffffffffffffffffffffffffffffffffffffff16630dfe16816040518163ffffffff1660e01b8152600401602060405180830381865afa158015610258573d6000803e3d6000fd5b505050506040513d601f19601f8201168201806040525081019061027c9190611301565b73ffffffffffffffffffffffffffffffffffffffff1614156102a0578190506102a4565b8290505b6102e76102e26102cc6102b68461076b565b6102c7671bc16d674ec8000061076b565b6107e8565b6102dd6102d88961070b565b61076b565b610b81565b610c71565b9350505050919050565b6000806102fd8461070b565b905060008473ffffffffffffffffffffffffffffffffffffffff166318160ddd6040518163ffffffff1660e01b8152600401602060405180830381865afa15801561034c573d6000803e3d6000fd5b505050506040513d601f19601f820116820180604052508101906103709190611343565b90506103ae6103a96103936103858785610c94565b61038e8661076b565b6107e8565b6103a4670de0b6b3a764000061076b565b610b81565b610c71565b9250505092915050565b6000808273ffffffffffffffffffffffffffffffffffffffff16630dfe16816040518163ffffffff1660e01b8152600401602060405180830381865afa158015610406573d6000803e3d6000fd5b505050506040513d601f19601f8201168201806040525081019061042a9190611301565b73ffffffffffffffffffffffffffffffffffffffff1663313ce5676040518163ffffffff1660e01b8152600401602060405180830381865afa158015610474573d6000803e3d6000fd5b505050506040513d601f19601f8201168201806040525081019061049891906113a9565b60ff16905060008373ffffffffffffffffffffffffffffffffffffffff1663d21220a76040518163ffffffff1660e01b8152600401602060405180830381865afa1580156104ea573d6000803e3d6000fd5b505050506040513d601f19601f8201168201806040525081019061050e9190611301565b73ffffffffffffffffffffffffffffffffffffffff1663313ce5676040518163ffffffff1660e01b8152600401602060405180830381865afa158015610558573d6000803e3d6000fd5b505050506040513d601f19601f8201168201806040525081019061057c91906113a9565b60ff16905060006106276106226106146105958561076b565b61060f8973ffffffffffffffffffffffffffffffffffffffff1663313ce5676040518163ffffffff1660e01b8152600401602060405180830381865afa1580156105e3573d6000803e3d6000fd5b505050506040513d601f19601f8201168201806040525081019061060791906113a9565b60ff1661076b565b610cca565b61061d8661076b565b610d47565b610c71565b90506000808673ffffffffffffffffffffffffffffffffffffffff16630902f1ac6040518163ffffffff1660e01b8152600401606060405180830381865afa158015610677573d6000803e3d6000fd5b505050506040513d601f19601f8201168201806040525081019061069b9190611299565b506dffffffffffffffffffffffffffff1691506dffffffffffffffffffffffffffff1691506106ff6106fa6106e06106d28561076b565b6106db8561076b565b6107e8565b6106f586600a6106f09190611538565b61076b565b610b81565b610c71565b95505050505050919050565b600061074061073b61072c610727610722866103b8565b610dc6565b61076b565b610736600261076b565b6107e8565b610c71565b9050919050565b60008054906101000a900473ffffffffffffffffffffffffffffffffffffffff1681565b61077361105a565b61077b610f92565b8211156107bd576040517f08c379a00000000000000000000000000000000000000000000000000000000081526004016107b490611606565b60405180910390fd5b604051806020016040528069d3c21bcecceda1000000846107de9190611626565b8152509050919050565b6107f061105a565b600083600001511480610807575060008260000151145b1561082357604051806020016040528060008152509050610b7b565b69d3c21bcecceda10000008260000151141561084157829050610b7b565b69d3c21bcecceda10000008360000151141561085f57819050610b7b565b600069d3c21bcecceda100000061087585610fba565b6000015161088391906116af565b9050600061089085610ffc565b600001519050600069d3c21bcecceda10000006108ac86610fba565b600001516108ba91906116af565b905060006108c786610ffc565b600001519050600082856108db9190611626565b905060008514610933578285826108f291906116af565b14610932576040517f08c379a00000000000000000000000000000000000000000000000000000000081526004016109299061172c565b60405180910390fd5b5b600069d3c21bcecceda10000008261094b9190611626565b9050600082146109ad5769d3c21bcecceda1000000828261096c91906116af565b146109ac576040517f08c379a00000000000000000000000000000000000000000000000000000000081526004016109a390611798565b60405180910390fd5b5b809150600084866109be9190611626565b905060008614610a16578486826109d591906116af565b14610a15576040517f08c379a0000000000000000000000000000000000000000000000000000000008152600401610a0c90611804565b60405180910390fd5b5b60008488610a249190611626565b905060008814610a7c57848882610a3b91906116af565b14610a7b576040517f08c379a0000000000000000000000000000000000000000000000000000000008152600401610a7290611870565b60405180910390fd5b5b610a8461104d565b87610a8f91906116af565b9650610a9961104d565b85610aa491906116af565b945060008588610ab49190611626565b905060008814610b0c57858882610acb91906116af565b14610b0b576040517f08c379a0000000000000000000000000000000000000000000000000000000008152600401610b02906118dc565b60405180910390fd5b5b60006040518060200160405280878152509050610b3781604051806020016040528087815250610d47565b9050610b5181604051806020016040528086815250610d47565b9050610b6b81604051806020016040528085815250610d47565b9050809a50505050505050505050505b92915050565b610b8961105a565b600082600001511415610bd1576040517f08c379a0000000000000000000000000000000000000000000000000000000008152600401610bc890611948565b60405180910390fd5b600069d3c21bcecceda10000008460000151610bed9190611626565b9050836000015169d3c21bcecceda100000082610c0a91906116af565b14610c4a576040517f08c379a0000000000000000000000000000000000000000000000000000000008152600401610c41906119b4565b60405180910390fd5b6040518060200160405280846000015183610c6591906116af565b81525091505092915050565b600069d3c21bcecceda10000008260000151610c8d91906116af565b9050919050565b610c9c61105a565b6000610ca78461076b565b90506000610cb48461076b565b9050610cc08282610b81565b9250505092915050565b610cd261105a565b816000015183600001511015610d1d576040517f08c379a0000000000000000000000000000000000000000000000000000000008152600401610d1490611a20565b60405180910390fd5b604051806020016040528083600001518560000151610d3c9190611a40565b815250905092915050565b610d4f61105a565b600082600001518460000151610d659190611a74565b90508360000151811015610dae576040517f08c379a0000000000000000000000000000000000000000000000000000000008152600401610da590611b16565b60405180910390fd5b60405180602001604052808281525091505092915050565b600080821415610dd95760009050610f8d565b60008290506000600190507001000000000000000000000000000000008210610e0b57608082901c9150604081901b90505b680100000000000000008210610e2a57604082901c9150602081901b90505b6401000000008210610e4557602082901c9150601081901b90505b620100008210610e5e57601082901c9150600881901b90505b6101008210610e7657600882901c9150600481901b90505b60108210610e8d57600482901c9150600281901b90505b60088210610e9d57600181901b90505b60018185610eab91906116af565b82610eb69190611a74565b901c905060018185610ec891906116af565b82610ed39190611a74565b901c905060018185610ee591906116af565b82610ef09190611a74565b901c905060018185610f0291906116af565b82610f0d9190611a74565b901c905060018185610f1f91906116af565b82610f2a9190611a74565b901c905060018185610f3c91906116af565b82610f479190611a74565b901c905060018185610f5991906116af565b82610f649190611a74565b901c905060008185610f7691906116af565b9050808210610f855780610f87565b815b93505050505b919050565b60007fffffffffffffffffffffffffffffffffffffffffffffffffffffffffffffffff905090565b610fc261105a565b604051806020016040528069d3c21bcecceda1000000808560000151610fe891906116af565b610ff29190611626565b8152509050919050565b61100461105a565b604051806020016040528069d3c21bcecceda100000080856000015161102a91906116af565b6110349190611626565b84600001516110439190611a40565b8152509050919050565b600064e8d4a51000905090565b6040518060200160405280600081525090565b600080fd5b600073ffffffffffffffffffffffffffffffffffffffff82169050919050565b600061109d82611072565b9050919050565b6110ad81611092565b81146110b857600080fd5b50565b6000813590506110ca816110a4565b92915050565b6000602082840312156110e6576110e561106d565b5b60006110f4848285016110bb565b91505092915050565b6000819050919050565b611110816110fd565b82525050565b600060208201905061112b6000830184611107565b92915050565b61113a816110fd565b811461114557600080fd5b50565b60008135905061115781611131565b92915050565b600080604083850312156111745761117361106d565b5b6000611182858286016110bb565b925050602061119385828601611148565b9150509250929050565b6000819050919050565b60006111c26111bd6111b884611072565b61119d565b611072565b9050919050565b60006111d4826111a7565b9050919050565b60006111e6826111c9565b9050919050565b6111f6816111db565b82525050565b600060208201905061121160008301846111ed565b92915050565b60006dffffffffffffffffffffffffffff82169050919050565b61123a81611217565b811461124557600080fd5b50565b60008151905061125781611231565b92915050565b600063ffffffff82169050919050565b6112768161125d565b811461128157600080fd5b50565b6000815190506112938161126d565b92915050565b6000806000606084860312156112b2576112b161106d565b5b60006112c086828701611248565b93505060206112d186828701611248565b92505060406112e286828701611284565b9150509250925092565b6000815190506112fb816110a4565b92915050565b6000602082840312156113175761131661106d565b5b6000611325848285016112ec565b91505092915050565b60008151905061133d81611131565b92915050565b6000602082840312156113595761135861106d565b5b60006113678482850161132e565b91505092915050565b600060ff82169050919050565b61138681611370565b811461139157600080fd5b50565b6000815190506113a38161137d565b92915050565b6000602082840312156113bf576113be61106d565b5b60006113cd84828501611394565b91505092915050565b7f4e487b7100000000000000000000000000000000000000000000000000000000600052601160045260246000fd5b60008160011c9050919050565b6000808291508390505b600185111561145c57808604811115611438576114376113d6565b5b60018516156114475780820291505b808102905061145585611405565b945061141c565b94509492505050565b6000826114755760019050611531565b816114835760009050611531565b816001811461149957600281146114a3576114d2565b6001915050611531565b60ff8411156114b5576114b46113d6565b5b8360020a9150848211156114cc576114cb6113d6565b5b50611531565b5060208310610133831016604e8410600b84101617156115075782820a905083811115611502576115016113d6565b5b611531565b6115148484846001611412565b9250905081840481111561152b5761152a6113d6565b5b81810290505b9392505050565b6000611543826110fd565b915061154e836110fd565b925061157b7fffffffffffffffffffffffffffffffffffffffffffffffffffffffffffffffff8484611465565b905092915050565b600082825260208201905092915050565b7f63616e277420637265617465206669786964697479206e756d626572206c617260008201527f676572207468616e206d61784e65774669786564282900000000000000000000602082015250565b60006115f0603683611583565b91506115fb82611594565b604082019050919050565b6000602082019050818103600083015261161f816115e3565b9050919050565b6000611631826110fd565b915061163c836110fd565b9250817fffffffffffffffffffffffffffffffffffffffffffffffffffffffffffffffff0483118215151615611675576116746113d6565b5b828202905092915050565b7f4e487b7100000000000000000000000000000000000000000000000000000000600052601260045260246000fd5b60006116ba826110fd565b91506116c5836110fd565b9250826116d5576116d4611680565b5b828204905092915050565b7f6f766572666c6f77207831793120646574656374656400000000000000000000600082015250565b6000611716601683611583565b9150611721826116e0565b602082019050919050565b6000602082019050818103600083015261174581611709565b9050919050565b7f6f766572666c6f772078317931202a2066697865643120646574656374656400600082015250565b6000611782601f83611583565b915061178d8261174c565b602082019050919050565b600060208201905081810360008301526117b181611775565b9050919050565b7f6f766572666c6f77207832793120646574656374656400000000000000000000600082015250565b60006117ee601683611583565b91506117f9826117b8565b602082019050919050565b6000602082019050818103600083015261181d816117e1565b9050919050565b7f6f766572666c6f77207831793220646574656374656400000000000000000000600082015250565b600061185a601683611583565b915061186582611824565b602082019050919050565b600060208201905081810360008301526118898161184d565b9050919050565b7f6f766572666c6f77207832793220646574656374656400000000000000000000600082015250565b60006118c6601683611583565b91506118d182611890565b602082019050919050565b600060208201905081810360008301526118f5816118b9565b9050919050565b7f63616e2774206469766964652062792030000000000000000000000000000000600082015250565b6000611932601183611583565b915061193d826118fc565b602082019050919050565b6000602082019050818103600083015261196181611925565b9050919050565b7f6f766572666c6f77206174206469766964650000000000000000000000000000600082015250565b600061199e601283611583565b91506119a982611968565b602082019050919050565b600060208201905081810360008301526119cd81611991565b9050919050565b7f737562737472616374696f6e20756e646572666c6f7720646574656374656400600082015250565b6000611a0a601f83611583565b9150611a15826119d4565b602082019050919050565b60006020820190508181036000830152611a39816119fd565b9050919050565b6000611a4b826110fd565b9150611a56836110fd565b925082821015611a6957611a686113d6565b5b828203905092915050565b6000611a7f826110fd565b9150611a8a836110fd565b9250827fffffffffffffffffffffffffffffffffffffffffffffffffffffffffffffffff03821115611abf57611abe6113d6565b5b828201905092915050565b7f616464206f766572666c6f772064657465637465640000000000000000000000600082015250565b6000611b00601583611583565b9150611b0b82611aca565b602082019050919050565b60006020820190508181036000830152611b2f81611af3565b905091905056fea26469706673582212202499066c26005ceda0846bd3deb882e2a6b5bd72d8f2131ce73ce91b7f50a8f864736f6c634300080a0033",
  "immutableReferences": {},
  "source": "// SPDX-License-Identifier: AGPL-3.0-or-later\npragma solidity 0.8.10;\n\nimport \"./Fixidity.sol\";\nimport \"@openzeppelin/contracts/token/ERC20/ERC20.sol\";\nimport \"@openzeppelin/contracts/token/ERC20/extensions/IERC20Metadata.sol\";\n\n\n\nlibrary Babylonian {\n\n    function sqrt(uint256 x) internal pure returns (uint256) {\n        if (x == 0) return 0;\n\n        uint256 xx = x;\n        uint256 r = 1;\n        if (xx >= 0x100000000000000000000000000000000) {\n            xx >>= 128;\n            r <<= 64;\n        }\n        if (xx >= 0x10000000000000000) {\n            xx >>= 64;\n            r <<= 32;\n        }\n        if (xx >= 0x100000000) {\n            xx >>= 32;\n            r <<= 16;\n        }\n        if (xx >= 0x10000) {\n            xx >>= 16;\n            r <<= 8;\n        }\n        if (xx >= 0x100) {\n            xx >>= 8;\n            r <<= 4;\n        }\n        if (xx >= 0x10) {\n            xx >>= 4;\n            r <<= 2;\n        }\n        if (xx >= 0x8) {\n            r <<= 1;\n        }\n        r = (r + x / r) >> 1;\n        r = (r + x / r) >> 1;\n        r = (r + x / r) >> 1;\n        r = (r + x / r) >> 1;\n        r = (r + x / r) >> 1;\n        r = (r + x / r) >> 1;\n        r = (r + x / r) >> 1; // Seven iterations should be enough\n        uint256 r1 = x / r;\n        return (r < r1 ? r : r1);\n    }\n}\n\ninterface IUniswapV2ERC20 {\n    function totalSupply() external view returns (uint);\n}\n\n\ninterface IUniswapV2Pair is IUniswapV2ERC20 {\n    function getReserves() external view returns (uint112 reserve0, uint112 reserve1, uint32 blockTimestampLast);\n    function token0() external view returns ( address );\n    function token1() external view returns ( address );\n}\n\n\ninterface IBondingCalculator {\n  function valuation( address pair_, uint amount_ ) external view returns ( uint _value );\n}\n\ncontract BossBondingCalculator is IBondingCalculator {\n\n\n    IERC20 public BOSS;\n\n    constructor( IERC20 _BOSS ) {\n        require( address(_BOSS) != address(0) );\n        BOSS = _BOSS;\n    }\n\n    function getKValue( address _pair ) public view returns( uint k_ ) {\n        uint token0 = IERC20Metadata(IUniswapV2Pair( _pair ).token0()).decimals();\n        uint token1 = IERC20Metadata(IUniswapV2Pair( _pair ).token1()).decimals();\n        uint decimals = Fixidity.fromFixed( \n            Fixidity.add( \n            Fixidity.subtract( Fixidity.newFixed(token1) , Fixidity.newFixed(IERC20Metadata( _pair ).decimals()) ), Fixidity.newFixed(token0) )\n             );\n\n        (uint reserve0, uint reserve1, ) = IUniswapV2Pair( _pair ).getReserves();\n        k_ = Fixidity.fromFixed( \n            Fixidity.divide( \n            Fixidity.mul( Fixidity.newFixed(reserve0) , Fixidity.newFixed(reserve1) ), \n            Fixidity.newFixed(10 ** decimals) )\n             );\n    }\n    // calculates the risk free value of BOSS-stable LP tokens\n    function getTotalValue( address _pair ) public view returns ( uint _value ) {\n        _value = Fixidity.fromFixed(Fixidity.mul(Fixidity.newFixed(Babylonian.sqrt(getKValue(_pair))),Fixidity.newFixed(2)));\n    }\n\n    function valuation( address _pair, uint amount_ ) external view override returns ( uint _value ) {\n        uint totalValue = getTotalValue( _pair );\n        uint totalSupply = IUniswapV2Pair( _pair ).totalSupply();\n\n        _value = Fixidity.fromFixed(\n            Fixidity.divide(\n            Fixidity.mul(\n            Fixidity.newFixedFraction( amount_, totalSupply), \n            Fixidity.newFixed(totalValue)), Fixidity.newFixed(1e18)));\n    }\n\n    function markdown( address _pair ) external view returns ( uint ) {\n        ( uint reserve0, uint reserve1, ) = IUniswapV2Pair( _pair ).getReserves();\n\n        uint reserve;\n        if ( IUniswapV2Pair( _pair ).token0() == address(BOSS) ) {\n            reserve = reserve1;\n        } else {\n            reserve = reserve0;\n        }\n        return Fixidity.fromFixed(Fixidity.divide(\n        Fixidity.mul( \n        Fixidity.newFixed(reserve), \n        Fixidity.newFixed( 2 * ( 10 ** 18 ))), \n        Fixidity.newFixed( getTotalValue( _pair ) ) ));\n    }\n}\n",
  "sourcePath": "/Users/samgville/Documents/Nostra DAO /nostra-dao-contracts/contracts/StandardBondingCalculator.sol",
  "compiler": {
    "name": "solc",
    "version": "0.8.10+commit.fc410830.Emscripten.clang"
  },
  "schemaVersion": "3.4.4",
  "updatedAt": "2022-01-21T00:17:48.933Z",
  "devdoc": {
    "kind": "dev",
    "methods": {},
    "version": 1
  },
  "userdoc": {
    "kind": "user",
    "methods": {},
    "version": 1
  }
}