{
  "contractName": "BossTreasury",
  "abi": [
    {
      "inputs": [
        {
          "internalType": "contract IERC20",
          "name": "_BOSS",
          "type": "address"
        },
        {
          "internalType": "contract IERC20",
          "name": "_MIM",
          "type": "address"
        },
        {
          "internalType": "uint256",
          "name": "_blocksNeededForQueue",
          "type": "uint256"
        }
      ],
      "stateMutability": "nonpayable",
      "type": "constructor"
    },
    {
      "anonymous": false,
      "inputs": [
        {
          "indexed": true,
          "internalType": "enum BossTreasury.MANAGING",
          "name": "managing",
          "type": "uint8"
        },
        {
          "indexed": false,
          "internalType": "address",
          "name": "activated",
          "type": "address"
        },
        {
          "indexed": false,
          "internalType": "bool",
          "name": "result",
          "type": "bool"
        }
      ],
      "name": "ChangeActivated",
      "type": "event"
    },
    {
      "anonymous": false,
      "inputs": [
        {
          "indexed": true,
          "internalType": "enum BossTreasury.MANAGING",
          "name": "managing",
          "type": "uint8"
        },
        {
          "indexed": false,
          "internalType": "address",
          "name": "queued",
          "type": "address"
        }
      ],
      "name": "ChangeQueued",
      "type": "event"
    },
    {
      "anonymous": false,
      "inputs": [
        {
          "indexed": true,
          "internalType": "address",
          "name": "debtor",
          "type": "address"
        },
        {
          "indexed": true,
          "internalType": "address",
          "name": "token",
          "type": "address"
        },
        {
          "indexed": false,
          "internalType": "uint256",
          "name": "amount",
          "type": "uint256"
        },
        {
          "indexed": false,
          "internalType": "uint256",
          "name": "value",
          "type": "uint256"
        }
      ],
      "name": "CreateDebt",
      "type": "event"
    },
    {
      "anonymous": false,
      "inputs": [
        {
          "indexed": true,
          "internalType": "address",
          "name": "token",
          "type": "address"
        },
        {
          "indexed": false,
          "internalType": "uint256",
          "name": "amount",
          "type": "uint256"
        },
        {
          "indexed": false,
          "internalType": "uint256",
          "name": "value",
          "type": "uint256"
        }
      ],
      "name": "Deposit",
      "type": "event"
    },
    {
      "anonymous": false,
      "inputs": [
        {
          "indexed": true,
          "internalType": "address",
          "name": "previousOwner",
          "type": "address"
        },
        {
          "indexed": true,
          "internalType": "address",
          "name": "newOwner",
          "type": "address"
        }
      ],
      "name": "OwnershipTransferred",
      "type": "event"
    },
    {
      "anonymous": false,
      "inputs": [
        {
          "indexed": true,
          "internalType": "address",
          "name": "debtor",
          "type": "address"
        },
        {
          "indexed": true,
          "internalType": "address",
          "name": "token",
          "type": "address"
        },
        {
          "indexed": false,
          "internalType": "uint256",
          "name": "amount",
          "type": "uint256"
        },
        {
          "indexed": false,
          "internalType": "uint256",
          "name": "value",
          "type": "uint256"
        }
      ],
      "name": "RepayDebt",
      "type": "event"
    },
    {
      "anonymous": false,
      "inputs": [
        {
          "indexed": true,
          "internalType": "uint256",
          "name": "totalReserves",
          "type": "uint256"
        }
      ],
      "name": "ReservesAudited",
      "type": "event"
    },
    {
      "anonymous": false,
      "inputs": [
        {
          "indexed": true,
          "internalType": "address",
          "name": "token",
          "type": "address"
        },
        {
          "indexed": false,
          "internalType": "uint256",
          "name": "amount",
          "type": "uint256"
        }
      ],
      "name": "ReservesManaged",
      "type": "event"
    },
    {
      "anonymous": false,
      "inputs": [
        {
          "indexed": true,
          "internalType": "uint256",
          "name": "totalReserves",
          "type": "uint256"
        }
      ],
      "name": "ReservesUpdated",
      "type": "event"
    },
    {
      "anonymous": false,
      "inputs": [
        {
          "indexed": true,
          "internalType": "address",
          "name": "caller",
          "type": "address"
        },
        {
          "indexed": true,
          "internalType": "address",
          "name": "recipient",
          "type": "address"
        },
        {
          "indexed": false,
          "internalType": "uint256",
          "name": "amount",
          "type": "uint256"
        }
      ],
      "name": "RewardsMinted",
      "type": "event"
    },
    {
      "anonymous": false,
      "inputs": [
        {
          "indexed": true,
          "internalType": "address",
          "name": "token",
          "type": "address"
        },
        {
          "indexed": false,
          "internalType": "uint256",
          "name": "amount",
          "type": "uint256"
        },
        {
          "indexed": false,
          "internalType": "uint256",
          "name": "value",
          "type": "uint256"
        }
      ],
      "name": "Withdrawal",
      "type": "event"
    },
    {
      "inputs": [],
      "name": "BOSS",
      "outputs": [
        {
          "internalType": "contract IERC20",
          "name": "",
          "type": "address"
        }
      ],
      "stateMutability": "view",
      "type": "function"
    },
    {
      "inputs": [
        {
          "internalType": "address",
          "name": "",
          "type": "address"
        }
      ],
      "name": "LiquidityDepositorQueue",
      "outputs": [
        {
          "internalType": "uint256",
          "name": "",
          "type": "uint256"
        }
      ],
      "stateMutability": "view",
      "type": "function"
    },
    {
      "inputs": [
        {
          "internalType": "address",
          "name": "",
          "type": "address"
        }
      ],
      "name": "LiquidityManagerQueue",
      "outputs": [
        {
          "internalType": "uint256",
          "name": "",
          "type": "uint256"
        }
      ],
      "stateMutability": "view",
      "type": "function"
    },
    {
      "inputs": [
        {
          "internalType": "address",
          "name": "",
          "type": "address"
        }
      ],
      "name": "LiquidityTokenQueue",
      "outputs": [
        {
          "internalType": "uint256",
          "name": "",
          "type": "uint256"
        }
      ],
      "stateMutability": "view",
      "type": "function"
    },
    {
      "inputs": [
        {
          "internalType": "address",
          "name": "",
          "type": "address"
        }
      ],
      "name": "ReserveManagerQueue",
      "outputs": [
        {
          "internalType": "uint256",
          "name": "",
          "type": "uint256"
        }
      ],
      "stateMutability": "view",
      "type": "function"
    },
    {
      "inputs": [],
      "name": "blocksNeededForQueue",
      "outputs": [
        {
          "internalType": "uint256",
          "name": "",
          "type": "uint256"
        }
      ],
      "stateMutability": "view",
      "type": "function"
    },
    {
      "inputs": [
        {
          "internalType": "address",
          "name": "",
          "type": "address"
        }
      ],
      "name": "bondCalculator",
      "outputs": [
        {
          "internalType": "address",
          "name": "",
          "type": "address"
        }
      ],
      "stateMutability": "view",
      "type": "function"
    },
    {
      "inputs": [
        {
          "internalType": "address",
          "name": "",
          "type": "address"
        }
      ],
      "name": "debtorBalance",
      "outputs": [
        {
          "internalType": "uint256",
          "name": "",
          "type": "uint256"
        }
      ],
      "stateMutability": "view",
      "type": "function"
    },
    {
      "inputs": [
        {
          "internalType": "address",
          "name": "",
          "type": "address"
        }
      ],
      "name": "debtorQueue",
      "outputs": [
        {
          "internalType": "uint256",
          "name": "",
          "type": "uint256"
        }
      ],
      "stateMutability": "view",
      "type": "function"
    },
    {
      "inputs": [
        {
          "internalType": "uint256",
          "name": "",
          "type": "uint256"
        }
      ],
      "name": "debtors",
      "outputs": [
        {
          "internalType": "address",
          "name": "",
          "type": "address"
        }
      ],
      "stateMutability": "view",
      "type": "function"
    },
    {
      "inputs": [
        {
          "internalType": "address",
          "name": "",
          "type": "address"
        }
      ],
      "name": "isDebtor",
      "outputs": [
        {
          "internalType": "bool",
          "name": "",
          "type": "bool"
        }
      ],
      "stateMutability": "view",
      "type": "function"
    },
    {
      "inputs": [
        {
          "internalType": "address",
          "name": "",
          "type": "address"
        }
      ],
      "name": "isLiquidityDepositor",
      "outputs": [
        {
          "internalType": "bool",
          "name": "",
          "type": "bool"
        }
      ],
      "stateMutability": "view",
      "type": "function"
    },
    {
      "inputs": [
        {
          "internalType": "address",
          "name": "",
          "type": "address"
        }
      ],
      "name": "isLiquidityManager",
      "outputs": [
        {
          "internalType": "bool",
          "name": "",
          "type": "bool"
        }
      ],
      "stateMutability": "view",
      "type": "function"
    },
    {
      "inputs": [
        {
          "internalType": "address",
          "name": "",
          "type": "address"
        }
      ],
      "name": "isLiquidityToken",
      "outputs": [
        {
          "internalType": "bool",
          "name": "",
          "type": "bool"
        }
      ],
      "stateMutability": "view",
      "type": "function"
    },
    {
      "inputs": [
        {
          "internalType": "address",
          "name": "",
          "type": "address"
        }
      ],
      "name": "isReserveDepositor",
      "outputs": [
        {
          "internalType": "bool",
          "name": "",
          "type": "bool"
        }
      ],
      "stateMutability": "view",
      "type": "function"
    },
    {
      "inputs": [
        {
          "internalType": "address",
          "name": "",
          "type": "address"
        }
      ],
      "name": "isReserveManager",
      "outputs": [
        {
          "internalType": "bool",
          "name": "",
          "type": "bool"
        }
      ],
      "stateMutability": "view",
      "type": "function"
    },
    {
      "inputs": [
        {
          "internalType": "address",
          "name": "",
          "type": "address"
        }
      ],
      "name": "isReserveSpender",
      "outputs": [
        {
          "internalType": "bool",
          "name": "",
          "type": "bool"
        }
      ],
      "stateMutability": "view",
      "type": "function"
    },
    {
      "inputs": [
        {
          "internalType": "address",
          "name": "",
          "type": "address"
        }
      ],
      "name": "isReserveToken",
      "outputs": [
        {
          "internalType": "bool",
          "name": "",
          "type": "bool"
        }
      ],
      "stateMutability": "view",
      "type": "function"
    },
    {
      "inputs": [
        {
          "internalType": "address",
          "name": "",
          "type": "address"
        }
      ],
      "name": "isRewardManager",
      "outputs": [
        {
          "internalType": "bool",
          "name": "",
          "type": "bool"
        }
      ],
      "stateMutability": "view",
      "type": "function"
    },
    {
      "inputs": [
        {
          "internalType": "uint256",
          "name": "",
          "type": "uint256"
        }
      ],
      "name": "liquidityDepositors",
      "outputs": [
        {
          "internalType": "address",
          "name": "",
          "type": "address"
        }
      ],
      "stateMutability": "view",
      "type": "function"
    },
    {
      "inputs": [
        {
          "internalType": "uint256",
          "name": "",
          "type": "uint256"
        }
      ],
      "name": "liquidityManagers",
      "outputs": [
        {
          "internalType": "address",
          "name": "",
          "type": "address"
        }
      ],
      "stateMutability": "view",
      "type": "function"
    },
    {
      "inputs": [
        {
          "internalType": "uint256",
          "name": "",
          "type": "uint256"
        }
      ],
      "name": "liquidityTokens",
      "outputs": [
        {
          "internalType": "address",
          "name": "",
          "type": "address"
        }
      ],
      "stateMutability": "view",
      "type": "function"
    },
    {
      "inputs": [],
      "name": "owner",
      "outputs": [
        {
          "internalType": "address",
          "name": "",
          "type": "address"
        }
      ],
      "stateMutability": "view",
      "type": "function"
    },
    {
      "inputs": [],
      "name": "renounceOwnership",
      "outputs": [],
      "stateMutability": "nonpayable",
      "type": "function"
    },
    {
      "inputs": [
        {
          "internalType": "address",
          "name": "",
          "type": "address"
        }
      ],
      "name": "reserveDepositorQueue",
      "outputs": [
        {
          "internalType": "uint256",
          "name": "",
          "type": "uint256"
        }
      ],
      "stateMutability": "view",
      "type": "function"
    },
    {
      "inputs": [
        {
          "internalType": "uint256",
          "name": "",
          "type": "uint256"
        }
      ],
      "name": "reserveDepositors",
      "outputs": [
        {
          "internalType": "address",
          "name": "",
          "type": "address"
        }
      ],
      "stateMutability": "view",
      "type": "function"
    },
    {
      "inputs": [
        {
          "internalType": "uint256",
          "name": "",
          "type": "uint256"
        }
      ],
      "name": "reserveManagers",
      "outputs": [
        {
          "internalType": "address",
          "name": "",
          "type": "address"
        }
      ],
      "stateMutability": "view",
      "type": "function"
    },
    {
      "inputs": [
        {
          "internalType": "address",
          "name": "",
          "type": "address"
        }
      ],
      "name": "reserveSpenderQueue",
      "outputs": [
        {
          "internalType": "uint256",
          "name": "",
          "type": "uint256"
        }
      ],
      "stateMutability": "view",
      "type": "function"
    },
    {
      "inputs": [
        {
          "internalType": "uint256",
          "name": "",
          "type": "uint256"
        }
      ],
      "name": "reserveSpenders",
      "outputs": [
        {
          "internalType": "address",
          "name": "",
          "type": "address"
        }
      ],
      "stateMutability": "view",
      "type": "function"
    },
    {
      "inputs": [
        {
          "internalType": "address",
          "name": "",
          "type": "address"
        }
      ],
      "name": "reserveTokenQueue",
      "outputs": [
        {
          "internalType": "uint256",
          "name": "",
          "type": "uint256"
        }
      ],
      "stateMutability": "view",
      "type": "function"
    },
    {
      "inputs": [
        {
          "internalType": "uint256",
          "name": "",
          "type": "uint256"
        }
      ],
      "name": "reserveTokens",
      "outputs": [
        {
          "internalType": "address",
          "name": "",
          "type": "address"
        }
      ],
      "stateMutability": "view",
      "type": "function"
    },
    {
      "inputs": [
        {
          "internalType": "address",
          "name": "",
          "type": "address"
        }
      ],
      "name": "rewardManagerQueue",
      "outputs": [
        {
          "internalType": "uint256",
          "name": "",
          "type": "uint256"
        }
      ],
      "stateMutability": "view",
      "type": "function"
    },
    {
      "inputs": [
        {
          "internalType": "uint256",
          "name": "",
          "type": "uint256"
        }
      ],
      "name": "rewardManagers",
      "outputs": [
        {
          "internalType": "address",
          "name": "",
          "type": "address"
        }
      ],
      "stateMutability": "view",
      "type": "function"
    },
    {
      "inputs": [],
      "name": "sBOSS",
      "outputs": [
        {
          "internalType": "contract IERC20",
          "name": "",
          "type": "address"
        }
      ],
      "stateMutability": "view",
      "type": "function"
    },
    {
      "inputs": [],
      "name": "sBOSSQueue",
      "outputs": [
        {
          "internalType": "uint256",
          "name": "",
          "type": "uint256"
        }
      ],
      "stateMutability": "view",
      "type": "function"
    },
    {
      "inputs": [],
      "name": "totalDebt",
      "outputs": [
        {
          "internalType": "uint256",
          "name": "",
          "type": "uint256"
        }
      ],
      "stateMutability": "view",
      "type": "function"
    },
    {
      "inputs": [],
      "name": "totalReserves",
      "outputs": [
        {
          "internalType": "uint256",
          "name": "",
          "type": "uint256"
        }
      ],
      "stateMutability": "view",
      "type": "function"
    },
    {
      "inputs": [
        {
          "internalType": "address",
          "name": "newOwner",
          "type": "address"
        }
      ],
      "name": "transferOwnership",
      "outputs": [],
      "stateMutability": "nonpayable",
      "type": "function"
    },
    {
      "inputs": [
        {
          "internalType": "uint256",
          "name": "_amount",
          "type": "uint256"
        },
        {
          "internalType": "address",
          "name": "_token",
          "type": "address"
        },
        {
          "internalType": "uint256",
          "name": "_profit",
          "type": "uint256"
        }
      ],
      "name": "deposit",
      "outputs": [
        {
          "internalType": "uint256",
          "name": "send_",
          "type": "uint256"
        }
      ],
      "stateMutability": "nonpayable",
      "type": "function"
    },
    {
      "inputs": [
        {
          "internalType": "uint256",
          "name": "_amount",
          "type": "uint256"
        },
        {
          "internalType": "address",
          "name": "_token",
          "type": "address"
        }
      ],
      "name": "withdraw",
      "outputs": [],
      "stateMutability": "nonpayable",
      "type": "function"
    },
    {
      "inputs": [
        {
          "internalType": "uint256",
          "name": "_amount",
          "type": "uint256"
        },
        {
          "internalType": "address",
          "name": "_token",
          "type": "address"
        }
      ],
      "name": "incurDebt",
      "outputs": [],
      "stateMutability": "nonpayable",
      "type": "function"
    },
    {
      "inputs": [
        {
          "internalType": "uint256",
          "name": "_amount",
          "type": "uint256"
        },
        {
          "internalType": "address",
          "name": "_token",
          "type": "address"
        }
      ],
      "name": "repayDebtWithReserve",
      "outputs": [],
      "stateMutability": "nonpayable",
      "type": "function"
    },
    {
      "inputs": [
        {
          "internalType": "uint256",
          "name": "_amount",
          "type": "uint256"
        }
      ],
      "name": "repayDebtWithBOSS",
      "outputs": [],
      "stateMutability": "nonpayable",
      "type": "function"
    },
    {
      "inputs": [
        {
          "internalType": "address",
          "name": "_token",
          "type": "address"
        },
        {
          "internalType": "uint256",
          "name": "_amount",
          "type": "uint256"
        }
      ],
      "name": "manage",
      "outputs": [],
      "stateMutability": "nonpayable",
      "type": "function"
    },
    {
      "inputs": [
        {
          "internalType": "address",
          "name": "_recipient",
          "type": "address"
        },
        {
          "internalType": "uint256",
          "name": "_amount",
          "type": "uint256"
        }
      ],
      "name": "mintRewards",
      "outputs": [],
      "stateMutability": "nonpayable",
      "type": "function"
    },
    {
      "inputs": [],
      "name": "excessReserves",
      "outputs": [
        {
          "internalType": "uint256",
          "name": "",
          "type": "uint256"
        }
      ],
      "stateMutability": "view",
      "type": "function"
    },
    {
      "inputs": [],
      "name": "auditReserves",
      "outputs": [],
      "stateMutability": "nonpayable",
      "type": "function"
    },
    {
      "inputs": [
        {
          "internalType": "address",
          "name": "_token",
          "type": "address"
        },
        {
          "internalType": "uint256",
          "name": "_amount",
          "type": "uint256"
        }
      ],
      "name": "valueOf",
      "outputs": [
        {
          "internalType": "uint256",
          "name": "value_",
          "type": "uint256"
        }
      ],
      "stateMutability": "view",
      "type": "function"
    },
    {
      "inputs": [
        {
          "internalType": "enum BossTreasury.MANAGING",
          "name": "_managing",
          "type": "uint8"
        },
        {
          "internalType": "address",
          "name": "_address",
          "type": "address"
        }
      ],
      "name": "queue",
      "outputs": [
        {
          "internalType": "bool",
          "name": "",
          "type": "bool"
        }
      ],
      "stateMutability": "nonpayable",
      "type": "function"
    },
    {
      "inputs": [
        {
          "internalType": "enum BossTreasury.MANAGING",
          "name": "_managing",
          "type": "uint8"
        },
        {
          "internalType": "address",
          "name": "_address",
          "type": "address"
        },
        {
          "internalType": "address",
          "name": "_calculator",
          "type": "address"
        }
      ],
      "name": "toggle",
      "outputs": [
        {
          "internalType": "bool",
          "name": "",
          "type": "bool"
        }
      ],
      "stateMutability": "nonpayable",
      "type": "function"
    }
  ],
  "bytecode": "0x60a06040523480156200001157600080fd5b506040516200628e3803806200628e833981810160405281019062000037919062000324565b620000576200004b6200019f60201b60201c565b620001a760201b60201c565b600073ffffffffffffffffffffffffffffffffffffffff168373ffffffffffffffffffffffffffffffffffffffff1614156200009257600080fd5b82600160006101000a81548173ffffffffffffffffffffffffffffffffffffffff021916908373ffffffffffffffffffffffffffffffffffffffff1602179055506001600c60008473ffffffffffffffffffffffffffffffffffffffff1673ffffffffffffffffffffffffffffffffffffffff16815260200190815260200160002060006101000a81548160ff021916908315150217905550600b829080600181540180825580915050600190039060005260206000200160009091909190916101000a81548173ffffffffffffffffffffffffffffffffffffffff021916908373ffffffffffffffffffffffffffffffffffffffff160217905550806080818152505050505062000380565b600033905090565b60008060009054906101000a900473ffffffffffffffffffffffffffffffffffffffff169050816000806101000a81548173ffffffffffffffffffffffffffffffffffffffff021916908373ffffffffffffffffffffffffffffffffffffffff1602179055508173ffffffffffffffffffffffffffffffffffffffff168173ffffffffffffffffffffffffffffffffffffffff167f8be0079c531659141344cd1fd0a4f28419497f9722a3daafe3b4186f6b6457e060405160405180910390a35050565b600080fd5b600073ffffffffffffffffffffffffffffffffffffffff82169050919050565b60006200029d8262000270565b9050919050565b6000620002b18262000290565b9050919050565b620002c381620002a4565b8114620002cf57600080fd5b50565b600081519050620002e381620002b8565b92915050565b6000819050919050565b620002fe81620002e9565b81146200030a57600080fd5b50565b6000815190506200031e81620002f3565b92915050565b60008060006060848603121562000340576200033f6200026b565b5b60006200035086828701620002d2565b93505060206200036386828701620002d2565b925050604062000376868287016200030d565b9150509250925092565b608051615eac620003e2600039600081816125650152818161294a015281816129f201528181612a9a01528181612b4701528181612bfd01528181612ca501528181612d5201528181612e0801528181612eb00152612f990152615eac6000f3fe608060405234801561001057600080fd5b50600436106102d55760003560e01c8063932cc8c311610182578063d07f390f116100e9578063f2fde38b116100a2578063fbfd393b1161007c578063fbfd393b14610a24578063fc7b9c1814610a54578063fd1ec01014610a72578063fff9ee8714610aa2576102d5565b8063f2fde38b146109bc578063f4281adb146109d8578063fb939588146109f4576102d5565b8063d07f390f146108c2578063d796ffb8146108e0578063df89b344146108fc578063e83afee31461092c578063ebd83cd81461095c578063ee4e19a11461098c576102d5565b8063bc157ac11161013b578063bc157ac1146107c6578063c24ad43e146107f6578063c25af4c614610826578063c95acac514610844578063cd85641a14610862578063d031370b14610892576102d5565b8063932cc8c3146106a6578063a1210a2d146106d6578063a569e57114610706578063ab319c9a14610736578063b1bd38b014610766578063b5b1d56014610796576102d5565b8063649363d611610241578063788c6c01116101fa5780638da5cb5b116101d45780638da5cb5b1461060a5780638f59c727146106285780638f6a7b57146106585780638f840ddd14610688576102d5565b8063788c6c011461057a578063869871bf146105aa57806387d67dff146105da576102d5565b8063649363d6146104a657806368c31dd5146104c45780636a20de92146104f45780636b5e40a71461051057806370a0502a14610540578063715018a614610570576102d5565b806312422d231161029357806312422d23146103c05780631af4da70146103dc5780631eec5a9a1461040c5780632b7ce5001461043c578063437f7912146104465780634e83423c14610476576102d5565b8062f714ce146102da5780630619aff1146102f6578063094a8651146103265780630b0eee30146103565780630c3513a814610372578063124154ca14610390575b600080fd5b6102f460048036038101906102ef9190614f15565b610ad2565b005b610310600480360381019061030b9190614f55565b610d58565b60405161031d9190614f91565b60405180910390f35b610340600480360381019061033b9190614fac565b610d97565b60405161034d9190614fe8565b60405180910390f35b610370600480360381019061036b9190615003565b610daf565b005b61037a61103f565b6040516103879190614fe8565b60405180910390f35b6103aa60048036038101906103a59190614fac565b6110ff565b6040516103b7919061505e565b60405180910390f35b6103da60048036038101906103d59190614f15565b61111f565b005b6103f660048036038101906103f19190614fac565b611565565b6040516104039190614f91565b60405180910390f35b61042660048036038101906104219190615003565b611598565b6040516104339190614fe8565b60405180910390f35b610444611865565b005b610460600480360381019061045b9190614f55565b611bb8565b60405161046d9190614f91565b60405180910390f35b610490600480360381019061048b9190614fac565b611bf7565b60405161049d919061505e565b60405180910390f35b6104ae611c17565b6040516104bb9190614fe8565b60405180910390f35b6104de60048036038101906104d99190614fac565b611c1d565b6040516104eb919061505e565b60405180910390f35b61050e60048036038101906105099190615003565b611c3d565b005b61052a60048036038101906105259190614f55565b611e0b565b6040516105379190614f91565b60405180910390f35b61055a60048036038101906105559190614f55565b611e4a565b6040516105679190614f91565b60405180910390f35b610578611e89565b005b610594600480360381019061058f9190614fac565b611f11565b6040516105a19190614fe8565b60405180910390f35b6105c460048036038101906105bf9190614f55565b611f29565b6040516105d19190614f91565b60405180910390f35b6105f460048036038101906105ef9190614fac565b611f68565b604051610601919061505e565b60405180910390f35b610612611f88565b60405161061f9190614f91565b60405180910390f35b610642600480360381019061063d9190614fac565b611fb1565b60405161064f9190614fe8565b60405180910390f35b610672600480360381019061066d9190614f55565b611fc9565b60405161067f9190614f91565b60405180910390f35b610690612008565b60405161069d9190614fe8565b60405180910390f35b6106c060048036038101906106bb9190614fac565b61200e565b6040516106cd9190614fe8565b60405180910390f35b6106f060048036038101906106eb9190614fac565b612026565b6040516106fd919061505e565b60405180910390f35b610720600480360381019061071b9190614fac565b612046565b60405161072d919061505e565b60405180910390f35b610750600480360381019061074b9190614fac565b612066565b60405161075d9190614fe8565b60405180910390f35b610780600480360381019061077b9190614fac565b61207e565b60405161078d9190614fe8565b60405180910390f35b6107b060048036038101906107ab9190614f55565b612096565b6040516107bd9190614f91565b60405180910390f35b6107e060048036038101906107db9190615079565b6120d5565b6040516107ed9190614fe8565b60405180910390f35b610810600480360381019061080b9190614fac565b6124a8565b60405161081d9190614fe8565b60405180910390f35b61082e6124c0565b60405161083b919061512b565b60405180910390f35b61084c6124e6565b604051610859919061512b565b60405180910390f35b61087c60048036038101906108779190614fac565b61250c565b6040516108899190614fe8565b60405180910390f35b6108ac60048036038101906108a79190614f55565b612524565b6040516108b99190614f91565b60405180910390f35b6108ca612563565b6040516108d79190614fe8565b60405180910390f35b6108fa60048036038101906108f59190614f15565b612587565b005b61091660048036038101906109119190614fac565b612840565b604051610923919061505e565b60405180910390f35b6109466004803603810190610941919061516b565b612860565b604051610953919061505e565b60405180910390f35b61097660048036038101906109719190614fac565b613039565b604051610983919061505e565b60405180910390f35b6109a660048036038101906109a19190614fac565b613059565b6040516109b3919061505e565b60405180910390f35b6109d660048036038101906109d19190614fac565b613079565b005b6109f260048036038101906109ed9190614f55565b613171565b005b610a0e6004803603810190610a099190614fac565b6133c8565b604051610a1b9190614fe8565b60405180910390f35b610a3e6004803603810190610a3991906151ab565b6133e0565b604051610a4b919061505e565b60405180910390f35b610a5c61458b565b604051610a699190614fe8565b60405180910390f35b610a8c6004803603810190610a879190614f55565b614591565b604051610a999190614f91565b60405180910390f35b610abc6004803603810190610ab79190614fac565b6145d0565b604051610ac99190614fe8565b60405180910390f35b600360008273ffffffffffffffffffffffffffffffffffffffff1673ffffffffffffffffffffffffffffffffffffffff16815260200190815260200160002060009054906101000a900460ff16610b5e576040517f08c379a0000000000000000000000000000000000000000000000000000000008152600401610b559061525b565b60405180910390fd5b60011515600960003373ffffffffffffffffffffffffffffffffffffffff1673ffffffffffffffffffffffffffffffffffffffff16815260200190815260200160002060009054906101000a900460ff16151514610bf1576040517f08c379a0000000000000000000000000000000000000000000000000000000008152600401610be8906152c7565b60405180910390fd5b6000610bfd8284611598565b9050600160009054906101000a900473ffffffffffffffffffffffffffffffffffffffff1673ffffffffffffffffffffffffffffffffffffffff166379cc679033836040518363ffffffff1660e01b8152600401610c5c9291906152e7565b600060405180830381600087803b158015610c7657600080fd5b505af1158015610c8a573d6000803e3d6000fd5b50505050610ca3816021546145e890919063ffffffff16565b6021819055506021547f93bb8edd35984706eee1b92541281f7f62d33c01c5b2ec0929a113603bd21d6660405160405180910390a2610d0333848473ffffffffffffffffffffffffffffffffffffffff166146329092919063ffffffff16565b8173ffffffffffffffffffffffffffffffffffffffff167fdf273cb619d95419a9cd0ec88123a0538c85064229baa6363788f743fff90deb8483604051610d4b929190615310565b60405180910390a2505050565b60128181548110610d6857600080fd5b906000526020600020016000915054906101000a900473ffffffffffffffffffffffffffffffffffffffff1681565b601b6020528060005260406000206000915090505481565b600c60008373ffffffffffffffffffffffffffffffffffffffff1673ffffffffffffffffffffffffffffffffffffffff16815260200190815260200160002060009054906101000a900460ff1615610e9257601660003373ffffffffffffffffffffffffffffffffffffffff1673ffffffffffffffffffffffffffffffffffffffff16815260200190815260200160002060009054906101000a900460ff16610e8d576040517f08c379a0000000000000000000000000000000000000000000000000000000008152600401610e84906152c7565b60405180910390fd5b610f1f565b601360003373ffffffffffffffffffffffffffffffffffffffff1673ffffffffffffffffffffffffffffffffffffffff16815260200190815260200160002060009054906101000a900460ff16610f1e576040517f08c379a0000000000000000000000000000000000000000000000000000000008152600401610f15906152c7565b60405180910390fd5b5b6000610f2b8383611598565b9050610f3561103f565b811115610f77576040517f08c379a0000000000000000000000000000000000000000000000000000000008152600401610f6e90615385565b60405180910390fd5b610f8c816021546145e890919063ffffffff16565b6021819055506021547f93bb8edd35984706eee1b92541281f7f62d33c01c5b2ec0929a113603bd21d6660405160405180910390a2610fec33838573ffffffffffffffffffffffffffffffffffffffff166146329092919063ffffffff16565b8273ffffffffffffffffffffffffffffffffffffffff167f2bb2640731848fe9820ba48dbc978c1fc9bbd5f11b948bfab05b7dee3378fd80836040516110329190614fe8565b60405180910390a2505050565b60006110fa6110e9602254600160009054906101000a900473ffffffffffffffffffffffffffffffffffffffff1673ffffffffffffffffffffffffffffffffffffffff166318160ddd6040518163ffffffff1660e01b8152600401602060405180830381865afa1580156110b7573d6000803e3d6000fd5b505050506040513d601f19601f820116820180604052508101906110db91906153ba565b6145e890919063ffffffff16565b6021546145e890919063ffffffff16565b905090565b60066020528060005260406000206000915054906101000a900460ff1681565b601960003373ffffffffffffffffffffffffffffffffffffffff1673ffffffffffffffffffffffffffffffffffffffff16815260200190815260200160002060009054906101000a900460ff166111ab576040517f08c379a00000000000000000000000000000000000000000000000000000000081526004016111a29061525b565b60405180910390fd5b600360008273ffffffffffffffffffffffffffffffffffffffff1673ffffffffffffffffffffffffffffffffffffffff16815260200190815260200160002060009054906101000a900460ff16611237576040517f08c379a000000000000000000000000000000000000000000000000000000000815260040161122e9061525b565b60405180910390fd5b60006112438284611598565b90506000601f60009054906101000a900473ffffffffffffffffffffffffffffffffffffffff1673ffffffffffffffffffffffffffffffffffffffff166370a08231336040518263ffffffff1660e01b81526004016112a29190614f91565b602060405180830381865afa1580156112bf573d6000803e3d6000fd5b505050506040513d601f19601f820116820180604052508101906112e391906153ba565b90506000611339601b60003373ffffffffffffffffffffffffffffffffffffffff1673ffffffffffffffffffffffffffffffffffffffff16815260200190815260200160002054836145e890919063ffffffff16565b90508083111561137e576040517f08c379a000000000000000000000000000000000000000000000000000000000815260040161137590615433565b60405180910390fd5b6113d083601b60003373ffffffffffffffffffffffffffffffffffffffff1673ffffffffffffffffffffffffffffffffffffffff168152602001908152602001600020546146b890919063ffffffff16565b601b60003373ffffffffffffffffffffffffffffffffffffffff1673ffffffffffffffffffffffffffffffffffffffff16815260200190815260200160002081905550611428836022546146b890919063ffffffff16565b602281905550611443836021546145e890919063ffffffff16565b6021819055506021547f93bb8edd35984706eee1b92541281f7f62d33c01c5b2ec0929a113603bd21d6660405160405180910390a28373ffffffffffffffffffffffffffffffffffffffff1663a9059cbb33876040518363ffffffff1660e01b81526004016114b39291906152e7565b6020604051808303816000875af11580156114d2573d6000803e3d6000fd5b505050506040513d601f19601f820116820180604052508101906114f6919061547f565b508373ffffffffffffffffffffffffffffffffffffffff163373ffffffffffffffffffffffffffffffffffffffff167f7e1a939bed137a819b5d2979822c67f877689f7a863d5e4cb57cdca97b2977d68786604051611556929190615310565b60405180910390a35050505050565b60116020528060005260406000206000915054906101000a900473ffffffffffffffffffffffffffffffffffffffff1681565b6000600360008473ffffffffffffffffffffffffffffffffffffffff1673ffffffffffffffffffffffffffffffffffffffff16815260200190815260200160002060009054906101000a900460ff161561172e576117278373ffffffffffffffffffffffffffffffffffffffff1663313ce5676040518163ffffffff1660e01b8152600401602060405180830381865afa15801561163a573d6000803e3d6000fd5b505050506040513d601f19601f8201168201806040525081019061165e91906154e5565b600a61166a9190615674565b611719600160009054906101000a900473ffffffffffffffffffffffffffffffffffffffff1673ffffffffffffffffffffffffffffffffffffffff1663313ce5676040518163ffffffff1660e01b8152600401602060405180830381865afa1580156116da573d6000803e3d6000fd5b505050506040513d601f19601f820116820180604052508101906116fe91906154e5565b600a61170a9190615674565b8561471690919063ffffffff16565b61479190919063ffffffff16565b905061185f565b600c60008473ffffffffffffffffffffffffffffffffffffffff1673ffffffffffffffffffffffffffffffffffffffff16815260200190815260200160002060009054906101000a900460ff161561185e57601160008473ffffffffffffffffffffffffffffffffffffffff1673ffffffffffffffffffffffffffffffffffffffff16815260200190815260200160002060009054906101000a900473ffffffffffffffffffffffffffffffffffffffff1673ffffffffffffffffffffffffffffffffffffffff16634249719f84846040518363ffffffff1660e01b815260040161181a9291906152e7565b602060405180830381865afa158015611837573d6000803e3d6000fd5b505050506040513d601f19601f8201168201806040525081019061185b91906153ba565b90505b5b92915050565b61186d6147db565b73ffffffffffffffffffffffffffffffffffffffff1661188b611f88565b73ffffffffffffffffffffffffffffffffffffffff16146118e1576040517f08c379a00000000000000000000000000000000000000000000000000000000081526004016118d89061570b565b60405180910390fd5b600080600090505b600280549050811015611a1c57611a076119f8600283815481106119105761190f61572b565b5b9060005260206000200160009054906101000a900473ffffffffffffffffffffffffffffffffffffffff166002848154811061194f5761194e61572b565b5b9060005260206000200160009054906101000a900473ffffffffffffffffffffffffffffffffffffffff1673ffffffffffffffffffffffffffffffffffffffff166370a08231306040518263ffffffff1660e01b81526004016119b29190614f91565b602060405180830381865afa1580156119cf573d6000803e3d6000fd5b505050506040513d601f19601f820116820180604052508101906119f391906153ba565b611598565b836146b890919063ffffffff16565b91508080611a149061575a565b9150506118e9565b5060005b600b80549050811015611b5357611b3e611b2f600b8381548110611a4757611a4661572b565b5b9060005260206000200160009054906101000a900473ffffffffffffffffffffffffffffffffffffffff16600b8481548110611a8657611a8561572b565b5b9060005260206000200160009054906101000a900473ffffffffffffffffffffffffffffffffffffffff1673ffffffffffffffffffffffffffffffffffffffff166370a08231306040518263ffffffff1660e01b8152600401611ae99190614f91565b602060405180830381865afa158015611b06573d6000803e3d6000fd5b505050506040513d601f19601f82011682018060405250810190611b2a91906153ba565b611598565b836146b890919063ffffffff16565b91508080611b4b9061575a565b915050611a20565b5080602181905550807f93bb8edd35984706eee1b92541281f7f62d33c01c5b2ec0929a113603bd21d6660405160405180910390a2807fec691f09f6924b27932253f85caf99bacc30360cc0e50a1cc4d2acc24601446660405160405180910390a250565b60088181548110611bc857600080fd5b906000526020600020016000915054906101000a900473ffffffffffffffffffffffffffffffffffffffff1681565b601d6020528060005260406000206000915054906101000a900460ff1681565b60205481565b60036020528060005260406000206000915054906101000a900460ff1681565b601d60003373ffffffffffffffffffffffffffffffffffffffff1673ffffffffffffffffffffffffffffffffffffffff16815260200190815260200160002060009054906101000a900460ff16611cc9576040517f08c379a0000000000000000000000000000000000000000000000000000000008152600401611cc0906152c7565b60405180910390fd5b611cd161103f565b811115611d13576040517f08c379a0000000000000000000000000000000000000000000000000000000008152600401611d0a90615385565b60405180910390fd5b600160009054906101000a900473ffffffffffffffffffffffffffffffffffffffff1673ffffffffffffffffffffffffffffffffffffffff166340c10f1983836040518363ffffffff1660e01b8152600401611d709291906152e7565b600060405180830381600087803b158015611d8a57600080fd5b505af1158015611d9e573d6000803e3d6000fd5b505050508173ffffffffffffffffffffffffffffffffffffffff163373ffffffffffffffffffffffffffffffffffffffff167ffa8ccab40e7da8146c2304cd0950334fd30a6ba093abe86261aa13911fed849c83604051611dff9190614fe8565b60405180910390a35050565b60058181548110611e1b57600080fd5b906000526020600020016000915054906101000a900473ffffffffffffffffffffffffffffffffffffffff1681565b60158181548110611e5a57600080fd5b906000526020600020016000915054906101000a900473ffffffffffffffffffffffffffffffffffffffff1681565b611e916147db565b73ffffffffffffffffffffffffffffffffffffffff16611eaf611f88565b73ffffffffffffffffffffffffffffffffffffffff1614611f05576040517f08c379a0000000000000000000000000000000000000000000000000000000008152600401611efc9061570b565b60405180910390fd5b611f0f60006147e3565b565b60046020528060005260406000206000915090505481565b60188181548110611f3957600080fd5b906000526020600020016000915054906101000a900473ffffffffffffffffffffffffffffffffffffffff1681565b60096020528060005260406000206000915054906101000a900460ff1681565b60008060009054906101000a900473ffffffffffffffffffffffffffffffffffffffff16905090565b600d6020528060005260406000206000915090505481565b600e8181548110611fd957600080fd5b906000526020600020016000915054906101000a900473ffffffffffffffffffffffffffffffffffffffff1681565b60215481565b60076020528060005260406000206000915090505481565b600f6020528060005260406000206000915054906101000a900460ff1681565b600c6020528060005260406000206000915054906101000a900460ff1681565b60176020528060005260406000206000915090505481565b60146020528060005260406000206000915090505481565b601c81815481106120a657600080fd5b906000526020600020016000915054906101000a900473ffffffffffffffffffffffffffffffffffffffff1681565b6000600360008473ffffffffffffffffffffffffffffffffffffffff1673ffffffffffffffffffffffffffffffffffffffff16815260200190815260200160002060009054906101000a900460ff16806121785750600c60008473ffffffffffffffffffffffffffffffffffffffff1673ffffffffffffffffffffffffffffffffffffffff16815260200190815260200160002060009054906101000a900460ff165b6121b7576040517f08c379a00000000000000000000000000000000000000000000000000000000081526004016121ae9061525b565b60405180910390fd5b6121e43330868673ffffffffffffffffffffffffffffffffffffffff166148a7909392919063ffffffff16565b600360008473ffffffffffffffffffffffffffffffffffffffff1673ffffffffffffffffffffffffffffffffffffffff16815260200190815260200160002060009054906101000a900460ff16156122c757600660003373ffffffffffffffffffffffffffffffffffffffff1673ffffffffffffffffffffffffffffffffffffffff16815260200190815260200160002060009054906101000a900460ff166122c2576040517f08c379a00000000000000000000000000000000000000000000000000000000081526004016122b9906152c7565b60405180910390fd5b612354565b600f60003373ffffffffffffffffffffffffffffffffffffffff1673ffffffffffffffffffffffffffffffffffffffff16815260200190815260200160002060009054906101000a900460ff16612353576040517f08c379a000000000000000000000000000000000000000000000000000000000815260040161234a906152c7565b60405180910390fd5b5b60006123608486611598565b905061237583826145e890919063ffffffff16565b9150600160009054906101000a900473ffffffffffffffffffffffffffffffffffffffff1673ffffffffffffffffffffffffffffffffffffffff166340c10f1933846040518363ffffffff1660e01b81526004016123d49291906152e7565b600060405180830381600087803b1580156123ee57600080fd5b505af1158015612402573d6000803e3d6000fd5b5050505061241b816021546146b890919063ffffffff16565b6021819055506021547f93bb8edd35984706eee1b92541281f7f62d33c01c5b2ec0929a113603bd21d6660405160405180910390a28373ffffffffffffffffffffffffffffffffffffffff167f90890809c654f11d6e72a28fa60149770a0d11ec6c92319d6ceb2bb0a4ea1a158683604051612498929190615310565b60405180910390a2509392505050565b600a6020528060005260406000206000915090505481565b600160009054906101000a900473ffffffffffffffffffffffffffffffffffffffff1681565b601f60009054906101000a900473ffffffffffffffffffffffffffffffffffffffff1681565b601a6020528060005260406000206000915090505481565b6002818154811061253457600080fd5b906000526020600020016000915054906101000a900473ffffffffffffffffffffffffffffffffffffffff1681565b7f000000000000000000000000000000000000000000000000000000000000000081565b601960003373ffffffffffffffffffffffffffffffffffffffff1673ffffffffffffffffffffffffffffffffffffffff16815260200190815260200160002060009054906101000a900460ff16612613576040517f08c379a000000000000000000000000000000000000000000000000000000000815260040161260a9061525b565b60405180910390fd5b600360008273ffffffffffffffffffffffffffffffffffffffff1673ffffffffffffffffffffffffffffffffffffffff16815260200190815260200160002060009054906101000a900460ff1661269f576040517f08c379a00000000000000000000000000000000000000000000000000000000081526004016126969061525b565b60405180910390fd5b6126cc3330848473ffffffffffffffffffffffffffffffffffffffff166148a7909392919063ffffffff16565b60006126d88284611598565b905061272c81601b60003373ffffffffffffffffffffffffffffffffffffffff1673ffffffffffffffffffffffffffffffffffffffff168152602001908152602001600020546145e890919063ffffffff16565b601b60003373ffffffffffffffffffffffffffffffffffffffff1673ffffffffffffffffffffffffffffffffffffffff16815260200190815260200160002081905550612784816022546145e890919063ffffffff16565b60228190555061279f816021546146b890919063ffffffff16565b6021819055506021547f93bb8edd35984706eee1b92541281f7f62d33c01c5b2ec0929a113603bd21d6660405160405180910390a28173ffffffffffffffffffffffffffffffffffffffff163373ffffffffffffffffffffffffffffffffffffffff167fc6d98eecfc9c78ab62c89a82950079b54874749f1f6f24090f7acc758bc2f3098584604051612833929190615310565b60405180910390a3505050565b60166020528060005260406000206000915054906101000a900460ff1681565b600061286a6147db565b73ffffffffffffffffffffffffffffffffffffffff16612888611f88565b73ffffffffffffffffffffffffffffffffffffffff16146128de576040517f08c379a00000000000000000000000000000000000000000000000000000000081526004016128d59061570b565b60405180910390fd5b600073ffffffffffffffffffffffffffffffffffffffff168273ffffffffffffffffffffffffffffffffffffffff16141561291857600080fd5b6000600981111561292c5761292b6157a3565b5b83600981111561293f5761293e6157a3565b5b14156129c0576129787f0000000000000000000000000000000000000000000000000000000000000000436146b890919063ffffffff16565b600760008473ffffffffffffffffffffffffffffffffffffffff1673ffffffffffffffffffffffffffffffffffffffff16815260200190815260200160002081905550612fe4565b600160098111156129d4576129d36157a3565b5b8360098111156129e7576129e66157a3565b5b1415612a6857612a207f0000000000000000000000000000000000000000000000000000000000000000436146b890919063ffffffff16565b600a60008473ffffffffffffffffffffffffffffffffffffffff1673ffffffffffffffffffffffffffffffffffffffff16815260200190815260200160002081905550612fe3565b60026009811115612a7c57612a7b6157a3565b5b836009811115612a8f57612a8e6157a3565b5b1415612b1057612ac87f0000000000000000000000000000000000000000000000000000000000000000436146b890919063ffffffff16565b600460008473ffffffffffffffffffffffffffffffffffffffff1673ffffffffffffffffffffffffffffffffffffffff16815260200190815260200160002081905550612fe2565b60036009811115612b2457612b236157a3565b5b836009811115612b3757612b366157a3565b5b1415612bcb57612b83612b7460027f000000000000000000000000000000000000000000000000000000000000000061471690919063ffffffff16565b436146b890919063ffffffff16565b601460008473ffffffffffffffffffffffffffffffffffffffff1673ffffffffffffffffffffffffffffffffffffffff16815260200190815260200160002081905550612fe1565b60046009811115612bdf57612bde6157a3565b5b836009811115612bf257612bf16157a3565b5b1415612c7357612c2b7f0000000000000000000000000000000000000000000000000000000000000000436146b890919063ffffffff16565b601060008473ffffffffffffffffffffffffffffffffffffffff1673ffffffffffffffffffffffffffffffffffffffff16815260200190815260200160002081905550612fe0565b60056009811115612c8757612c866157a3565b5b836009811115612c9a57612c996157a3565b5b1415612d1b57612cd37f0000000000000000000000000000000000000000000000000000000000000000436146b890919063ffffffff16565b600d60008473ffffffffffffffffffffffffffffffffffffffff1673ffffffffffffffffffffffffffffffffffffffff16815260200190815260200160002081905550612fdf565b60066009811115612d2f57612d2e6157a3565b5b836009811115612d4257612d416157a3565b5b1415612dd657612d8e612d7f60027f000000000000000000000000000000000000000000000000000000000000000061471690919063ffffffff16565b436146b890919063ffffffff16565b601760008473ffffffffffffffffffffffffffffffffffffffff1673ffffffffffffffffffffffffffffffffffffffff16815260200190815260200160002081905550612fde565b60076009811115612dea57612de96157a3565b5b836009811115612dfd57612dfc6157a3565b5b1415612e7e57612e367f0000000000000000000000000000000000000000000000000000000000000000436146b890919063ffffffff16565b601a60008473ffffffffffffffffffffffffffffffffffffffff1673ffffffffffffffffffffffffffffffffffffffff16815260200190815260200160002081905550612fdd565b60086009811115612e9257612e916157a3565b5b836009811115612ea557612ea46157a3565b5b1415612f6857612ede7f0000000000000000000000000000000000000000000000000000000000000000436146b890919063ffffffff16565b601e60008473ffffffffffffffffffffffffffffffffffffffff1673ffffffffffffffffffffffffffffffffffffffff168152602001908152602001600020819055601e60008473ffffffffffffffffffffffffffffffffffffffff1673ffffffffffffffffffffffffffffffffffffffff16815260200190815260200160002081905550612fdc565b600980811115612f7b57612f7a6157a3565b5b836009811115612f8e57612f8d6157a3565b5b1415612fd257612fc77f0000000000000000000000000000000000000000000000000000000000000000436146b890919063ffffffff16565b602081905550612fdb565b60009050613033565b5b5b5b5b5b5b5b5b5b826009811115612ff757612ff66157a3565b5b7f0e4f2c4b5bc209d509bc3d49348c787fefadc66a79351b470599ac0f5be52eaf836040516130269190614f91565b60405180910390a2600190505b92915050565b60136020528060005260406000206000915054906101000a900460ff1681565b60196020528060005260406000206000915054906101000a900460ff1681565b6130816147db565b73ffffffffffffffffffffffffffffffffffffffff1661309f611f88565b73ffffffffffffffffffffffffffffffffffffffff16146130f5576040517f08c379a00000000000000000000000000000000000000000000000000000000081526004016130ec9061570b565b60405180910390fd5b600073ffffffffffffffffffffffffffffffffffffffff168173ffffffffffffffffffffffffffffffffffffffff161415613165576040517f08c379a000000000000000000000000000000000000000000000000000000000815260040161315c90615844565b60405180910390fd5b61316e816147e3565b50565b601960003373ffffffffffffffffffffffffffffffffffffffff1673ffffffffffffffffffffffffffffffffffffffff16815260200190815260200160002060009054906101000a900460ff166131fd576040517f08c379a00000000000000000000000000000000000000000000000000000000081526004016131f4906152c7565b60405180910390fd5b600160009054906101000a900473ffffffffffffffffffffffffffffffffffffffff1673ffffffffffffffffffffffffffffffffffffffff166379cc679033836040518363ffffffff1660e01b815260040161325a9291906152e7565b600060405180830381600087803b15801561327457600080fd5b505af1158015613288573d6000803e3d6000fd5b505050506132de81601b60003373ffffffffffffffffffffffffffffffffffffffff1673ffffffffffffffffffffffffffffffffffffffff168152602001908152602001600020546145e890919063ffffffff16565b601b60003373ffffffffffffffffffffffffffffffffffffffff1673ffffffffffffffffffffffffffffffffffffffff16815260200190815260200160002081905550613336816022546145e890919063ffffffff16565b602281905550600160009054906101000a900473ffffffffffffffffffffffffffffffffffffffff1673ffffffffffffffffffffffffffffffffffffffff163373ffffffffffffffffffffffffffffffffffffffff167fc6d98eecfc9c78ab62c89a82950079b54874749f1f6f24090f7acc758bc2f30983846040516133bd929190615310565b60405180910390a350565b601e6020528060005260406000206000915090505481565b60006133ea6147db565b73ffffffffffffffffffffffffffffffffffffffff16613408611f88565b73ffffffffffffffffffffffffffffffffffffffff161461345e576040517f08c379a00000000000000000000000000000000000000000000000000000000081526004016134559061570b565b60405180910390fd5b600073ffffffffffffffffffffffffffffffffffffffff168373ffffffffffffffffffffffffffffffffffffffff16141561349857600080fd5b60008060098111156134ad576134ac6157a3565b5b8560098111156134c0576134bf6157a3565b5b141561363d576134d36007600686614930565b15613591576000600760008673ffffffffffffffffffffffffffffffffffffffff1673ffffffffffffffffffffffffffffffffffffffff16815260200190815260200160002081905550613528600585614a9a565b613590576005849080600181540180825580915050600190039060005260206000200160009091909190916101000a81548173ffffffffffffffffffffffffffffffffffffffff021916908373ffffffffffffffffffffffffffffffffffffffff1602179055505b5b600660008573ffffffffffffffffffffffffffffffffffffffff1673ffffffffffffffffffffffffffffffffffffffff16815260200190815260200160002060009054906101000a900460ff1615905080600660008673ffffffffffffffffffffffffffffffffffffffff1673ffffffffffffffffffffffffffffffffffffffff16815260200190815260200160002060006101000a81548160ff021916908315150217905550614532565b60016009811115613651576136506157a3565b5b856009811115613664576136636157a3565b5b14156137e157613677600a600986614930565b15613735576000600a60008673ffffffffffffffffffffffffffffffffffffffff1673ffffffffffffffffffffffffffffffffffffffff168152602001908152602001600020819055506136cc600885614a9a565b613734576008849080600181540180825580915050600190039060005260206000200160009091909190916101000a81548173ffffffffffffffffffffffffffffffffffffffff021916908373ffffffffffffffffffffffffffffffffffffffff1602179055505b5b600960008573ffffffffffffffffffffffffffffffffffffffff1673ffffffffffffffffffffffffffffffffffffffff16815260200190815260200160002060009054906101000a900460ff1615905080600960008673ffffffffffffffffffffffffffffffffffffffff1673ffffffffffffffffffffffffffffffffffffffff16815260200190815260200160002060006101000a81548160ff021916908315150217905550614531565b600260098111156137f5576137f46157a3565b5b856009811115613808576138076157a3565b5b14156139855761381b6004600386614930565b156138d9576000600460008673ffffffffffffffffffffffffffffffffffffffff1673ffffffffffffffffffffffffffffffffffffffff16815260200190815260200160002081905550613870600285614a9a565b6138d8576002849080600181540180825580915050600190039060005260206000200160009091909190916101000a81548173ffffffffffffffffffffffffffffffffffffffff021916908373ffffffffffffffffffffffffffffffffffffffff1602179055505b5b600360008573ffffffffffffffffffffffffffffffffffffffff1673ffffffffffffffffffffffffffffffffffffffff16815260200190815260200160002060009054906101000a900460ff1615905080600360008673ffffffffffffffffffffffffffffffffffffffff1673ffffffffffffffffffffffffffffffffffffffff16815260200190815260200160002060006101000a81548160ff021916908315150217905550614530565b60036009811115613999576139986157a3565b5b8560098111156139ac576139ab6157a3565b5b1415613b8c576139bf6014601386614930565b15613ae0576012849080600181540180825580915050600190039060005260206000200160009091909190916101000a81548173ffffffffffffffffffffffffffffffffffffffff021916908373ffffffffffffffffffffffffffffffffffffffff1602179055506000601460008673ffffffffffffffffffffffffffffffffffffffff1673ffffffffffffffffffffffffffffffffffffffff16815260200190815260200160002081905550613a77601285614a9a565b613adf576012849080600181540180825580915050600190039060005260206000200160009091909190916101000a81548173ffffffffffffffffffffffffffffffffffffffff021916908373ffffffffffffffffffffffffffffffffffffffff1602179055505b5b601360008573ffffffffffffffffffffffffffffffffffffffff1673ffffffffffffffffffffffffffffffffffffffff16815260200190815260200160002060009054906101000a900460ff1615905080601360008673ffffffffffffffffffffffffffffffffffffffff1673ffffffffffffffffffffffffffffffffffffffff16815260200190815260200160002060006101000a81548160ff02191690831515021790555061452f565b60046009811115613ba057613b9f6157a3565b5b856009811115613bb357613bb26157a3565b5b1415613d9357613bc66010600f86614930565b15613ce757600e849080600181540180825580915050600190039060005260206000200160009091909190916101000a81548173ffffffffffffffffffffffffffffffffffffffff021916908373ffffffffffffffffffffffffffffffffffffffff1602179055506000601060008673ffffffffffffffffffffffffffffffffffffffff1673ffffffffffffffffffffffffffffffffffffffff16815260200190815260200160002081905550613c7e600e85614a9a565b613ce657600e849080600181540180825580915050600190039060005260206000200160009091909190916101000a81548173ffffffffffffffffffffffffffffffffffffffff021916908373ffffffffffffffffffffffffffffffffffffffff1602179055505b5b600f60008573ffffffffffffffffffffffffffffffffffffffff1673ffffffffffffffffffffffffffffffffffffffff16815260200190815260200160002060009054906101000a900460ff1615905080600f60008673ffffffffffffffffffffffffffffffffffffffff1673ffffffffffffffffffffffffffffffffffffffff16815260200190815260200160002060006101000a81548160ff02191690831515021790555061452e565b60056009811115613da757613da66157a3565b5b856009811115613dba57613db96157a3565b5b1415613fb557613dcd600d600c86614930565b15613e8b576000600d60008673ffffffffffffffffffffffffffffffffffffffff1673ffffffffffffffffffffffffffffffffffffffff16815260200190815260200160002081905550613e22600b85614a9a565b613e8a57600b849080600181540180825580915050600190039060005260206000200160009091909190916101000a81548173ffffffffffffffffffffffffffffffffffffffff021916908373ffffffffffffffffffffffffffffffffffffffff1602179055505b5b600c60008573ffffffffffffffffffffffffffffffffffffffff1673ffffffffffffffffffffffffffffffffffffffff16815260200190815260200160002060009054906101000a900460ff1615905080600c60008673ffffffffffffffffffffffffffffffffffffffff1673ffffffffffffffffffffffffffffffffffffffff16815260200190815260200160002060006101000a81548160ff02191690831515021790555082601160008673ffffffffffffffffffffffffffffffffffffffff1673ffffffffffffffffffffffffffffffffffffffff16815260200190815260200160002060006101000a81548173ffffffffffffffffffffffffffffffffffffffff021916908373ffffffffffffffffffffffffffffffffffffffff16021790555061452d565b60066009811115613fc957613fc86157a3565b5b856009811115613fdc57613fdb6157a3565b5b141561415957613fef6017601686614930565b156140ad576000601760008673ffffffffffffffffffffffffffffffffffffffff1673ffffffffffffffffffffffffffffffffffffffff16815260200190815260200160002081905550614044601585614a9a565b6140ac576015849080600181540180825580915050600190039060005260206000200160009091909190916101000a81548173ffffffffffffffffffffffffffffffffffffffff021916908373ffffffffffffffffffffffffffffffffffffffff1602179055505b5b601660008573ffffffffffffffffffffffffffffffffffffffff1673ffffffffffffffffffffffffffffffffffffffff16815260200190815260200160002060009054906101000a900460ff1615905080601660008673ffffffffffffffffffffffffffffffffffffffff1673ffffffffffffffffffffffffffffffffffffffff16815260200190815260200160002060006101000a81548160ff02191690831515021790555061452c565b6007600981111561416d5761416c6157a3565b5b8560098111156141805761417f6157a3565b5b14156142fd57614193601a601986614930565b15614251576000601a60008673ffffffffffffffffffffffffffffffffffffffff1673ffffffffffffffffffffffffffffffffffffffff168152602001908152602001600020819055506141e8601885614a9a565b614250576018849080600181540180825580915050600190039060005260206000200160009091909190916101000a81548173ffffffffffffffffffffffffffffffffffffffff021916908373ffffffffffffffffffffffffffffffffffffffff1602179055505b5b601960008573ffffffffffffffffffffffffffffffffffffffff1673ffffffffffffffffffffffffffffffffffffffff16815260200190815260200160002060009054906101000a900460ff1615905080601960008673ffffffffffffffffffffffffffffffffffffffff1673ffffffffffffffffffffffffffffffffffffffff16815260200190815260200160002060006101000a81548160ff02191690831515021790555061452b565b60086009811115614311576143106157a3565b5b856009811115614324576143236157a3565b5b14156144a157614337601e601d86614930565b156143f5576000601e60008673ffffffffffffffffffffffffffffffffffffffff1673ffffffffffffffffffffffffffffffffffffffff1681526020019081526020016000208190555061438c601c85614a9a565b6143f457601c849080600181540180825580915050600190039060005260206000200160009091909190916101000a81548173ffffffffffffffffffffffffffffffffffffffff021916908373ffffffffffffffffffffffffffffffffffffffff1602179055505b5b601d60008573ffffffffffffffffffffffffffffffffffffffff1673ffffffffffffffffffffffffffffffffffffffff16815260200190815260200160002060009054906101000a900460ff1615905080601d60008673ffffffffffffffffffffffffffffffffffffffff1673ffffffffffffffffffffffffffffffffffffffff16815260200190815260200160002060006101000a81548160ff02191690831515021790555061452a565b6009808111156144b4576144b36157a3565b5b8560098111156144c7576144c66157a3565b5b141561451f57600060208190555083601f60006101000a81548173ffffffffffffffffffffffffffffffffffffffff021916908373ffffffffffffffffffffffffffffffffffffffff16021790555060019050614529565b6000915050614584565b5b5b5b5b5b5b5b5b5b846009811115614545576145446157a3565b5b7f0dcacb7e392f3d6a216ed2660e3dcfd40b7793d33591db2ba185a6b8e44fc4778583604051614576929190615864565b60405180910390a260019150505b9392505050565b60225481565b600b81815481106145a157600080fd5b906000526020600020016000915054906101000a900473ffffffffffffffffffffffffffffffffffffffff1681565b60106020528060005260406000206000915090505481565b600061462a83836040518060400160405280601e81526020017f536166654d6174683a207375627472616374696f6e206f766572666c6f770000815250614b48565b905092915050565b6146b38363a9059cbb60e01b84846040516024016146519291906152e7565b604051602081830303815290604052907bffffffffffffffffffffffffffffffffffffffffffffffffffffffff19166020820180517bffffffffffffffffffffffffffffffffffffffffffffffffffffffff8381831617835250505050614bac565b505050565b60008082846146c7919061588d565b90508381101561470c576040517f08c379a00000000000000000000000000000000000000000000000000000000081526004016147039061592f565b60405180910390fd5b8091505092915050565b600080831415614729576000905061478b565b60008284614737919061594f565b905082848261474691906159d8565b14614786576040517f08c379a000000000000000000000000000000000000000000000000000000000815260040161477d90615a7b565b60405180910390fd5b809150505b92915050565b60006147d383836040518060400160405280601a81526020017f536166654d6174683a206469766973696f6e206279207a65726f000000000000815250614c73565b905092915050565b600033905090565b60008060009054906101000a900473ffffffffffffffffffffffffffffffffffffffff169050816000806101000a81548173ffffffffffffffffffffffffffffffffffffffff021916908373ffffffffffffffffffffffffffffffffffffffff1602179055508173ffffffffffffffffffffffffffffffffffffffff168173ffffffffffffffffffffffffffffffffffffffff167f8be0079c531659141344cd1fd0a4f28419497f9722a3daafe3b4186f6b6457e060405160405180910390a35050565b61492a846323b872dd60e01b8585856040516024016148c893929190615a9b565b604051602081830303815290604052907bffffffffffffffffffffffffffffffffffffffffffffffffffffffff19166020820180517bffffffffffffffffffffffffffffffffffffffffffffffffffffffff8381831617835250505050614bac565b50505050565b60008260008373ffffffffffffffffffffffffffffffffffffffff1673ffffffffffffffffffffffffffffffffffffffff16815260200190815260200160002060009054906101000a900460ff16614a8e5760008460008473ffffffffffffffffffffffffffffffffffffffff1673ffffffffffffffffffffffffffffffffffffffff168152602001908152602001600020541415614a04576040517f08c379a00000000000000000000000000000000000000000000000000000000081526004016149fb90615b1e565b60405180910390fd5b438460008473ffffffffffffffffffffffffffffffffffffffff1673ffffffffffffffffffffffffffffffffffffffff168152602001908152602001600020541115614a85576040517f08c379a0000000000000000000000000000000000000000000000000000000008152600401614a7c90615b8a565b60405180910390fd5b60019050614a93565b600090505b9392505050565b600080600090505b8380549050811015614b3c578273ffffffffffffffffffffffffffffffffffffffff16848281548110614ad857614ad761572b565b5b9060005260206000200160009054906101000a900473ffffffffffffffffffffffffffffffffffffffff1673ffffffffffffffffffffffffffffffffffffffff161415614b29576001915050614b42565b8080614b349061575a565b915050614aa2565b50600090505b92915050565b6000838311158290614b90576040517f08c379a0000000000000000000000000000000000000000000000000000000008152600401614b879190615c32565b60405180910390fd5b5060008385614b9f9190615c54565b9050809150509392505050565b6000614c0e826040518060400160405280602081526020017f5361666545524332303a206c6f772d6c6576656c2063616c6c206661696c65648152508573ffffffffffffffffffffffffffffffffffffffff16614cd69092919063ffffffff16565b9050600081511115614c6e5780806020019051810190614c2e919061547f565b614c6d576040517f08c379a0000000000000000000000000000000000000000000000000000000008152600401614c6490615cfa565b60405180910390fd5b5b505050565b60008083118290614cba576040517f08c379a0000000000000000000000000000000000000000000000000000000008152600401614cb19190615c32565b60405180910390fd5b5060008385614cc991906159d8565b9050809150509392505050565b6060614ce58484600085614cee565b90509392505050565b606082471015614d33576040517f08c379a0000000000000000000000000000000000000000000000000000000008152600401614d2a90615d8c565b60405180910390fd5b614d3c85614e02565b614d7b576040517f08c379a0000000000000000000000000000000000000000000000000000000008152600401614d7290615df8565b60405180910390fd5b6000808673ffffffffffffffffffffffffffffffffffffffff168587604051614da49190615e5f565b60006040518083038185875af1925050503d8060008114614de1576040519150601f19603f3d011682016040523d82523d6000602084013e614de6565b606091505b5091509150614df6828286614e15565b92505050949350505050565b600080823b905060008111915050919050565b60608315614e2557829050614e75565b600083511115614e385782518084602001fd5b816040517f08c379a0000000000000000000000000000000000000000000000000000000008152600401614e6c9190615c32565b60405180910390fd5b9392505050565b600080fd5b6000819050919050565b614e9481614e81565b8114614e9f57600080fd5b50565b600081359050614eb181614e8b565b92915050565b600073ffffffffffffffffffffffffffffffffffffffff82169050919050565b6000614ee282614eb7565b9050919050565b614ef281614ed7565b8114614efd57600080fd5b50565b600081359050614f0f81614ee9565b92915050565b60008060408385031215614f2c57614f2b614e7c565b5b6000614f3a85828601614ea2565b9250506020614f4b85828601614f00565b9150509250929050565b600060208284031215614f6b57614f6a614e7c565b5b6000614f7984828501614ea2565b91505092915050565b614f8b81614ed7565b82525050565b6000602082019050614fa66000830184614f82565b92915050565b600060208284031215614fc257614fc1614e7c565b5b6000614fd084828501614f00565b91505092915050565b614fe281614e81565b82525050565b6000602082019050614ffd6000830184614fd9565b92915050565b6000806040838503121561501a57615019614e7c565b5b600061502885828601614f00565b925050602061503985828601614ea2565b9150509250929050565b60008115159050919050565b61505881615043565b82525050565b6000602082019050615073600083018461504f565b92915050565b60008060006060848603121561509257615091614e7c565b5b60006150a086828701614ea2565b93505060206150b186828701614f00565b92505060406150c286828701614ea2565b9150509250925092565b6000819050919050565b60006150f16150ec6150e784614eb7565b6150cc565b614eb7565b9050919050565b6000615103826150d6565b9050919050565b6000615115826150f8565b9050919050565b6151258161510a565b82525050565b6000602082019050615140600083018461511c565b92915050565b600a811061515357600080fd5b50565b60008135905061516581615146565b92915050565b6000806040838503121561518257615181614e7c565b5b600061519085828601615156565b92505060206151a185828601614f00565b9150509250929050565b6000806000606084860312156151c4576151c3614e7c565b5b60006151d286828701615156565b93505060206151e386828701614f00565b92505060406151f486828701614f00565b9150509250925092565b600082825260208201905092915050565b7f4e41000000000000000000000000000000000000000000000000000000000000600082015250565b60006152456002836151fe565b91506152508261520f565b602082019050919050565b6000602082019050818103600083015261527481615238565b9050919050565b7f4e41505000000000000000000000000000000000000000000000000000000000600082015250565b60006152b16004836151fe565b91506152bc8261527b565b602082019050919050565b600060208201905081810360008301526152e0816152a4565b9050919050565b60006040820190506152fc6000830185614f82565b6153096020830184614fd9565b9392505050565b60006040820190506153256000830185614fd9565b6153326020830184614fd9565b9392505050565b7f4952000000000000000000000000000000000000000000000000000000000000600082015250565b600061536f6002836151fe565b915061537a82615339565b602082019050919050565b6000602082019050818103600083015261539e81615362565b9050919050565b6000815190506153b481614e8b565b92915050565b6000602082840312156153d0576153cf614e7c565b5b60006153de848285016153a5565b91505092915050565b7f45786365656473444c0000000000000000000000000000000000000000000000600082015250565b600061541d6009836151fe565b9150615428826153e7565b602082019050919050565b6000602082019050818103600083015261544c81615410565b9050919050565b61545c81615043565b811461546757600080fd5b50565b60008151905061547981615453565b92915050565b60006020828403121561549557615494614e7c565b5b60006154a38482850161546a565b91505092915050565b600060ff82169050919050565b6154c2816154ac565b81146154cd57600080fd5b50565b6000815190506154df816154b9565b92915050565b6000602082840312156154fb576154fa614e7c565b5b6000615509848285016154d0565b91505092915050565b7f4e487b7100000000000000000000000000000000000000000000000000000000600052601160045260246000fd5b60008160011c9050919050565b6000808291508390505b60018511156155985780860481111561557457615573615512565b5b60018516156155835780820291505b808102905061559185615541565b9450615558565b94509492505050565b6000826155b1576001905061566d565b816155bf576000905061566d565b81600181146155d557600281146155df5761560e565b600191505061566d565b60ff8411156155f1576155f0615512565b5b8360020a91508482111561560857615607615512565b5b5061566d565b5060208310610133831016604e8410600b84101617156156435782820a90508381111561563e5761563d615512565b5b61566d565b615650848484600161554e565b9250905081840481111561566757615666615512565b5b81810290505b9392505050565b600061567f82614e81565b915061568a836154ac565b92506156b77fffffffffffffffffffffffffffffffffffffffffffffffffffffffffffffffff84846155a1565b905092915050565b7f4f776e61626c653a2063616c6c6572206973206e6f7420746865206f776e6572600082015250565b60006156f56020836151fe565b9150615700826156bf565b602082019050919050565b60006020820190508181036000830152615724816156e8565b9050919050565b7f4e487b7100000000000000000000000000000000000000000000000000000000600052603260045260246000fd5b600061576582614e81565b91507fffffffffffffffffffffffffffffffffffffffffffffffffffffffffffffffff82141561579857615797615512565b5b600182019050919050565b7f4e487b7100000000000000000000000000000000000000000000000000000000600052602160045260246000fd5b7f4f776e61626c653a206e6577206f776e657220697320746865207a65726f206160008201527f6464726573730000000000000000000000000000000000000000000000000000602082015250565b600061582e6026836151fe565b9150615839826157d2565b604082019050919050565b6000602082019050818103600083015261585d81615821565b9050919050565b60006040820190506158796000830185614f82565b615886602083018461504f565b9392505050565b600061589882614e81565b91506158a383614e81565b9250827fffffffffffffffffffffffffffffffffffffffffffffffffffffffffffffffff038211156158d8576158d7615512565b5b828201905092915050565b7f536166654d6174683a206164646974696f6e206f766572666c6f770000000000600082015250565b6000615919601b836151fe565b9150615924826158e3565b602082019050919050565b600060208201905081810360008301526159488161590c565b9050919050565b600061595a82614e81565b915061596583614e81565b9250817fffffffffffffffffffffffffffffffffffffffffffffffffffffffffffffffff048311821515161561599e5761599d615512565b5b828202905092915050565b7f4e487b7100000000000000000000000000000000000000000000000000000000600052601260045260246000fd5b60006159e382614e81565b91506159ee83614e81565b9250826159fe576159fd6159a9565b5b828204905092915050565b7f536166654d6174683a206d756c7469706c69636174696f6e206f766572666c6f60008201527f7700000000000000000000000000000000000000000000000000000000000000602082015250565b6000615a656021836151fe565b9150615a7082615a09565b604082019050919050565b60006020820190508181036000830152615a9481615a58565b9050919050565b6000606082019050615ab06000830186614f82565b615abd6020830185614f82565b615aca6040830184614fd9565b949350505050565b7f4d55000000000000000000000000000000000000000000000000000000000000600082015250565b6000615b086002836151fe565b9150615b1382615ad2565b602082019050919050565b60006020820190508181036000830152615b3781615afb565b9050919050565b7f514e450000000000000000000000000000000000000000000000000000000000600082015250565b6000615b746003836151fe565b9150615b7f82615b3e565b602082019050919050565b60006020820190508181036000830152615ba381615b67565b9050919050565b600081519050919050565b60005b83811015615bd3578082015181840152602081019050615bb8565b83811115615be2576000848401525b50505050565b6000601f19601f8301169050919050565b6000615c0482615baa565b615c0e81856151fe565b9350615c1e818560208601615bb5565b615c2781615be8565b840191505092915050565b60006020820190508181036000830152615c4c8184615bf9565b905092915050565b6000615c5f82614e81565b9150615c6a83614e81565b925082821015615c7d57615c7c615512565b5b828203905092915050565b7f5361666545524332303a204552433230206f7065726174696f6e20646964206e60008201527f6f74207375636365656400000000000000000000000000000000000000000000602082015250565b6000615ce4602a836151fe565b9150615cef82615c88565b604082019050919050565b60006020820190508181036000830152615d1381615cd7565b9050919050565b7f416464726573733a20696e73756666696369656e742062616c616e636520666f60008201527f722063616c6c0000000000000000000000000000000000000000000000000000602082015250565b6000615d766026836151fe565b9150615d8182615d1a565b604082019050919050565b60006020820190508181036000830152615da581615d69565b9050919050565b7f416464726573733a2063616c6c20746f206e6f6e2d636f6e7472616374000000600082015250565b6000615de2601d836151fe565b9150615ded82615dac565b602082019050919050565b60006020820190508181036000830152615e1181615dd5565b9050919050565b600081519050919050565b600081905092915050565b6000615e3982615e18565b615e438185615e23565b9350615e53818560208601615bb5565b80840191505092915050565b6000615e6b8284615e2e565b91508190509291505056fea26469706673582212209a3e28e640a52d24f8e977e6a708af7d9cf7264255a6aa865af3aeb2f70cbab464736f6c634300080a0033",
  "immutableReferences": {
    "11900": [
      {
        "length": 32,
        "start": 9573
      },
      {
        "length": 32,
        "start": 10570
      },
      {
        "length": 32,
        "start": 10738
      },
      {
        "length": 32,
        "start": 10906
      },
      {
        "length": 32,
        "start": 11079
      },
      {
        "length": 32,
        "start": 11261
      },
      {
        "length": 32,
        "start": 11429
      },
      {
        "length": 32,
        "start": 11602
      },
      {
        "length": 32,
        "start": 11784
      },
      {
        "length": 32,
        "start": 11952
      },
      {
        "length": 32,
        "start": 12185
      }
    ]
  },
  "source": "// SPDX-License-Identifier: AGPL-3.0-or-later\npragma solidity 0.8.10;\n\nimport \"@openzeppelin/contracts/access/Ownable.sol\";\nimport \"@openzeppelin/contracts/token/ERC20/ERC20.sol\";\nimport \"@openzeppelin/contracts/token/ERC20/utils/SafeERC20.sol\";\nimport \"@openzeppelin/contracts-upgradeable/proxy/utils/Initializable.sol\";\n\n\nlibrary SafeMath {\n\n    function add(uint256 a, uint256 b) internal pure returns (uint256) {\n        uint256 c = a + b;\n        require(c >= a, \"SafeMath: addition overflow\");\n\n        return c;\n    }\n\n    function add32(uint32 a, uint32 b) internal pure returns (uint32) {\n        uint32 c = a + b;\n        require(c >= a, \"SafeMath: addition overflow\");\n\n        return c;\n    }\n\n    function sub(uint256 a, uint256 b) internal pure returns (uint256) {\n        return sub(a, b, \"SafeMath: subtraction overflow\");\n    }\n\n    function sub(uint256 a, uint256 b, string memory errorMessage) internal pure returns (uint256) {\n        require(b <= a, errorMessage);\n        uint256 c = a - b;\n\n        return c;\n    }\n\n    function mul(uint256 a, uint256 b) internal pure returns (uint256) {\n        if (a == 0) {\n            return 0;\n        }\n\n        uint256 c = a * b;\n        require(c / a == b, \"SafeMath: multiplication overflow\");\n\n        return c;\n    }\n\n    function mul32(uint32 a, uint32 b) internal pure returns (uint32) {\n        if (a == 0) {\n            return 0;\n        }\n\n        uint32 c = a * b;\n        require(c / a == b, \"SafeMath: multiplication overflow\");\n\n        return c;\n    }\n\n    function div(uint256 a, uint256 b) internal pure returns (uint256) {\n        return div(a, b, \"SafeMath: division by zero\");\n    }\n\n    function div(uint256 a, uint256 b, string memory errorMessage) internal pure returns (uint256) {\n        require(b > 0, errorMessage);\n        uint256 c = a / b;\n        return c;\n    }\n}\n\ninterface IERC20Mintable {\n  function mint( uint256 amount_ ) external;\n\n  function mint( address account_, uint256 ammount_ ) external;\n}\ninterface IBOSSERC20 {\n    function burnFrom(address account_, uint256 amount_) external;\n}\n\ninterface IBondCalculator {\n  function valuation( address pair_, uint amount_ ) external view returns ( uint _value );\n}\n\ncontract BossTreasury is Ownable {\n\n    using SafeERC20 for IERC20;\n    using SafeMath for uint256;\n\n    event Deposit( address indexed token, uint amount, uint value );\n    event Withdrawal( address indexed token, uint amount, uint value );\n    event CreateDebt( address indexed debtor, address indexed token, uint amount, uint value );\n    event RepayDebt( address indexed debtor, address indexed token, uint amount, uint value );\n    event ReservesManaged( address indexed token, uint amount );\n    event ReservesUpdated( uint indexed totalReserves );\n    event ReservesAudited( uint indexed totalReserves );\n    event RewardsMinted( address indexed caller, address indexed recipient, uint amount );\n    event ChangeQueued( MANAGING indexed managing, address queued );\n    event ChangeActivated( MANAGING indexed managing, address activated, bool result );\n\n    enum MANAGING { RESERVEDEPOSITOR, RESERVESPENDER, RESERVETOKEN, RESERVEMANAGER, LIQUIDITYDEPOSITOR, LIQUIDITYTOKEN, LIQUIDITYMANAGER, DEBTOR, REWARDMANAGER, SBOSS }\n\n    IERC20 public BOSS;\n    uint public immutable blocksNeededForQueue;\n\n    address[] public reserveTokens; \n    mapping( address => bool ) public isReserveToken;\n    mapping( address => uint ) public reserveTokenQueue; \n\n    address[] public reserveDepositors; \n    mapping( address => bool ) public isReserveDepositor;\n    mapping( address => uint ) public reserveDepositorQueue; \n\n    address[] public reserveSpenders; \n    mapping( address => bool ) public isReserveSpender;\n    mapping( address => uint ) public reserveSpenderQueue; \n\n    address[] public liquidityTokens; \n    mapping( address => bool ) public isLiquidityToken;\n    mapping( address => uint ) public LiquidityTokenQueue; \n\n    address[] public liquidityDepositors; \n    mapping( address => bool ) public isLiquidityDepositor;\n    mapping( address => uint ) public LiquidityDepositorQueue;\n\n    mapping( address => address ) public bondCalculator; // \n\n    address[] public reserveManagers; \n    mapping( address => bool ) public isReserveManager;\n    mapping( address => uint ) public ReserveManagerQueue; \n\n    address[] public liquidityManagers; \n    mapping( address => bool ) public isLiquidityManager;\n    mapping( address => uint ) public LiquidityManagerQueue; \n\n    address[] public debtors; \n    mapping( address => bool ) public isDebtor;\n    mapping( address => uint ) public debtorQueue;\n    mapping( address => uint ) public debtorBalance;\n\n    address[] public rewardManagers; \n    mapping( address => bool ) public isRewardManager;\n    mapping( address => uint ) public rewardManagerQueue; \n\n    IERC20 public sBOSS;\n    uint public sBOSSQueue; \n    \n    uint public totalReserves; \n    uint public totalDebt;\n\n    constructor (\n        IERC20 _BOSS,\n        IERC20 _MIM,\n        uint _blocksNeededForQueue\n    ) {\n        require( address(_BOSS) != address(0) );\n        BOSS = _BOSS;\n\n       isLiquidityToken[ address(_MIM) ] = true;\n       liquidityTokens.push( address(_MIM) );\n\n        blocksNeededForQueue = _blocksNeededForQueue;\n    }\n\n    /**\n        @notice allow approved address to deposit an asset for BOSS\n        @param _amount uint\n        @param _token address\n        @param _profit uint\n        @return send_ uint\n     */\n    function deposit( uint _amount, address _token, uint _profit ) external returns ( uint send_ ) {\n        require( isReserveToken[ _token ] || isLiquidityToken[ _token ], \"NA\" );\n        IERC20( _token ).safeTransferFrom( msg.sender, address(this), _amount );\n\n        if ( isReserveToken[ _token ] ) {\n            require( isReserveDepositor[ msg.sender ], \"NAPP\" );\n        } else {\n            require( isLiquidityDepositor[ msg.sender ], \"NAPP\" );\n        }\n\n        uint value = valueOf(_token, _amount);\n        send_ =  value.sub(_profit);\n         IERC20Mintable( address(BOSS) ).mint( msg.sender, send_ );\n\n        totalReserves =  totalReserves.add(value);\n        emit ReservesUpdated( totalReserves );\n\n        emit Deposit( _token, _amount, value );\n    }\n\n    /**\n        @notice allow approved address to burn BOSS for reserves\n        @param _amount uint\n        @param _token address\n     */\n    function withdraw( uint _amount, address _token ) external {\n        require( isReserveToken[ _token ], \"NA\" ); \n        require( isReserveSpender[ msg.sender ] == true, \"NAPP\" );\n\n        uint value = valueOf( _token, _amount );\n        IBOSSERC20(address(BOSS)).burnFrom( msg.sender, value );\n\n        totalReserves =  totalReserves.sub(value);\n        emit ReservesUpdated( totalReserves );\n\n        IERC20( _token ).safeTransfer( msg.sender, _amount );\n\n        emit Withdrawal( _token, _amount, value );\n    }\n\n    /**\n        @notice allow approved address to borrow reserves\n        @param _amount uint\n        @param _token address\n     */\n    function incurDebt( uint _amount, address _token ) external {\n        require( isDebtor[ msg.sender ], \"NA\" );\n        require( isReserveToken[ _token ], \"NA\" );\n\n        uint value = valueOf( _token, _amount );\n\n        uint maximumDebt = sBOSS.balanceOf( msg.sender );\n        uint availableDebt = maximumDebt.sub(debtorBalance[ msg.sender ]);\n\n        require( value <= availableDebt, \"ExceedsDL\" );\n\n        debtorBalance[ msg.sender ] =  debtorBalance[ msg.sender ].add(value);\n        totalDebt =  totalDebt.add(value);\n  \n\n        totalReserves =  totalReserves.sub(value);\n        emit ReservesUpdated( totalReserves );\n\n        IERC20( _token ).transfer( msg.sender, _amount );\n        \n        emit CreateDebt( msg.sender, _token, _amount, value );\n    }\n\n    /**\n        @notice allow approved address to repay borrowed reserves with reserves\n        @param _amount uint\n        @param _token address\n     */\n    function repayDebtWithReserve( uint _amount, address _token ) external {\n        require( isDebtor[ msg.sender ], \"NA\" );\n        require( isReserveToken[ _token ], \"NA\" );\n        IERC20( _token ).safeTransferFrom( msg.sender, address(this), _amount );\n        uint value = valueOf( _token, _amount );\n        debtorBalance[ msg.sender ] = debtorBalance[ msg.sender ].sub(value);\n        totalDebt = totalDebt.sub(value);\n        totalReserves =  totalReserves.add(value);\n        emit ReservesUpdated( totalReserves );\n        emit RepayDebt( msg.sender, _token, _amount, value );\n    }\n\n    /**\n        @notice allow approved address to repay borrowed reserves with BOSS\n        @param _amount uint\n     */\n    function repayDebtWithBOSS( uint _amount ) external {\n        require( isDebtor[ msg.sender ], \"NAPP\" );\n        IBOSSERC20( address(BOSS) ).burnFrom( msg.sender, _amount );\n        debtorBalance[ msg.sender ] = debtorBalance[ msg.sender ].sub(_amount);\n        totalDebt =  totalDebt.sub(_amount);\n        emit RepayDebt( msg.sender, address(BOSS) , _amount, _amount );\n    }\n\n    /**\n        @notice allow approved address to withdraw assets\n        @param _token address\n        @param _amount uint\n     */\n    function manage( address _token, uint _amount ) external {\n        if( isLiquidityToken[ _token ] ) {\n            require( isLiquidityManager[ msg.sender ], \"NAPP\" );\n        } else {\n            require( isReserveManager[ msg.sender ], \"NAPP\" );\n        }\n\n        uint value = valueOf(_token, _amount);\n        require( value <= excessReserves(), \"IR\" );\n        totalReserves =  totalReserves.sub(value);\n        emit ReservesUpdated( totalReserves );\n\n        IERC20( _token ).safeTransfer( msg.sender, _amount );\n\n        emit ReservesManaged( _token, _amount );\n    }\n    /**\n        @notice send epoch reward to staking contract\n     */\n    function mintRewards( address _recipient, uint _amount ) external {\n        require( isRewardManager[ msg.sender ], \"NAPP\" );\n        require( _amount <= excessReserves(), \"IR\" );\n        IERC20Mintable( address(BOSS) ).mint( _recipient, _amount );\n        emit RewardsMinted( msg.sender, _recipient, _amount );\n    } \n\n    /**\n        @notice returns excess reserves not backing tokens\n        @return uint\n     */\n    function excessReserves() public view returns ( uint ) {\n        return totalReserves.sub( BOSS.totalSupply().sub( totalDebt ) );\n    }\n    /**\n        @notice takes inventory of all tracked assets\n        @notice always consolidate to recognized reserves before audit\n     */\n    function auditReserves() external onlyOwner {\n        uint reserves;\n        for( uint i = 0; i < reserveTokens.length; i++ ) {\n            reserves =  reserves.add ( \n                valueOf( reserveTokens[ i ], IERC20( reserveTokens[ i ] ).balanceOf( address(this) ) )\n             );\n        }\n        for( uint i = 0; i < liquidityTokens.length; i++ ) {\n            reserves =  reserves.add (\n                valueOf( liquidityTokens[ i ], IERC20( liquidityTokens[ i ] ).balanceOf( address(this) ) )\n            );\n        }\n        totalReserves = reserves;\n        emit ReservesUpdated( reserves );\n        emit ReservesAudited( reserves );\n    }\n    /**\n        @notice returns BOSS valuation of asset\n        @param _token address\n        @param _amount uint\n        @return value_ uint\n     */\n    function valueOf( address _token, uint _amount ) public view returns ( uint value_ ) {\n        if ( isReserveToken[ _token ] ) {\n            value_ =  _amount.mul( 10 ** ERC20( address(BOSS) ).decimals() ).div( 10 ** ERC20( _token ).decimals() );\n        } else if ( isLiquidityToken[ _token ] ) {\n            value_ = IBondCalculator( bondCalculator[ _token ] ).valuation( _token, _amount );\n        }\n    }\n    /**\n        @notice queue address to change boolean in mapping\n        @param _managing MANAGING\n        @param _address address\n        @return bool\n     */\n   function queue( MANAGING _managing, address _address ) external onlyOwner returns ( bool ) {\n        require( _address != address(0) );\n        if ( _managing == MANAGING.RESERVEDEPOSITOR ) { // 0\n            reserveDepositorQueue[ _address ] = block.number.add( blocksNeededForQueue );\n        } else if ( _managing == MANAGING.RESERVESPENDER ) { // 1\n            reserveSpenderQueue[ _address ] =  block.number.add( blocksNeededForQueue );\n        } else if ( _managing == MANAGING.RESERVETOKEN ) { // 2\n             reserveTokenQueue[ _address ] =  block.number.add( blocksNeededForQueue );\n        } else if ( _managing == MANAGING.RESERVEMANAGER ) { // 3\n            ReserveManagerQueue[ _address ] = block.number.add( blocksNeededForQueue.mul( 2 ) );\n        } else if ( _managing == MANAGING.LIQUIDITYDEPOSITOR ) { // 4\n            LiquidityDepositorQueue[ _address ] =  block.number.add( blocksNeededForQueue );\n        } else if ( _managing == MANAGING.LIQUIDITYTOKEN ) { // 5\n            LiquidityTokenQueue[ _address ] =  block.number.add( blocksNeededForQueue );\n        } else if ( _managing == MANAGING.LIQUIDITYMANAGER ) { // 6\n            LiquidityManagerQueue[ _address ] = block.number.add( blocksNeededForQueue.mul( 2 ) );\n        } else if ( _managing == MANAGING.DEBTOR ) { // 7\n            debtorQueue[ _address ] =  block.number.add( blocksNeededForQueue );\n         } else if ( _managing == MANAGING.REWARDMANAGER ) { // 8\n            rewardManagerQueue[ _address ] =  rewardManagerQueue[ _address ] = block.number.add( blocksNeededForQueue );\n        } else if ( _managing == MANAGING.SBOSS ) { // 9\n            sBOSSQueue = block.number.add( blocksNeededForQueue );\n        } else return false;\n\n        emit ChangeQueued( _managing, _address );\n        return true;\n    }\n\n    /**\n        @notice verify queue then set boolean in mapping\n        @param _managing MANAGING\n        @param _address address\n        @param _calculator address\n        @return bool\n     */\n    function toggle( MANAGING _managing, address _address, address _calculator ) external onlyOwner returns ( bool ) {\n        require( _address != address(0) );\n        bool result;\n        if ( _managing == MANAGING.RESERVEDEPOSITOR ) { // 0\n            if ( requirements( reserveDepositorQueue, isReserveDepositor, _address ) ) {\n                reserveDepositorQueue[ _address ] = 0;\n                if( !listContains( reserveDepositors, _address ) ) {\n                    reserveDepositors.push( _address );\n                }\n            }\n            result = !isReserveDepositor[ _address ];\n            isReserveDepositor[ _address ] = result;\n            \n        } else if ( _managing == MANAGING.RESERVESPENDER ) { // 1\n            if ( requirements( reserveSpenderQueue, isReserveSpender, _address ) ) {\n                reserveSpenderQueue[ _address ] = 0;\n                if( !listContains( reserveSpenders, _address ) ) {\n                    reserveSpenders.push( _address );\n                }\n            }\n            result = !isReserveSpender[ _address ];\n            isReserveSpender[ _address ] = result;\n\n        } else if ( _managing == MANAGING.RESERVETOKEN ) { // 2\n            if ( requirements( reserveTokenQueue, isReserveToken, _address ) ) {\n                reserveTokenQueue[ _address ] = 0;\n                if( !listContains( reserveTokens, _address ) ) {\n                    reserveTokens.push( _address );\n                }\n            }\n            result = !isReserveToken[ _address ];\n            isReserveToken[ _address ] = result;\n\n        } else if ( _managing == MANAGING.RESERVEMANAGER ) { // 3\n            if ( requirements( ReserveManagerQueue, isReserveManager, _address ) ) {\n                reserveManagers.push( _address );\n                ReserveManagerQueue[ _address ] = 0;\n                if( !listContains( reserveManagers, _address ) ) {\n                    reserveManagers.push( _address );\n                }\n            }\n            result = !isReserveManager[ _address ];\n            isReserveManager[ _address ] = result;\n\n        } else if ( _managing == MANAGING.LIQUIDITYDEPOSITOR ) { // 4\n            if ( requirements( LiquidityDepositorQueue, isLiquidityDepositor, _address ) ) {\n                liquidityDepositors.push( _address );\n                LiquidityDepositorQueue[ _address ] = 0;\n                if( !listContains( liquidityDepositors, _address ) ) {\n                    liquidityDepositors.push( _address );\n                }\n            }\n            result = !isLiquidityDepositor[ _address ];\n            isLiquidityDepositor[ _address ] = result;\n\n        } else if ( _managing == MANAGING.LIQUIDITYTOKEN ) { // 5\n            if ( requirements( LiquidityTokenQueue, isLiquidityToken, _address ) ) {\n                LiquidityTokenQueue[ _address ] = 0;\n                if( !listContains( liquidityTokens, _address ) ) {\n                    liquidityTokens.push( _address );\n                }\n            }\n            result = !isLiquidityToken[ _address ];\n            isLiquidityToken[ _address ] = result;\n            bondCalculator[ _address ] = _calculator;\n\n        } else if ( _managing == MANAGING.LIQUIDITYMANAGER ) { // 6\n            if ( requirements( LiquidityManagerQueue, isLiquidityManager, _address ) ) {\n                LiquidityManagerQueue[ _address ] = 0;\n                if( !listContains( liquidityManagers, _address ) ) {\n                    liquidityManagers.push( _address );\n                }\n            }\n            result = !isLiquidityManager[ _address ];\n            isLiquidityManager[ _address ] = result;\n\n        } else if ( _managing == MANAGING.DEBTOR ) { // 7\n            if ( requirements( debtorQueue, isDebtor, _address ) ) {\n                debtorQueue[ _address ] = 0;\n                if( !listContains( debtors, _address ) ) {\n                    debtors.push( _address );\n                }\n            }\n            result = !isDebtor[ _address ];\n            isDebtor[ _address ] = result;\n\n        } else if ( _managing == MANAGING.REWARDMANAGER ) { // 8\n            if ( requirements( rewardManagerQueue, isRewardManager, _address ) ) {\n                rewardManagerQueue[ _address ] = 0;\n                if( !listContains( rewardManagers, _address ) ) {\n                    rewardManagers.push( _address );\n                }\n            }\n            result = !isRewardManager[ _address ];\n            isRewardManager[ _address ] = result;\n\n        } else if ( _managing == MANAGING.SBOSS ) { // 9\n            sBOSSQueue = 0;\n            sBOSS  = IERC20(_address);\n            result = true;\n\n        } else return false;\n\n        emit ChangeActivated( _managing, _address, result );\n        return true;\n    }\n\n    /**\n        @notice checks requirements and returns altered structs\n        @param queue_ mapping( address => uint )\n        @param status_ mapping( address => bool )\n        @param _address address\n        @return bool \n     */\n    function requirements( \n        mapping( address => uint ) storage queue_, \n        mapping( address => bool ) storage status_, \n        address _address \n    ) internal view returns ( bool ) {\n        if ( !status_[ _address ] ) {\n            require( queue_[ _address ] != 0, \"MU\" );\n            require( queue_[ _address ] <= block.number, \"QNE\" );\n            return true;\n        } return false;\n    }\n\n    /**\n        @notice checks array to ensure against duplicate\n        @param _list address[]\n        @param _token address\n        @return bool\n     */\n    function listContains( address[] storage _list, address _token ) internal view returns ( bool ) {\n        for( uint i = 0; i < _list.length; i++ ) {\n            if( _list[ i ] == _token ) {\n                return true;\n            }\n        }\n        return false;\n    }\n}",
  "sourcePath": "/Users/samgville/Documents/Nostra DAO /nostra-dao-contracts/contracts/Treasury.sol",
  "compiler": {
    "name": "solc",
    "version": "0.8.10+commit.fc410830.Emscripten.clang"
  },
  "schemaVersion": "3.4.4",
  "updatedAt": "2022-01-21T00:17:48.972Z",
  "devdoc": {
    "kind": "dev",
    "methods": {
      "deposit(uint256,address,uint256)": {
        "params": {
          "_amount": "uint",
          "_profit": "uint",
          "_token": "address"
        },
        "returns": {
          "send_": "uint"
        }
      },
      "excessReserves()": {
        "returns": {
          "_0": "uint"
        }
      },
      "incurDebt(uint256,address)": {
        "params": {
          "_amount": "uint",
          "_token": "address"
        }
      },
      "manage(address,uint256)": {
        "params": {
          "_amount": "uint",
          "_token": "address"
        }
      },
      "owner()": {
        "details": "Returns the address of the current owner."
      },
      "queue(uint8,address)": {
        "params": {
          "_address": "address",
          "_managing": "MANAGING"
        },
        "returns": {
          "_0": "bool"
        }
      },
      "renounceOwnership()": {
        "details": "Leaves the contract without owner. It will not be possible to call `onlyOwner` functions anymore. Can only be called by the current owner. NOTE: Renouncing ownership will leave the contract without an owner, thereby removing any functionality that is only available to the owner."
      },
      "repayDebtWithBOSS(uint256)": {
        "params": {
          "_amount": "uint"
        }
      },
      "repayDebtWithReserve(uint256,address)": {
        "params": {
          "_amount": "uint",
          "_token": "address"
        }
      },
      "toggle(uint8,address,address)": {
        "params": {
          "_address": "address",
          "_calculator": "address",
          "_managing": "MANAGING"
        },
        "returns": {
          "_0": "bool"
        }
      },
      "transferOwnership(address)": {
        "details": "Transfers ownership of the contract to a new account (`newOwner`). Can only be called by the current owner."
      },
      "valueOf(address,uint256)": {
        "params": {
          "_amount": "uint",
          "_token": "address"
        },
        "returns": {
          "value_": "uint"
        }
      },
      "withdraw(uint256,address)": {
        "params": {
          "_amount": "uint",
          "_token": "address"
        }
      }
    },
    "version": 1
  },
  "userdoc": {
    "kind": "user",
    "methods": {
      "auditReserves()": {
        "notice": "takes inventory of all tracked assetsalways consolidate to recognized reserves before audit"
      },
      "deposit(uint256,address,uint256)": {
        "notice": "allow approved address to deposit an asset for BOSS"
      },
      "excessReserves()": {
        "notice": "returns excess reserves not backing tokens"
      },
      "incurDebt(uint256,address)": {
        "notice": "allow approved address to borrow reserves"
      },
      "manage(address,uint256)": {
        "notice": "allow approved address to withdraw assets"
      },
      "mintRewards(address,uint256)": {
        "notice": "send epoch reward to staking contract"
      },
      "queue(uint8,address)": {
        "notice": "queue address to change boolean in mapping"
      },
      "repayDebtWithBOSS(uint256)": {
        "notice": "allow approved address to repay borrowed reserves with BOSS"
      },
      "repayDebtWithReserve(uint256,address)": {
        "notice": "allow approved address to repay borrowed reserves with reserves"
      },
      "toggle(uint8,address,address)": {
        "notice": "verify queue then set boolean in mapping"
      },
      "valueOf(address,uint256)": {
        "notice": "returns BOSS valuation of asset"
      },
      "withdraw(uint256,address)": {
        "notice": "allow approved address to burn BOSS for reserves"
      }
    },
    "version": 1
  }
}