{
  "contractName": "BossStaking",
  "abi": [
    {
      "inputs": [
        {
          "internalType": "contract IERC20",
          "name": "_BOSS",
          "type": "address"
        },
        {
          "internalType": "contract IERC20",
          "name": "_sBOSS",
          "type": "address"
        },
        {
          "internalType": "uint256",
          "name": "_epochLength",
          "type": "uint256"
        },
        {
          "internalType": "uint256",
          "name": "_firstEpochNumber",
          "type": "uint256"
        },
        {
          "internalType": "uint256",
          "name": "_firstEpochBlock",
          "type": "uint256"
        }
      ],
      "stateMutability": "nonpayable",
      "type": "constructor"
    },
    {
      "anonymous": false,
      "inputs": [
        {
          "indexed": true,
          "internalType": "address",
          "name": "previousOwner",
          "type": "address"
        },
        {
          "indexed": true,
          "internalType": "address",
          "name": "newOwner",
          "type": "address"
        }
      ],
      "name": "OwnershipPulled",
      "type": "event"
    },
    {
      "anonymous": false,
      "inputs": [
        {
          "indexed": true,
          "internalType": "address",
          "name": "previousOwner",
          "type": "address"
        },
        {
          "indexed": true,
          "internalType": "address",
          "name": "newOwner",
          "type": "address"
        }
      ],
      "name": "OwnershipPushed",
      "type": "event"
    },
    {
      "inputs": [],
      "name": "BOSS",
      "outputs": [
        {
          "internalType": "contract IERC20",
          "name": "",
          "type": "address"
        }
      ],
      "stateMutability": "view",
      "type": "function"
    },
    {
      "inputs": [],
      "name": "distributor",
      "outputs": [
        {
          "internalType": "address",
          "name": "",
          "type": "address"
        }
      ],
      "stateMutability": "view",
      "type": "function"
    },
    {
      "inputs": [],
      "name": "epoch",
      "outputs": [
        {
          "internalType": "uint256",
          "name": "length",
          "type": "uint256"
        },
        {
          "internalType": "uint256",
          "name": "number",
          "type": "uint256"
        },
        {
          "internalType": "uint256",
          "name": "endBlock",
          "type": "uint256"
        },
        {
          "internalType": "uint256",
          "name": "distribute",
          "type": "uint256"
        }
      ],
      "stateMutability": "view",
      "type": "function"
    },
    {
      "inputs": [],
      "name": "locker",
      "outputs": [
        {
          "internalType": "address",
          "name": "",
          "type": "address"
        }
      ],
      "stateMutability": "view",
      "type": "function"
    },
    {
      "inputs": [],
      "name": "manager",
      "outputs": [
        {
          "internalType": "address",
          "name": "",
          "type": "address"
        }
      ],
      "stateMutability": "view",
      "type": "function"
    },
    {
      "inputs": [],
      "name": "pullManagement",
      "outputs": [],
      "stateMutability": "nonpayable",
      "type": "function"
    },
    {
      "inputs": [
        {
          "internalType": "address",
          "name": "newOwner_",
          "type": "address"
        }
      ],
      "name": "pushManagement",
      "outputs": [],
      "stateMutability": "nonpayable",
      "type": "function"
    },
    {
      "inputs": [],
      "name": "renounceManagement",
      "outputs": [],
      "stateMutability": "nonpayable",
      "type": "function"
    },
    {
      "inputs": [],
      "name": "sBOSS",
      "outputs": [
        {
          "internalType": "contract IERC20",
          "name": "",
          "type": "address"
        }
      ],
      "stateMutability": "view",
      "type": "function"
    },
    {
      "inputs": [],
      "name": "totalBonus",
      "outputs": [
        {
          "internalType": "uint256",
          "name": "",
          "type": "uint256"
        }
      ],
      "stateMutability": "view",
      "type": "function"
    },
    {
      "inputs": [],
      "name": "warmupContract",
      "outputs": [
        {
          "internalType": "address",
          "name": "",
          "type": "address"
        }
      ],
      "stateMutability": "view",
      "type": "function"
    },
    {
      "inputs": [
        {
          "internalType": "address",
          "name": "",
          "type": "address"
        }
      ],
      "name": "warmupInfo",
      "outputs": [
        {
          "internalType": "uint256",
          "name": "deposit",
          "type": "uint256"
        },
        {
          "internalType": "uint256",
          "name": "gons",
          "type": "uint256"
        },
        {
          "internalType": "uint256",
          "name": "expiry",
          "type": "uint256"
        },
        {
          "internalType": "bool",
          "name": "lock",
          "type": "bool"
        }
      ],
      "stateMutability": "view",
      "type": "function"
    },
    {
      "inputs": [],
      "name": "warmupPeriod",
      "outputs": [
        {
          "internalType": "uint256",
          "name": "",
          "type": "uint256"
        }
      ],
      "stateMutability": "view",
      "type": "function"
    },
    {
      "inputs": [
        {
          "internalType": "uint256",
          "name": "_amount",
          "type": "uint256"
        },
        {
          "internalType": "address",
          "name": "_recipient",
          "type": "address"
        }
      ],
      "name": "stake",
      "outputs": [
        {
          "internalType": "bool",
          "name": "",
          "type": "bool"
        }
      ],
      "stateMutability": "nonpayable",
      "type": "function"
    },
    {
      "inputs": [
        {
          "internalType": "address",
          "name": "_recipient",
          "type": "address"
        }
      ],
      "name": "claim",
      "outputs": [],
      "stateMutability": "nonpayable",
      "type": "function"
    },
    {
      "inputs": [],
      "name": "forfeit",
      "outputs": [],
      "stateMutability": "nonpayable",
      "type": "function"
    },
    {
      "inputs": [],
      "name": "toggleDepositLock",
      "outputs": [],
      "stateMutability": "nonpayable",
      "type": "function"
    },
    {
      "inputs": [
        {
          "internalType": "uint256",
          "name": "_amount",
          "type": "uint256"
        },
        {
          "internalType": "bool",
          "name": "_trigger",
          "type": "bool"
        }
      ],
      "name": "unstake",
      "outputs": [],
      "stateMutability": "nonpayable",
      "type": "function"
    },
    {
      "inputs": [],
      "name": "index",
      "outputs": [
        {
          "internalType": "uint256",
          "name": "",
          "type": "uint256"
        }
      ],
      "stateMutability": "view",
      "type": "function"
    },
    {
      "inputs": [],
      "name": "rebase",
      "outputs": [],
      "stateMutability": "nonpayable",
      "type": "function"
    },
    {
      "inputs": [],
      "name": "contractBalance",
      "outputs": [
        {
          "internalType": "uint256",
          "name": "",
          "type": "uint256"
        }
      ],
      "stateMutability": "view",
      "type": "function"
    },
    {
      "inputs": [
        {
          "internalType": "uint256",
          "name": "_amount",
          "type": "uint256"
        }
      ],
      "name": "giveLockBonus",
      "outputs": [],
      "stateMutability": "nonpayable",
      "type": "function"
    },
    {
      "inputs": [
        {
          "internalType": "uint256",
          "name": "_amount",
          "type": "uint256"
        }
      ],
      "name": "returnLockBonus",
      "outputs": [],
      "stateMutability": "nonpayable",
      "type": "function"
    },
    {
      "inputs": [
        {
          "internalType": "enum BossStaking.CONTRACTS",
          "name": "_contract",
          "type": "uint8"
        },
        {
          "internalType": "address",
          "name": "_address",
          "type": "address"
        }
      ],
      "name": "setContract",
      "outputs": [],
      "stateMutability": "nonpayable",
      "type": "function"
    },
    {
      "inputs": [
        {
          "internalType": "uint256",
          "name": "_warmupPeriod",
          "type": "uint256"
        }
      ],
      "name": "setWarmup",
      "outputs": [],
      "stateMutability": "nonpayable",
      "type": "function"
    }
  ],
  "bytecode": "0x60c06040523480156200001157600080fd5b5060405162003450380380620034508339818101604052810190620000379190620002e3565b336000806101000a81548173ffffffffffffffffffffffffffffffffffffffff021916908373ffffffffffffffffffffffffffffffffffffffff16021790555060008054906101000a900473ffffffffffffffffffffffffffffffffffffffff1673ffffffffffffffffffffffffffffffffffffffff16600073ffffffffffffffffffffffffffffffffffffffff167fea8258f2d9ddb679928cf34b78cf645b7feda9acc828e4dd82d014eaae270eba60405160405180910390a3600073ffffffffffffffffffffffffffffffffffffffff168573ffffffffffffffffffffffffffffffffffffffff1614156200012d57600080fd5b8473ffffffffffffffffffffffffffffffffffffffff1660808173ffffffffffffffffffffffffffffffffffffffff1681525050600073ffffffffffffffffffffffffffffffffffffffff168473ffffffffffffffffffffffffffffffffffffffff1614156200019c57600080fd5b8373ffffffffffffffffffffffffffffffffffffffff1660a08173ffffffffffffffffffffffffffffffffffffffff16815250506040518060800160405280848152602001838152602001828152602001600081525060026000820151816000015560208201518160010155604082015181600201556060820151816003015590505050505050506200036b565b600080fd5b600073ffffffffffffffffffffffffffffffffffffffff82169050919050565b60006200025c826200022f565b9050919050565b600062000270826200024f565b9050919050565b620002828162000263565b81146200028e57600080fd5b50565b600081519050620002a28162000277565b92915050565b6000819050919050565b620002bd81620002a8565b8114620002c957600080fd5b50565b600081519050620002dd81620002b2565b92915050565b600080600080600060a086880312156200030257620003016200022a565b5b6000620003128882890162000291565b9550506020620003258882890162000291565b94505060406200033888828901620002cc565b93505060606200034b88828901620002cc565b92505060806200035e88828901620002cc565b9150509295509295909350565b60805160a05161305d620003f3600039600081816104cb015281816107b7015281816108ab01528181610e6001528181610fea015281816114e80152818161158f0152818161177f015281816118a201528181611ae40152611ccf015260008181610d0101528181611350015281816115340152818161187e0152611bda015261305d6000f3fe608060405234801561001057600080fd5b50600436106101735760003560e01c8063900cf0cf116100de578063c95acac511610097578063deac361a11610071578063deac361a146103bc578063ed4acaa8146103da578063f3d86e4a146103f8578063f62ae76a1461040257610173565b8063c95acac514610364578063c9f464ff14610382578063d7b96d4e1461039e57610173565b8063900cf0cf146102c35780639ebea88c146102e4578063a8dd07dc14610300578063af14052c1461031e578063bfe1092814610328578063c25af4c61461034657610173565b80635a96ac0a116101305780635a96ac0a146102125780636746f4c21461021c5780637acb77571461024f578063865e6fd31461027f5780638b7afe2e1461029b5780638f077b83146102b957610173565b806303c2367014610178578063089208d8146101945780631e83409a1461019e5780632986c0e5146101ba57806346f68ee9146101d8578063481c6a75146101f4575b600080fd5b610192600480360381019061018d91906122a5565b61041e565b005b61019c610512565b005b6101b860048036038101906101b39190612330565b61065e565b005b6101c26108a7565b6040516101cf919061236c565b60405180910390f35b6101f260048036038101906101ed9190612330565b61093d565b005b6101fc610af9565b6040516102099190612396565b60405180910390f35b61021a610b22565b005b61023660048036038101906102319190612330565b610cb2565b60405161024694939291906123cc565b60405180910390f35b61026960048036038101906102649190612411565b610cef565b6040516102769190612451565b60405180910390f35b61029960048036038101906102949190612491565b611039565b005b6102a3611343565b6040516102b0919061236c565b60405180910390f35b6102c1611407565b005b6102cb6114b3565b6040516102db94939291906124d1565b60405180910390f35b6102fe60048036038101906102f99190612542565b6114d1565b005b61030861157c565b604051610315919061236c565b60405180910390f35b610326611582565b005b610330611856565b60405161033d9190612396565b60405180910390f35b61034e61187c565b60405161035b91906125e1565b60405180910390f35b61036c6118a0565b60405161037991906125e1565b60405180910390f35b61039c600480360381019061039791906122a5565b6118c4565b005b6103a661195c565b6040516103b39190612396565b60405180910390f35b6103c4611982565b6040516103d1919061236c565b60405180910390f35b6103e2611988565b6040516103ef9190612396565b60405180910390f35b6104006119ae565b005b61041c600480360381019061041791906122a5565b611c21565b005b600760009054906101000a900473ffffffffffffffffffffffffffffffffffffffff1673ffffffffffffffffffffffffffffffffffffffff163373ffffffffffffffffffffffffffffffffffffffff161461047857600080fd5b61049c610497610489600854611d17565b61049284611d17565b611d94565b611e13565b60088190555061050f600760009054906101000a900473ffffffffffffffffffffffffffffffffffffffff16827f000000000000000000000000000000000000000000000000000000000000000073ffffffffffffffffffffffffffffffffffffffff16611e369092919063ffffffff16565b50565b3373ffffffffffffffffffffffffffffffffffffffff1660008054906101000a900473ffffffffffffffffffffffffffffffffffffffff1673ffffffffffffffffffffffffffffffffffffffff16146105a0576040517f08c379a000000000000000000000000000000000000000000000000000000000815260040161059790612659565b60405180910390fd5b600073ffffffffffffffffffffffffffffffffffffffff1660008054906101000a900473ffffffffffffffffffffffffffffffffffffffff1673ffffffffffffffffffffffffffffffffffffffff167fea8258f2d9ddb679928cf34b78cf645b7feda9acc828e4dd82d014eaae270eba60405160405180910390a360008060006101000a81548173ffffffffffffffffffffffffffffffffffffffff021916908373ffffffffffffffffffffffffffffffffffffffff160217905550565b6000600b60008373ffffffffffffffffffffffffffffffffffffffff1673ffffffffffffffffffffffffffffffffffffffff1681526020019081526020016000206040518060800160405290816000820154815260200160018201548152602001600282015481526020016003820160009054906101000a900460ff161515151581525050905080604001516002600101541015801561070357506000816040015114155b156108a357600b60008373ffffffffffffffffffffffffffffffffffffffff1673ffffffffffffffffffffffffffffffffffffffff168152602001908152602001600020600080820160009055600182016000905560028201600090556003820160006101000a81549060ff02191690555050600960009054906101000a900473ffffffffffffffffffffffffffffffffffffffff1673ffffffffffffffffffffffffffffffffffffffff1663c3a2a665837f000000000000000000000000000000000000000000000000000000000000000073ffffffffffffffffffffffffffffffffffffffff16637965d56d85602001516040518263ffffffff1660e01b8152600401610812919061236c565b602060405180830381865afa15801561082f573d6000803e3d6000fd5b505050506040513d601f19601f82011682018060405250810190610853919061268e565b6040518363ffffffff1660e01b81526004016108709291906126bb565b600060405180830381600087803b15801561088a57600080fd5b505af115801561089e573d6000803e3d6000fd5b505050505b5050565b60007f000000000000000000000000000000000000000000000000000000000000000073ffffffffffffffffffffffffffffffffffffffff16632986c0e56040518163ffffffff1660e01b8152600401602060405180830381865afa158015610914573d6000803e3d6000fd5b505050506040513d601f19601f82011682018060405250810190610938919061268e565b905090565b3373ffffffffffffffffffffffffffffffffffffffff1660008054906101000a900473ffffffffffffffffffffffffffffffffffffffff1673ffffffffffffffffffffffffffffffffffffffff16146109cb576040517f08c379a00000000000000000000000000000000000000000000000000000000081526004016109c290612659565b60405180910390fd5b600073ffffffffffffffffffffffffffffffffffffffff168173ffffffffffffffffffffffffffffffffffffffff161415610a3b576040517f08c379a0000000000000000000000000000000000000000000000000000000008152600401610a3290612756565b60405180910390fd5b8073ffffffffffffffffffffffffffffffffffffffff1660008054906101000a900473ffffffffffffffffffffffffffffffffffffffff1673ffffffffffffffffffffffffffffffffffffffff167fea8258f2d9ddb679928cf34b78cf645b7feda9acc828e4dd82d014eaae270eba60405160405180910390a380600160006101000a81548173ffffffffffffffffffffffffffffffffffffffff021916908373ffffffffffffffffffffffffffffffffffffffff16021790555050565b60008060009054906101000a900473ffffffffffffffffffffffffffffffffffffffff16905090565b600160009054906101000a900473ffffffffffffffffffffffffffffffffffffffff1673ffffffffffffffffffffffffffffffffffffffff163373ffffffffffffffffffffffffffffffffffffffff1614610bb2576040517f08c379a0000000000000000000000000000000000000000000000000000000008152600401610ba9906127e8565b60405180910390fd5b600160009054906101000a900473ffffffffffffffffffffffffffffffffffffffff1673ffffffffffffffffffffffffffffffffffffffff1660008054906101000a900473ffffffffffffffffffffffffffffffffffffffff1673ffffffffffffffffffffffffffffffffffffffff167faa151555690c956fc3ea32f106bb9f119b5237a061eaa8557cff3e51e3792c8d60405160405180910390a3600160009054906101000a900473ffffffffffffffffffffffffffffffffffffffff166000806101000a81548173ffffffffffffffffffffffffffffffffffffffff021916908373ffffffffffffffffffffffffffffffffffffffff160217905550565b600b6020528060005260406000206000915090508060000154908060010154908060020154908060030160009054906101000a900460ff16905084565b6000610cf9611582565b610d463330857f000000000000000000000000000000000000000000000000000000000000000073ffffffffffffffffffffffffffffffffffffffff16611ebc909392919063ffffffff16565b6000600b60008473ffffffffffffffffffffffffffffffffffffffff1673ffffffffffffffffffffffffffffffffffffffff1681526020019081526020016000206040518060800160405290816000820154815260200160018201548152602001600282015481526020016003820160009054906101000a900460ff1615151515815250509050806060015115610e12576040517f08c379a0000000000000000000000000000000000000000000000000000000008152600401610e0990612854565b60405180910390fd5b6040518060800160405280610e43610e3e610e308560000151611d17565b610e3989611d17565b611d94565b611e13565b8152602001610f07610f02610e5b8560200151611d17565b610efd7f000000000000000000000000000000000000000000000000000000000000000073ffffffffffffffffffffffffffffffffffffffff16631bd396748b6040518263ffffffff1660e01b8152600401610eb7919061236c565b602060405180830381865afa158015610ed4573d6000803e3d6000fd5b505050506040513d601f19601f82011682018060405250810190610ef8919061268e565b611d17565b611d94565b611e13565b8152602001610f35610f30610f20600260010154611d17565b610f2b600a54611d17565b611d94565b611e13565b815260200160001515815250600b60008573ffffffffffffffffffffffffffffffffffffffff1673ffffffffffffffffffffffffffffffffffffffff16815260200190815260200160002060008201518160000155602082015181600101556040820151816002015560608201518160030160006101000a81548160ff02191690831515021790555090505061102e600960009054906101000a900473ffffffffffffffffffffffffffffffffffffffff16857f000000000000000000000000000000000000000000000000000000000000000073ffffffffffffffffffffffffffffffffffffffff16611e369092919063ffffffff16565b600191505092915050565b3373ffffffffffffffffffffffffffffffffffffffff1660008054906101000a900473ffffffffffffffffffffffffffffffffffffffff1673ffffffffffffffffffffffffffffffffffffffff16146110c7576040517f08c379a00000000000000000000000000000000000000000000000000000000081526004016110be90612659565b60405180910390fd5b600060028111156110db576110da612874565b5b8260028111156110ee576110ed612874565b5b141561113a5780600660006101000a81548173ffffffffffffffffffffffffffffffffffffffff021916908373ffffffffffffffffffffffffffffffffffffffff16021790555061133f565b6001600281111561114e5761114d612874565b5b82600281111561116157611160612874565b5b141561123e57600073ffffffffffffffffffffffffffffffffffffffff16600960009054906101000a900473ffffffffffffffffffffffffffffffffffffffff1673ffffffffffffffffffffffffffffffffffffffff16146111f8576040517f08c379a00000000000000000000000000000000000000000000000000000000081526004016111ef90612915565b60405180910390fd5b80600960006101000a81548173ffffffffffffffffffffffffffffffffffffffff021916908373ffffffffffffffffffffffffffffffffffffffff16021790555061133e565b60028081111561125157611250612874565b5b82600281111561126457611263612874565b5b141561133d57600073ffffffffffffffffffffffffffffffffffffffff16600760009054906101000a900473ffffffffffffffffffffffffffffffffffffffff1673ffffffffffffffffffffffffffffffffffffffff16146112fb576040517f08c379a00000000000000000000000000000000000000000000000000000000081526004016112f2906129a7565b60405180910390fd5b80600760006101000a81548173ffffffffffffffffffffffffffffffffffffffff021916908373ffffffffffffffffffffffffffffffffffffffff1602179055505b5b5b5050565b60006114026113fd6113ed7f000000000000000000000000000000000000000000000000000000000000000073ffffffffffffffffffffffffffffffffffffffff166370a08231306040518263ffffffff1660e01b81526004016113a79190612396565b602060405180830381865afa1580156113c4573d6000803e3d6000fd5b505050506040513d601f19601f820116820180604052508101906113e8919061268e565b611d17565b6113f8600854611d17565b611d94565b611e13565b905090565b600b60003373ffffffffffffffffffffffffffffffffffffffff1673ffffffffffffffffffffffffffffffffffffffff16815260200190815260200160002060030160009054906101000a900460ff1615600b60003373ffffffffffffffffffffffffffffffffffffffff1673ffffffffffffffffffffffffffffffffffffffff16815260200190815260200160002060030160006101000a81548160ff021916908315150217905550565b60028060000154908060010154908060020154908060030154905084565b80156114e0576114df611582565b5b61152d3330847f000000000000000000000000000000000000000000000000000000000000000073ffffffffffffffffffffffffffffffffffffffff16611ebc909392919063ffffffff16565b61157833837f000000000000000000000000000000000000000000000000000000000000000073ffffffffffffffffffffffffffffffffffffffff16611e369092919063ffffffff16565b5050565b60085481565b43600280015411611854577f000000000000000000000000000000000000000000000000000000000000000073ffffffffffffffffffffffffffffffffffffffff1663058ecdb46002600301546002600101546040518363ffffffff1660e01b81526004016115f29291906129c7565b6020604051808303816000875af1158015611611573d6000803e3d6000fd5b505050506040513d601f19601f82011682018060405250810190611635919061268e565b5061166161165c6116496002800154611d17565b611657600260000154611d17565b611d94565b611e13565b60028001819055506002600101600081548092919061167f90612a1f565b9190505550600073ffffffffffffffffffffffffffffffffffffffff16600660009054906101000a900473ffffffffffffffffffffffffffffffffffffffff1673ffffffffffffffffffffffffffffffffffffffff161461176f57600660009054906101000a900473ffffffffffffffffffffffffffffffffffffffff1673ffffffffffffffffffffffffffffffffffffffff1663e4fc6b6d6040518163ffffffff1660e01b81526004016020604051808303816000875af1158015611749573d6000803e3d6000fd5b505050506040513d601f19601f8201168201806040525081019061176d9190612a7d565b505b6000611779611343565b905060007f000000000000000000000000000000000000000000000000000000000000000073ffffffffffffffffffffffffffffffffffffffff16639358928b6040518163ffffffff1660e01b8152600401602060405180830381865afa1580156117e8573d6000803e3d6000fd5b505050506040513d601f19601f8201168201806040525081019061180c919061268e565b9050808211611825576000600260030181905550611851565b61184761184261183484611d17565b61183d84611d17565b611f45565b611e13565b6002600301819055505b50505b565b600660009054906101000a900473ffffffffffffffffffffffffffffffffffffffff1681565b7f000000000000000000000000000000000000000000000000000000000000000081565b7f000000000000000000000000000000000000000000000000000000000000000081565b3373ffffffffffffffffffffffffffffffffffffffff1660008054906101000a900473ffffffffffffffffffffffffffffffffffffffff1673ffffffffffffffffffffffffffffffffffffffff1614611952576040517f08c379a000000000000000000000000000000000000000000000000000000000815260040161194990612659565b60405180910390fd5b80600a8190555050565b600760009054906101000a900473ffffffffffffffffffffffffffffffffffffffff1681565b600a5481565b600960009054906101000a900473ffffffffffffffffffffffffffffffffffffffff1681565b6000600b60003373ffffffffffffffffffffffffffffffffffffffff1673ffffffffffffffffffffffffffffffffffffffff1681526020019081526020016000206040518060800160405290816000820154815260200160018201548152602001600282015481526020016003820160009054906101000a900460ff1615151515815250509050600b60003373ffffffffffffffffffffffffffffffffffffffff1673ffffffffffffffffffffffffffffffffffffffff168152602001908152602001600020600080820160009055600182016000905560028201600090556003820160006101000a81549060ff02191690555050600960009054906101000a900473ffffffffffffffffffffffffffffffffffffffff1673ffffffffffffffffffffffffffffffffffffffff1663c3a2a665307f000000000000000000000000000000000000000000000000000000000000000073ffffffffffffffffffffffffffffffffffffffff16637965d56d85602001516040518263ffffffff1660e01b8152600401611b3f919061236c565b602060405180830381865afa158015611b5c573d6000803e3d6000fd5b505050506040513d601f19601f82011682018060405250810190611b80919061268e565b6040518363ffffffff1660e01b8152600401611b9d9291906126bb565b600060405180830381600087803b158015611bb757600080fd5b505af1158015611bcb573d6000803e3d6000fd5b50505050611c1e3382600001517f000000000000000000000000000000000000000000000000000000000000000073ffffffffffffffffffffffffffffffffffffffff16611e369092919063ffffffff16565b50565b600760009054906101000a900473ffffffffffffffffffffffffffffffffffffffff1673ffffffffffffffffffffffffffffffffffffffff163373ffffffffffffffffffffffffffffffffffffffff1614611c7b57600080fd5b611c9f611c9a611c8c600854611d17565b611c9584611d17565b611f45565b611e13565b600881905550611d14600760009054906101000a900473ffffffffffffffffffffffffffffffffffffffff1630837f000000000000000000000000000000000000000000000000000000000000000073ffffffffffffffffffffffffffffffffffffffff16611ebc909392919063ffffffff16565b50565b611d1f612257565b611d27611fc2565b821115611d69576040517f08c379a0000000000000000000000000000000000000000000000000000000008152600401611d6090612b1c565b60405180910390fd5b604051806020016040528069d3c21bcecceda100000084611d8a9190612b3c565b8152509050919050565b611d9c612257565b600082600001518460000151611db29190612b96565b90508360000151811015611dfb576040517f08c379a0000000000000000000000000000000000000000000000000000000008152600401611df290612c38565b60405180910390fd5b60405180602001604052808281525091505092915050565b600069d3c21bcecceda10000008260000151611e2f9190612c87565b9050919050565b611eb78363a9059cbb60e01b8484604051602401611e559291906126bb565b604051602081830303815290604052907bffffffffffffffffffffffffffffffffffffffffffffffffffffffff19166020820180517bffffffffffffffffffffffffffffffffffffffffffffffffffffffff8381831617835250505050611fea565b505050565b611f3f846323b872dd60e01b858585604051602401611edd93929190612cb8565b604051602081830303815290604052907bffffffffffffffffffffffffffffffffffffffffffffffffffffffff19166020820180517bffffffffffffffffffffffffffffffffffffffffffffffffffffffff8381831617835250505050611fea565b50505050565b611f4d612257565b816000015183600001511015611f98576040517f08c379a0000000000000000000000000000000000000000000000000000000008152600401611f8f90612d3b565b60405180910390fd5b604051806020016040528083600001518560000151611fb79190612d5b565b815250905092915050565b60007fffffffffffffffffffffffffffffffffffffffffffffffffffffffffffffffff905090565b600061204c826040518060400160405280602081526020017f5361666545524332303a206c6f772d6c6576656c2063616c6c206661696c65648152508573ffffffffffffffffffffffffffffffffffffffff166120b19092919063ffffffff16565b90506000815111156120ac578080602001905181019061206c9190612a7d565b6120ab576040517f08c379a00000000000000000000000000000000000000000000000000000000081526004016120a290612e01565b60405180910390fd5b5b505050565b60606120c084846000856120c9565b90509392505050565b60608247101561210e576040517f08c379a000000000000000000000000000000000000000000000000000000000815260040161210590612e93565b60405180910390fd5b612117856121dd565b612156576040517f08c379a000000000000000000000000000000000000000000000000000000000815260040161214d90612eff565b60405180910390fd5b6000808673ffffffffffffffffffffffffffffffffffffffff16858760405161217f9190612f99565b60006040518083038185875af1925050503d80600081146121bc576040519150601f19603f3d011682016040523d82523d6000602084013e6121c1565b606091505b50915091506121d18282866121f0565b92505050949350505050565b600080823b905060008111915050919050565b6060831561220057829050612250565b6000835111156122135782518084602001fd5b816040517f08c379a00000000000000000000000000000000000000000000000000000000081526004016122479190613005565b60405180910390fd5b9392505050565b6040518060200160405280600081525090565b600080fd5b6000819050919050565b6122828161226f565b811461228d57600080fd5b50565b60008135905061229f81612279565b92915050565b6000602082840312156122bb576122ba61226a565b5b60006122c984828501612290565b91505092915050565b600073ffffffffffffffffffffffffffffffffffffffff82169050919050565b60006122fd826122d2565b9050919050565b61230d816122f2565b811461231857600080fd5b50565b60008135905061232a81612304565b92915050565b6000602082840312156123465761234561226a565b5b60006123548482850161231b565b91505092915050565b6123668161226f565b82525050565b6000602082019050612381600083018461235d565b92915050565b612390816122f2565b82525050565b60006020820190506123ab6000830184612387565b92915050565b60008115159050919050565b6123c6816123b1565b82525050565b60006080820190506123e1600083018761235d565b6123ee602083018661235d565b6123fb604083018561235d565b61240860608301846123bd565b95945050505050565b600080604083850312156124285761242761226a565b5b600061243685828601612290565b92505060206124478582860161231b565b9150509250929050565b600060208201905061246660008301846123bd565b92915050565b6003811061247957600080fd5b50565b60008135905061248b8161246c565b92915050565b600080604083850312156124a8576124a761226a565b5b60006124b68582860161247c565b92505060206124c78582860161231b565b9150509250929050565b60006080820190506124e6600083018761235d565b6124f3602083018661235d565b612500604083018561235d565b61250d606083018461235d565b95945050505050565b61251f816123b1565b811461252a57600080fd5b50565b60008135905061253c81612516565b92915050565b600080604083850312156125595761255861226a565b5b600061256785828601612290565b92505060206125788582860161252d565b9150509250929050565b6000819050919050565b60006125a76125a261259d846122d2565b612582565b6122d2565b9050919050565b60006125b98261258c565b9050919050565b60006125cb826125ae565b9050919050565b6125db816125c0565b82525050565b60006020820190506125f660008301846125d2565b92915050565b600082825260208201905092915050565b7f4f776e61626c653a2063616c6c6572206973206e6f7420746865206f776e6572600082015250565b60006126436020836125fc565b915061264e8261260d565b602082019050919050565b6000602082019050818103600083015261267281612636565b9050919050565b60008151905061268881612279565b92915050565b6000602082840312156126a4576126a361226a565b5b60006126b284828501612679565b91505092915050565b60006040820190506126d06000830185612387565b6126dd602083018461235d565b9392505050565b7f4f776e61626c653a206e6577206f776e657220697320746865207a65726f206160008201527f6464726573730000000000000000000000000000000000000000000000000000602082015250565b60006127406026836125fc565b915061274b826126e4565b604082019050919050565b6000602082019050818103600083015261276f81612733565b9050919050565b7f4f776e61626c653a206d757374206265206e6577206f776e657220746f20707560008201527f6c6c000000000000000000000000000000000000000000000000000000000000602082015250565b60006127d26022836125fc565b91506127dd82612776565b604082019050919050565b60006020820190508181036000830152612801816127c5565b9050919050565b7f4465706f7369747320666f72206163636f756e7420617265206c6f636b656400600082015250565b600061283e601f836125fc565b915061284982612808565b602082019050919050565b6000602082019050818103600083015261286d81612831565b9050919050565b7f4e487b7100000000000000000000000000000000000000000000000000000000600052602160045260246000fd5b7f5761726d75702063616e6e6f7420626520736574206d6f7265207468616e206f60008201527f6e63650000000000000000000000000000000000000000000000000000000000602082015250565b60006128ff6023836125fc565b915061290a826128a3565b604082019050919050565b6000602082019050818103600083015261292e816128f2565b9050919050565b7f4c6f636b65722063616e6e6f7420626520736574206d6f7265207468616e206f60008201527f6e63650000000000000000000000000000000000000000000000000000000000602082015250565b60006129916023836125fc565b915061299c82612935565b604082019050919050565b600060208201905081810360008301526129c081612984565b9050919050565b60006040820190506129dc600083018561235d565b6129e9602083018461235d565b9392505050565b7f4e487b7100000000000000000000000000000000000000000000000000000000600052601160045260246000fd5b6000612a2a8261226f565b91507fffffffffffffffffffffffffffffffffffffffffffffffffffffffffffffffff821415612a5d57612a5c6129f0565b5b600182019050919050565b600081519050612a7781612516565b92915050565b600060208284031215612a9357612a9261226a565b5b6000612aa184828501612a68565b91505092915050565b7f63616e277420637265617465206669786964697479206e756d626572206c617260008201527f676572207468616e206d61784e65774669786564282900000000000000000000602082015250565b6000612b066036836125fc565b9150612b1182612aaa565b604082019050919050565b60006020820190508181036000830152612b3581612af9565b9050919050565b6000612b478261226f565b9150612b528361226f565b9250817fffffffffffffffffffffffffffffffffffffffffffffffffffffffffffffffff0483118215151615612b8b57612b8a6129f0565b5b828202905092915050565b6000612ba18261226f565b9150612bac8361226f565b9250827fffffffffffffffffffffffffffffffffffffffffffffffffffffffffffffffff03821115612be157612be06129f0565b5b828201905092915050565b7f616464206f766572666c6f772064657465637465640000000000000000000000600082015250565b6000612c226015836125fc565b9150612c2d82612bec565b602082019050919050565b60006020820190508181036000830152612c5181612c15565b9050919050565b7f4e487b7100000000000000000000000000000000000000000000000000000000600052601260045260246000fd5b6000612c928261226f565b9150612c9d8361226f565b925082612cad57612cac612c58565b5b828204905092915050565b6000606082019050612ccd6000830186612387565b612cda6020830185612387565b612ce7604083018461235d565b949350505050565b7f737562737472616374696f6e20756e646572666c6f7720646574656374656400600082015250565b6000612d25601f836125fc565b9150612d3082612cef565b602082019050919050565b60006020820190508181036000830152612d5481612d18565b9050919050565b6000612d668261226f565b9150612d718361226f565b925082821015612d8457612d836129f0565b5b828203905092915050565b7f5361666545524332303a204552433230206f7065726174696f6e20646964206e60008201527f6f74207375636365656400000000000000000000000000000000000000000000602082015250565b6000612deb602a836125fc565b9150612df682612d8f565b604082019050919050565b60006020820190508181036000830152612e1a81612dde565b9050919050565b7f416464726573733a20696e73756666696369656e742062616c616e636520666f60008201527f722063616c6c0000000000000000000000000000000000000000000000000000602082015250565b6000612e7d6026836125fc565b9150612e8882612e21565b604082019050919050565b60006020820190508181036000830152612eac81612e70565b9050919050565b7f416464726573733a2063616c6c20746f206e6f6e2d636f6e7472616374000000600082015250565b6000612ee9601d836125fc565b9150612ef482612eb3565b602082019050919050565b60006020820190508181036000830152612f1881612edc565b9050919050565b600081519050919050565b600081905092915050565b60005b83811015612f53578082015181840152602081019050612f38565b83811115612f62576000848401525b50505050565b6000612f7382612f1f565b612f7d8185612f2a565b9350612f8d818560208601612f35565b80840191505092915050565b6000612fa58284612f68565b915081905092915050565b600081519050919050565b6000601f19601f8301169050919050565b6000612fd782612fb0565b612fe181856125fc565b9350612ff1818560208601612f35565b612ffa81612fbb565b840191505092915050565b6000602082019050818103600083015261301f8184612fcc565b90509291505056fea26469706673582212206851bee754d005a27031e635f251f97351069237ed453ae4fab29214ae581d8a64736f6c634300080a0033",
  "immutableReferences": {
    "9611": [
      {
        "length": 32,
        "start": 3329
      },
      {
        "length": 32,
        "start": 4944
      },
      {
        "length": 32,
        "start": 5428
      },
      {
        "length": 32,
        "start": 6270
      },
      {
        "length": 32,
        "start": 7130
      }
    ],
    "9614": [
      {
        "length": 32,
        "start": 1227
      },
      {
        "length": 32,
        "start": 1975
      },
      {
        "length": 32,
        "start": 2219
      },
      {
        "length": 32,
        "start": 3680
      },
      {
        "length": 32,
        "start": 4074
      },
      {
        "length": 32,
        "start": 5352
      },
      {
        "length": 32,
        "start": 5519
      },
      {
        "length": 32,
        "start": 6015
      },
      {
        "length": 32,
        "start": 6306
      },
      {
        "length": 32,
        "start": 6884
      },
      {
        "length": 32,
        "start": 7375
      }
    ]
  },
  "source": "// SPDX-License-Identifier: AGPL-3.0-or-later\npragma solidity 0.8.10;\n\nimport \"@openzeppelin/contracts/token/ERC20/IERC20.sol\";\nimport \"@openzeppelin/contracts/token/ERC20/utils/SafeERC20.sol\";\nimport \"./Fixidity.sol\";\n\ninterface IOwnable {\n  function manager() external view returns (address);\n\n  function renounceManagement() external;\n  \n  function pushManagement( address newOwner_ ) external;\n  \n  function pullManagement() external;\n}\n\ncontract Ownable is IOwnable {\n    \n    address internal _owner;\n    address internal _newOwner;\n\n    event OwnershipPushed(address indexed previousOwner, address indexed newOwner);\n    event OwnershipPulled(address indexed previousOwner, address indexed newOwner);\n\n    constructor () {\n        _owner = msg.sender;\n        emit OwnershipPushed( address(0), _owner );\n    }\n\n    function manager() public view override returns (address) {\n        return _owner;\n    }\n\n    modifier onlyManager() {\n        require( _owner == msg.sender, \"Ownable: caller is not the owner\" );\n        _;\n    }\n\n    function renounceManagement() public virtual override onlyManager() {\n        emit OwnershipPushed( _owner, address(0) );\n        _owner = address(0);\n    }\n\n    function pushManagement( address newOwner_ ) public virtual override onlyManager() {\n        require( newOwner_ != address(0), \"Ownable: new owner is the zero address\");\n        emit OwnershipPushed( _owner, newOwner_ );\n        _newOwner = newOwner_;\n    }\n    \n    function pullManagement() public virtual override {\n        require( msg.sender == _newOwner, \"Ownable: must be new owner to pull\");\n        emit OwnershipPulled( _owner, _newOwner );\n        _owner = _newOwner;\n    }\n}\n\ninterface IsBOSS {\n    function rebase( uint256 BOSSProfit_, uint epoch_) external returns (uint256);\n\n    function circulatingSupply() external view returns (uint256);\n\n    function balanceOf(address who) external view returns (uint256);\n\n    function gonsForBalance( uint amount ) external view returns ( uint );\n\n    function balanceForGons( uint gons ) external view returns ( uint );\n    \n    function index() external view returns ( uint );\n}\n\ninterface IWarmup {\n    function retrieve( address staker_, uint amount_ ) external;\n}\n\ninterface IDistributor {\n    function distribute() external returns ( bool );\n}\n\ncontract BossStaking is Ownable {\n\n    IERC20 public immutable BOSS;\n    IERC20 public immutable sBOSS;\n\n    using SafeERC20 for IERC20;\n\n    struct Epoch {\n        uint length;\n        uint number;\n        uint endBlock;\n        uint distribute;\n    }\n    Epoch public epoch;\n\n    address public distributor;\n    \n    address public locker;\n    uint public totalBonus;\n    \n    address public warmupContract;\n    uint public warmupPeriod;\n    \n    \n\n    constructor ( \n        IERC20 _BOSS, \n        IERC20 _sBOSS, \n        uint _epochLength,\n        uint _firstEpochNumber,\n        uint _firstEpochBlock\n    ) {\n        require( address(_BOSS) != address(0) );\n        BOSS = _BOSS;\n        require( address(_sBOSS) != address(0) );\n        sBOSS = _sBOSS;\n        \n        epoch = Epoch({\n            length: _epochLength,\n            number: _firstEpochNumber,\n            endBlock: _firstEpochBlock,\n            distribute: 0\n        });\n    }\n\n    struct Claim {\n        uint deposit;\n        uint gons;\n        uint expiry;\n        bool lock; // prevents malicious delays\n    }\n    mapping( address => Claim ) public warmupInfo;\n\n    /**\n        @notice stake BOSS to enter warmup\n        @param _amount uint\n        @return bool\n     */\n    function stake( uint _amount, address _recipient ) external returns ( bool ) {\n        rebase();\n        \n        BOSS.safeTransferFrom( msg.sender, address(this), _amount );\n\n        Claim memory info = warmupInfo[ _recipient ];\n        require( !info.lock, \"Deposits for account are locked\" );\n\n        warmupInfo[ _recipient ] = Claim ({\n            deposit: Fixidity.fromFixed(Fixidity.add (Fixidity.newFixed(info.deposit) , Fixidity.newFixed(_amount) )),\n            gons: Fixidity.fromFixed(Fixidity.add (Fixidity.newFixed(info.gons) , Fixidity.newFixed(IsBOSS( address(sBOSS) ).gonsForBalance( _amount )) )),\n            expiry: Fixidity.fromFixed(Fixidity.add (Fixidity.newFixed(epoch.number) , Fixidity.newFixed(warmupPeriod) )),\n            lock: false\n        });\n        \n        sBOSS.safeTransfer( warmupContract, _amount );\n        return true;\n    }\n\n    /**\n        @notice retrieve sBOSS from warmup\n        @param _recipient address\n     */\n    function claim ( address _recipient ) public {\n        Claim memory info = warmupInfo[ _recipient ];\n        if ( epoch.number >= info.expiry && info.expiry != 0 ) {\n            delete warmupInfo[ _recipient ];\n            IWarmup( warmupContract ).retrieve( _recipient, IsBOSS( address(sBOSS) ).balanceForGons( info.gons ) );\n        }\n    }\n\n    /**\n        @notice forfeit sBOSS in warmup and retrieve BOSS\n     */\n    function forfeit() external {\n        Claim memory info = warmupInfo[ msg.sender ];\n        delete warmupInfo[ msg.sender ];\n\n        IWarmup( warmupContract ).retrieve( address(this), IsBOSS( address(sBOSS) ).balanceForGons( info.gons ) );\n        BOSS.safeTransfer( msg.sender, info.deposit );\n    }\n\n    /**\n        @notice prevent new deposits to address (protection from malicious activity)\n     */\n    function toggleDepositLock() external {\n        warmupInfo[ msg.sender ].lock = !warmupInfo[ msg.sender ].lock;\n    }\n\n    /**\n        @notice redeem sBOSS for BOSS\n        @param _amount uint\n        @param _trigger bool\n     */\n    function unstake( uint _amount, bool _trigger ) external {\n        if ( _trigger ) {\n            rebase();\n        }\n        sBOSS.safeTransferFrom( msg.sender, address(this), _amount );\n        BOSS.safeTransfer( msg.sender, _amount );\n    }\n\n    /**\n        @notice returns the sBOSS index, which tracks rebase growth\n        @return uint\n     */\n    function index() public view returns ( uint ) {\n        return IsBOSS( address(sBOSS) ).index();\n    }\n\n    /**\n        @notice trigger rebase if epoch over\n     */\n    function rebase() public {\n        if( epoch.endBlock <= block.number ) {\n\n            IsBOSS( address(sBOSS) ).rebase( epoch.distribute, epoch.number );\n\n            epoch.endBlock = Fixidity.fromFixed( Fixidity.add( Fixidity.newFixed(epoch.endBlock) , Fixidity.newFixed(epoch.length)));\n            epoch.number++;\n            \n            if ( distributor != address(0) ) {\n                IDistributor( distributor ).distribute();\n            }\n\n            uint balance = contractBalance();\n            uint staked = IsBOSS( address(sBOSS) ).circulatingSupply();\n\n            if( balance <= staked ) {\n                epoch.distribute = 0;\n            } else {\n                epoch.distribute = Fixidity.fromFixed( Fixidity.subtract( Fixidity.newFixed(balance) , Fixidity.newFixed(staked) ));\n            }\n        }\n    }\n\n    /**\n        @notice returns contract BOSS holdings, including bonuses provided\n        @return uint\n     */\n    function contractBalance() public view returns ( uint ) {\n        return Fixidity.fromFixed( Fixidity.add( Fixidity.newFixed(BOSS.balanceOf( address(this) )) , Fixidity.newFixed(totalBonus) ));\n    }\n\n    /**\n        @notice provide bonus to locked staking contract\n        @param _amount uint\n     */\n    function giveLockBonus( uint _amount ) external {\n        require( msg.sender == locker );\n        totalBonus = Fixidity.fromFixed( Fixidity.add( Fixidity.newFixed(totalBonus) , Fixidity.newFixed( _amount ) ));\n\n        sBOSS.safeTransfer( locker, _amount );\n    }\n\n    /**\n        @notice reclaim bonus from locked staking contract\n        @param _amount uint\n     */\n    function returnLockBonus( uint _amount ) external {\n        require( msg.sender == locker );\n        totalBonus = Fixidity.fromFixed( Fixidity.subtract( Fixidity.newFixed(totalBonus) , Fixidity.newFixed( _amount ) ));\n        sBOSS.safeTransferFrom( locker, address(this), _amount );\n    }\n\n    enum CONTRACTS { DISTRIBUTOR, WARMUP, LOCKER }\n\n    /**\n        @notice sets the contract address for LP staking\n        @param _contract address\n     */\n    function setContract( CONTRACTS _contract, address _address ) external onlyManager() {\n        if( _contract == CONTRACTS.DISTRIBUTOR ) { // 0\n            distributor = _address;\n        } else if ( _contract == CONTRACTS.WARMUP ) { // 1\n            require( warmupContract == address( 0 ), \"Warmup cannot be set more than once\" );\n            warmupContract = _address;\n        } else if ( _contract == CONTRACTS.LOCKER ) { // 2\n            require( locker == address(0), \"Locker cannot be set more than once\" );\n            locker = _address;\n        }\n    }\n    \n    /**\n     * @notice set warmup period for new stakers\n     * @param _warmupPeriod uint\n     */\n    function setWarmup( uint _warmupPeriod ) external onlyManager() {\n        warmupPeriod = _warmupPeriod;\n    }\n}",
  "sourcePath": "/Users/samgville/Documents/Nostra DAO /nostra-dao-contracts/contracts/Staking.sol",
  "compiler": {
    "name": "solc",
    "version": "0.8.10+commit.fc410830.Emscripten.clang"
  },
  "schemaVersion": "3.4.4",
  "updatedAt": "2022-01-21T00:17:48.790Z",
  "devdoc": {
    "kind": "dev",
    "methods": {
      "claim(address)": {
        "params": {
          "_recipient": "address"
        }
      },
      "contractBalance()": {
        "returns": {
          "_0": "uint"
        }
      },
      "giveLockBonus(uint256)": {
        "params": {
          "_amount": "uint"
        }
      },
      "index()": {
        "returns": {
          "_0": "uint"
        }
      },
      "returnLockBonus(uint256)": {
        "params": {
          "_amount": "uint"
        }
      },
      "setContract(uint8,address)": {
        "params": {
          "_contract": "address"
        }
      },
      "setWarmup(uint256)": {
        "params": {
          "_warmupPeriod": "uint"
        }
      },
      "stake(uint256,address)": {
        "params": {
          "_amount": "uint"
        },
        "returns": {
          "_0": "bool"
        }
      },
      "unstake(uint256,bool)": {
        "params": {
          "_amount": "uint",
          "_trigger": "bool"
        }
      }
    },
    "version": 1
  },
  "userdoc": {
    "kind": "user",
    "methods": {
      "claim(address)": {
        "notice": "retrieve sBOSS from warmup"
      },
      "contractBalance()": {
        "notice": "returns contract BOSS holdings, including bonuses provided"
      },
      "forfeit()": {
        "notice": "forfeit sBOSS in warmup and retrieve BOSS"
      },
      "giveLockBonus(uint256)": {
        "notice": "provide bonus to locked staking contract"
      },
      "index()": {
        "notice": "returns the sBOSS index, which tracks rebase growth"
      },
      "rebase()": {
        "notice": "trigger rebase if epoch over"
      },
      "returnLockBonus(uint256)": {
        "notice": "reclaim bonus from locked staking contract"
      },
      "setContract(uint8,address)": {
        "notice": "sets the contract address for LP staking"
      },
      "setWarmup(uint256)": {
        "notice": "set warmup period for new stakers"
      },
      "stake(uint256,address)": {
        "notice": "stake BOSS to enter warmup"
      },
      "toggleDepositLock()": {
        "notice": "prevent new deposits to address (protection from malicious activity)"
      },
      "unstake(uint256,bool)": {
        "notice": "redeem sBOSS for BOSS"
      }
    },
    "version": 1
  }
}