{
  "contractName": "Distributor",
  "abi": [
    {
      "inputs": [
        {
          "internalType": "address",
          "name": "_treasury",
          "type": "address"
        },
        {
          "internalType": "contract IERC20",
          "name": "_boss",
          "type": "address"
        },
        {
          "internalType": "uint256",
          "name": "_epochLength",
          "type": "uint256"
        },
        {
          "internalType": "uint256",
          "name": "_nextEpochBlock",
          "type": "uint256"
        }
      ],
      "stateMutability": "nonpayable",
      "type": "constructor"
    },
    {
      "anonymous": false,
      "inputs": [
        {
          "indexed": true,
          "internalType": "address",
          "name": "previousOwner",
          "type": "address"
        },
        {
          "indexed": true,
          "internalType": "address",
          "name": "newOwner",
          "type": "address"
        }
      ],
      "name": "OwnershipTransferred",
      "type": "event"
    },
    {
      "inputs": [],
      "name": "BOSS",
      "outputs": [
        {
          "internalType": "contract IERC20",
          "name": "",
          "type": "address"
        }
      ],
      "stateMutability": "view",
      "type": "function"
    },
    {
      "inputs": [
        {
          "internalType": "uint256",
          "name": "",
          "type": "uint256"
        }
      ],
      "name": "adjustments",
      "outputs": [
        {
          "internalType": "bool",
          "name": "add",
          "type": "bool"
        },
        {
          "internalType": "uint256",
          "name": "rate",
          "type": "uint256"
        },
        {
          "internalType": "uint256",
          "name": "target",
          "type": "uint256"
        }
      ],
      "stateMutability": "view",
      "type": "function"
    },
    {
      "inputs": [],
      "name": "epochLength",
      "outputs": [
        {
          "internalType": "uint256",
          "name": "",
          "type": "uint256"
        }
      ],
      "stateMutability": "view",
      "type": "function"
    },
    {
      "inputs": [
        {
          "internalType": "uint256",
          "name": "",
          "type": "uint256"
        }
      ],
      "name": "info",
      "outputs": [
        {
          "internalType": "uint256",
          "name": "rate",
          "type": "uint256"
        },
        {
          "internalType": "address",
          "name": "recipient",
          "type": "address"
        }
      ],
      "stateMutability": "view",
      "type": "function"
    },
    {
      "inputs": [],
      "name": "nextEpochBlock",
      "outputs": [
        {
          "internalType": "uint256",
          "name": "",
          "type": "uint256"
        }
      ],
      "stateMutability": "view",
      "type": "function"
    },
    {
      "inputs": [],
      "name": "policy",
      "outputs": [
        {
          "internalType": "address",
          "name": "",
          "type": "address"
        }
      ],
      "stateMutability": "view",
      "type": "function"
    },
    {
      "inputs": [],
      "name": "pullPolicy",
      "outputs": [],
      "stateMutability": "nonpayable",
      "type": "function"
    },
    {
      "inputs": [
        {
          "internalType": "address",
          "name": "newPolicy_",
          "type": "address"
        }
      ],
      "name": "pushPolicy",
      "outputs": [],
      "stateMutability": "nonpayable",
      "type": "function"
    },
    {
      "inputs": [],
      "name": "renouncePolicy",
      "outputs": [],
      "stateMutability": "nonpayable",
      "type": "function"
    },
    {
      "inputs": [],
      "name": "treasury",
      "outputs": [
        {
          "internalType": "address",
          "name": "",
          "type": "address"
        }
      ],
      "stateMutability": "view",
      "type": "function"
    },
    {
      "inputs": [],
      "name": "distribute",
      "outputs": [
        {
          "internalType": "bool",
          "name": "",
          "type": "bool"
        }
      ],
      "stateMutability": "nonpayable",
      "type": "function"
    },
    {
      "inputs": [
        {
          "internalType": "uint256",
          "name": "_rate",
          "type": "uint256"
        }
      ],
      "name": "nextRewardAt",
      "outputs": [
        {
          "internalType": "uint256",
          "name": "",
          "type": "uint256"
        }
      ],
      "stateMutability": "view",
      "type": "function"
    },
    {
      "inputs": [
        {
          "internalType": "address",
          "name": "_recipient",
          "type": "address"
        }
      ],
      "name": "nextRewardFor",
      "outputs": [
        {
          "internalType": "uint256",
          "name": "",
          "type": "uint256"
        }
      ],
      "stateMutability": "view",
      "type": "function"
    },
    {
      "inputs": [
        {
          "internalType": "address",
          "name": "_recipient",
          "type": "address"
        },
        {
          "internalType": "uint256",
          "name": "_rewardRate",
          "type": "uint256"
        }
      ],
      "name": "addRecipient",
      "outputs": [],
      "stateMutability": "nonpayable",
      "type": "function"
    },
    {
      "inputs": [
        {
          "internalType": "uint256",
          "name": "_index",
          "type": "uint256"
        },
        {
          "internalType": "address",
          "name": "_recipient",
          "type": "address"
        }
      ],
      "name": "removeRecipient",
      "outputs": [],
      "stateMutability": "nonpayable",
      "type": "function"
    },
    {
      "inputs": [
        {
          "internalType": "uint256",
          "name": "_index",
          "type": "uint256"
        },
        {
          "internalType": "bool",
          "name": "_add",
          "type": "bool"
        },
        {
          "internalType": "uint256",
          "name": "_rate",
          "type": "uint256"
        },
        {
          "internalType": "uint256",
          "name": "_target",
          "type": "uint256"
        }
      ],
      "name": "setAdjustment",
      "outputs": [],
      "stateMutability": "nonpayable",
      "type": "function"
    }
  ],
  "bytecode": "0x60c06040523480156200001157600080fd5b5060405162002765380380620027658339818101604052810190620000379190620002e0565b336000806101000a81548173ffffffffffffffffffffffffffffffffffffffff021916908373ffffffffffffffffffffffffffffffffffffffff16021790555060008054906101000a900473ffffffffffffffffffffffffffffffffffffffff1673ffffffffffffffffffffffffffffffffffffffff16600073ffffffffffffffffffffffffffffffffffffffff167f8be0079c531659141344cd1fd0a4f28419497f9722a3daafe3b4186f6b6457e060405160405180910390a3600073ffffffffffffffffffffffffffffffffffffffff168473ffffffffffffffffffffffffffffffffffffffff1614156200012d57600080fd5b8373ffffffffffffffffffffffffffffffffffffffff1660808173ffffffffffffffffffffffffffffffffffffffff1681525050600073ffffffffffffffffffffffffffffffffffffffff168373ffffffffffffffffffffffffffffffffffffffff1614156200019c57600080fd5b82600260006101000a81548173ffffffffffffffffffffffffffffffffffffffff021916908373ffffffffffffffffffffffffffffffffffffffff1602179055508160a08181525050806003819055505050505062000352565b600080fd5b600073ffffffffffffffffffffffffffffffffffffffff82169050919050565b60006200022882620001fb565b9050919050565b6200023a816200021b565b81146200024657600080fd5b50565b6000815190506200025a816200022f565b92915050565b60006200026d826200021b565b9050919050565b6200027f8162000260565b81146200028b57600080fd5b50565b6000815190506200029f8162000274565b92915050565b6000819050919050565b620002ba81620002a5565b8114620002c657600080fd5b50565b600081519050620002da81620002af565b92915050565b60008060008060808587031215620002fd57620002fc620001f6565b5b60006200030d8782880162000249565b945050602062000320878288016200028e565b93505060406200033387828801620002c9565b92505060606200034687828801620002c9565b91505092959194509250565b60805160a0516123df620003866000396000818161045e0152610ad40152600081816106d70152610b4801526123df6000f3fe608060405234801561001057600080fd5b50600436106100ff5760003560e01c8063a15ad07711610097578063c9fa8b2a11610066578063c9fa8b2a14610279578063e4fc6b6d146102a9578063f7982243146102c7578063fe3fbbad146102e3576100ff565b8063a15ad07714610203578063a4b239801461021f578063bc3b2b1214610229578063c25af4c61461025b576100ff565b806357d775f8116100d357806357d775f8146101a15780635beede08146101bf5780635db854b0146101c957806361d027b3146101e5576100ff565b8062640c2e146101045780630505c8c9146101225780632e3405991461014057806336d33f4414610171575b600080fd5b61010c6102ff565b6040516101199190611895565b60405180910390f35b61012a610305565b60405161013791906118f1565b60405180910390f35b61015a6004803603810190610155919061193d565b61032e565b60405161016892919061196a565b60405180910390f35b61018b600480360381019061018691906119bf565b610382565b6040516101989190611895565b60405180910390f35b6101a961045c565b6040516101b69190611895565b60405180910390f35b6101c7610480565b005b6101e360048036038101906101de9190611a24565b6105da565b005b6101ed6106d5565b6040516101fa91906118f1565b60405180910390f35b61021d600480360381019061021891906119bf565b6106f9565b005b61022761083b565b005b610243600480360381019061023e919061193d565b610987565b60405161025293929190611a9a565b60405180910390f35b6102636109be565b6040516102709190611b30565b60405180910390f35b610293600480360381019061028e919061193d565b6109e4565b6040516102a09190611895565b60405180910390f35b6102b1610ab3565b6040516102be9190611b4b565b60405180910390f35b6102e160048036038101906102dc9190611b66565b610c74565b005b6102fd60048036038101906102f89190611ba6565b610de9565b005b60035481565b60008060009054906101000a900473ffffffffffffffffffffffffffffffffffffffff16905090565b6005818154811061033e57600080fd5b90600052602060002090600202016000915090508060000154908060010160009054906101000a900473ffffffffffffffffffffffffffffffffffffffff16905082565b60008060005b600580549050811015610452578373ffffffffffffffffffffffffffffffffffffffff16600582815481106103c0576103bf611be6565b5b906000526020600020906002020160010160009054906101000a900473ffffffffffffffffffffffffffffffffffffffff1673ffffffffffffffffffffffffffffffffffffffff16141561043f5761043c6005828154811061042557610424611be6565b5b9060005260206000209060020201600001546109e4565b91505b808061044a90611c44565b915050610388565b5080915050919050565b7f000000000000000000000000000000000000000000000000000000000000000081565b600160009054906101000a900473ffffffffffffffffffffffffffffffffffffffff1673ffffffffffffffffffffffffffffffffffffffff163373ffffffffffffffffffffffffffffffffffffffff16146104da57600080fd5b600160009054906101000a900473ffffffffffffffffffffffffffffffffffffffff1673ffffffffffffffffffffffffffffffffffffffff1660008054906101000a900473ffffffffffffffffffffffffffffffffffffffff1673ffffffffffffffffffffffffffffffffffffffff167f8be0079c531659141344cd1fd0a4f28419497f9722a3daafe3b4186f6b6457e060405160405180910390a3600160009054906101000a900473ffffffffffffffffffffffffffffffffffffffff166000806101000a81548173ffffffffffffffffffffffffffffffffffffffff021916908373ffffffffffffffffffffffffffffffffffffffff160217905550565b3373ffffffffffffffffffffffffffffffffffffffff1660008054906101000a900473ffffffffffffffffffffffffffffffffffffffff1673ffffffffffffffffffffffffffffffffffffffff1614610668576040517f08c379a000000000000000000000000000000000000000000000000000000000815260040161065f90611cea565b60405180910390fd5b60405180606001604052808415158152602001838152602001828152506004600086815260200190815260200160002060008201518160000160006101000a81548160ff021916908315150217905550602082015181600101556040820151816002015590505050505050565b7f000000000000000000000000000000000000000000000000000000000000000081565b3373ffffffffffffffffffffffffffffffffffffffff1660008054906101000a900473ffffffffffffffffffffffffffffffffffffffff1673ffffffffffffffffffffffffffffffffffffffff1614610787576040517f08c379a000000000000000000000000000000000000000000000000000000000815260040161077e90611cea565b60405180910390fd5b600073ffffffffffffffffffffffffffffffffffffffff168173ffffffffffffffffffffffffffffffffffffffff1614156107f7576040517f08c379a00000000000000000000000000000000000000000000000000000000081526004016107ee90611d7c565b60405180910390fd5b80600160006101000a81548173ffffffffffffffffffffffffffffffffffffffff021916908373ffffffffffffffffffffffffffffffffffffffff16021790555050565b3373ffffffffffffffffffffffffffffffffffffffff1660008054906101000a900473ffffffffffffffffffffffffffffffffffffffff1673ffffffffffffffffffffffffffffffffffffffff16146108c9576040517f08c379a00000000000000000000000000000000000000000000000000000000081526004016108c090611cea565b60405180910390fd5b600073ffffffffffffffffffffffffffffffffffffffff1660008054906101000a900473ffffffffffffffffffffffffffffffffffffffff1673ffffffffffffffffffffffffffffffffffffffff167f8be0079c531659141344cd1fd0a4f28419497f9722a3daafe3b4186f6b6457e060405160405180910390a360008060006101000a81548173ffffffffffffffffffffffffffffffffffffffff021916908373ffffffffffffffffffffffffffffffffffffffff160217905550565b60046020528060005260406000206000915090508060000160009054906101000a900460ff16908060010154908060020154905083565b600260009054906101000a900473ffffffffffffffffffffffffffffffffffffffff1681565b6000610aac610aa7610a96610a88600260009054906101000a900473ffffffffffffffffffffffffffffffffffffffff1673ffffffffffffffffffffffffffffffffffffffff166318160ddd6040518163ffffffff1660e01b8152600401602060405180830381865afa158015610a5f573d6000803e3d6000fd5b505050506040513d601f19601f82011682018060405250810190610a839190611db1565b610f88565b610a9186610f88565b611005565b610aa2620f4240610f88565b61139e565b61148e565b9050919050565b60004360035411610c6c57610b02610afd610acf600354610f88565b610af87f0000000000000000000000000000000000000000000000000000000000000000610f88565b6114b1565b61148e565b60038190555060005b600580549050811015610c6257600060058281548110610b2e57610b2d611be6565b5b9060005260206000209060020201600001541115610c4f577f000000000000000000000000000000000000000000000000000000000000000073ffffffffffffffffffffffffffffffffffffffff16636a20de9260058381548110610b9657610b95611be6565b5b906000526020600020906002020160010160009054906101000a900473ffffffffffffffffffffffffffffffffffffffff16610bf660058581548110610bdf57610bde611be6565b5b9060005260206000209060020201600001546109e4565b6040518363ffffffff1660e01b8152600401610c13929190611dde565b600060405180830381600087803b158015610c2d57600080fd5b505af1158015610c41573d6000803e3d6000fd5b50505050610c4e81611530565b5b8080610c5a90611c44565b915050610b0b565b5060019050610c71565b600090505b90565b3373ffffffffffffffffffffffffffffffffffffffff1660008054906101000a900473ffffffffffffffffffffffffffffffffffffffff1673ffffffffffffffffffffffffffffffffffffffff1614610d02576040517f08c379a0000000000000000000000000000000000000000000000000000000008152600401610cf990611cea565b60405180910390fd5b600073ffffffffffffffffffffffffffffffffffffffff168273ffffffffffffffffffffffffffffffffffffffff161415610d3c57600080fd5b600560405180604001604052808381526020018473ffffffffffffffffffffffffffffffffffffffff1681525090806001815401808255809150506001900390600052602060002090600202016000909190919091506000820151816000015560208201518160010160006101000a81548173ffffffffffffffffffffffffffffffffffffffff021916908373ffffffffffffffffffffffffffffffffffffffff16021790555050505050565b3373ffffffffffffffffffffffffffffffffffffffff1660008054906101000a900473ffffffffffffffffffffffffffffffffffffffff1673ffffffffffffffffffffffffffffffffffffffff1614610e77576040517f08c379a0000000000000000000000000000000000000000000000000000000008152600401610e6e90611cea565b60405180910390fd5b60058281548110610e8b57610e8a611be6565b5b906000526020600020906002020160010160009054906101000a900473ffffffffffffffffffffffffffffffffffffffff1673ffffffffffffffffffffffffffffffffffffffff168173ffffffffffffffffffffffffffffffffffffffff1614610ef457600080fd5b600060058381548110610f0a57610f09611be6565b5b906000526020600020906002020160010160006101000a81548173ffffffffffffffffffffffffffffffffffffffff021916908373ffffffffffffffffffffffffffffffffffffffff160217905550600060058381548110610f6f57610f6e611be6565b5b9060005260206000209060020201600001819055505050565b610f90611869565b610f98611724565b821115610fda576040517f08c379a0000000000000000000000000000000000000000000000000000000008152600401610fd190611e79565b60405180910390fd5b604051806020016040528069d3c21bcecceda100000084610ffb9190611e99565b8152509050919050565b61100d611869565b600083600001511480611024575060008260000151145b1561104057604051806020016040528060008152509050611398565b69d3c21bcecceda10000008260000151141561105e57829050611398565b69d3c21bcecceda10000008360000151141561107c57819050611398565b600069d3c21bcecceda10000006110928561174c565b600001516110a09190611f22565b905060006110ad8561178e565b600001519050600069d3c21bcecceda10000006110c98661174c565b600001516110d79190611f22565b905060006110e48661178e565b600001519050600082856110f89190611e99565b9050600085146111505782858261110f9190611f22565b1461114f576040517f08c379a000000000000000000000000000000000000000000000000000000000815260040161114690611f9f565b60405180910390fd5b5b600069d3c21bcecceda1000000826111689190611e99565b9050600082146111ca5769d3c21bcecceda100000082826111899190611f22565b146111c9576040517f08c379a00000000000000000000000000000000000000000000000000000000081526004016111c09061200b565b60405180910390fd5b5b809150600084866111db9190611e99565b905060008614611233578486826111f29190611f22565b14611232576040517f08c379a000000000000000000000000000000000000000000000000000000000815260040161122990612077565b60405180910390fd5b5b600084886112419190611e99565b905060008814611299578488826112589190611f22565b14611298576040517f08c379a000000000000000000000000000000000000000000000000000000000815260040161128f906120e3565b60405180910390fd5b5b6112a16117df565b876112ac9190611f22565b96506112b66117df565b856112c19190611f22565b9450600085886112d19190611e99565b905060008814611329578588826112e89190611f22565b14611328576040517f08c379a000000000000000000000000000000000000000000000000000000000815260040161131f9061214f565b60405180910390fd5b5b60006040518060200160405280878152509050611354816040518060200160405280878152506114b1565b905061136e816040518060200160405280868152506114b1565b9050611388816040518060200160405280858152506114b1565b9050809a50505050505050505050505b92915050565b6113a6611869565b6000826000015114156113ee576040517f08c379a00000000000000000000000000000000000000000000000000000000081526004016113e5906121bb565b60405180910390fd5b600069d3c21bcecceda1000000846000015161140a9190611e99565b9050836000015169d3c21bcecceda1000000826114279190611f22565b14611467576040517f08c379a000000000000000000000000000000000000000000000000000000000815260040161145e90612227565b60405180910390fd5b60405180602001604052808460000151836114829190611f22565b81525091505092915050565b600069d3c21bcecceda100000082600001516114aa9190611f22565b9050919050565b6114b9611869565b6000826000015184600001516114cf9190612247565b90508360000151811015611518576040517f08c379a000000000000000000000000000000000000000000000000000000000815260040161150f906122e9565b60405180910390fd5b60405180602001604052808281525091505092915050565b6000600460008381526020019081526020016000206040518060600160405290816000820160009054906101000a900460ff1615151515815260200160018201548152602001600282015481525050905060008160200151146117205780600001511561165d576115e26115dd6115cb600585815481106115b4576115b3611be6565b5b906000526020600020906002020160000154610f88565b6115d88460200151610f88565b6114b1565b61148e565b600583815481106115f6576115f5611be6565b5b90600052602060002090600202016000018190555080604001516005838154811061162457611623611be6565b5b9060005260206000209060020201600001541061165857600060046000848152602001908152602001600020600101819055505b61171f565b6116a86116a36116916005858154811061167a57611679611be6565b5b906000526020600020906002020160000154610f88565b61169e8460200151610f88565b6117ec565b61148e565b600583815481106116bc576116bb611be6565b5b9060005260206000209060020201600001819055508060400151600583815481106116ea576116e9611be6565b5b9060005260206000209060020201600001541161171e57600060046000848152602001908152602001600020600101819055505b5b5b5050565b60007fffffffffffffffffffffffffffffffffffffffffffffffffffffffffffffffff905090565b611754611869565b604051806020016040528069d3c21bcecceda100000080856000015161177a9190611f22565b6117849190611e99565b8152509050919050565b611796611869565b604051806020016040528069d3c21bcecceda10000008085600001516117bc9190611f22565b6117c69190611e99565b84600001516117d59190612309565b8152509050919050565b600064e8d4a51000905090565b6117f4611869565b81600001518360000151101561183f576040517f08c379a000000000000000000000000000000000000000000000000000000000815260040161183690612389565b60405180910390fd5b60405180602001604052808360000151856000015161185e9190612309565b815250905092915050565b6040518060200160405280600081525090565b6000819050919050565b61188f8161187c565b82525050565b60006020820190506118aa6000830184611886565b92915050565b600073ffffffffffffffffffffffffffffffffffffffff82169050919050565b60006118db826118b0565b9050919050565b6118eb816118d0565b82525050565b600060208201905061190660008301846118e2565b92915050565b600080fd5b61191a8161187c565b811461192557600080fd5b50565b60008135905061193781611911565b92915050565b6000602082840312156119535761195261190c565b5b600061196184828501611928565b91505092915050565b600060408201905061197f6000830185611886565b61198c60208301846118e2565b9392505050565b61199c816118d0565b81146119a757600080fd5b50565b6000813590506119b981611993565b92915050565b6000602082840312156119d5576119d461190c565b5b60006119e3848285016119aa565b91505092915050565b60008115159050919050565b611a01816119ec565b8114611a0c57600080fd5b50565b600081359050611a1e816119f8565b92915050565b60008060008060808587031215611a3e57611a3d61190c565b5b6000611a4c87828801611928565b9450506020611a5d87828801611a0f565b9350506040611a6e87828801611928565b9250506060611a7f87828801611928565b91505092959194509250565b611a94816119ec565b82525050565b6000606082019050611aaf6000830186611a8b565b611abc6020830185611886565b611ac96040830184611886565b949350505050565b6000819050919050565b6000611af6611af1611aec846118b0565b611ad1565b6118b0565b9050919050565b6000611b0882611adb565b9050919050565b6000611b1a82611afd565b9050919050565b611b2a81611b0f565b82525050565b6000602082019050611b456000830184611b21565b92915050565b6000602082019050611b606000830184611a8b565b92915050565b60008060408385031215611b7d57611b7c61190c565b5b6000611b8b858286016119aa565b9250506020611b9c85828601611928565b9150509250929050565b60008060408385031215611bbd57611bbc61190c565b5b6000611bcb85828601611928565b9250506020611bdc858286016119aa565b9150509250929050565b7f4e487b7100000000000000000000000000000000000000000000000000000000600052603260045260246000fd5b7f4e487b7100000000000000000000000000000000000000000000000000000000600052601160045260246000fd5b6000611c4f8261187c565b91507fffffffffffffffffffffffffffffffffffffffffffffffffffffffffffffffff821415611c8257611c81611c15565b5b600182019050919050565b600082825260208201905092915050565b7f4f776e61626c653a2063616c6c6572206973206e6f7420746865206f776e6572600082015250565b6000611cd4602083611c8d565b9150611cdf82611c9e565b602082019050919050565b60006020820190508181036000830152611d0381611cc7565b9050919050565b7f4f776e61626c653a206e6577206f776e657220697320746865207a65726f206160008201527f6464726573730000000000000000000000000000000000000000000000000000602082015250565b6000611d66602683611c8d565b9150611d7182611d0a565b604082019050919050565b60006020820190508181036000830152611d9581611d59565b9050919050565b600081519050611dab81611911565b92915050565b600060208284031215611dc757611dc661190c565b5b6000611dd584828501611d9c565b91505092915050565b6000604082019050611df360008301856118e2565b611e006020830184611886565b9392505050565b7f63616e277420637265617465206669786964697479206e756d626572206c617260008201527f676572207468616e206d61784e65774669786564282900000000000000000000602082015250565b6000611e63603683611c8d565b9150611e6e82611e07565b604082019050919050565b60006020820190508181036000830152611e9281611e56565b9050919050565b6000611ea48261187c565b9150611eaf8361187c565b9250817fffffffffffffffffffffffffffffffffffffffffffffffffffffffffffffffff0483118215151615611ee857611ee7611c15565b5b828202905092915050565b7f4e487b7100000000000000000000000000000000000000000000000000000000600052601260045260246000fd5b6000611f2d8261187c565b9150611f388361187c565b925082611f4857611f47611ef3565b5b828204905092915050565b7f6f766572666c6f77207831793120646574656374656400000000000000000000600082015250565b6000611f89601683611c8d565b9150611f9482611f53565b602082019050919050565b60006020820190508181036000830152611fb881611f7c565b9050919050565b7f6f766572666c6f772078317931202a2066697865643120646574656374656400600082015250565b6000611ff5601f83611c8d565b915061200082611fbf565b602082019050919050565b6000602082019050818103600083015261202481611fe8565b9050919050565b7f6f766572666c6f77207832793120646574656374656400000000000000000000600082015250565b6000612061601683611c8d565b915061206c8261202b565b602082019050919050565b6000602082019050818103600083015261209081612054565b9050919050565b7f6f766572666c6f77207831793220646574656374656400000000000000000000600082015250565b60006120cd601683611c8d565b91506120d882612097565b602082019050919050565b600060208201905081810360008301526120fc816120c0565b9050919050565b7f6f766572666c6f77207832793220646574656374656400000000000000000000600082015250565b6000612139601683611c8d565b915061214482612103565b602082019050919050565b600060208201905081810360008301526121688161212c565b9050919050565b7f63616e2774206469766964652062792030000000000000000000000000000000600082015250565b60006121a5601183611c8d565b91506121b08261216f565b602082019050919050565b600060208201905081810360008301526121d481612198565b9050919050565b7f6f766572666c6f77206174206469766964650000000000000000000000000000600082015250565b6000612211601283611c8d565b915061221c826121db565b602082019050919050565b6000602082019050818103600083015261224081612204565b9050919050565b60006122528261187c565b915061225d8361187c565b9250827fffffffffffffffffffffffffffffffffffffffffffffffffffffffffffffffff0382111561229257612291611c15565b5b828201905092915050565b7f616464206f766572666c6f772064657465637465640000000000000000000000600082015250565b60006122d3601583611c8d565b91506122de8261229d565b602082019050919050565b60006020820190508181036000830152612302816122c6565b9050919050565b60006123148261187c565b915061231f8361187c565b92508282101561233257612331611c15565b5b828203905092915050565b7f737562737472616374696f6e20756e646572666c6f7720646574656374656400600082015250565b6000612373601f83611c8d565b915061237e8261233d565b602082019050919050565b600060208201905081810360008301526123a281612366565b905091905056fea26469706673582212207bc45337a16893fe51cde753fc2bb28e0c2b5facb8d2b29543d59eb9230b7d3f64736f6c634300080a0033",
  "immutableReferences": {
    "10441": [
      {
        "length": 32,
        "start": 1751
      },
      {
        "length": 32,
        "start": 2888
      }
    ],
    "10443": [
      {
        "length": 32,
        "start": 1118
      },
      {
        "length": 32,
        "start": 2772
      }
    ]
  },
  "source": "// SPDX-License-Identifier: AGPL-3.0-or-later\n\npragma solidity 0.8.10;\n\nimport \"@openzeppelin/contracts/access/Ownable.sol\";\nimport \"./Fixidity.sol\";\nimport \"@openzeppelin/contracts/token/ERC20/IERC20.sol\";\nimport \"@openzeppelin/contracts/token/ERC20/utils/SafeERC20.sol\";\n\n\ninterface IPolicy {\n\n    function policy() external view returns (address);\n\n    function renouncePolicy() external;\n  \n    function pushPolicy( address newPolicy_ ) external;\n\n    function pullPolicy() external;\n}\n\ncontract Policy is IPolicy {\n    \n    address internal _policy;\n    address internal _newPolicy;\n\n    event OwnershipTransferred(address indexed previousOwner, address indexed newOwner);\n\n    constructor () {\n        _policy = msg.sender;\n        emit OwnershipTransferred( address(0), _policy );\n    }\n\n    function policy() public view override returns (address) {\n        return _policy;\n    }\n\n    modifier onlyPolicy() {\n        require( _policy == msg.sender, \"Ownable: caller is not the owner\" );\n        _;\n    }\n\n    function renouncePolicy() public virtual override onlyPolicy() {\n        emit OwnershipTransferred( _policy, address(0) );\n        _policy = address(0);\n    }\n\n    function pushPolicy( address newPolicy_ ) public virtual override onlyPolicy() {\n        require( newPolicy_ != address(0), \"Ownable: new owner is the zero address\");\n        _newPolicy = newPolicy_;\n    }\n\n    function pullPolicy() public virtual override {\n        require( msg.sender == _newPolicy );\n        emit OwnershipTransferred( _policy, _newPolicy );\n        _policy = _newPolicy;\n    }\n}\n\ninterface ITreasury {\n    function mintRewards( address _recipient, uint _amount ) external;\n}\n\ncontract Distributor is Policy {\n    \n    /* ====== VARIABLES ====== */\n\n    IERC20 public  BOSS;\n    address public immutable treasury;\n    \n    uint public immutable epochLength;\n    uint public nextEpochBlock;\n    \n    mapping( uint => Adjust ) public adjustments;\n    \n    \n    /* ====== STRUCTS ====== */\n        \n    struct Info {\n        uint rate; // in ten-thousandths ( 5000 = 0.5% )\n        address recipient;\n    }\n    Info[] public info;\n    \n    struct Adjust {\n        bool add;\n        uint rate;\n        uint target;\n    }\n    \n    \n    /* ====== CONSTRUCTOR ====== */\n\n    constructor( address _treasury, IERC20 _boss, uint _epochLength, uint _nextEpochBlock ) {        \n        require( _treasury != address(0) );\n        treasury = _treasury;\n        require( address(_boss) != address(0) );\n        BOSS = _boss;\n        epochLength = _epochLength;\n        nextEpochBlock = _nextEpochBlock;\n    }\n    \n    \n    \n    /* ====== PUBLIC FUNCTIONS ====== */\n    \n    /**\n        @notice send epoch reward to staking contract\n     */\n    function distribute() external returns ( bool ) {\n        if ( nextEpochBlock <= block.number ) {\n            nextEpochBlock = Fixidity.fromFixed( Fixidity.add( Fixidity.newFixed(nextEpochBlock) , Fixidity.newFixed(epochLength))); // set next epoch block\n            \n            // distribute rewards to each recipient\n            for ( uint i = 0; i < info.length; i++ ) {\n                if ( info[ i ].rate > 0 ) {\n                    ITreasury( treasury ).mintRewards( // mint and send from treasury\n                        info[ i ].recipient, \n                        nextRewardAt( info[ i ].rate ) \n                    );\n                    adjust( i ); // check for adjustment\n                }\n            }\n            return true;\n        } else { \n            return false; \n        }\n    }\n    \n    \n    \n    /* ====== INTERNAL FUNCTIONS ====== */\n\n    /**\n        @notice increment reward rate for collector\n     */\n    function adjust( uint _index ) internal {\n        Adjust memory adjustment = adjustments[ _index ];\n        if ( adjustment.rate != 0 ) {\n            if ( adjustment.add ) { // if rate should increase\n                info[ _index ].rate = Fixidity.fromFixed( Fixidity.add( Fixidity.newFixed(info[ _index ].rate) , Fixidity.newFixed(adjustment.rate))); // raise rate\n                if ( info[ _index ].rate >= adjustment.target ) { // if target met\n                    adjustments[ _index ].rate = 0; // turn off adjustment\n                }\n            } else { // if rate should decrease\n                info[ _index ].rate = Fixidity.fromFixed( Fixidity.subtract( Fixidity.newFixed(info[ _index ].rate) , Fixidity.newFixed(adjustment.rate))); // lower rate\n                if ( info[ _index ].rate <= adjustment.target ) { // if target met\n                    adjustments[ _index ].rate = 0; // turn off adjustment\n                }\n            }\n        }\n    }\n    \n    \n    \n    /* ====== VIEW FUNCTIONS ====== */\n\n    /**\n        @notice view function for next reward at given rate\n        @param _rate uint\n        @return uint\n     */\n    function nextRewardAt( uint _rate ) public view returns ( uint ) {\n        return Fixidity.fromFixed( Fixidity.divide( Fixidity.mul( Fixidity.newFixed(BOSS.totalSupply()) , Fixidity.newFixed(_rate)) , Fixidity.newFixed(1000000))); \n    }\n\n    /**\n        @notice view function for next reward for specified address\n        @param _recipient address\n        @return uint\n     */\n    function nextRewardFor( address _recipient ) public view returns ( uint ) {\n        uint reward;\n        for ( uint i = 0; i < info.length; i++ ) {\n            if ( info[ i ].recipient == _recipient ) {\n                reward = nextRewardAt( info[ i ].rate );\n            }\n        }\n        return reward;\n    }\n    \n    \n    \n    /* ====== POLICY FUNCTIONS ====== */\n\n    /**\n        @notice adds recipient for distributions\n        @param _recipient address\n        @param _rewardRate uint\n     */\n    function addRecipient( address _recipient, uint _rewardRate ) external onlyPolicy() {\n        require( _recipient != address(0) );\n        info.push( Info({\n            recipient: _recipient,\n            rate: _rewardRate\n        }));\n    }\n\n    /**\n        @notice removes recipient for distributions\n        @param _index uint\n        @param _recipient address\n     */\n    function removeRecipient( uint _index, address _recipient ) external onlyPolicy() {\n        require( _recipient == info[ _index ].recipient );\n        info[ _index ].recipient = address(0);\n        info[ _index ].rate = 0;\n    }\n\n    /**\n        @notice set adjustment info for a collector's reward rate\n        @param _index uint\n        @param _add bool\n        @param _rate uint\n        @param _target uint\n     */\n    function setAdjustment( uint _index, bool _add, uint _rate, uint _target ) external onlyPolicy() {\n        adjustments[ _index ] = Adjust({\n            add: _add,\n            rate: _rate,\n            target: _target\n        });\n    }\n}",
  "sourcePath": "/Users/samgville/Documents/Nostra DAO /nostra-dao-contracts/contracts/StakingDistributor.sol",
  "compiler": {
    "name": "solc",
    "version": "0.8.10+commit.fc410830.Emscripten.clang"
  },
  "schemaVersion": "3.4.4",
  "updatedAt": "2022-01-21T00:17:48.853Z",
  "devdoc": {
    "kind": "dev",
    "methods": {
      "addRecipient(address,uint256)": {
        "params": {
          "_recipient": "address",
          "_rewardRate": "uint"
        }
      },
      "nextRewardAt(uint256)": {
        "params": {
          "_rate": "uint"
        },
        "returns": {
          "_0": "uint"
        }
      },
      "nextRewardFor(address)": {
        "params": {
          "_recipient": "address"
        },
        "returns": {
          "_0": "uint"
        }
      },
      "removeRecipient(uint256,address)": {
        "params": {
          "_index": "uint",
          "_recipient": "address"
        }
      },
      "setAdjustment(uint256,bool,uint256,uint256)": {
        "params": {
          "_add": "bool",
          "_index": "uint",
          "_rate": "uint",
          "_target": "uint"
        }
      }
    },
    "version": 1
  },
  "userdoc": {
    "kind": "user",
    "methods": {
      "addRecipient(address,uint256)": {
        "notice": "adds recipient for distributions"
      },
      "distribute()": {
        "notice": "send epoch reward to staking contract"
      },
      "nextRewardAt(uint256)": {
        "notice": "view function for next reward at given rate"
      },
      "nextRewardFor(address)": {
        "notice": "view function for next reward for specified address"
      },
      "removeRecipient(uint256,address)": {
        "notice": "removes recipient for distributions"
      },
      "setAdjustment(uint256,bool,uint256,uint256)": {
        "notice": "set adjustment info for a collector's reward rate"
      }
    },
    "version": 1
  }
}