{
  "contractName": "StakingHelper",
  "abi": [
    {
      "inputs": [
        {
          "internalType": "address",
          "name": "_staking",
          "type": "address"
        },
        {
          "internalType": "contract IERC20",
          "name": "_BOSS",
          "type": "address"
        }
      ],
      "stateMutability": "nonpayable",
      "type": "constructor"
    },
    {
      "inputs": [],
      "name": "BOSS",
      "outputs": [
        {
          "internalType": "contract IERC20",
          "name": "",
          "type": "address"
        }
      ],
      "stateMutability": "view",
      "type": "function"
    },
    {
      "inputs": [],
      "name": "staking",
      "outputs": [
        {
          "internalType": "address",
          "name": "",
          "type": "address"
        }
      ],
      "stateMutability": "view",
      "type": "function"
    },
    {
      "inputs": [
        {
          "internalType": "uint256",
          "name": "_amount",
          "type": "uint256"
        }
      ],
      "name": "stake",
      "outputs": [],
      "stateMutability": "nonpayable",
      "type": "function"
    }
  ],
  "bytecode": "0x60a060405234801561001057600080fd5b50604051610815380380610815833981810160405281019061003291906101c2565b600073ffffffffffffffffffffffffffffffffffffffff168273ffffffffffffffffffffffffffffffffffffffff16141561006c57600080fd5b8173ffffffffffffffffffffffffffffffffffffffff1660808173ffffffffffffffffffffffffffffffffffffffff1681525050600073ffffffffffffffffffffffffffffffffffffffff168173ffffffffffffffffffffffffffffffffffffffff1614156100da57600080fd5b806000806101000a81548173ffffffffffffffffffffffffffffffffffffffff021916908373ffffffffffffffffffffffffffffffffffffffff1602179055505050610202565b600080fd5b600073ffffffffffffffffffffffffffffffffffffffff82169050919050565b600061015182610126565b9050919050565b61016181610146565b811461016c57600080fd5b50565b60008151905061017e81610158565b92915050565b600061018f82610146565b9050919050565b61019f81610184565b81146101aa57600080fd5b50565b6000815190506101bc81610196565b92915050565b600080604083850312156101d9576101d8610121565b5b60006101e78582860161016f565b92505060206101f8858286016101ad565b9150509250929050565b6080516105e46102316000396000818160a0015281816101a10152818161022401526102c301526105e46000f3fe608060405234801561001057600080fd5b50600436106100415760003560e01c80634cf088d914610046578063a694fc3a14610064578063c25af4c614610080575b600080fd5b61004e61009e565b60405161005b91906103b4565b60405180910390f35b61007e6004803603810190610079919061040a565b6100c2565b005b61008861034f565b6040516100959190610496565b60405180910390f35b7f000000000000000000000000000000000000000000000000000000000000000081565b60008054906101000a900473ffffffffffffffffffffffffffffffffffffffff1673ffffffffffffffffffffffffffffffffffffffff166323b872dd3330846040518463ffffffff1660e01b815260040161011f939291906104c0565b6020604051808303816000875af115801561013e573d6000803e3d6000fd5b505050506040513d601f19601f82011682018060405250810190610162919061052f565b5060008054906101000a900473ffffffffffffffffffffffffffffffffffffffff1673ffffffffffffffffffffffffffffffffffffffff1663095ea7b37f0000000000000000000000000000000000000000000000000000000000000000836040518363ffffffff1660e01b81526004016101de92919061055c565b6020604051808303816000875af11580156101fd573d6000803e3d6000fd5b505050506040513d601f19601f82011682018060405250810190610221919061052f565b507f000000000000000000000000000000000000000000000000000000000000000073ffffffffffffffffffffffffffffffffffffffff16637acb775782336040518363ffffffff1660e01b815260040161027d929190610585565b6020604051808303816000875af115801561029c573d6000803e3d6000fd5b505050506040513d601f19601f820116820180604052508101906102c0919061052f565b507f000000000000000000000000000000000000000000000000000000000000000073ffffffffffffffffffffffffffffffffffffffff16631e83409a336040518263ffffffff1660e01b815260040161031a91906103b4565b600060405180830381600087803b15801561033457600080fd5b505af1158015610348573d6000803e3d6000fd5b5050505050565b60008054906101000a900473ffffffffffffffffffffffffffffffffffffffff1681565b600073ffffffffffffffffffffffffffffffffffffffff82169050919050565b600061039e82610373565b9050919050565b6103ae81610393565b82525050565b60006020820190506103c960008301846103a5565b92915050565b600080fd5b6000819050919050565b6103e7816103d4565b81146103f257600080fd5b50565b600081359050610404816103de565b92915050565b6000602082840312156104205761041f6103cf565b5b600061042e848285016103f5565b91505092915050565b6000819050919050565b600061045c61045761045284610373565b610437565b610373565b9050919050565b600061046e82610441565b9050919050565b600061048082610463565b9050919050565b61049081610475565b82525050565b60006020820190506104ab6000830184610487565b92915050565b6104ba816103d4565b82525050565b60006060820190506104d560008301866103a5565b6104e260208301856103a5565b6104ef60408301846104b1565b949350505050565b60008115159050919050565b61050c816104f7565b811461051757600080fd5b50565b60008151905061052981610503565b92915050565b600060208284031215610545576105446103cf565b5b60006105538482850161051a565b91505092915050565b600060408201905061057160008301856103a5565b61057e60208301846104b1565b9392505050565b600060408201905061059a60008301856104b1565b6105a760208301846103a5565b939250505056fea264697066735822122006acb8fee268b37f76b4046de6b869b5c1f282ec07b95eefa8490b857ac3d0b264736f6c634300080a0033",
  "immutableReferences": {
    "10886": [
      {
        "length": 32,
        "start": 160
      },
      {
        "length": 32,
        "start": 417
      },
      {
        "length": 32,
        "start": 548
      },
      {
        "length": 32,
        "start": 707
      }
    ]
  },
  "source": "// SPDX-License-Identifier: AGPL-3.0-or-later\npragma solidity 0.8.10;\n\nimport \"@openzeppelin/contracts/token/ERC20/IERC20.sol\";\n\ninterface IStaking {\n    function stake( uint _amount, address _recipient ) external returns ( bool );\n    function claim( address _recipient ) external;\n}\n\ncontract StakingHelper {\n\n    address public immutable staking;\n    IERC20 public  BOSS;\n\n    constructor ( address _staking, IERC20 _BOSS ) {\n        require( _staking != address(0) );\n        staking = _staking;\n        require( address(_BOSS) != address(0) );\n        BOSS = _BOSS;\n    }\n\n    function stake( uint _amount ) external {\n        BOSS.transferFrom( msg.sender, address(this), _amount );\n        BOSS.approve( staking, _amount );\n        IStaking( staking ).stake( _amount, msg.sender );\n        IStaking( staking ).claim( msg.sender );\n    }\n}",
  "sourcePath": "/Users/samgville/Documents/Nostra DAO /nostra-dao-contracts/contracts/StakingHelper.sol",
  "compiler": {
    "name": "solc",
    "version": "0.8.10+commit.fc410830.Emscripten.clang"
  },
  "schemaVersion": "3.4.4",
  "updatedAt": "2022-01-21T00:17:48.889Z",
  "devdoc": {
    "kind": "dev",
    "methods": {},
    "version": 1
  },
  "userdoc": {
    "kind": "user",
    "methods": {},
    "version": 1
  }
}