{
  "contractName": "StakingWarmup",
  "abi": [
    {
      "inputs": [
        {
          "internalType": "address",
          "name": "_staking",
          "type": "address"
        },
        {
          "internalType": "contract IERC20",
          "name": "_sBOSS",
          "type": "address"
        }
      ],
      "stateMutability": "nonpayable",
      "type": "constructor"
    },
    {
      "inputs": [],
      "name": "sBOSS",
      "outputs": [
        {
          "internalType": "contract IERC20",
          "name": "",
          "type": "address"
        }
      ],
      "stateMutability": "view",
      "type": "function"
    },
    {
      "inputs": [],
      "name": "staking",
      "outputs": [
        {
          "internalType": "address",
          "name": "",
          "type": "address"
        }
      ],
      "stateMutability": "view",
      "type": "function"
    },
    {
      "inputs": [
        {
          "internalType": "address",
          "name": "_staker",
          "type": "address"
        },
        {
          "internalType": "uint256",
          "name": "_amount",
          "type": "uint256"
        }
      ],
      "name": "retrieve",
      "outputs": [],
      "stateMutability": "nonpayable",
      "type": "function"
    }
  ],
  "bytecode": "0x60a060405234801561001057600080fd5b50604051610653380380610653833981810160405281019061003291906101c2565b600073ffffffffffffffffffffffffffffffffffffffff168273ffffffffffffffffffffffffffffffffffffffff16141561006c57600080fd5b8173ffffffffffffffffffffffffffffffffffffffff1660808173ffffffffffffffffffffffffffffffffffffffff1681525050600073ffffffffffffffffffffffffffffffffffffffff168173ffffffffffffffffffffffffffffffffffffffff1614156100da57600080fd5b806000806101000a81548173ffffffffffffffffffffffffffffffffffffffff021916908373ffffffffffffffffffffffffffffffffffffffff1602179055505050610202565b600080fd5b600073ffffffffffffffffffffffffffffffffffffffff82169050919050565b600061015182610126565b9050919050565b61016181610146565b811461016c57600080fd5b50565b60008151905061017e81610158565b92915050565b600061018f82610146565b9050919050565b61019f81610184565b81146101aa57600080fd5b50565b6000815190506101bc81610196565b92915050565b600080604083850312156101d9576101d8610121565b5b60006101e78582860161016f565b92505060206101f8858286016101ad565b9150509250929050565b6080516104316102226000396000818160a0015260c401526104316000f3fe608060405234801561001057600080fd5b50600436106100415760003560e01c80634cf088d914610046578063c3a2a66514610064578063c95acac514610080575b600080fd5b61004e61009e565b60405161005b9190610222565b60405180910390f35b61007e600480360381019061007991906102a4565b6100c2565b005b6100886101bd565b6040516100959190610343565b60405180910390f35b7f000000000000000000000000000000000000000000000000000000000000000081565b7f000000000000000000000000000000000000000000000000000000000000000073ffffffffffffffffffffffffffffffffffffffff163373ffffffffffffffffffffffffffffffffffffffff161461011a57600080fd5b60008054906101000a900473ffffffffffffffffffffffffffffffffffffffff1673ffffffffffffffffffffffffffffffffffffffff1663a9059cbb83836040518363ffffffff1660e01b815260040161017592919061036d565b6020604051808303816000875af1158015610194573d6000803e3d6000fd5b505050506040513d601f19601f820116820180604052508101906101b891906103ce565b505050565b60008054906101000a900473ffffffffffffffffffffffffffffffffffffffff1681565b600073ffffffffffffffffffffffffffffffffffffffff82169050919050565b600061020c826101e1565b9050919050565b61021c81610201565b82525050565b60006020820190506102376000830184610213565b92915050565b600080fd5b61024b81610201565b811461025657600080fd5b50565b60008135905061026881610242565b92915050565b6000819050919050565b6102818161026e565b811461028c57600080fd5b50565b60008135905061029e81610278565b92915050565b600080604083850312156102bb576102ba61023d565b5b60006102c985828601610259565b92505060206102da8582860161028f565b9150509250929050565b6000819050919050565b60006103096103046102ff846101e1565b6102e4565b6101e1565b9050919050565b600061031b826102ee565b9050919050565b600061032d82610310565b9050919050565b61033d81610322565b82525050565b60006020820190506103586000830184610334565b92915050565b6103678161026e565b82525050565b60006040820190506103826000830185610213565b61038f602083018461035e565b9392505050565b60008115159050919050565b6103ab81610396565b81146103b657600080fd5b50565b6000815190506103c8816103a2565b92915050565b6000602082840312156103e4576103e361023d565b5b60006103f2848285016103b9565b9150509291505056fea26469706673582212204922bb7e29883758011feda08320da56ab24450517178f41f9526af137b81fd764736f6c634300080a0033",
  "immutableReferences": {
    "10975": [
      {
        "length": 32,
        "start": 160
      },
      {
        "length": 32,
        "start": 196
      }
    ]
  },
  "source": "// SPDX-License-Identifier: AGPL-3.0-or-later\npragma solidity 0.8.10;\n\nimport \"@openzeppelin/contracts/token/ERC20/IERC20.sol\";\n\ncontract StakingWarmup {\n\n    address public immutable staking;\n    IERC20 public sBOSS;\n\n    constructor ( address _staking, IERC20 _sBOSS ) {\n        require( _staking != address(0) );\n        staking = _staking;\n        require( address(_sBOSS) != address(0) );\n        sBOSS = _sBOSS;\n    }\n\n    function retrieve( address _staker, uint _amount ) external {\n        require( msg.sender == staking );\n        sBOSS.transfer( _staker, _amount );\n    }\n}",
  "sourcePath": "/Users/samgville/Documents/Nostra DAO /nostra-dao-contracts/contracts/StakingWarmup.sol",
  "compiler": {
    "name": "solc",
    "version": "0.8.10+commit.fc410830.Emscripten.clang"
  },
  "schemaVersion": "3.4.4",
  "updatedAt": "2022-01-21T00:17:48.922Z",
  "devdoc": {
    "kind": "dev",
    "methods": {},
    "version": 1
  },
  "userdoc": {
    "kind": "user",
    "methods": {},
    "version": 1
  }
}