{
  "contractName": "sBoss",
  "abi": [
    {
      "inputs": [],
      "stateMutability": "nonpayable",
      "type": "constructor"
    },
    {
      "anonymous": false,
      "inputs": [
        {
          "indexed": true,
          "internalType": "address",
          "name": "owner",
          "type": "address"
        },
        {
          "indexed": true,
          "internalType": "address",
          "name": "spender",
          "type": "address"
        },
        {
          "indexed": false,
          "internalType": "uint256",
          "name": "value",
          "type": "uint256"
        }
      ],
      "name": "Approval",
      "type": "event"
    },
    {
      "anonymous": false,
      "inputs": [
        {
          "indexed": true,
          "internalType": "uint256",
          "name": "epoch",
          "type": "uint256"
        },
        {
          "indexed": false,
          "internalType": "uint256",
          "name": "rebase",
          "type": "uint256"
        },
        {
          "indexed": false,
          "internalType": "uint256",
          "name": "index",
          "type": "uint256"
        }
      ],
      "name": "LogRebase",
      "type": "event"
    },
    {
      "anonymous": false,
      "inputs": [
        {
          "indexed": false,
          "internalType": "address",
          "name": "stakingContract",
          "type": "address"
        }
      ],
      "name": "LogStakingContractUpdated",
      "type": "event"
    },
    {
      "anonymous": false,
      "inputs": [
        {
          "indexed": true,
          "internalType": "uint256",
          "name": "epoch",
          "type": "uint256"
        },
        {
          "indexed": false,
          "internalType": "uint256",
          "name": "timestamp",
          "type": "uint256"
        },
        {
          "indexed": false,
          "internalType": "uint256",
          "name": "totalSupply",
          "type": "uint256"
        }
      ],
      "name": "LogSupply",
      "type": "event"
    },
    {
      "anonymous": false,
      "inputs": [
        {
          "indexed": true,
          "internalType": "address",
          "name": "previousOwner",
          "type": "address"
        },
        {
          "indexed": true,
          "internalType": "address",
          "name": "newOwner",
          "type": "address"
        }
      ],
      "name": "OwnershipTransferred",
      "type": "event"
    },
    {
      "anonymous": false,
      "inputs": [
        {
          "indexed": true,
          "internalType": "address",
          "name": "from",
          "type": "address"
        },
        {
          "indexed": true,
          "internalType": "address",
          "name": "to",
          "type": "address"
        },
        {
          "indexed": false,
          "internalType": "uint256",
          "name": "value",
          "type": "uint256"
        }
      ],
      "name": "Transfer",
      "type": "event"
    },
    {
      "inputs": [],
      "name": "INDEX",
      "outputs": [
        {
          "internalType": "uint256",
          "name": "",
          "type": "uint256"
        }
      ],
      "stateMutability": "view",
      "type": "function"
    },
    {
      "inputs": [],
      "name": "decimals",
      "outputs": [
        {
          "internalType": "uint8",
          "name": "",
          "type": "uint8"
        }
      ],
      "stateMutability": "view",
      "type": "function"
    },
    {
      "inputs": [],
      "name": "initializer",
      "outputs": [
        {
          "internalType": "address",
          "name": "",
          "type": "address"
        }
      ],
      "stateMutability": "view",
      "type": "function"
    },
    {
      "inputs": [],
      "name": "name",
      "outputs": [
        {
          "internalType": "string",
          "name": "",
          "type": "string"
        }
      ],
      "stateMutability": "view",
      "type": "function"
    },
    {
      "inputs": [],
      "name": "owner",
      "outputs": [
        {
          "internalType": "address",
          "name": "",
          "type": "address"
        }
      ],
      "stateMutability": "view",
      "type": "function"
    },
    {
      "inputs": [
        {
          "internalType": "uint256",
          "name": "",
          "type": "uint256"
        }
      ],
      "name": "rebases",
      "outputs": [
        {
          "internalType": "uint256",
          "name": "epoch",
          "type": "uint256"
        },
        {
          "internalType": "uint256",
          "name": "rebase",
          "type": "uint256"
        },
        {
          "internalType": "uint256",
          "name": "totalStakedBefore",
          "type": "uint256"
        },
        {
          "internalType": "uint256",
          "name": "totalStakedAfter",
          "type": "uint256"
        },
        {
          "internalType": "uint256",
          "name": "amountRebased",
          "type": "uint256"
        },
        {
          "internalType": "uint256",
          "name": "index",
          "type": "uint256"
        },
        {
          "internalType": "uint256",
          "name": "blockNumberOccured",
          "type": "uint256"
        }
      ],
      "stateMutability": "view",
      "type": "function"
    },
    {
      "inputs": [],
      "name": "renounceOwnership",
      "outputs": [],
      "stateMutability": "nonpayable",
      "type": "function"
    },
    {
      "inputs": [],
      "name": "stakingContract",
      "outputs": [
        {
          "internalType": "address",
          "name": "",
          "type": "address"
        }
      ],
      "stateMutability": "view",
      "type": "function"
    },
    {
      "inputs": [],
      "name": "symbol",
      "outputs": [
        {
          "internalType": "string",
          "name": "",
          "type": "string"
        }
      ],
      "stateMutability": "view",
      "type": "function"
    },
    {
      "inputs": [],
      "name": "totalSupply",
      "outputs": [
        {
          "internalType": "uint256",
          "name": "",
          "type": "uint256"
        }
      ],
      "stateMutability": "view",
      "type": "function"
    },
    {
      "inputs": [
        {
          "internalType": "address",
          "name": "newOwner",
          "type": "address"
        }
      ],
      "name": "transferOwnership",
      "outputs": [],
      "stateMutability": "nonpayable",
      "type": "function"
    },
    {
      "inputs": [
        {
          "internalType": "address",
          "name": "stakingContract_",
          "type": "address"
        }
      ],
      "name": "initialize",
      "outputs": [
        {
          "internalType": "bool",
          "name": "",
          "type": "bool"
        }
      ],
      "stateMutability": "nonpayable",
      "type": "function"
    },
    {
      "inputs": [
        {
          "internalType": "uint256",
          "name": "_INDEX",
          "type": "uint256"
        }
      ],
      "name": "setIndex",
      "outputs": [
        {
          "internalType": "bool",
          "name": "",
          "type": "bool"
        }
      ],
      "stateMutability": "nonpayable",
      "type": "function"
    },
    {
      "inputs": [
        {
          "internalType": "uint256",
          "name": "profit_",
          "type": "uint256"
        },
        {
          "internalType": "uint256",
          "name": "epoch_",
          "type": "uint256"
        }
      ],
      "name": "rebase",
      "outputs": [
        {
          "internalType": "uint256",
          "name": "",
          "type": "uint256"
        }
      ],
      "stateMutability": "nonpayable",
      "type": "function"
    },
    {
      "inputs": [
        {
          "internalType": "address",
          "name": "who",
          "type": "address"
        }
      ],
      "name": "balanceOf",
      "outputs": [
        {
          "internalType": "uint256",
          "name": "",
          "type": "uint256"
        }
      ],
      "stateMutability": "view",
      "type": "function"
    },
    {
      "inputs": [
        {
          "internalType": "uint256",
          "name": "amount",
          "type": "uint256"
        }
      ],
      "name": "gonsForBalance",
      "outputs": [
        {
          "internalType": "uint256",
          "name": "",
          "type": "uint256"
        }
      ],
      "stateMutability": "view",
      "type": "function"
    },
    {
      "inputs": [
        {
          "internalType": "uint256",
          "name": "gons",
          "type": "uint256"
        }
      ],
      "name": "balanceForGons",
      "outputs": [
        {
          "internalType": "uint256",
          "name": "",
          "type": "uint256"
        }
      ],
      "stateMutability": "view",
      "type": "function"
    },
    {
      "inputs": [],
      "name": "circulatingSupply",
      "outputs": [
        {
          "internalType": "uint256",
          "name": "",
          "type": "uint256"
        }
      ],
      "stateMutability": "view",
      "type": "function"
    },
    {
      "inputs": [],
      "name": "index",
      "outputs": [
        {
          "internalType": "uint256",
          "name": "",
          "type": "uint256"
        }
      ],
      "stateMutability": "view",
      "type": "function"
    },
    {
      "inputs": [
        {
          "internalType": "address",
          "name": "to",
          "type": "address"
        },
        {
          "internalType": "uint256",
          "name": "value",
          "type": "uint256"
        }
      ],
      "name": "transfer",
      "outputs": [
        {
          "internalType": "bool",
          "name": "",
          "type": "bool"
        }
      ],
      "stateMutability": "nonpayable",
      "type": "function"
    },
    {
      "inputs": [
        {
          "internalType": "address",
          "name": "owner_",
          "type": "address"
        },
        {
          "internalType": "address",
          "name": "spender",
          "type": "address"
        }
      ],
      "name": "allowance",
      "outputs": [
        {
          "internalType": "uint256",
          "name": "",
          "type": "uint256"
        }
      ],
      "stateMutability": "view",
      "type": "function"
    },
    {
      "inputs": [
        {
          "internalType": "address",
          "name": "from",
          "type": "address"
        },
        {
          "internalType": "address",
          "name": "to",
          "type": "address"
        },
        {
          "internalType": "uint256",
          "name": "value",
          "type": "uint256"
        }
      ],
      "name": "transferFrom",
      "outputs": [
        {
          "internalType": "bool",
          "name": "",
          "type": "bool"
        }
      ],
      "stateMutability": "nonpayable",
      "type": "function"
    },
    {
      "inputs": [
        {
          "internalType": "address",
          "name": "spender",
          "type": "address"
        },
        {
          "internalType": "uint256",
          "name": "value",
          "type": "uint256"
        }
      ],
      "name": "approve",
      "outputs": [
        {
          "internalType": "bool",
          "name": "",
          "type": "bool"
        }
      ],
      "stateMutability": "nonpayable",
      "type": "function"
    },
    {
      "inputs": [
        {
          "internalType": "address",
          "name": "spender",
          "type": "address"
        },
        {
          "internalType": "uint256",
          "name": "addedValue",
          "type": "uint256"
        }
      ],
      "name": "increaseAllowance",
      "outputs": [
        {
          "internalType": "bool",
          "name": "",
          "type": "bool"
        }
      ],
      "stateMutability": "nonpayable",
      "type": "function"
    },
    {
      "inputs": [
        {
          "internalType": "address",
          "name": "spender",
          "type": "address"
        },
        {
          "internalType": "uint256",
          "name": "subtractedValue",
          "type": "uint256"
        }
      ],
      "name": "decreaseAllowance",
      "outputs": [
        {
          "internalType": "bool",
          "name": "",
          "type": "bool"
        }
      ],
      "stateMutability": "nonpayable",
      "type": "function"
    }
  ],
  "bytecode": "0x60806040523480156200001157600080fd5b506040518060400160405280600b81526020017f5374616b656420426f73730000000000000000000000000000000000000000008152506040518060400160405280600581526020017f73424f5353000000000000000000000000000000000000000000000000000000815250816003908051906020019062000096929190620005e6565b508060049080519060200190620000af929190620005e6565b505050620000d2620000c6620001be60201b60201c565b620001c660201b60201c565b33600760006101000a81548173ffffffffffffffffffffffffffffffffffffffff021916908373ffffffffffffffffffffffffffffffffffffffff1602179055506611c37937e08000600a819055506200013533600a546200028c60201b60201c565b620001b2620001a1620001786611c37937e08000600019620001589190620006e2565b60001962000167919062000749565b6200040560201b62001ada1760201c565b62000190600a546200040560201b62001ada1760201c565b6200049160201b62001b571760201c565b6200058f60201b62001c471760201c565b600b8190555062000b0c565b600033905090565b6000600560009054906101000a900473ffffffffffffffffffffffffffffffffffffffff16905081600560006101000a81548173ffffffffffffffffffffffffffffffffffffffff021916908373ffffffffffffffffffffffffffffffffffffffff1602179055508173ffffffffffffffffffffffffffffffffffffffff168173ffffffffffffffffffffffffffffffffffffffff167f8be0079c531659141344cd1fd0a4f28419497f9722a3daafe3b4186f6b6457e060405160405180910390a35050565b600073ffffffffffffffffffffffffffffffffffffffff168273ffffffffffffffffffffffffffffffffffffffff161415620002ff576040517f08c379a0000000000000000000000000000000000000000000000000000000008152600401620002f690620007e5565b60405180910390fd5b6200031360008383620005b460201b60201c565b806002600082825462000327919062000807565b92505081905550806000808473ffffffffffffffffffffffffffffffffffffffff1673ffffffffffffffffffffffffffffffffffffffff16815260200190815260200160002060008282546200037e919062000807565b925050819055508173ffffffffffffffffffffffffffffffffffffffff16600073ffffffffffffffffffffffffffffffffffffffff167fddf252ad1be2c89b69c2b068fc378daa952ba7f163c4a11628f55a4df523b3ef83604051620003e5919062000875565b60405180910390a36200040160008383620005b960201b60201c565b5050565b6200040f62000677565b6200041f620005be60201b60201c565b82111562000464576040517f08c379a00000000000000000000000000000000000000000000000000000000081526004016200045b9062000908565b60405180910390fd5b604051806020016040528069d3c21bcecceda1000000846200048791906200092a565b8152509050919050565b6200049b62000677565b600082600001511415620004e6576040517f08c379a0000000000000000000000000000000000000000000000000000000008152600401620004dd90620009db565b60405180910390fd5b600069d3c21bcecceda100000084600001516200050491906200092a565b9050836000015169d3c21bcecceda100000082620005239190620009fd565b1462000566576040517f08c379a00000000000000000000000000000000000000000000000000000000081526004016200055d9062000a85565b60405180910390fd5b6040518060200160405280846000015183620005839190620009fd565b81525091505092915050565b600069d3c21bcecceda10000008260000151620005ad9190620009fd565b9050919050565b505050565b505050565b60007fffffffffffffffffffffffffffffffffffffffffffffffffffffffffffffffff905090565b828054620005f49062000ad6565b90600052602060002090601f01602090048101928262000618576000855562000664565b82601f106200063357805160ff191683800117855562000664565b8280016001018555821562000664579182015b828111156200066357825182559160200191906001019062000646565b5b5090506200067391906200068a565b5090565b6040518060200160405280600081525090565b5b80821115620006a55760008160009055506001016200068b565b5090565b6000819050919050565b7f4e487b7100000000000000000000000000000000000000000000000000000000600052601260045260246000fd5b6000620006ef82620006a9565b9150620006fc83620006a9565b9250826200070f576200070e620006b3565b5b828206905092915050565b7f4e487b7100000000000000000000000000000000000000000000000000000000600052601160045260246000fd5b60006200075682620006a9565b91506200076383620006a9565b9250828210156200077957620007786200071a565b5b828203905092915050565b600082825260208201905092915050565b7f45524332303a206d696e7420746f20746865207a65726f206164647265737300600082015250565b6000620007cd601f8362000784565b9150620007da8262000795565b602082019050919050565b600060208201905081810360008301526200080081620007be565b9050919050565b60006200081482620006a9565b91506200082183620006a9565b9250827fffffffffffffffffffffffffffffffffffffffffffffffffffffffffffffffff038211156200085957620008586200071a565b5b828201905092915050565b6200086f81620006a9565b82525050565b60006020820190506200088c600083018462000864565b92915050565b7f63616e277420637265617465206669786964697479206e756d626572206c617260008201527f676572207468616e206d61784e65774669786564282900000000000000000000602082015250565b6000620008f060368362000784565b9150620008fd8262000892565b604082019050919050565b600060208201905081810360008301526200092381620008e1565b9050919050565b60006200093782620006a9565b91506200094483620006a9565b9250817fffffffffffffffffffffffffffffffffffffffffffffffffffffffffffffffff048311821515161562000980576200097f6200071a565b5b828202905092915050565b7f63616e2774206469766964652062792030000000000000000000000000000000600082015250565b6000620009c360118362000784565b9150620009d0826200098b565b602082019050919050565b60006020820190508181036000830152620009f681620009b4565b9050919050565b600062000a0a82620006a9565b915062000a1783620006a9565b92508262000a2a5762000a29620006b3565b5b828204905092915050565b7f6f766572666c6f77206174206469766964650000000000000000000000000000600082015250565b600062000a6d60128362000784565b915062000a7a8262000a35565b602082019050919050565b6000602082019050818103600083015262000aa08162000a5e565b9050919050565b7f4e487b7100000000000000000000000000000000000000000000000000000000600052602260045260246000fd5b6000600282049050600182168062000aef57607f821691505b6020821081141562000b065762000b0562000aa7565b5b50919050565b6130448062000b1c6000396000f3fe608060405234801561001057600080fd5b50600436106101735760003560e01c8063715018a6116100de5780639ce110d711610097578063c4d66de811610071578063c4d66de8146104a6578063dd62ed3e146104d6578063ee99205c14610506578063f2fde38b1461052457610173565b80639ce110d714610428578063a457c2d714610446578063a9059cbb1461047657610173565b8063715018a61461035e57806373c69eb7146103685780637965d56d1461039e5780638da5cb5b146103ce5780639358928b146103ec57806395d89b411461040a57610173565b80632986c0e5116101305780632986c0e5146102745780632df75cb114610292578063313ce567146102b057806339509351146102ce57806340a5737f146102fe57806370a082311461032e57610173565b8063058ecdb41461017857806306fdde03146101a8578063095ea7b3146101c657806318160ddd146101f65780631bd396741461021457806323b872dd14610244575b600080fd5b610192600480360381019061018d9190612460565b610540565b60405161019f91906124af565b60405180910390f35b6101b061074e565b6040516101bd9190612563565b60405180910390f35b6101e060048036038101906101db91906125e3565b6107e0565b6040516101ed919061263e565b60405180910390f35b6101fe6108d2565b60405161020b91906124af565b60405180910390f35b61022e60048036038101906102299190612659565b6108dc565b60405161023b91906124af565b60405180910390f35b61025e60048036038101906102599190612686565b610909565b60405161026b919061263e565b60405180910390f35b61027c610cd0565b60405161028991906124af565b60405180910390f35b61029a610ce2565b6040516102a791906124af565b60405180910390f35b6102b8610ce8565b6040516102c591906126f5565b60405180910390f35b6102e860048036038101906102e391906125e3565b610cf1565b6040516102f5919061263e565b60405180910390f35b61031860048036038101906103139190612659565b610efc565b604051610325919061263e565b60405180910390f35b61034860048036038101906103439190612710565b610fa1565b60405161035591906124af565b60405180910390f35b61036661100d565b005b610382600480360381019061037d9190612659565b611095565b604051610395979695949392919061273d565b60405180910390f35b6103b860048036038101906103b39190612659565b6110e7565b6040516103c591906124af565b60405180910390f35b6103d6611114565b6040516103e391906127bb565b60405180910390f35b6103f461113e565b60405161040191906124af565b60405180910390f35b610412611193565b60405161041f9190612563565b60405180910390f35b610430611225565b60405161043d91906127bb565b60405180910390f35b610460600480360381019061045b91906125e3565b61124b565b60405161046d919061263e565b60405180910390f35b610490600480360381019061048b91906125e3565b6114ea565b60405161049d919061263e565b60405180910390f35b6104c060048036038101906104bb9190612710565b6116cb565b6040516104cd919061263e565b60405180910390f35b6104f060048036038101906104eb91906127d6565b611935565b6040516104fd91906124af565b60405180910390f35b61050e6119bc565b60405161051b91906127bb565b60405180910390f35b61053e60048036038101906105399190612710565b6119e2565b005b6000600660009054906101000a900473ffffffffffffffffffffffffffffffffffffffff1673ffffffffffffffffffffffffffffffffffffffff163373ffffffffffffffffffffffffffffffffffffffff161461059c57600080fd5b6000806105a761113e565b9050600085141561063c57837f917acfbe39be6509ccf7fecb66a7e42ce2be1083c2d7dd3b9b7491dabddb8da442600a546040516105e6929190612816565b60405180910390a2837f6012dbce857565c4a40974aa5de8373a761fc429077ef0c8c8611d1e20d63fb2600061061a610cd0565b604051610628929190612884565b60405180910390a2600a5492505050610748565b60008111156106815761067a61067561066761065788611ada565b610662600a54611ada565b611c6a565b61067084611ada565b611b57565b611c47565b9150610685565b8491505b6106a96106a4610696600a54611ada565b61069f85611ada565b612003565b611c47565b600a819055506000196fffffffffffffffffffffffffffffffff16600a5411156106e9576000196fffffffffffffffffffffffffffffffff16600a819055505b61072e6107296107196611c37937e0800060001961070791906128dc565b600019610714919061293c565b611ada565b610724600a54611ada565b611b57565b611c47565b600b8190555061073f818686612082565b50600a54925050505b92915050565b60606003805461075d9061299f565b80601f01602080910402602001604051908101604052809291908181526020018280546107899061299f565b80156107d65780601f106107ab576101008083540402835291602001916107d6565b820191906000526020600020905b8154815290600101906020018083116107b957829003601f168201915b5050505050905090565b600081600d60003373ffffffffffffffffffffffffffffffffffffffff1673ffffffffffffffffffffffffffffffffffffffff16815260200190815260200160002060008573ffffffffffffffffffffffffffffffffffffffff1673ffffffffffffffffffffffffffffffffffffffff168152602001908152602001600020819055508273ffffffffffffffffffffffffffffffffffffffff163373ffffffffffffffffffffffffffffffffffffffff167f8c5be1e5ebec7d5bd14f71427d1e84f3dd0314c0f7b2291e5b200ac8c7c3b925846040516108c091906124af565b60405180910390a36001905092915050565b6000600254905090565b60006109026108fd6108ed84611ada565b6108f8600b54611ada565b611c6a565b611c47565b9050919050565b60006109a96109a4610996600d60008873ffffffffffffffffffffffffffffffffffffffff1673ffffffffffffffffffffffffffffffffffffffff16815260200190815260200160002060003373ffffffffffffffffffffffffffffffffffffffff1673ffffffffffffffffffffffffffffffffffffffff16815260200190815260200160002054611ada565b61099f85611ada565b6121ff565b611c47565b600d60008673ffffffffffffffffffffffffffffffffffffffff1673ffffffffffffffffffffffffffffffffffffffff16815260200190815260200160002060003373ffffffffffffffffffffffffffffffffffffffff1673ffffffffffffffffffffffffffffffffffffffff168152602001908152602001600020819055503373ffffffffffffffffffffffffffffffffffffffff168473ffffffffffffffffffffffffffffffffffffffff167f8c5be1e5ebec7d5bd14f71427d1e84f3dd0314c0f7b2291e5b200ac8c7c3b925600d60008873ffffffffffffffffffffffffffffffffffffffff1673ffffffffffffffffffffffffffffffffffffffff16815260200190815260200160002060003373ffffffffffffffffffffffffffffffffffffffff1673ffffffffffffffffffffffffffffffffffffffff16815260200190815260200160002054604051610b0291906124af565b60405180910390a36000610b15836108dc565b9050610b78610b73610b65600c60008973ffffffffffffffffffffffffffffffffffffffff1673ffffffffffffffffffffffffffffffffffffffff16815260200190815260200160002054611ada565b610b6e84611ada565b6121ff565b611c47565b600c60008773ffffffffffffffffffffffffffffffffffffffff1673ffffffffffffffffffffffffffffffffffffffff16815260200190815260200160002081905550610c1c610c17610c09600c60008873ffffffffffffffffffffffffffffffffffffffff1673ffffffffffffffffffffffffffffffffffffffff16815260200190815260200160002054611ada565b610c1284611ada565b612003565b611c47565b600c60008673ffffffffffffffffffffffffffffffffffffffff1673ffffffffffffffffffffffffffffffffffffffff168152602001908152602001600020819055508373ffffffffffffffffffffffffffffffffffffffff168573ffffffffffffffffffffffffffffffffffffffff167fddf252ad1be2c89b69c2b068fc378daa952ba7f163c4a11628f55a4df523b3ef85604051610cbc91906124af565b60405180910390a360019150509392505050565b6000610cdd6009546110e7565b905090565b60095481565b60006012905090565b6000610d91610d8c610d7e600d60003373ffffffffffffffffffffffffffffffffffffffff1673ffffffffffffffffffffffffffffffffffffffff16815260200190815260200160002060008773ffffffffffffffffffffffffffffffffffffffff1673ffffffffffffffffffffffffffffffffffffffff16815260200190815260200160002054611ada565b610d8785611ada565b612003565b611c47565b600d60003373ffffffffffffffffffffffffffffffffffffffff1673ffffffffffffffffffffffffffffffffffffffff16815260200190815260200160002060008573ffffffffffffffffffffffffffffffffffffffff1673ffffffffffffffffffffffffffffffffffffffff168152602001908152602001600020819055508273ffffffffffffffffffffffffffffffffffffffff163373ffffffffffffffffffffffffffffffffffffffff167f8c5be1e5ebec7d5bd14f71427d1e84f3dd0314c0f7b2291e5b200ac8c7c3b925600d60003373ffffffffffffffffffffffffffffffffffffffff1673ffffffffffffffffffffffffffffffffffffffff16815260200190815260200160002060008773ffffffffffffffffffffffffffffffffffffffff1673ffffffffffffffffffffffffffffffffffffffff16815260200190815260200160002054604051610eea91906124af565b60405180910390a36001905092915050565b6000610f0661227c565b73ffffffffffffffffffffffffffffffffffffffff16610f24611114565b73ffffffffffffffffffffffffffffffffffffffff1614610f7a576040517f08c379a0000000000000000000000000000000000000000000000000000000008152600401610f7190612a1d565b60405180910390fd5b600060095414610f8957600080fd5b610f92826108dc565b60098190555060019050919050565b6000611006611001610ff1600c60008673ffffffffffffffffffffffffffffffffffffffff1673ffffffffffffffffffffffffffffffffffffffff16815260200190815260200160002054611ada565b610ffc600b54611ada565b611b57565b611c47565b9050919050565b61101561227c565b73ffffffffffffffffffffffffffffffffffffffff16611033611114565b73ffffffffffffffffffffffffffffffffffffffff1614611089576040517f08c379a000000000000000000000000000000000000000000000000000000000815260040161108090612a1d565b60405180910390fd5b6110936000612284565b565b600881815481106110a557600080fd5b90600052602060002090600702016000915090508060000154908060010154908060020154908060030154908060040154908060050154908060060154905087565b600061110d6111086110f884611ada565b611103600b54611ada565b611b57565b611c47565b9050919050565b6000600560009054906101000a900473ffffffffffffffffffffffffffffffffffffffff16905090565b600061118e611189611151600a54611ada565b61118461117f600660009054906101000a900473ffffffffffffffffffffffffffffffffffffffff16610fa1565b611ada565b6121ff565b611c47565b905090565b6060600480546111a29061299f565b80601f01602080910402602001604051908101604052809291908181526020018280546111ce9061299f565b801561121b5780601f106111f05761010080835404028352916020019161121b565b820191906000526020600020905b8154815290600101906020018083116111fe57829003601f168201915b5050505050905090565b600760009054906101000a900473ffffffffffffffffffffffffffffffffffffffff1681565b600080600d60003373ffffffffffffffffffffffffffffffffffffffff1673ffffffffffffffffffffffffffffffffffffffff16815260200190815260200160002060008573ffffffffffffffffffffffffffffffffffffffff1673ffffffffffffffffffffffffffffffffffffffff16815260200190815260200160002054905080831061135b576000600d60003373ffffffffffffffffffffffffffffffffffffffff1673ffffffffffffffffffffffffffffffffffffffff16815260200190815260200160002060008673ffffffffffffffffffffffffffffffffffffffff1673ffffffffffffffffffffffffffffffffffffffff168152602001908152602001600020819055506113fe565b61137d61137861136a83611ada565b61137386611ada565b6121ff565b611c47565b600d60003373ffffffffffffffffffffffffffffffffffffffff1673ffffffffffffffffffffffffffffffffffffffff16815260200190815260200160002060008673ffffffffffffffffffffffffffffffffffffffff1673ffffffffffffffffffffffffffffffffffffffff168152602001908152602001600020819055505b8373ffffffffffffffffffffffffffffffffffffffff163373ffffffffffffffffffffffffffffffffffffffff167f8c5be1e5ebec7d5bd14f71427d1e84f3dd0314c0f7b2291e5b200ac8c7c3b925600d60003373ffffffffffffffffffffffffffffffffffffffff1673ffffffffffffffffffffffffffffffffffffffff16815260200190815260200160002060008873ffffffffffffffffffffffffffffffffffffffff1673ffffffffffffffffffffffffffffffffffffffff168152602001908152602001600020546040516114d791906124af565b60405180910390a3600191505092915050565b60008061151161150c6114fc85611ada565b611507600b54611ada565b611c6a565b611c47565b905061157461156f611561600c60003373ffffffffffffffffffffffffffffffffffffffff1673ffffffffffffffffffffffffffffffffffffffff16815260200190815260200160002054611ada565b61156a84611ada565b6121ff565b611c47565b600c60003373ffffffffffffffffffffffffffffffffffffffff1673ffffffffffffffffffffffffffffffffffffffff16815260200190815260200160002081905550611618611613611605600c60008873ffffffffffffffffffffffffffffffffffffffff1673ffffffffffffffffffffffffffffffffffffffff16815260200190815260200160002054611ada565b61160e84611ada565b612003565b611c47565b600c60008673ffffffffffffffffffffffffffffffffffffffff1673ffffffffffffffffffffffffffffffffffffffff168152602001908152602001600020819055508373ffffffffffffffffffffffffffffffffffffffff163373ffffffffffffffffffffffffffffffffffffffff167fddf252ad1be2c89b69c2b068fc378daa952ba7f163c4a11628f55a4df523b3ef856040516116b891906124af565b60405180910390a3600191505092915050565b6000600760009054906101000a900473ffffffffffffffffffffffffffffffffffffffff1673ffffffffffffffffffffffffffffffffffffffff163373ffffffffffffffffffffffffffffffffffffffff161461172757600080fd5b600073ffffffffffffffffffffffffffffffffffffffff168273ffffffffffffffffffffffffffffffffffffffff16141561176157600080fd5b81600660006101000a81548173ffffffffffffffffffffffffffffffffffffffff021916908373ffffffffffffffffffffffffffffffffffffffff1602179055506611c37937e080006000196117b791906128dc565b6000196117c4919061293c565b600c6000600660009054906101000a900473ffffffffffffffffffffffffffffffffffffffff1673ffffffffffffffffffffffffffffffffffffffff1673ffffffffffffffffffffffffffffffffffffffff16815260200190815260200160002081905550600660009054906101000a900473ffffffffffffffffffffffffffffffffffffffff1673ffffffffffffffffffffffffffffffffffffffff16600073ffffffffffffffffffffffffffffffffffffffff167fddf252ad1be2c89b69c2b068fc378daa952ba7f163c4a11628f55a4df523b3ef600a546040516118ab91906124af565b60405180910390a37f817c653428858ed536dc085c5d8273734c517b55de44b55f5c5877a75e3373a1826040516118e291906127bb565b60405180910390a16000600760006101000a81548173ffffffffffffffffffffffffffffffffffffffff021916908373ffffffffffffffffffffffffffffffffffffffff16021790555060019050919050565b6000600d60008473ffffffffffffffffffffffffffffffffffffffff1673ffffffffffffffffffffffffffffffffffffffff16815260200190815260200160002060008373ffffffffffffffffffffffffffffffffffffffff1673ffffffffffffffffffffffffffffffffffffffff16815260200190815260200160002054905092915050565b600660009054906101000a900473ffffffffffffffffffffffffffffffffffffffff1681565b6119ea61227c565b73ffffffffffffffffffffffffffffffffffffffff16611a08611114565b73ffffffffffffffffffffffffffffffffffffffff1614611a5e576040517f08c379a0000000000000000000000000000000000000000000000000000000008152600401611a5590612a1d565b60405180910390fd5b600073ffffffffffffffffffffffffffffffffffffffff168173ffffffffffffffffffffffffffffffffffffffff161415611ace576040517f08c379a0000000000000000000000000000000000000000000000000000000008152600401611ac590612aaf565b60405180910390fd5b611ad781612284565b50565b611ae2612412565b611aea61234a565b821115611b2c576040517f08c379a0000000000000000000000000000000000000000000000000000000008152600401611b2390612b41565b60405180910390fd5b604051806020016040528069d3c21bcecceda100000084611b4d9190612b61565b8152509050919050565b611b5f612412565b600082600001511415611ba7576040517f08c379a0000000000000000000000000000000000000000000000000000000008152600401611b9e90612c07565b60405180910390fd5b600069d3c21bcecceda10000008460000151611bc39190612b61565b9050836000015169d3c21bcecceda100000082611be09190612c27565b14611c20576040517f08c379a0000000000000000000000000000000000000000000000000000000008152600401611c1790612ca4565b60405180910390fd5b6040518060200160405280846000015183611c3b9190612c27565b81525091505092915050565b600069d3c21bcecceda10000008260000151611c639190612c27565b9050919050565b611c72612412565b600083600001511480611c89575060008260000151145b15611ca557604051806020016040528060008152509050611ffd565b69d3c21bcecceda100000082600001511415611cc357829050611ffd565b69d3c21bcecceda100000083600001511415611ce157819050611ffd565b600069d3c21bcecceda1000000611cf785612372565b60000151611d059190612c27565b90506000611d12856123b4565b600001519050600069d3c21bcecceda1000000611d2e86612372565b60000151611d3c9190612c27565b90506000611d49866123b4565b60000151905060008285611d5d9190612b61565b905060008514611db557828582611d749190612c27565b14611db4576040517f08c379a0000000000000000000000000000000000000000000000000000000008152600401611dab90612d10565b60405180910390fd5b5b600069d3c21bcecceda100000082611dcd9190612b61565b905060008214611e2f5769d3c21bcecceda10000008282611dee9190612c27565b14611e2e576040517f08c379a0000000000000000000000000000000000000000000000000000000008152600401611e2590612d7c565b60405180910390fd5b5b80915060008486611e409190612b61565b905060008614611e9857848682611e579190612c27565b14611e97576040517f08c379a0000000000000000000000000000000000000000000000000000000008152600401611e8e90612de8565b60405180910390fd5b5b60008488611ea69190612b61565b905060008814611efe57848882611ebd9190612c27565b14611efd576040517f08c379a0000000000000000000000000000000000000000000000000000000008152600401611ef490612e54565b60405180910390fd5b5b611f06612405565b87611f119190612c27565b9650611f1b612405565b85611f269190612c27565b945060008588611f369190612b61565b905060008814611f8e57858882611f4d9190612c27565b14611f8d576040517f08c379a0000000000000000000000000000000000000000000000000000000008152600401611f8490612ec0565b60405180910390fd5b5b60006040518060200160405280878152509050611fb981604051806020016040528087815250612003565b9050611fd381604051806020016040528086815250612003565b9050611fed81604051806020016040528085815250612003565b9050809a50505050505050505050505b92915050565b61200b612412565b6000826000015184600001516120219190612ee0565b9050836000015181101561206a576040517f08c379a000000000000000000000000000000000000000000000000000000000815260040161206190612f82565b60405180910390fd5b60405180602001604052808281525091505092915050565b6000806120c06120bb6120ad61209787611ada565b6120a8670de0b6b3a7640000611ada565b611c6a565b6120b688611ada565b611b57565b611c47565b905060086040518060e001604052808581526020018381526020018781526020016120e961113e565b81526020018681526020016120fc610cd0565b8152602001438152509080600181540180825580915050600190039060005260206000209060070201600090919091909150600082015181600001556020820151816001015560408201518160020155606082015181600301556080820151816004015560a0820151816005015560c082015181600601555050827f917acfbe39be6509ccf7fecb66a7e42ce2be1083c2d7dd3b9b7491dabddb8da442600a546040516121aa929190612816565b60405180910390a2827f6012dbce857565c4a40974aa5de8373a761fc429077ef0c8c8611d1e20d63fb2826121dd610cd0565b6040516121eb929190612816565b60405180910390a260019150509392505050565b612207612412565b816000015183600001511015612252576040517f08c379a000000000000000000000000000000000000000000000000000000000815260040161224990612fee565b60405180910390fd5b604051806020016040528083600001518560000151612271919061293c565b815250905092915050565b600033905090565b6000600560009054906101000a900473ffffffffffffffffffffffffffffffffffffffff16905081600560006101000a81548173ffffffffffffffffffffffffffffffffffffffff021916908373ffffffffffffffffffffffffffffffffffffffff1602179055508173ffffffffffffffffffffffffffffffffffffffff168173ffffffffffffffffffffffffffffffffffffffff167f8be0079c531659141344cd1fd0a4f28419497f9722a3daafe3b4186f6b6457e060405160405180910390a35050565b60007fffffffffffffffffffffffffffffffffffffffffffffffffffffffffffffffff905090565b61237a612412565b604051806020016040528069d3c21bcecceda10000008085600001516123a09190612c27565b6123aa9190612b61565b8152509050919050565b6123bc612412565b604051806020016040528069d3c21bcecceda10000008085600001516123e29190612c27565b6123ec9190612b61565b84600001516123fb919061293c565b8152509050919050565b600064e8d4a51000905090565b6040518060200160405280600081525090565b600080fd5b6000819050919050565b61243d8161242a565b811461244857600080fd5b50565b60008135905061245a81612434565b92915050565b6000806040838503121561247757612476612425565b5b60006124858582860161244b565b92505060206124968582860161244b565b9150509250929050565b6124a98161242a565b82525050565b60006020820190506124c460008301846124a0565b92915050565b600081519050919050565b600082825260208201905092915050565b60005b838110156125045780820151818401526020810190506124e9565b83811115612513576000848401525b50505050565b6000601f19601f8301169050919050565b6000612535826124ca565b61253f81856124d5565b935061254f8185602086016124e6565b61255881612519565b840191505092915050565b6000602082019050818103600083015261257d818461252a565b905092915050565b600073ffffffffffffffffffffffffffffffffffffffff82169050919050565b60006125b082612585565b9050919050565b6125c0816125a5565b81146125cb57600080fd5b50565b6000813590506125dd816125b7565b92915050565b600080604083850312156125fa576125f9612425565b5b6000612608858286016125ce565b92505060206126198582860161244b565b9150509250929050565b60008115159050919050565b61263881612623565b82525050565b6000602082019050612653600083018461262f565b92915050565b60006020828403121561266f5761266e612425565b5b600061267d8482850161244b565b91505092915050565b60008060006060848603121561269f5761269e612425565b5b60006126ad868287016125ce565b93505060206126be868287016125ce565b92505060406126cf8682870161244b565b9150509250925092565b600060ff82169050919050565b6126ef816126d9565b82525050565b600060208201905061270a60008301846126e6565b92915050565b60006020828403121561272657612725612425565b5b6000612734848285016125ce565b91505092915050565b600060e082019050612752600083018a6124a0565b61275f60208301896124a0565b61276c60408301886124a0565b61277960608301876124a0565b61278660808301866124a0565b61279360a08301856124a0565b6127a060c08301846124a0565b98975050505050505050565b6127b5816125a5565b82525050565b60006020820190506127d060008301846127ac565b92915050565b600080604083850312156127ed576127ec612425565b5b60006127fb858286016125ce565b925050602061280c858286016125ce565b9150509250929050565b600060408201905061282b60008301856124a0565b61283860208301846124a0565b9392505050565b6000819050919050565b6000819050919050565b600061286e6128696128648461283f565b612849565b61242a565b9050919050565b61287e81612853565b82525050565b60006040820190506128996000830185612875565b6128a660208301846124a0565b9392505050565b7f4e487b7100000000000000000000000000000000000000000000000000000000600052601260045260246000fd5b60006128e78261242a565b91506128f28361242a565b925082612902576129016128ad565b5b828206905092915050565b7f4e487b7100000000000000000000000000000000000000000000000000000000600052601160045260246000fd5b60006129478261242a565b91506129528361242a565b9250828210156129655761296461290d565b5b828203905092915050565b7f4e487b7100000000000000000000000000000000000000000000000000000000600052602260045260246000fd5b600060028204905060018216806129b757607f821691505b602082108114156129cb576129ca612970565b5b50919050565b7f4f776e61626c653a2063616c6c6572206973206e6f7420746865206f776e6572600082015250565b6000612a076020836124d5565b9150612a12826129d1565b602082019050919050565b60006020820190508181036000830152612a36816129fa565b9050919050565b7f4f776e61626c653a206e6577206f776e657220697320746865207a65726f206160008201527f6464726573730000000000000000000000000000000000000000000000000000602082015250565b6000612a996026836124d5565b9150612aa482612a3d565b604082019050919050565b60006020820190508181036000830152612ac881612a8c565b9050919050565b7f63616e277420637265617465206669786964697479206e756d626572206c617260008201527f676572207468616e206d61784e65774669786564282900000000000000000000602082015250565b6000612b2b6036836124d5565b9150612b3682612acf565b604082019050919050565b60006020820190508181036000830152612b5a81612b1e565b9050919050565b6000612b6c8261242a565b9150612b778361242a565b9250817fffffffffffffffffffffffffffffffffffffffffffffffffffffffffffffffff0483118215151615612bb057612baf61290d565b5b828202905092915050565b7f63616e2774206469766964652062792030000000000000000000000000000000600082015250565b6000612bf16011836124d5565b9150612bfc82612bbb565b602082019050919050565b60006020820190508181036000830152612c2081612be4565b9050919050565b6000612c328261242a565b9150612c3d8361242a565b925082612c4d57612c4c6128ad565b5b828204905092915050565b7f6f766572666c6f77206174206469766964650000000000000000000000000000600082015250565b6000612c8e6012836124d5565b9150612c9982612c58565b602082019050919050565b60006020820190508181036000830152612cbd81612c81565b9050919050565b7f6f766572666c6f77207831793120646574656374656400000000000000000000600082015250565b6000612cfa6016836124d5565b9150612d0582612cc4565b602082019050919050565b60006020820190508181036000830152612d2981612ced565b9050919050565b7f6f766572666c6f772078317931202a2066697865643120646574656374656400600082015250565b6000612d66601f836124d5565b9150612d7182612d30565b602082019050919050565b60006020820190508181036000830152612d9581612d59565b9050919050565b7f6f766572666c6f77207832793120646574656374656400000000000000000000600082015250565b6000612dd26016836124d5565b9150612ddd82612d9c565b602082019050919050565b60006020820190508181036000830152612e0181612dc5565b9050919050565b7f6f766572666c6f77207831793220646574656374656400000000000000000000600082015250565b6000612e3e6016836124d5565b9150612e4982612e08565b602082019050919050565b60006020820190508181036000830152612e6d81612e31565b9050919050565b7f6f766572666c6f77207832793220646574656374656400000000000000000000600082015250565b6000612eaa6016836124d5565b9150612eb582612e74565b602082019050919050565b60006020820190508181036000830152612ed981612e9d565b9050919050565b6000612eeb8261242a565b9150612ef68361242a565b9250827fffffffffffffffffffffffffffffffffffffffffffffffffffffffffffffffff03821115612f2b57612f2a61290d565b5b828201905092915050565b7f616464206f766572666c6f772064657465637465640000000000000000000000600082015250565b6000612f6c6015836124d5565b9150612f7782612f36565b602082019050919050565b60006020820190508181036000830152612f9b81612f5f565b9050919050565b7f737562737472616374696f6e20756e646572666c6f7720646574656374656400600082015250565b6000612fd8601f836124d5565b9150612fe382612fa2565b602082019050919050565b6000602082019050818103600083015261300781612fcb565b905091905056fea26469706673582212208cf5d45f6765e524249a21cd75bc7fe8cb99d24bd0b13b04dd02adc618a1f01c64736f6c634300080a0033",
  "immutableReferences": {},
  "source": "// SPDX-License-Identifier: AGPL-3.0-or-later\npragma solidity 0.8.10;\nimport \"@openzeppelin/contracts/access/Ownable.sol\";\nimport \"@openzeppelin/contracts/token/ERC20/ERC20.sol\";\nimport \"@openzeppelin/contracts/token/ERC20/extensions/draft-ERC20Permit.sol\";\nimport \"./Fixidity.sol\";\n\n\ncontract sBoss is ERC20, Ownable {\n\n\n    modifier onlyStakingContract() {\n        require( msg.sender == stakingContract );\n        _;\n    }\n\n    address public stakingContract;\n    address public initializer;\n\n    event LogSupply(uint256 indexed epoch, uint256 timestamp, uint256 totalSupply );\n    event LogRebase( uint256 indexed epoch, uint256 rebase, uint256 index );\n    event LogStakingContractUpdated( address stakingContract );\n\n    struct Rebase {\n        uint epoch;\n        uint rebase; // 18 decimals\n        uint totalStakedBefore;\n        uint totalStakedAfter;\n        uint amountRebased;\n        uint index;\n        uint blockNumberOccured;\n    }\n    Rebase[] public rebases;\n\n    uint public INDEX;\n\n    uint256 private constant MAX_UINT256 = ~uint256(0);\n    uint256 private constant INITIAL_FRAGMENTS_SUPPLY = 5000000 * 10**9;\n    uint private total_token_supply;\n    // TOTAL_GONS is a multiple of INITIAL_FRAGMENTS_SUPPLY so that _gonsPerFragment is an integer.\n    // Use the highest value that fits in a uint256 for max granularity.\n    uint256 private constant TOTAL_GONS = MAX_UINT256 - (MAX_UINT256 % INITIAL_FRAGMENTS_SUPPLY);\n\n    // MAX_SUPPLY = maximum integer < (sqrt(4*TOTAL_GONS + 1) - 1) / 2\n    uint256 private constant MAX_SUPPLY = ~uint128(0);  // (2^128) - 1\n\n    uint256 private _gonsPerFragment;\n    mapping(address => uint256) private _gonBalances;\n\n    mapping ( address => mapping ( address => uint256 ) ) private _allowedValue;\n\n    constructor() ERC20(\"Staked Boss\", \"sBOSS\")  {\n        initializer = msg.sender;\n        total_token_supply = INITIAL_FRAGMENTS_SUPPLY;\n        _mint(msg.sender, total_token_supply);\n        _gonsPerFragment = Fixidity.fromFixed( Fixidity.divide( Fixidity.newFixed(TOTAL_GONS) , Fixidity.newFixed(total_token_supply)));\n    }\n\n    function initialize( address stakingContract_ ) external returns ( bool ) {\n        require( msg.sender == initializer );\n        require( stakingContract_ != address(0) );\n        stakingContract = stakingContract_;\n        _gonBalances[ stakingContract ] = TOTAL_GONS;\n\n        emit Transfer( address(0x0), stakingContract, total_token_supply );\n        emit LogStakingContractUpdated( stakingContract_ );\n        \n        initializer = address(0);\n        return true;\n    }\n\n    function setIndex( uint _INDEX ) external onlyOwner returns ( bool ) {\n        require( INDEX == 0 );\n        INDEX = gonsForBalance( _INDEX );\n        return true;\n    }\n\n    /**\n        @notice increases g supply to increase staking balances relative to profit_\n        @param profit_ uint256\n        @return uint256\n     */\n    function rebase( uint256 profit_, uint epoch_ ) public onlyStakingContract() returns ( uint256 ) {\n        uint256 rebaseAmount;\n        uint256 circulatingSupply_ = circulatingSupply();\n\n        if ( profit_ == 0 ) {\n            emit LogSupply( epoch_, block.timestamp, total_token_supply );\n            emit LogRebase( epoch_, 0, index() );\n            return total_token_supply;\n        } else if ( circulatingSupply_ > 0 ){\n            rebaseAmount = Fixidity.fromFixed(Fixidity.divide( Fixidity.mul( Fixidity.newFixed(profit_) , Fixidity.newFixed(total_token_supply) ) , Fixidity.newFixed(circulatingSupply_) ));\n        } else {\n            rebaseAmount = profit_;\n        }\n\n        total_token_supply = Fixidity.fromFixed(Fixidity.add( Fixidity.newFixed(total_token_supply) , Fixidity.newFixed(rebaseAmount) ));\n\n        if ( total_token_supply > MAX_SUPPLY ) {\n            total_token_supply = MAX_SUPPLY;\n        }\n\n        _gonsPerFragment = Fixidity.fromFixed( Fixidity.divide( Fixidity.newFixed(TOTAL_GONS) , Fixidity.newFixed(total_token_supply) ));\n\n        _storeRebase( circulatingSupply_, profit_, epoch_ );\n\n        return total_token_supply;\n    }\n\n    /**\n        @notice emits event with data about rebase\n        @param previousCirculating_ uint\n        @param profit_ uint\n        @param epoch_ uint\n        @return bool\n     */\n    function _storeRebase( uint previousCirculating_, uint profit_, uint epoch_ ) internal returns ( bool ) {\n        uint rebasePercent = Fixidity.fromFixed( Fixidity.divide( Fixidity.mul( Fixidity.newFixed(profit_) , Fixidity.newFixed(1e18) ) , Fixidity.newFixed(previousCirculating_)) );\n\n        rebases.push( Rebase ( {\n            epoch: epoch_,\n            rebase: rebasePercent, // 18 decimals\n            totalStakedBefore: previousCirculating_,\n            totalStakedAfter: circulatingSupply(),\n            amountRebased: profit_,\n            index: index(),\n            blockNumberOccured: block.number\n        }));\n        \n        emit LogSupply( epoch_, block.timestamp, total_token_supply );\n        emit LogRebase( epoch_, rebasePercent, index() );\n\n        return true;\n    }\n\n    function balanceOf( address who ) public view override returns ( uint256 ) {\n        return Fixidity.fromFixed( Fixidity.divide( Fixidity.newFixed(_gonBalances[ who ]) , Fixidity.newFixed(_gonsPerFragment) ));\n    }\n\n    function gonsForBalance( uint amount ) public view returns ( uint ) {\n        return Fixidity.fromFixed( Fixidity.mul(Fixidity.newFixed(amount), Fixidity.newFixed(_gonsPerFragment) ));\n    }\n\n    function balanceForGons( uint gons ) public view returns ( uint ) {\n        return Fixidity.fromFixed( Fixidity.divide( Fixidity.newFixed(gons) , Fixidity.newFixed(_gonsPerFragment) ));\n    }\n\n    // Staking contract holds excess sBOSS\n    function circulatingSupply() public view returns ( uint ) {\n        return Fixidity.fromFixed( Fixidity.subtract( Fixidity.newFixed(total_token_supply) , Fixidity.newFixed(balanceOf( stakingContract )) ));\n    }\n\n    function index() public view returns ( uint ) {\n        return balanceForGons( INDEX );\n    }\n\n    function transfer( address to, uint256 value ) public override returns (bool) {\n        uint256 gonValue = Fixidity.fromFixed( Fixidity.mul( Fixidity.newFixed(value) , Fixidity.newFixed(_gonsPerFragment)) );\n        _gonBalances[ msg.sender ] = Fixidity.fromFixed( Fixidity.subtract( Fixidity.newFixed(_gonBalances[ msg.sender ]) , Fixidity.newFixed(gonValue) ));\n        _gonBalances[ to ] = Fixidity.fromFixed( Fixidity.add( Fixidity.newFixed(_gonBalances[ to ]) , Fixidity.newFixed(gonValue) ));\n        emit Transfer( msg.sender, to, value );\n        return true;\n    }\n\n    function allowance( address owner_, address spender ) public view override returns ( uint256 ) {\n        return _allowedValue[ owner_ ][ spender ];\n    }\n\n    function transferFrom( address from, address to, uint256 value ) public override returns ( bool ) {\n       _allowedValue[ from ][ msg.sender ] = Fixidity.fromFixed( Fixidity.subtract( Fixidity.newFixed(_allowedValue[ from ][ msg.sender ]) , Fixidity.newFixed(value) ));\n       emit Approval( from, msg.sender,  _allowedValue[ from ][ msg.sender ] );\n\n        uint256 gonValue = gonsForBalance( value );\n        _gonBalances[ from ] = Fixidity.fromFixed( Fixidity.subtract( Fixidity.newFixed(_gonBalances[from]) , Fixidity.newFixed(gonValue) ));\n        _gonBalances[ to ] = Fixidity.fromFixed( Fixidity.add( Fixidity.newFixed(_gonBalances[ to ]) , Fixidity.newFixed(gonValue) ));\n        emit Transfer( from, to, value );\n\n        return true;\n    }\n\n    function approve( address spender, uint256 value ) public override returns (bool) {\n         _allowedValue[ msg.sender ][ spender ] = value;\n         emit Approval( msg.sender, spender, value );\n         return true;\n    }\n\n    // What gets called in a permit\n    function _approve( address owner, address spender, uint256 value ) internal override virtual {\n        _allowedValue[owner][spender] = value;\n        emit Approval( owner, spender, value );\n    }\n\n    function increaseAllowance( address spender, uint256 addedValue ) public override returns (bool) {\n        _allowedValue[ msg.sender ][ spender ] = Fixidity.fromFixed( Fixidity.add( Fixidity.newFixed(_allowedValue[ msg.sender ][ spender ]) , Fixidity.newFixed(addedValue) ));\n        emit Approval( msg.sender, spender, _allowedValue[ msg.sender ][ spender ] );\n        return true;\n    }\n\n    function decreaseAllowance( address spender, uint256 subtractedValue ) public override returns (bool) {\n        uint256 oldValue = _allowedValue[ msg.sender ][ spender ];\n        if (subtractedValue >= oldValue) {\n            _allowedValue[ msg.sender ][ spender ] = 0;\n        } else {\n            _allowedValue[ msg.sender ][ spender ] = Fixidity.fromFixed( Fixidity.subtract( Fixidity.newFixed(oldValue) , Fixidity.newFixed(subtractedValue) ));\n        }\n        emit Approval( msg.sender, spender, _allowedValue[ msg.sender ][ spender ] );\n        return true;\n    }\n}",
  "sourcePath": "/Users/samgville/Documents/Nostra DAO /nostra-dao-contracts/contracts/sBoss.sol",
  "compiler": {
    "name": "solc",
    "version": "0.8.10+commit.fc410830.Emscripten.clang"
  },
  "schemaVersion": "3.4.4",
  "updatedAt": "2022-01-21T00:17:49.072Z",
  "devdoc": {
    "kind": "dev",
    "methods": {
      "decimals()": {
        "details": "Returns the number of decimals used to get its user representation. For example, if `decimals` equals `2`, a balance of `505` tokens should be displayed to a user as `5.05` (`505 / 10 ** 2`). Tokens usually opt for a value of 18, imitating the relationship between Ether and Wei. This is the value {ERC20} uses, unless this function is overridden; NOTE: This information is only used for _display_ purposes: it in no way affects any of the arithmetic of the contract, including {IERC20-balanceOf} and {IERC20-transfer}."
      },
      "decreaseAllowance(address,uint256)": {
        "details": "Atomically decreases the allowance granted to `spender` by the caller. This is an alternative to {approve} that can be used as a mitigation for problems described in {IERC20-approve}. Emits an {Approval} event indicating the updated allowance. Requirements: - `spender` cannot be the zero address. - `spender` must have allowance for the caller of at least `subtractedValue`."
      },
      "increaseAllowance(address,uint256)": {
        "details": "Atomically increases the allowance granted to `spender` by the caller. This is an alternative to {approve} that can be used as a mitigation for problems described in {IERC20-approve}. Emits an {Approval} event indicating the updated allowance. Requirements: - `spender` cannot be the zero address."
      },
      "name()": {
        "details": "Returns the name of the token."
      },
      "owner()": {
        "details": "Returns the address of the current owner."
      },
      "rebase(uint256,uint256)": {
        "params": {
          "profit_": "uint256"
        },
        "returns": {
          "_0": "uint256"
        }
      },
      "renounceOwnership()": {
        "details": "Leaves the contract without owner. It will not be possible to call `onlyOwner` functions anymore. Can only be called by the current owner. NOTE: Renouncing ownership will leave the contract without an owner, thereby removing any functionality that is only available to the owner."
      },
      "symbol()": {
        "details": "Returns the symbol of the token, usually a shorter version of the name."
      },
      "totalSupply()": {
        "details": "See {IERC20-totalSupply}."
      },
      "transferOwnership(address)": {
        "details": "Transfers ownership of the contract to a new account (`newOwner`). Can only be called by the current owner."
      }
    },
    "version": 1
  },
  "userdoc": {
    "kind": "user",
    "methods": {
      "rebase(uint256,uint256)": {
        "notice": "increases g supply to increase staking balances relative to profit_"
      }
    },
    "version": 1
  }
}