{
  "contractName": "wBOSS",
  "abi": [
    {
      "inputs": [
        {
          "internalType": "address",
          "name": "_staking",
          "type": "address"
        },
        {
          "internalType": "contract IERC20",
          "name": "_BOSS",
          "type": "address"
        },
        {
          "internalType": "contract IERC20",
          "name": "_sBOSS",
          "type": "address"
        }
      ],
      "stateMutability": "nonpayable",
      "type": "constructor"
    },
    {
      "anonymous": false,
      "inputs": [
        {
          "indexed": true,
          "internalType": "address",
          "name": "owner",
          "type": "address"
        },
        {
          "indexed": true,
          "internalType": "address",
          "name": "spender",
          "type": "address"
        },
        {
          "indexed": false,
          "internalType": "uint256",
          "name": "value",
          "type": "uint256"
        }
      ],
      "name": "Approval",
      "type": "event"
    },
    {
      "anonymous": false,
      "inputs": [
        {
          "indexed": true,
          "internalType": "address",
          "name": "from",
          "type": "address"
        },
        {
          "indexed": true,
          "internalType": "address",
          "name": "to",
          "type": "address"
        },
        {
          "indexed": false,
          "internalType": "uint256",
          "name": "value",
          "type": "uint256"
        }
      ],
      "name": "Transfer",
      "type": "event"
    },
    {
      "inputs": [],
      "name": "BOSS",
      "outputs": [
        {
          "internalType": "contract IERC20",
          "name": "",
          "type": "address"
        }
      ],
      "stateMutability": "view",
      "type": "function"
    },
    {
      "inputs": [
        {
          "internalType": "address",
          "name": "owner",
          "type": "address"
        },
        {
          "internalType": "address",
          "name": "spender",
          "type": "address"
        }
      ],
      "name": "allowance",
      "outputs": [
        {
          "internalType": "uint256",
          "name": "",
          "type": "uint256"
        }
      ],
      "stateMutability": "view",
      "type": "function"
    },
    {
      "inputs": [
        {
          "internalType": "address",
          "name": "spender",
          "type": "address"
        },
        {
          "internalType": "uint256",
          "name": "amount",
          "type": "uint256"
        }
      ],
      "name": "approve",
      "outputs": [
        {
          "internalType": "bool",
          "name": "",
          "type": "bool"
        }
      ],
      "stateMutability": "nonpayable",
      "type": "function"
    },
    {
      "inputs": [
        {
          "internalType": "address",
          "name": "account",
          "type": "address"
        }
      ],
      "name": "balanceOf",
      "outputs": [
        {
          "internalType": "uint256",
          "name": "",
          "type": "uint256"
        }
      ],
      "stateMutability": "view",
      "type": "function"
    },
    {
      "inputs": [],
      "name": "decimals",
      "outputs": [
        {
          "internalType": "uint8",
          "name": "",
          "type": "uint8"
        }
      ],
      "stateMutability": "view",
      "type": "function"
    },
    {
      "inputs": [
        {
          "internalType": "address",
          "name": "spender",
          "type": "address"
        },
        {
          "internalType": "uint256",
          "name": "subtractedValue",
          "type": "uint256"
        }
      ],
      "name": "decreaseAllowance",
      "outputs": [
        {
          "internalType": "bool",
          "name": "",
          "type": "bool"
        }
      ],
      "stateMutability": "nonpayable",
      "type": "function"
    },
    {
      "inputs": [
        {
          "internalType": "address",
          "name": "spender",
          "type": "address"
        },
        {
          "internalType": "uint256",
          "name": "addedValue",
          "type": "uint256"
        }
      ],
      "name": "increaseAllowance",
      "outputs": [
        {
          "internalType": "bool",
          "name": "",
          "type": "bool"
        }
      ],
      "stateMutability": "nonpayable",
      "type": "function"
    },
    {
      "inputs": [],
      "name": "name",
      "outputs": [
        {
          "internalType": "string",
          "name": "",
          "type": "string"
        }
      ],
      "stateMutability": "view",
      "type": "function"
    },
    {
      "inputs": [],
      "name": "sBOSS",
      "outputs": [
        {
          "internalType": "contract IERC20",
          "name": "",
          "type": "address"
        }
      ],
      "stateMutability": "view",
      "type": "function"
    },
    {
      "inputs": [],
      "name": "staking",
      "outputs": [
        {
          "internalType": "address",
          "name": "",
          "type": "address"
        }
      ],
      "stateMutability": "view",
      "type": "function"
    },
    {
      "inputs": [],
      "name": "symbol",
      "outputs": [
        {
          "internalType": "string",
          "name": "",
          "type": "string"
        }
      ],
      "stateMutability": "view",
      "type": "function"
    },
    {
      "inputs": [],
      "name": "totalSupply",
      "outputs": [
        {
          "internalType": "uint256",
          "name": "",
          "type": "uint256"
        }
      ],
      "stateMutability": "view",
      "type": "function"
    },
    {
      "inputs": [
        {
          "internalType": "address",
          "name": "recipient",
          "type": "address"
        },
        {
          "internalType": "uint256",
          "name": "amount",
          "type": "uint256"
        }
      ],
      "name": "transfer",
      "outputs": [
        {
          "internalType": "bool",
          "name": "",
          "type": "bool"
        }
      ],
      "stateMutability": "nonpayable",
      "type": "function"
    },
    {
      "inputs": [
        {
          "internalType": "address",
          "name": "sender",
          "type": "address"
        },
        {
          "internalType": "address",
          "name": "recipient",
          "type": "address"
        },
        {
          "internalType": "uint256",
          "name": "amount",
          "type": "uint256"
        }
      ],
      "name": "transferFrom",
      "outputs": [
        {
          "internalType": "bool",
          "name": "",
          "type": "bool"
        }
      ],
      "stateMutability": "nonpayable",
      "type": "function"
    },
    {
      "inputs": [
        {
          "internalType": "uint256",
          "name": "_amount",
          "type": "uint256"
        }
      ],
      "name": "wrapFromBOSS",
      "outputs": [
        {
          "internalType": "uint256",
          "name": "",
          "type": "uint256"
        }
      ],
      "stateMutability": "nonpayable",
      "type": "function"
    },
    {
      "inputs": [
        {
          "internalType": "uint256",
          "name": "_amount",
          "type": "uint256"
        }
      ],
      "name": "unwrapToBOSS",
      "outputs": [
        {
          "internalType": "uint256",
          "name": "",
          "type": "uint256"
        }
      ],
      "stateMutability": "nonpayable",
      "type": "function"
    },
    {
      "inputs": [
        {
          "internalType": "uint256",
          "name": "_amount",
          "type": "uint256"
        }
      ],
      "name": "wrapFromsBOSS",
      "outputs": [
        {
          "internalType": "uint256",
          "name": "",
          "type": "uint256"
        }
      ],
      "stateMutability": "nonpayable",
      "type": "function"
    },
    {
      "inputs": [
        {
          "internalType": "uint256",
          "name": "_amount",
          "type": "uint256"
        }
      ],
      "name": "unwrapTosBOSS",
      "outputs": [
        {
          "internalType": "uint256",
          "name": "",
          "type": "uint256"
        }
      ],
      "stateMutability": "nonpayable",
      "type": "function"
    },
    {
      "inputs": [
        {
          "internalType": "uint256",
          "name": "_amount",
          "type": "uint256"
        }
      ],
      "name": "sBOSSValue",
      "outputs": [
        {
          "internalType": "uint256",
          "name": "",
          "type": "uint256"
        }
      ],
      "stateMutability": "view",
      "type": "function"
    },
    {
      "inputs": [
        {
          "internalType": "uint256",
          "name": "_amount",
          "type": "uint256"
        }
      ],
      "name": "wBOSSValue",
      "outputs": [
        {
          "internalType": "uint256",
          "name": "",
          "type": "uint256"
        }
      ],
      "stateMutability": "view",
      "type": "function"
    }
  ],
  "bytecode": "0x60a06040523480156200001157600080fd5b50604051620035eb380380620035eb8339818101604052810190620000379190620003a6565b6040518060400160405280600d81526020017f577261707065642073424f5353000000000000000000000000000000000000008152506040518060400160405280600681526020017f7773424f535300000000000000000000000000000000000000000000000000008152508160039080519060200190620000bb92919062000247565b508060049080519060200190620000d492919062000247565b505050600073ffffffffffffffffffffffffffffffffffffffff168373ffffffffffffffffffffffffffffffffffffffff1614156200011257600080fd5b8273ffffffffffffffffffffffffffffffffffffffff1660808173ffffffffffffffffffffffffffffffffffffffff1681525050600073ffffffffffffffffffffffffffffffffffffffff168273ffffffffffffffffffffffffffffffffffffffff1614156200018157600080fd5b81600560006101000a81548173ffffffffffffffffffffffffffffffffffffffff021916908373ffffffffffffffffffffffffffffffffffffffff160217905550600073ffffffffffffffffffffffffffffffffffffffff168173ffffffffffffffffffffffffffffffffffffffff161415620001fd57600080fd5b80600660006101000a81548173ffffffffffffffffffffffffffffffffffffffff021916908373ffffffffffffffffffffffffffffffffffffffff16021790555050505062000467565b828054620002559062000431565b90600052602060002090601f016020900481019282620002795760008555620002c5565b82601f106200029457805160ff1916838001178555620002c5565b82800160010185558215620002c5579182015b82811115620002c4578251825591602001919060010190620002a7565b5b509050620002d49190620002d8565b5090565b5b80821115620002f3576000816000905550600101620002d9565b5090565b600080fd5b600073ffffffffffffffffffffffffffffffffffffffff82169050919050565b60006200032982620002fc565b9050919050565b6200033b816200031c565b81146200034757600080fd5b50565b6000815190506200035b8162000330565b92915050565b60006200036e826200031c565b9050919050565b620003808162000361565b81146200038c57600080fd5b50565b600081519050620003a08162000375565b92915050565b600080600060608486031215620003c257620003c1620002f7565b5b6000620003d2868287016200034a565b9350506020620003e5868287016200038f565b9250506040620003f8868287016200038f565b9150509250925092565b7f4e487b7100000000000000000000000000000000000000000000000000000000600052602260045260246000fd5b600060028204905060018216806200044a57607f821691505b6020821081141562000461576200046062000402565b5b50919050565b60805161313e620004ad6000396000818161072b0152818161087c01528181610b6601528181610be901528181610cb601528181610ddc0152610e5f015261313e6000f3fe608060405234801561001057600080fd5b506004361061012c5760003560e01c806395d89b41116100ad578063babfbeee11610071578063babfbeee146103a7578063c25af4c6146103d7578063c95acac5146103f5578063dd62ed3e14610413578063ff46aa02146104435761012c565b806395d89b41146102c9578063a457c2d7146102e7578063a9059cbb14610317578063a9811e5614610347578063b32ef846146103775761012c565b8063313ce567116100f4578063313ce567146101fd5780633909b1bf1461021b578063395093511461024b5780634cf088d91461027b57806370a08231146102995761012c565b806306fdde0314610131578063095ea7b31461014f57806318160ddd1461017f5780631a6afc661461019d57806323b872dd146101cd575b600080fd5b610139610473565b6040516101469190611fef565b60405180910390f35b610169600480360381019061016491906120aa565b610505565b6040516101769190612105565b60405180910390f35b610187610523565b604051610194919061212f565b60405180910390f35b6101b760048036038101906101b2919061214a565b61052d565b6040516101c4919061212f565b60405180910390f35b6101e760048036038101906101e29190612177565b6105f0565b6040516101f49190612105565b60405180910390f35b6102056106e8565b60405161021291906121e6565b60405180910390f35b6102356004803603810190610230919061214a565b6106f1565b604051610242919061212f565b60405180910390f35b610265600480360381019061026091906120aa565b6107ce565b6040516102729190612105565b60405180910390f35b61028361087a565b6040516102909190612210565b60405180910390f35b6102b360048036038101906102ae919061222b565b61089e565b6040516102c0919061212f565b60405180910390f35b6102d16108e6565b6040516102de9190611fef565b60405180910390f35b61030160048036038101906102fc91906120aa565b610978565b60405161030e9190612105565b60405180910390f35b610331600480360381019061032c91906120aa565b610a63565b60405161033e9190612105565b60405180910390f35b610361600480360381019061035c919061214a565b610a81565b60405161036e919061212f565b60405180910390f35b610391600480360381019061038c919061214a565b610ca6565b60405161039e919061212f565b60405180910390f35b6103c160048036038101906103bc919061214a565b610d83565b6040516103ce919061212f565b60405180910390f35b6103df610fa6565b6040516103ec91906122b7565b60405180910390f35b6103fd610fcc565b60405161040a91906122b7565b60405180910390f35b61042d600480360381019061042891906122d2565b610ff2565b60405161043a919061212f565b60405180910390f35b61045d6004803603810190610458919061214a565b611079565b60405161046a919061212f565b60405180910390f35b60606003805461048290612341565b80601f01602080910402602001604051908101604052809291908181526020018280546104ae90612341565b80156104fb5780601f106104d0576101008083540402835291602001916104fb565b820191906000526020600020905b8154815290600101906020018083116104de57829003601f168201915b5050505050905090565b600061051961051261113e565b8484611146565b6001905092915050565b6000600254905090565b60006105393383611311565b600061054483610ca6565b9050600660009054906101000a900473ffffffffffffffffffffffffffffffffffffffff1673ffffffffffffffffffffffffffffffffffffffff1663a9059cbb33836040518363ffffffff1660e01b81526004016105a3929190612373565b6020604051808303816000875af11580156105c2573d6000803e3d6000fd5b505050506040513d601f19601f820116820180604052508101906105e691906123c8565b5080915050919050565b60006105fd8484846114e8565b6000600160008673ffffffffffffffffffffffffffffffffffffffff1673ffffffffffffffffffffffffffffffffffffffff168152602001908152602001600020600061064861113e565b73ffffffffffffffffffffffffffffffffffffffff1673ffffffffffffffffffffffffffffffffffffffff168152602001908152602001600020549050828110156106c8576040517f08c379a00000000000000000000000000000000000000000000000000000000081526004016106bf90612467565b60405180910390fd5b6106dc856106d461113e565b858403611146565b60019150509392505050565b60006012905090565b60006107c76107c261072661070585611769565b6107216107106106e8565b600a61071c91906125e9565b611769565b6117e6565b6107bd7f000000000000000000000000000000000000000000000000000000000000000073ffffffffffffffffffffffffffffffffffffffff16632986c0e56040518163ffffffff1660e01b8152600401602060405180830381865afa158015610794573d6000803e3d6000fd5b505050506040513d601f19601f820116820180604052508101906107b89190612649565b611769565b611b7f565b611c6f565b9050919050565b60006108706107db61113e565b8484600160006107e961113e565b73ffffffffffffffffffffffffffffffffffffffff1673ffffffffffffffffffffffffffffffffffffffff16815260200190815260200160002060008873ffffffffffffffffffffffffffffffffffffffff1673ffffffffffffffffffffffffffffffffffffffff1681526020019081526020016000205461086b9190612676565b611146565b6001905092915050565b7f000000000000000000000000000000000000000000000000000000000000000081565b60008060008373ffffffffffffffffffffffffffffffffffffffff1673ffffffffffffffffffffffffffffffffffffffff168152602001908152602001600020549050919050565b6060600480546108f590612341565b80601f016020809104026020016040519081016040528092919081815260200182805461092190612341565b801561096e5780601f106109435761010080835404028352916020019161096e565b820191906000526020600020905b81548152906001019060200180831161095157829003601f168201915b5050505050905090565b6000806001600061098761113e565b73ffffffffffffffffffffffffffffffffffffffff1673ffffffffffffffffffffffffffffffffffffffff16815260200190815260200160002060008573ffffffffffffffffffffffffffffffffffffffff1673ffffffffffffffffffffffffffffffffffffffff16815260200190815260200160002054905082811015610a44576040517f08c379a0000000000000000000000000000000000000000000000000000000008152600401610a3b9061273e565b60405180910390fd5b610a58610a4f61113e565b85858403611146565b600191505092915050565b6000610a77610a7061113e565b84846114e8565b6001905092915050565b6000600560009054906101000a900473ffffffffffffffffffffffffffffffffffffffff1673ffffffffffffffffffffffffffffffffffffffff166323b872dd3330856040518463ffffffff1660e01b8152600401610ae29392919061275e565b6020604051808303816000875af1158015610b01573d6000803e3d6000fd5b505050506040513d601f19601f82011682018060405250810190610b2591906123c8565b50600560009054906101000a900473ffffffffffffffffffffffffffffffffffffffff1673ffffffffffffffffffffffffffffffffffffffff1663095ea7b37f0000000000000000000000000000000000000000000000000000000000000000846040518363ffffffff1660e01b8152600401610ba3929190612373565b6020604051808303816000875af1158015610bc2573d6000803e3d6000fd5b505050506040513d601f19601f82011682018060405250810190610be691906123c8565b507f000000000000000000000000000000000000000000000000000000000000000073ffffffffffffffffffffffffffffffffffffffff16637acb775783306040518363ffffffff1660e01b8152600401610c42929190612795565b6020604051808303816000875af1158015610c61573d6000803e3d6000fd5b505050506040513d601f19601f82011682018060405250810190610c8591906123c8565b506000610c91836106f1565b9050610c9d3382611c92565b80915050919050565b6000610d7c610d77610d56610d487f000000000000000000000000000000000000000000000000000000000000000073ffffffffffffffffffffffffffffffffffffffff16632986c0e56040518163ffffffff1660e01b8152600401602060405180830381865afa158015610d1f573d6000803e3d6000fd5b505050506040513d601f19601f82011682018060405250810190610d439190612649565b611769565b610d5186611769565b6117e6565b610d72610d616106e8565b600a610d6d91906125e9565b611769565b611b7f565b611c6f565b9050919050565b6000610d8f3383611311565b6000610d9a83610ca6565b9050600660009054906101000a900473ffffffffffffffffffffffffffffffffffffffff1673ffffffffffffffffffffffffffffffffffffffff1663095ea7b37f0000000000000000000000000000000000000000000000000000000000000000836040518363ffffffff1660e01b8152600401610e19929190612373565b6020604051808303816000875af1158015610e38573d6000803e3d6000fd5b505050506040513d601f19601f82011682018060405250810190610e5c91906123c8565b507f000000000000000000000000000000000000000000000000000000000000000073ffffffffffffffffffffffffffffffffffffffff16638381e18282306040518363ffffffff1660e01b8152600401610eb8929190612795565b6020604051808303816000875af1158015610ed7573d6000803e3d6000fd5b505050506040513d601f19601f82011682018060405250810190610efb91906123c8565b50600560009054906101000a900473ffffffffffffffffffffffffffffffffffffffff1673ffffffffffffffffffffffffffffffffffffffff1663a9059cbb33836040518363ffffffff1660e01b8152600401610f59929190612373565b6020604051808303816000875af1158015610f78573d6000803e3d6000fd5b505050506040513d601f19601f82011682018060405250810190610f9c91906123c8565b5080915050919050565b600560009054906101000a900473ffffffffffffffffffffffffffffffffffffffff1681565b600660009054906101000a900473ffffffffffffffffffffffffffffffffffffffff1681565b6000600160008473ffffffffffffffffffffffffffffffffffffffff1673ffffffffffffffffffffffffffffffffffffffff16815260200190815260200160002060008373ffffffffffffffffffffffffffffffffffffffff1673ffffffffffffffffffffffffffffffffffffffff16815260200190815260200160002054905092915050565b6000600660009054906101000a900473ffffffffffffffffffffffffffffffffffffffff1673ffffffffffffffffffffffffffffffffffffffff166323b872dd3330856040518463ffffffff1660e01b81526004016110da9392919061275e565b6020604051808303816000875af11580156110f9573d6000803e3d6000fd5b505050506040513d601f19601f8201168201806040525081019061111d91906123c8565b506000611129836106f1565b90506111353382611c92565b80915050919050565b600033905090565b600073ffffffffffffffffffffffffffffffffffffffff168373ffffffffffffffffffffffffffffffffffffffff1614156111b6576040517f08c379a00000000000000000000000000000000000000000000000000000000081526004016111ad90612830565b60405180910390fd5b600073ffffffffffffffffffffffffffffffffffffffff168273ffffffffffffffffffffffffffffffffffffffff161415611226576040517f08c379a000000000000000000000000000000000000000000000000000000000815260040161121d906128c2565b60405180910390fd5b80600160008573ffffffffffffffffffffffffffffffffffffffff1673ffffffffffffffffffffffffffffffffffffffff16815260200190815260200160002060008473ffffffffffffffffffffffffffffffffffffffff1673ffffffffffffffffffffffffffffffffffffffff168152602001908152602001600020819055508173ffffffffffffffffffffffffffffffffffffffff168373ffffffffffffffffffffffffffffffffffffffff167f8c5be1e5ebec7d5bd14f71427d1e84f3dd0314c0f7b2291e5b200ac8c7c3b92583604051611304919061212f565b60405180910390a3505050565b600073ffffffffffffffffffffffffffffffffffffffff168273ffffffffffffffffffffffffffffffffffffffff161415611381576040517f08c379a000000000000000000000000000000000000000000000000000000000815260040161137890612954565b60405180910390fd5b61138d82600083611df2565b60008060008473ffffffffffffffffffffffffffffffffffffffff1673ffffffffffffffffffffffffffffffffffffffff16815260200190815260200160002054905081811015611413576040517f08c379a000000000000000000000000000000000000000000000000000000000815260040161140a906129e6565b60405180910390fd5b8181036000808573ffffffffffffffffffffffffffffffffffffffff1673ffffffffffffffffffffffffffffffffffffffff16815260200190815260200160002081905550816002600082825461146a9190612a06565b92505081905550600073ffffffffffffffffffffffffffffffffffffffff168373ffffffffffffffffffffffffffffffffffffffff167fddf252ad1be2c89b69c2b068fc378daa952ba7f163c4a11628f55a4df523b3ef846040516114cf919061212f565b60405180910390a36114e383600084611df7565b505050565b600073ffffffffffffffffffffffffffffffffffffffff168373ffffffffffffffffffffffffffffffffffffffff161415611558576040517f08c379a000000000000000000000000000000000000000000000000000000000815260040161154f90612aac565b60405180910390fd5b600073ffffffffffffffffffffffffffffffffffffffff168273ffffffffffffffffffffffffffffffffffffffff1614156115c8576040517f08c379a00000000000000000000000000000000000000000000000000000000081526004016115bf90612b3e565b60405180910390fd5b6115d3838383611df2565b60008060008573ffffffffffffffffffffffffffffffffffffffff1673ffffffffffffffffffffffffffffffffffffffff16815260200190815260200160002054905081811015611659576040517f08c379a000000000000000000000000000000000000000000000000000000000815260040161165090612bd0565b60405180910390fd5b8181036000808673ffffffffffffffffffffffffffffffffffffffff1673ffffffffffffffffffffffffffffffffffffffff16815260200190815260200160002081905550816000808573ffffffffffffffffffffffffffffffffffffffff1673ffffffffffffffffffffffffffffffffffffffff16815260200190815260200160002060008282546116ec9190612676565b925050819055508273ffffffffffffffffffffffffffffffffffffffff168473ffffffffffffffffffffffffffffffffffffffff167fddf252ad1be2c89b69c2b068fc378daa952ba7f163c4a11628f55a4df523b3ef84604051611750919061212f565b60405180910390a3611763848484611df7565b50505050565b611771611f43565b611779611dfc565b8211156117bb576040517f08c379a00000000000000000000000000000000000000000000000000000000081526004016117b290612c62565b60405180910390fd5b604051806020016040528069d3c21bcecceda1000000846117dc9190612c82565b8152509050919050565b6117ee611f43565b600083600001511480611805575060008260000151145b1561182157604051806020016040528060008152509050611b79565b69d3c21bcecceda10000008260000151141561183f57829050611b79565b69d3c21bcecceda10000008360000151141561185d57819050611b79565b600069d3c21bcecceda100000061187385611e24565b600001516118819190612d0b565b9050600061188e85611e66565b600001519050600069d3c21bcecceda10000006118aa86611e24565b600001516118b89190612d0b565b905060006118c586611e66565b600001519050600082856118d99190612c82565b905060008514611931578285826118f09190612d0b565b14611930576040517f08c379a000000000000000000000000000000000000000000000000000000000815260040161192790612d88565b60405180910390fd5b5b600069d3c21bcecceda1000000826119499190612c82565b9050600082146119ab5769d3c21bcecceda1000000828261196a9190612d0b565b146119aa576040517f08c379a00000000000000000000000000000000000000000000000000000000081526004016119a190612df4565b60405180910390fd5b5b809150600084866119bc9190612c82565b905060008614611a14578486826119d39190612d0b565b14611a13576040517f08c379a0000000000000000000000000000000000000000000000000000000008152600401611a0a90612e60565b60405180910390fd5b5b60008488611a229190612c82565b905060008814611a7a57848882611a399190612d0b565b14611a79576040517f08c379a0000000000000000000000000000000000000000000000000000000008152600401611a7090612ecc565b60405180910390fd5b5b611a82611eb7565b87611a8d9190612d0b565b9650611a97611eb7565b85611aa29190612d0b565b945060008588611ab29190612c82565b905060008814611b0a57858882611ac99190612d0b565b14611b09576040517f08c379a0000000000000000000000000000000000000000000000000000000008152600401611b0090612f38565b60405180910390fd5b5b60006040518060200160405280878152509050611b3581604051806020016040528087815250611ec4565b9050611b4f81604051806020016040528086815250611ec4565b9050611b6981604051806020016040528085815250611ec4565b9050809a50505050505050505050505b92915050565b611b87611f43565b600082600001511415611bcf576040517f08c379a0000000000000000000000000000000000000000000000000000000008152600401611bc690612fa4565b60405180910390fd5b600069d3c21bcecceda10000008460000151611beb9190612c82565b9050836000015169d3c21bcecceda100000082611c089190612d0b565b14611c48576040517f08c379a0000000000000000000000000000000000000000000000000000000008152600401611c3f90613010565b60405180910390fd5b6040518060200160405280846000015183611c639190612d0b565b81525091505092915050565b600069d3c21bcecceda10000008260000151611c8b9190612d0b565b9050919050565b600073ffffffffffffffffffffffffffffffffffffffff168273ffffffffffffffffffffffffffffffffffffffff161415611d02576040517f08c379a0000000000000000000000000000000000000000000000000000000008152600401611cf99061307c565b60405180910390fd5b611d0e60008383611df2565b8060026000828254611d209190612676565b92505081905550806000808473ffffffffffffffffffffffffffffffffffffffff1673ffffffffffffffffffffffffffffffffffffffff1681526020019081526020016000206000828254611d759190612676565b925050819055508173ffffffffffffffffffffffffffffffffffffffff16600073ffffffffffffffffffffffffffffffffffffffff167fddf252ad1be2c89b69c2b068fc378daa952ba7f163c4a11628f55a4df523b3ef83604051611dda919061212f565b60405180910390a3611dee60008383611df7565b5050565b505050565b505050565b60007fffffffffffffffffffffffffffffffffffffffffffffffffffffffffffffffff905090565b611e2c611f43565b604051806020016040528069d3c21bcecceda1000000808560000151611e529190612d0b565b611e5c9190612c82565b8152509050919050565b611e6e611f43565b604051806020016040528069d3c21bcecceda1000000808560000151611e949190612d0b565b611e9e9190612c82565b8460000151611ead9190612a06565b8152509050919050565b600064e8d4a51000905090565b611ecc611f43565b600082600001518460000151611ee29190612676565b90508360000151811015611f2b576040517f08c379a0000000000000000000000000000000000000000000000000000000008152600401611f22906130e8565b60405180910390fd5b60405180602001604052808281525091505092915050565b6040518060200160405280600081525090565b600081519050919050565b600082825260208201905092915050565b60005b83811015611f90578082015181840152602081019050611f75565b83811115611f9f576000848401525b50505050565b6000601f19601f8301169050919050565b6000611fc182611f56565b611fcb8185611f61565b9350611fdb818560208601611f72565b611fe481611fa5565b840191505092915050565b600060208201905081810360008301526120098184611fb6565b905092915050565b600080fd5b600073ffffffffffffffffffffffffffffffffffffffff82169050919050565b600061204182612016565b9050919050565b61205181612036565b811461205c57600080fd5b50565b60008135905061206e81612048565b92915050565b6000819050919050565b61208781612074565b811461209257600080fd5b50565b6000813590506120a48161207e565b92915050565b600080604083850312156120c1576120c0612011565b5b60006120cf8582860161205f565b92505060206120e085828601612095565b9150509250929050565b60008115159050919050565b6120ff816120ea565b82525050565b600060208201905061211a60008301846120f6565b92915050565b61212981612074565b82525050565b60006020820190506121446000830184612120565b92915050565b6000602082840312156121605761215f612011565b5b600061216e84828501612095565b91505092915050565b6000806000606084860312156121905761218f612011565b5b600061219e8682870161205f565b93505060206121af8682870161205f565b92505060406121c086828701612095565b9150509250925092565b600060ff82169050919050565b6121e0816121ca565b82525050565b60006020820190506121fb60008301846121d7565b92915050565b61220a81612036565b82525050565b60006020820190506122256000830184612201565b92915050565b60006020828403121561224157612240612011565b5b600061224f8482850161205f565b91505092915050565b6000819050919050565b600061227d61227861227384612016565b612258565b612016565b9050919050565b600061228f82612262565b9050919050565b60006122a182612284565b9050919050565b6122b181612296565b82525050565b60006020820190506122cc60008301846122a8565b92915050565b600080604083850312156122e9576122e8612011565b5b60006122f78582860161205f565b92505060206123088582860161205f565b9150509250929050565b7f4e487b7100000000000000000000000000000000000000000000000000000000600052602260045260246000fd5b6000600282049050600182168061235957607f821691505b6020821081141561236d5761236c612312565b5b50919050565b60006040820190506123886000830185612201565b6123956020830184612120565b9392505050565b6123a5816120ea565b81146123b057600080fd5b50565b6000815190506123c28161239c565b92915050565b6000602082840312156123de576123dd612011565b5b60006123ec848285016123b3565b91505092915050565b7f45524332303a207472616e7366657220616d6f756e742065786365656473206160008201527f6c6c6f77616e6365000000000000000000000000000000000000000000000000602082015250565b6000612451602883611f61565b915061245c826123f5565b604082019050919050565b6000602082019050818103600083015261248081612444565b9050919050565b7f4e487b7100000000000000000000000000000000000000000000000000000000600052601160045260246000fd5b60008160011c9050919050565b6000808291508390505b600185111561250d578086048111156124e9576124e8612487565b5b60018516156124f85780820291505b8081029050612506856124b6565b94506124cd565b94509492505050565b60008261252657600190506125e2565b8161253457600090506125e2565b816001811461254a576002811461255457612583565b60019150506125e2565b60ff84111561256657612565612487565b5b8360020a91508482111561257d5761257c612487565b5b506125e2565b5060208310610133831016604e8410600b84101617156125b85782820a9050838111156125b3576125b2612487565b5b6125e2565b6125c584848460016124c3565b925090508184048111156125dc576125db612487565b5b81810290505b9392505050565b60006125f482612074565b91506125ff836121ca565b925061262c7fffffffffffffffffffffffffffffffffffffffffffffffffffffffffffffffff8484612516565b905092915050565b6000815190506126438161207e565b92915050565b60006020828403121561265f5761265e612011565b5b600061266d84828501612634565b91505092915050565b600061268182612074565b915061268c83612074565b9250827fffffffffffffffffffffffffffffffffffffffffffffffffffffffffffffffff038211156126c1576126c0612487565b5b828201905092915050565b7f45524332303a2064656372656173656420616c6c6f77616e63652062656c6f7760008201527f207a65726f000000000000000000000000000000000000000000000000000000602082015250565b6000612728602583611f61565b9150612733826126cc565b604082019050919050565b600060208201905081810360008301526127578161271b565b9050919050565b60006060820190506127736000830186612201565b6127806020830185612201565b61278d6040830184612120565b949350505050565b60006040820190506127aa6000830185612120565b6127b76020830184612201565b9392505050565b7f45524332303a20617070726f76652066726f6d20746865207a65726f2061646460008201527f7265737300000000000000000000000000000000000000000000000000000000602082015250565b600061281a602483611f61565b9150612825826127be565b604082019050919050565b600060208201905081810360008301526128498161280d565b9050919050565b7f45524332303a20617070726f766520746f20746865207a65726f20616464726560008201527f7373000000000000000000000000000000000000000000000000000000000000602082015250565b60006128ac602283611f61565b91506128b782612850565b604082019050919050565b600060208201905081810360008301526128db8161289f565b9050919050565b7f45524332303a206275726e2066726f6d20746865207a65726f2061646472657360008201527f7300000000000000000000000000000000000000000000000000000000000000602082015250565b600061293e602183611f61565b9150612949826128e2565b604082019050919050565b6000602082019050818103600083015261296d81612931565b9050919050565b7f45524332303a206275726e20616d6f756e7420657863656564732062616c616e60008201527f6365000000000000000000000000000000000000000000000000000000000000602082015250565b60006129d0602283611f61565b91506129db82612974565b604082019050919050565b600060208201905081810360008301526129ff816129c3565b9050919050565b6000612a1182612074565b9150612a1c83612074565b925082821015612a2f57612a2e612487565b5b828203905092915050565b7f45524332303a207472616e736665722066726f6d20746865207a65726f20616460008201527f6472657373000000000000000000000000000000000000000000000000000000602082015250565b6000612a96602583611f61565b9150612aa182612a3a565b604082019050919050565b60006020820190508181036000830152612ac581612a89565b9050919050565b7f45524332303a207472616e7366657220746f20746865207a65726f206164647260008201527f6573730000000000000000000000000000000000000000000000000000000000602082015250565b6000612b28602383611f61565b9150612b3382612acc565b604082019050919050565b60006020820190508181036000830152612b5781612b1b565b9050919050565b7f45524332303a207472616e7366657220616d6f756e742065786365656473206260008201527f616c616e63650000000000000000000000000000000000000000000000000000602082015250565b6000612bba602683611f61565b9150612bc582612b5e565b604082019050919050565b60006020820190508181036000830152612be981612bad565b9050919050565b7f63616e277420637265617465206669786964697479206e756d626572206c617260008201527f676572207468616e206d61784e65774669786564282900000000000000000000602082015250565b6000612c4c603683611f61565b9150612c5782612bf0565b604082019050919050565b60006020820190508181036000830152612c7b81612c3f565b9050919050565b6000612c8d82612074565b9150612c9883612074565b9250817fffffffffffffffffffffffffffffffffffffffffffffffffffffffffffffffff0483118215151615612cd157612cd0612487565b5b828202905092915050565b7f4e487b7100000000000000000000000000000000000000000000000000000000600052601260045260246000fd5b6000612d1682612074565b9150612d2183612074565b925082612d3157612d30612cdc565b5b828204905092915050565b7f6f766572666c6f77207831793120646574656374656400000000000000000000600082015250565b6000612d72601683611f61565b9150612d7d82612d3c565b602082019050919050565b60006020820190508181036000830152612da181612d65565b9050919050565b7f6f766572666c6f772078317931202a2066697865643120646574656374656400600082015250565b6000612dde601f83611f61565b9150612de982612da8565b602082019050919050565b60006020820190508181036000830152612e0d81612dd1565b9050919050565b7f6f766572666c6f77207832793120646574656374656400000000000000000000600082015250565b6000612e4a601683611f61565b9150612e5582612e14565b602082019050919050565b60006020820190508181036000830152612e7981612e3d565b9050919050565b7f6f766572666c6f77207831793220646574656374656400000000000000000000600082015250565b6000612eb6601683611f61565b9150612ec182612e80565b602082019050919050565b60006020820190508181036000830152612ee581612ea9565b9050919050565b7f6f766572666c6f77207832793220646574656374656400000000000000000000600082015250565b6000612f22601683611f61565b9150612f2d82612eec565b602082019050919050565b60006020820190508181036000830152612f5181612f15565b9050919050565b7f63616e2774206469766964652062792030000000000000000000000000000000600082015250565b6000612f8e601183611f61565b9150612f9982612f58565b602082019050919050565b60006020820190508181036000830152612fbd81612f81565b9050919050565b7f6f766572666c6f77206174206469766964650000000000000000000000000000600082015250565b6000612ffa601283611f61565b915061300582612fc4565b602082019050919050565b6000602082019050818103600083015261302981612fed565b9050919050565b7f45524332303a206d696e7420746f20746865207a65726f206164647265737300600082015250565b6000613066601f83611f61565b915061307182613030565b602082019050919050565b6000602082019050818103600083015261309581613059565b9050919050565b7f616464206f766572666c6f772064657465637465640000000000000000000000600082015250565b60006130d2601583611f61565b91506130dd8261309c565b602082019050919050565b60006020820190508181036000830152613101816130c5565b905091905056fea2646970667358221220d1de0d180d0b3c55b6278a36ffcb505a9cb5b4115bb72246eb62ef372f73911964736f6c634300080a0033",
  "immutableReferences": {
    "14476": [
      {
        "length": 32,
        "start": 1835
      },
      {
        "length": 32,
        "start": 2172
      },
      {
        "length": 32,
        "start": 2918
      },
      {
        "length": 32,
        "start": 3049
      },
      {
        "length": 32,
        "start": 3254
      },
      {
        "length": 32,
        "start": 3548
      },
      {
        "length": 32,
        "start": 3679
      }
    ]
  },
  "source": "// SPDX-License-Identifier: MIT\npragma solidity 0.8.10;\nimport \"@openzeppelin/contracts/token/ERC20/ERC20.sol\";\nimport \"./Fixidity.sol\";\n\ninterface IStaking {\n    function stake( uint _amount, address _recipient ) external returns ( bool );\n\n    function unstake( uint _amount, address _recipient ) external returns ( bool );\n\n    function index() external view returns ( uint );\n}\n\ncontract wBOSS is ERC20 {\n\n\n    address public immutable staking;\n    IERC20 public  BOSS;\n    IERC20 public sBOSS;\n\n    constructor( address _staking, IERC20 _BOSS, IERC20 _sBOSS ) ERC20( 'Wrapped sBOSS', 'wsBOSS' ) {\n        require( _staking != address(0) );\n        staking = _staking;\n        require( address(_BOSS) != address(0) );\n        BOSS = _BOSS;\n        require( address(_sBOSS) != address(0) );\n        sBOSS = _sBOSS;\n    }\n\n        /**\n        @notice stakes BOSS and wraps sBOSS\n        @param _amount uint\n        @return uint\n     */\n    function wrapFromBOSS( uint _amount ) external returns ( uint ) {\n        BOSS.transferFrom( msg.sender, address(this), _amount );\n\n        BOSS.approve( staking, _amount ); // stake BOSS for sBOSS\n        IStaking( staking ).stake( _amount, address(this) );\n\n        uint value = wBOSSValue( _amount );\n        _mint( msg.sender, value );\n        return value;\n    }\n\n    /**\n        @notice unwrap sBOSS and unstake BOSS\n        @param _amount uint\n        @return uint\n     */\n    function unwrapToBOSS( uint _amount ) external returns ( uint ) {\n        _burn( msg.sender, _amount );\n        \n        uint value = sBOSSValue( _amount );\n        sBOSS.approve( staking, value ); // unstake sBOSS for BOSS\n        IStaking( staking ).unstake( value, address(this) );\n\n        BOSS.transfer( msg.sender, value );\n        return value;\n    }\n\n    /**\n        @notice wrap sBOSS\n        @param _amount uint\n        @return uint\n     */\n    function wrapFromsBOSS( uint _amount ) external returns ( uint ) {\n        sBOSS.transferFrom( msg.sender, address(this), _amount );\n        \n        uint value = wBOSSValue( _amount );\n        _mint( msg.sender, value );\n        return value;\n    }\n\n    /**\n        @notice unwrap sBOSS\n        @param _amount uint\n        @return uint\n     */\n    function unwrapTosBOSS( uint _amount ) external returns ( uint ) {\n        _burn( msg.sender, _amount );\n\n        uint value = sBOSSValue( _amount );\n        sBOSS.transfer( msg.sender, value );\n        return value;\n    }\n\n    /**\n        @notice converts wBOSS amount to sBOSS\n        @param _amount uint\n        @return uint\n     */\n    function sBOSSValue( uint _amount ) public view returns ( uint ) {\n        return Fixidity.fromFixed(Fixidity.divide(\n            Fixidity.mul( \n                Fixidity.newFixed(IStaking( staking ).index()), Fixidity.newFixed(_amount)), \n                Fixidity.newFixed(10 ** decimals())));\n    }\n\n    /**\n        @notice converts sBOSS amount to wBOSS\n        @param _amount uint\n        @return uint\n     */\n    function wBOSSValue( uint _amount ) public view returns ( uint ) {\n        return Fixidity.fromFixed(Fixidity.divide(\n            Fixidity.mul( \n                Fixidity.newFixed(_amount), Fixidity.newFixed(10 ** decimals())), \n                Fixidity.newFixed(IStaking( staking ).index())));\n    }\n\n}",
  "sourcePath": "/Users/samgville/Documents/Nostra DAO /nostra-dao-contracts/contracts/wBOSS.sol",
  "compiler": {
    "name": "solc",
    "version": "0.8.10+commit.fc410830.Emscripten.clang"
  },
  "schemaVersion": "3.4.4",
  "updatedAt": "2022-01-21T00:17:49.093Z",
  "devdoc": {
    "kind": "dev",
    "methods": {
      "allowance(address,address)": {
        "details": "See {IERC20-allowance}."
      },
      "approve(address,uint256)": {
        "details": "See {IERC20-approve}. Requirements: - `spender` cannot be the zero address."
      },
      "balanceOf(address)": {
        "details": "See {IERC20-balanceOf}."
      },
      "decimals()": {
        "details": "Returns the number of decimals used to get its user representation. For example, if `decimals` equals `2`, a balance of `505` tokens should be displayed to a user as `5.05` (`505 / 10 ** 2`). Tokens usually opt for a value of 18, imitating the relationship between Ether and Wei. This is the value {ERC20} uses, unless this function is overridden; NOTE: This information is only used for _display_ purposes: it in no way affects any of the arithmetic of the contract, including {IERC20-balanceOf} and {IERC20-transfer}."
      },
      "decreaseAllowance(address,uint256)": {
        "details": "Atomically decreases the allowance granted to `spender` by the caller. This is an alternative to {approve} that can be used as a mitigation for problems described in {IERC20-approve}. Emits an {Approval} event indicating the updated allowance. Requirements: - `spender` cannot be the zero address. - `spender` must have allowance for the caller of at least `subtractedValue`."
      },
      "increaseAllowance(address,uint256)": {
        "details": "Atomically increases the allowance granted to `spender` by the caller. This is an alternative to {approve} that can be used as a mitigation for problems described in {IERC20-approve}. Emits an {Approval} event indicating the updated allowance. Requirements: - `spender` cannot be the zero address."
      },
      "name()": {
        "details": "Returns the name of the token."
      },
      "sBOSSValue(uint256)": {
        "params": {
          "_amount": "uint"
        },
        "returns": {
          "_0": "uint"
        }
      },
      "symbol()": {
        "details": "Returns the symbol of the token, usually a shorter version of the name."
      },
      "totalSupply()": {
        "details": "See {IERC20-totalSupply}."
      },
      "transfer(address,uint256)": {
        "details": "See {IERC20-transfer}. Requirements: - `recipient` cannot be the zero address. - the caller must have a balance of at least `amount`."
      },
      "transferFrom(address,address,uint256)": {
        "details": "See {IERC20-transferFrom}. Emits an {Approval} event indicating the updated allowance. This is not required by the EIP. See the note at the beginning of {ERC20}. Requirements: - `sender` and `recipient` cannot be the zero address. - `sender` must have a balance of at least `amount`. - the caller must have allowance for ``sender``'s tokens of at least `amount`."
      },
      "unwrapToBOSS(uint256)": {
        "params": {
          "_amount": "uint"
        },
        "returns": {
          "_0": "uint"
        }
      },
      "unwrapTosBOSS(uint256)": {
        "params": {
          "_amount": "uint"
        },
        "returns": {
          "_0": "uint"
        }
      },
      "wBOSSValue(uint256)": {
        "params": {
          "_amount": "uint"
        },
        "returns": {
          "_0": "uint"
        }
      },
      "wrapFromBOSS(uint256)": {
        "params": {
          "_amount": "uint"
        },
        "returns": {
          "_0": "uint"
        }
      },
      "wrapFromsBOSS(uint256)": {
        "params": {
          "_amount": "uint"
        },
        "returns": {
          "_0": "uint"
        }
      }
    },
    "version": 1
  },
  "userdoc": {
    "kind": "user",
    "methods": {
      "sBOSSValue(uint256)": {
        "notice": "converts wBOSS amount to sBOSS"
      },
      "unwrapToBOSS(uint256)": {
        "notice": "unwrap sBOSS and unstake BOSS"
      },
      "unwrapTosBOSS(uint256)": {
        "notice": "unwrap sBOSS"
      },
      "wBOSSValue(uint256)": {
        "notice": "converts sBOSS amount to wBOSS"
      },
      "wrapFromBOSS(uint256)": {
        "notice": "stakes BOSS and wraps sBOSS"
      },
      "wrapFromsBOSS(uint256)": {
        "notice": "wrap sBOSS"
      }
    },
    "version": 1
  }
}