{
  "contractName": "BossBondDepository",
  "abi": [
    {
      "inputs": [
        {
          "internalType": "contract IERC20",
          "name": "_BOSS",
          "type": "address"
        },
        {
          "internalType": "contract IERC20",
          "name": "_principle",
          "type": "address"
        },
        {
          "internalType": "address",
          "name": "_treasury",
          "type": "address"
        },
        {
          "internalType": "address",
          "name": "_DAO",
          "type": "address"
        },
        {
          "internalType": "address",
          "name": "_bondCalculator",
          "type": "address"
        }
      ],
      "stateMutability": "nonpayable",
      "type": "constructor"
    },
    {
      "anonymous": false,
      "inputs": [
        {
          "indexed": false,
          "internalType": "uint256",
          "name": "deposit",
          "type": "uint256"
        },
        {
          "indexed": true,
          "internalType": "uint256",
          "name": "payout",
          "type": "uint256"
        },
        {
          "indexed": true,
          "internalType": "uint256",
          "name": "expires",
          "type": "uint256"
        },
        {
          "indexed": true,
          "internalType": "uint256",
          "name": "priceInUSD",
          "type": "uint256"
        }
      ],
      "name": "BondCreated",
      "type": "event"
    },
    {
      "anonymous": false,
      "inputs": [
        {
          "indexed": true,
          "internalType": "uint256",
          "name": "priceInUSD",
          "type": "uint256"
        },
        {
          "indexed": true,
          "internalType": "uint256",
          "name": "internalPrice",
          "type": "uint256"
        },
        {
          "indexed": true,
          "internalType": "uint256",
          "name": "debtRatio",
          "type": "uint256"
        }
      ],
      "name": "BondPriceChanged",
      "type": "event"
    },
    {
      "anonymous": false,
      "inputs": [
        {
          "indexed": true,
          "internalType": "address",
          "name": "recipient",
          "type": "address"
        },
        {
          "indexed": false,
          "internalType": "uint256",
          "name": "payout",
          "type": "uint256"
        },
        {
          "indexed": false,
          "internalType": "uint256",
          "name": "remaining",
          "type": "uint256"
        }
      ],
      "name": "BondRedeemed",
      "type": "event"
    },
    {
      "anonymous": false,
      "inputs": [
        {
          "indexed": false,
          "internalType": "uint256",
          "name": "initialBCV",
          "type": "uint256"
        },
        {
          "indexed": false,
          "internalType": "uint256",
          "name": "newBCV",
          "type": "uint256"
        },
        {
          "indexed": false,
          "internalType": "uint256",
          "name": "adjustment",
          "type": "uint256"
        },
        {
          "indexed": false,
          "internalType": "bool",
          "name": "addition",
          "type": "bool"
        }
      ],
      "name": "ControlVariableAdjustment",
      "type": "event"
    },
    {
      "anonymous": false,
      "inputs": [
        {
          "indexed": true,
          "internalType": "address",
          "name": "previousOwner",
          "type": "address"
        },
        {
          "indexed": true,
          "internalType": "address",
          "name": "newOwner",
          "type": "address"
        }
      ],
      "name": "OwnershipTransferred",
      "type": "event"
    },
    {
      "inputs": [],
      "name": "DAO",
      "outputs": [
        {
          "internalType": "address",
          "name": "",
          "type": "address"
        }
      ],
      "stateMutability": "view",
      "type": "function"
    },
    {
      "inputs": [],
      "name": "adjustment",
      "outputs": [
        {
          "internalType": "bool",
          "name": "add",
          "type": "bool"
        },
        {
          "internalType": "uint256",
          "name": "rate",
          "type": "uint256"
        },
        {
          "internalType": "uint256",
          "name": "target",
          "type": "uint256"
        },
        {
          "internalType": "uint256",
          "name": "buffer",
          "type": "uint256"
        },
        {
          "internalType": "uint256",
          "name": "lastBlock",
          "type": "uint256"
        }
      ],
      "stateMutability": "view",
      "type": "function"
    },
    {
      "inputs": [],
      "name": "bondCalculator",
      "outputs": [
        {
          "internalType": "address",
          "name": "",
          "type": "address"
        }
      ],
      "stateMutability": "view",
      "type": "function"
    },
    {
      "inputs": [
        {
          "internalType": "address",
          "name": "",
          "type": "address"
        }
      ],
      "name": "bondInfo",
      "outputs": [
        {
          "internalType": "uint256",
          "name": "payout",
          "type": "uint256"
        },
        {
          "internalType": "uint256",
          "name": "vesting",
          "type": "uint256"
        },
        {
          "internalType": "uint256",
          "name": "lastBlock",
          "type": "uint256"
        },
        {
          "internalType": "uint256",
          "name": "pricePaid",
          "type": "uint256"
        }
      ],
      "stateMutability": "view",
      "type": "function"
    },
    {
      "inputs": [],
      "name": "isLiquidityBond",
      "outputs": [
        {
          "internalType": "bool",
          "name": "",
          "type": "bool"
        }
      ],
      "stateMutability": "view",
      "type": "function"
    },
    {
      "inputs": [],
      "name": "lastDecay",
      "outputs": [
        {
          "internalType": "uint256",
          "name": "",
          "type": "uint256"
        }
      ],
      "stateMutability": "view",
      "type": "function"
    },
    {
      "inputs": [],
      "name": "owner",
      "outputs": [
        {
          "internalType": "address",
          "name": "",
          "type": "address"
        }
      ],
      "stateMutability": "view",
      "type": "function"
    },
    {
      "inputs": [],
      "name": "renounceOwnership",
      "outputs": [],
      "stateMutability": "nonpayable",
      "type": "function"
    },
    {
      "inputs": [],
      "name": "staking",
      "outputs": [
        {
          "internalType": "address",
          "name": "",
          "type": "address"
        }
      ],
      "stateMutability": "view",
      "type": "function"
    },
    {
      "inputs": [],
      "name": "stakingHelper",
      "outputs": [
        {
          "internalType": "address",
          "name": "",
          "type": "address"
        }
      ],
      "stateMutability": "view",
      "type": "function"
    },
    {
      "inputs": [],
      "name": "terms",
      "outputs": [
        {
          "internalType": "uint256",
          "name": "controlVariable",
          "type": "uint256"
        },
        {
          "internalType": "uint256",
          "name": "vestingTerm",
          "type": "uint256"
        },
        {
          "internalType": "uint256",
          "name": "minimumPrice",
          "type": "uint256"
        },
        {
          "internalType": "uint256",
          "name": "maxPayout",
          "type": "uint256"
        },
        {
          "internalType": "uint256",
          "name": "fee",
          "type": "uint256"
        },
        {
          "internalType": "uint256",
          "name": "maxDebt",
          "type": "uint256"
        }
      ],
      "stateMutability": "view",
      "type": "function"
    },
    {
      "inputs": [],
      "name": "totalDebt",
      "outputs": [
        {
          "internalType": "uint256",
          "name": "",
          "type": "uint256"
        }
      ],
      "stateMutability": "view",
      "type": "function"
    },
    {
      "inputs": [
        {
          "internalType": "address",
          "name": "newOwner",
          "type": "address"
        }
      ],
      "name": "transferOwnership",
      "outputs": [],
      "stateMutability": "nonpayable",
      "type": "function"
    },
    {
      "inputs": [],
      "name": "treasury",
      "outputs": [
        {
          "internalType": "address",
          "name": "",
          "type": "address"
        }
      ],
      "stateMutability": "view",
      "type": "function"
    },
    {
      "inputs": [],
      "name": "useHelper",
      "outputs": [
        {
          "internalType": "bool",
          "name": "",
          "type": "bool"
        }
      ],
      "stateMutability": "view",
      "type": "function"
    },
    {
      "inputs": [
        {
          "internalType": "uint256",
          "name": "_controlVariable",
          "type": "uint256"
        },
        {
          "internalType": "uint256",
          "name": "_vestingTerm",
          "type": "uint256"
        },
        {
          "internalType": "uint256",
          "name": "_minimumPrice",
          "type": "uint256"
        },
        {
          "internalType": "uint256",
          "name": "_maxPayout",
          "type": "uint256"
        },
        {
          "internalType": "uint256",
          "name": "_fee",
          "type": "uint256"
        },
        {
          "internalType": "uint256",
          "name": "_maxDebt",
          "type": "uint256"
        },
        {
          "internalType": "uint256",
          "name": "_initialDebt",
          "type": "uint256"
        }
      ],
      "name": "initializeBondTerms",
      "outputs": [],
      "stateMutability": "nonpayable",
      "type": "function"
    },
    {
      "inputs": [
        {
          "internalType": "enum BossBondDepository.PARAMETER",
          "name": "_parameter",
          "type": "uint8"
        },
        {
          "internalType": "uint256",
          "name": "_input",
          "type": "uint256"
        }
      ],
      "name": "setBondTerms",
      "outputs": [],
      "stateMutability": "nonpayable",
      "type": "function"
    },
    {
      "inputs": [
        {
          "internalType": "bool",
          "name": "_addition",
          "type": "bool"
        },
        {
          "internalType": "uint256",
          "name": "_increment",
          "type": "uint256"
        },
        {
          "internalType": "uint256",
          "name": "_target",
          "type": "uint256"
        },
        {
          "internalType": "uint256",
          "name": "_buffer",
          "type": "uint256"
        }
      ],
      "name": "setAdjustment",
      "outputs": [],
      "stateMutability": "nonpayable",
      "type": "function"
    },
    {
      "inputs": [
        {
          "internalType": "address",
          "name": "_staking",
          "type": "address"
        },
        {
          "internalType": "bool",
          "name": "_helper",
          "type": "bool"
        }
      ],
      "name": "setStaking",
      "outputs": [],
      "stateMutability": "nonpayable",
      "type": "function"
    },
    {
      "inputs": [
        {
          "internalType": "uint256",
          "name": "_amount",
          "type": "uint256"
        },
        {
          "internalType": "uint256",
          "name": "_maxPrice",
          "type": "uint256"
        },
        {
          "internalType": "address",
          "name": "_depositor",
          "type": "address"
        }
      ],
      "name": "deposit",
      "outputs": [
        {
          "internalType": "uint256",
          "name": "",
          "type": "uint256"
        }
      ],
      "stateMutability": "nonpayable",
      "type": "function"
    },
    {
      "inputs": [
        {
          "internalType": "address",
          "name": "_recipient",
          "type": "address"
        },
        {
          "internalType": "bool",
          "name": "_stake",
          "type": "bool"
        }
      ],
      "name": "redeem",
      "outputs": [
        {
          "internalType": "uint256",
          "name": "",
          "type": "uint256"
        }
      ],
      "stateMutability": "nonpayable",
      "type": "function"
    },
    {
      "inputs": [],
      "name": "maxPayout",
      "outputs": [
        {
          "internalType": "uint256",
          "name": "",
          "type": "uint256"
        }
      ],
      "stateMutability": "view",
      "type": "function"
    },
    {
      "inputs": [
        {
          "internalType": "uint256",
          "name": "_value",
          "type": "uint256"
        }
      ],
      "name": "payoutFor",
      "outputs": [
        {
          "internalType": "uint256",
          "name": "",
          "type": "uint256"
        }
      ],
      "stateMutability": "view",
      "type": "function"
    },
    {
      "inputs": [],
      "name": "bondPrice",
      "outputs": [
        {
          "internalType": "uint256",
          "name": "price_",
          "type": "uint256"
        }
      ],
      "stateMutability": "view",
      "type": "function"
    },
    {
      "inputs": [],
      "name": "bondPriceInUSD",
      "outputs": [
        {
          "internalType": "uint256",
          "name": "price_",
          "type": "uint256"
        }
      ],
      "stateMutability": "view",
      "type": "function"
    },
    {
      "inputs": [],
      "name": "debtRatio",
      "outputs": [
        {
          "internalType": "uint256",
          "name": "debtRatio_",
          "type": "uint256"
        }
      ],
      "stateMutability": "view",
      "type": "function"
    },
    {
      "inputs": [],
      "name": "standardizedDebtRatio",
      "outputs": [
        {
          "internalType": "uint256",
          "name": "",
          "type": "uint256"
        }
      ],
      "stateMutability": "view",
      "type": "function"
    },
    {
      "inputs": [],
      "name": "currentDebt",
      "outputs": [
        {
          "internalType": "uint256",
          "name": "",
          "type": "uint256"
        }
      ],
      "stateMutability": "view",
      "type": "function"
    },
    {
      "inputs": [],
      "name": "debtDecay",
      "outputs": [
        {
          "internalType": "uint256",
          "name": "decay_",
          "type": "uint256"
        }
      ],
      "stateMutability": "view",
      "type": "function"
    },
    {
      "inputs": [
        {
          "internalType": "address",
          "name": "_depositor",
          "type": "address"
        }
      ],
      "name": "percentVestedFor",
      "outputs": [
        {
          "internalType": "uint256",
          "name": "percentVested_",
          "type": "uint256"
        }
      ],
      "stateMutability": "view",
      "type": "function"
    },
    {
      "inputs": [
        {
          "internalType": "address",
          "name": "_depositor",
          "type": "address"
        }
      ],
      "name": "pendingPayoutFor",
      "outputs": [
        {
          "internalType": "uint256",
          "name": "pendingPayout_",
          "type": "uint256"
        }
      ],
      "stateMutability": "view",
      "type": "function"
    },
    {
      "inputs": [
        {
          "internalType": "contract IERC20",
          "name": "_token",
          "type": "address"
        }
      ],
      "name": "recoverLostToken",
      "outputs": [
        {
          "internalType": "bool",
          "name": "",
          "type": "bool"
        }
      ],
      "stateMutability": "nonpayable",
      "type": "function"
    }
  ],
  "bytecode": "0x6101006040523480156200001257600080fd5b5060405162004ef938038062004ef9833981810160405281019062000038919062000424565b620000586200004c620002a960201b60201c565b620002b160201b60201c565b600073ffffffffffffffffffffffffffffffffffffffff168573ffffffffffffffffffffffffffffffffffffffff1614156200009357600080fd5b84600160006101000a81548173ffffffffffffffffffffffffffffffffffffffff021916908373ffffffffffffffffffffffffffffffffffffffff160217905550600073ffffffffffffffffffffffffffffffffffffffff168473ffffffffffffffffffffffffffffffffffffffff1614156200010f57600080fd5b83600260006101000a81548173ffffffffffffffffffffffffffffffffffffffff021916908373ffffffffffffffffffffffffffffffffffffffff160217905550600073ffffffffffffffffffffffffffffffffffffffff168373ffffffffffffffffffffffffffffffffffffffff1614156200018b57600080fd5b8273ffffffffffffffffffffffffffffffffffffffff1660808173ffffffffffffffffffffffffffffffffffffffff1681525050600073ffffffffffffffffffffffffffffffffffffffff168273ffffffffffffffffffffffffffffffffffffffff161415620001fa57600080fd5b8173ffffffffffffffffffffffffffffffffffffffff1660a08173ffffffffffffffffffffffffffffffffffffffff16815250508073ffffffffffffffffffffffffffffffffffffffff1660e08173ffffffffffffffffffffffffffffffffffffffff1681525050600073ffffffffffffffffffffffffffffffffffffffff168173ffffffffffffffffffffffffffffffffffffffff161415151560c0811515815250505050505050620004ac565b600033905090565b60008060009054906101000a900473ffffffffffffffffffffffffffffffffffffffff169050816000806101000a81548173ffffffffffffffffffffffffffffffffffffffff021916908373ffffffffffffffffffffffffffffffffffffffff1602179055508173ffffffffffffffffffffffffffffffffffffffff168173ffffffffffffffffffffffffffffffffffffffff167f8be0079c531659141344cd1fd0a4f28419497f9722a3daafe3b4186f6b6457e060405160405180910390a35050565b600080fd5b600073ffffffffffffffffffffffffffffffffffffffff82169050919050565b6000620003a7826200037a565b9050919050565b6000620003bb826200039a565b9050919050565b620003cd81620003ae565b8114620003d957600080fd5b50565b600081519050620003ed81620003c2565b92915050565b620003fe816200039a565b81146200040a57600080fd5b50565b6000815190506200041e81620003f3565b92915050565b600080600080600060a0868803121562000443576200044262000375565b5b60006200045388828901620003dc565b95505060206200046688828901620003dc565b945050604062000479888289016200040d565b93505060606200048c888289016200040d565b92505060806200049f888289016200040d565b9150509295509295909350565b60805160a05160c05160e0516149d462000525600039600081816111da01528181611a840152611d1f01526000818161119801528181611a42015261200e0152600081816117fc01528181611b760152611c55015260008181610f0f0152818161144c015281816116ab015261172e01526149d46000f3fe608060405234801561001057600080fd5b50600436106101f05760003560e01c80638dbdbe6d1161010f578063d5025625116100a2578063e392a26211610071578063e392a262146105ab578063f2fde38b146105c9578063f5c2ab5b146105e5578063fc7b9c1814610603576101f0565b8063d50256251461052e578063d796906014610551578063d7ccfb0b1461056f578063e0176de81461058d576101f0565b8063c5332b7c116100de578063c5332b7c146104a3578063cd1234b3146104c1578063cea55f57146104f4578063d4d863ce14610512576101f0565b80638dbdbe6d14610407578063904b3ece1461043757806398fabd3a14610455578063b4abccba14610473576101f0565b806361d027b31161018757806377b818951161015657806377b818951461037d5780637927ebf81461039b578063844b5c7c146103cb5780638da5cb5b146103e9576101f0565b806361d027b31461031b578063715018a6146103395780637153500814610343578063759076e51461035f576101f0565b80632f3f470a116101c35780632f3f470a1461028d578063451ee4a1146102ab5780634cf088d9146102cd578063507930ec146102eb576101f0565b806301b88ee8146101f55780631a3d0068146102255780631e321a0f146102415780631feed31f1461025d575b600080fd5b61020f600480360381019061020a91906134a8565b610621565b60405161021c91906134ee565b60405180910390f35b61023f600480360381019061023a919061356d565b6106c6565b005b61025b600480360381019061025691906135f9565b61083b565b005b61027760048036038101906102729190613639565b610a77565b60405161028491906134ee565b60405180910390f35b610295610da7565b6040516102a29190613688565b60405180910390f35b6102b3610dba565b6040516102c49594939291906136a3565b60405180910390f35b6102d5610deb565b6040516102e29190613705565b60405180910390f35b610305600480360381019061030091906134a8565b610e11565b60405161031291906134ee565b60405180910390f35b610323610f0d565b6040516103309190613705565b60405180910390f35b610341610f31565b005b61035d60048036038101906103589190613720565b610fb9565b005b610367611102565b60405161037491906134ee565b60405180910390f35b610385611134565b6040516103929190613705565b60405180910390f35b6103b560048036038101906103b091906137c2565b61115a565b6040516103c291906134ee565b60405180910390f35b6103d3611194565b6040516103e091906134ee565b60405180910390f35b6103f1611302565b6040516103fe9190613705565b60405180910390f35b610421600480360381019061041c91906137ef565b61132b565b60405161042e91906134ee565b60405180910390f35b61043f611a3e565b60405161044c91906134ee565b60405180910390f35b61045d611b74565b60405161046a9190613705565b60405180910390f35b61048d60048036038101906104889190613880565b611b98565b60405161049a9190613688565b60405180910390f35b6104ab611d1d565b6040516104b89190613705565b60405180910390f35b6104db60048036038101906104d691906134a8565b611d41565b6040516104eb94939291906138ad565b60405180910390f35b6104fc611d71565b60405161050991906134ee565b60405180910390f35b61052c60048036038101906105279190613639565b611e64565b005b610536611fe2565b604051610548969594939291906138f2565b60405180910390f35b61055961200c565b6040516105669190613688565b60405180910390f35b610577612030565b60405161058491906134ee565b60405180910390f35b6105956120a4565b6040516105a291906134ee565b60405180910390f35b6105b3612176565b6040516105c091906134ee565b60405180910390f35b6105e360048036038101906105de91906134a8565b6121ef565b005b6105ed6122e7565b6040516105fa91906134ee565b60405180910390f35b61060b6122ed565b60405161061891906134ee565b60405180910390f35b60008061062d83610e11565b90506000601060008573ffffffffffffffffffffffffffffffffffffffff1673ffffffffffffffffffffffffffffffffffffffff1681526020019081526020016000206000015490506127108210610687578092506106bf565b6106bc6106b76106a7610699846122f3565b6106a2866122f3565b612370565b6106b26127106122f3565b612709565b6127f9565b92505b5050919050565b6106ce61281c565b73ffffffffffffffffffffffffffffffffffffffff166106ec611302565b73ffffffffffffffffffffffffffffffffffffffff1614610742576040517f08c379a0000000000000000000000000000000000000000000000000000000008152600401610739906139b0565b60405180910390fd5b61077d6107786107686107596005600001546122f3565b61076360196122f3565b612370565b6107736103e86122f3565b612709565b6127f9565b8311156107bf576040517f08c379a00000000000000000000000000000000000000000000000000000000081526004016107b690613a1c565b60405180910390fd5b6040518060a00160405280851515815260200184815260200183815260200182815260200143815250600b60008201518160000160006101000a81548160ff0219169083151502179055506020820151816001015560408201518160020155606082015181600301556080820151816004015590505050505050565b61084361281c565b73ffffffffffffffffffffffffffffffffffffffff16610861611302565b73ffffffffffffffffffffffffffffffffffffffff16146108b7576040517f08c379a00000000000000000000000000000000000000000000000000000000081526004016108ae906139b0565b60405180910390fd5b600060038111156108cb576108ca613a3c565b5b8260038111156108de576108dd613a3c565b5b141561093857612710811015610929576040517f08c379a000000000000000000000000000000000000000000000000000000000815260040161092090613add565b60405180910390fd5b80600560010181905550610a73565b6001600381111561094c5761094b613a3c565b5b82600381111561095f5761095e613a3c565b5b14156109b9576103e88111156109aa576040517f08c379a00000000000000000000000000000000000000000000000000000000081526004016109a190613b49565b60405180910390fd5b80600560030181905550610a72565b600260038111156109cd576109cc613a3c565b5b8260038111156109e0576109df613a3c565b5b1415610a3a57612710811115610a2b576040517f08c379a0000000000000000000000000000000000000000000000000000000008152600401610a2290613bb5565b60405180910390fd5b80600560040181905550610a71565b600380811115610a4d57610a4c613a3c565b5b826003811115610a6057610a5f613a3c565b5b1415610a70578060058001819055505b5b5b5b5050565b600080601060008573ffffffffffffffffffffffffffffffffffffffff1673ffffffffffffffffffffffffffffffffffffffff16815260200190815260200160002060405180608001604052908160008201548152602001600182015481526020016002820154815260200160038201548152505090506000610af985610e11565b90506127108110610bd357601060008673ffffffffffffffffffffffffffffffffffffffff1673ffffffffffffffffffffffffffffffffffffffff16815260200190815260200160002060008082016000905560018201600090556002820160009055600382016000905550508473ffffffffffffffffffffffffffffffffffffffff167f51c99f515c87b0d95ba97f616edd182e8f161c4932eac17c6fefe9dab58b77b183600001516000604051610bb3929190613c1a565b60405180910390a2610bca85858460000151612824565b92505050610da1565b6000610c0e610c09610bf9610beb86600001516122f3565b610bf4866122f3565b612370565b610c046127106122f3565b612709565b6127f9565b90506040518060800160405280610c41610c3c610c2e87600001516122f3565b610c37866122f3565b612bad565b6127f9565b8152602001610c81610c7c610c5987602001516122f3565b610c77610c65436122f3565b610c728a604001516122f3565b612bad565b612bad565b6127f9565b81526020014381526020018460600151815250601060008873ffffffffffffffffffffffffffffffffffffffff1673ffffffffffffffffffffffffffffffffffffffff168152602001908152602001600020600082015181600001556020820151816001015560408201518160020155606082015181600301559050508573ffffffffffffffffffffffffffffffffffffffff167f51c99f515c87b0d95ba97f616edd182e8f161c4932eac17c6fefe9dab58b77b182601060008a73ffffffffffffffffffffffffffffffffffffffff1673ffffffffffffffffffffffffffffffffffffffff16815260200190815260200160002060000154604051610d88929190613c43565b60405180910390a2610d9b868683612824565b93505050505b92915050565b600460149054906101000a900460ff1681565b600b8060000160009054906101000a900460ff16908060010154908060020154908060030154908060040154905085565b600360009054906101000a900473ffffffffffffffffffffffffffffffffffffffff1681565b600080601060008473ffffffffffffffffffffffffffffffffffffffff1673ffffffffffffffffffffffffffffffffffffffff16815260200190815260200160002060405180608001604052908160008201548152602001600182015481526020016002820154815260200160038201548152505090506000610eb0610eab610e99436122f3565b610ea685604001516122f3565b612bad565b6127f9565b90506000826020015190506000811115610f0057610ef9610ef4610ee6610ed6856122f3565b610ee16127106122f3565b612370565b610eef846122f3565b612709565b6127f9565b9350610f05565b600093505b505050919050565b7f000000000000000000000000000000000000000000000000000000000000000081565b610f3961281c565b73ffffffffffffffffffffffffffffffffffffffff16610f57611302565b73ffffffffffffffffffffffffffffffffffffffff1614610fad576040517f08c379a0000000000000000000000000000000000000000000000000000000008152600401610fa4906139b0565b60405180910390fd5b610fb76000612c2a565b565b610fc161281c565b73ffffffffffffffffffffffffffffffffffffffff16610fdf611302565b73ffffffffffffffffffffffffffffffffffffffff1614611035576040517f08c379a000000000000000000000000000000000000000000000000000000000815260040161102c906139b0565b60405180910390fd5b60006005600001541461107d576040517f08c379a000000000000000000000000000000000000000000000000000000000815260040161107490613cb8565b60405180910390fd5b6040518060c00160405280888152602001878152602001868152602001858152602001848152602001838152506005600082015181600001556020820151816001015560408201518160020155606082015181600301556080820151816004015560a08201518160050155905050806011819055504360128190555050505050505050565b600061112f61112a6111156011546122f3565b611125611120612176565b6122f3565b612bad565b6127f9565b905090565b600460009054906101000a900473ffffffffffffffffffffffffffffffffffffffff1681565b600061118d6111886111738461116e612030565b612cee565b611183662386f26fc100006122f3565b612709565b6127f9565b9050919050565b60007f0000000000000000000000000000000000000000000000000000000000000000156112b9576112b26112ad61129e6111d56111d0612030565b6122f3565b6112997f000000000000000000000000000000000000000000000000000000000000000073ffffffffffffffffffffffffffffffffffffffff166332da80a3600260009054906101000a900473ffffffffffffffffffffffffffffffffffffffff166040518263ffffffff1660e01b81526004016112539190613705565b602060405180830381865afa158015611270573d6000803e3d6000fd5b505050506040513d601f19601f820116820180604052508101906112949190613ced565b6122f3565b612370565b6112a860646122f3565b612709565b6127f9565b90506112ff565b6112fc6112f76112e86112d26112cd612030565b6122f3565b6112e3670de0b6b3a76400006122f3565b612370565b6112f260646122f3565b612709565b6127f9565b90505b90565b60008060009054906101000a900473ffffffffffffffffffffffffffffffffffffffff16905090565b60008073ffffffffffffffffffffffffffffffffffffffff168273ffffffffffffffffffffffffffffffffffffffff16141561139c576040517f08c379a000000000000000000000000000000000000000000000000000000000815260040161139390613d66565b60405180910390fd5b6113a4612d24565b600580015460115411156113ed576040517f08c379a00000000000000000000000000000000000000000000000000000000081526004016113e490613dd2565b60405180910390fd5b60006113f7611194565b90506000611403612d5e565b905080851015611448576040517f08c379a000000000000000000000000000000000000000000000000000000000815260040161143f90613e64565b60405180910390fd5b60007f000000000000000000000000000000000000000000000000000000000000000073ffffffffffffffffffffffffffffffffffffffff16631eec5a9a600260009054906101000a900473ffffffffffffffffffffffffffffffffffffffff16896040518363ffffffff1660e01b81526004016114c7929190613e84565b602060405180830381865afa1580156114e4573d6000803e3d6000fd5b505050506040513d601f19601f820116820180604052508101906115089190613ced565b905060006115158261115a565b90506298968081101561155d576040517f08c379a000000000000000000000000000000000000000000000000000000000815260040161155490613ef9565b60405180910390fd5b6115656120a4565b8111156115a7576040517f08c379a000000000000000000000000000000000000000000000000000000000815260040161159e90613f65565b60405180910390fd5b60006115e36115de6115ce6115bb856122f3565b6115c96005600401546122f3565b612370565b6115d96127106122f3565b612709565b6127f9565b9050600061161a6116156116076115f9876122f3565b611602876122f3565b612bad565b611610856122f3565b612bad565b6127f9565b905061166b33308c600260009054906101000a900473ffffffffffffffffffffffffffffffffffffffff1673ffffffffffffffffffffffffffffffffffffffff16612df0909392919063ffffffff16565b600260009054906101000a900473ffffffffffffffffffffffffffffffffffffffff1673ffffffffffffffffffffffffffffffffffffffff1663095ea7b37f00000000000000000000000000000000000000000000000000000000000000008c6040518363ffffffff1660e01b81526004016116e8929190613e84565b6020604051808303816000875af1158015611707573d6000803e3d6000fd5b505050506040513d601f19601f8201168201806040525081019061172b9190613f9a565b507f000000000000000000000000000000000000000000000000000000000000000073ffffffffffffffffffffffffffffffffffffffff1663bc157ac18b600260009054906101000a900473ffffffffffffffffffffffffffffffffffffffff16846040518463ffffffff1660e01b81526004016117ab93929190613fc7565b6020604051808303816000875af11580156117ca573d6000803e3d6000fd5b505050506040513d601f19601f820116820180604052508101906117ee9190613f9a565b5060008214611865576118647f000000000000000000000000000000000000000000000000000000000000000083600160009054906101000a900473ffffffffffffffffffffffffffffffffffffffff1673ffffffffffffffffffffffffffffffffffffffff16612e799092919063ffffffff16565b5b6118896118846118766011546122f3565b61187f876122f3565b612eff565b6127f9565b60118190555060405180608001604052806118fe6118f96118eb601060008e73ffffffffffffffffffffffffffffffffffffffff1673ffffffffffffffffffffffffffffffffffffffff168152602001908152602001600020600001546122f3565b6118f4886122f3565b612eff565b6127f9565b8152602001600560010154815260200143815260200187815250601060008a73ffffffffffffffffffffffffffffffffffffffff1673ffffffffffffffffffffffffffffffffffffffff16815260200190815260200160002060008201518160000155602082015181600101556040820151816002015560608201518160030155905050856119aa6119a5611992436122f3565b6119a06005600101546122f3565b612eff565b6127f9565b847f1fec6dc81f140574bf43f6b1e420ae1dd47928b9d57db8cbd7b8611063b85ae58d6040516119da91906134ee565b60405180910390a46119ea611d71565b6119f2612d5e565b6119fa611194565b7f375b221f40939bfd8f49723a17cf7bc6d576ebf72efe2cc3e991826f5b3f390a60405160405180910390a4611a2e612f7e565b8296505050505050509392505050565b60007f000000000000000000000000000000000000000000000000000000000000000015611b6657611b5f611b5a611b48611a7f611a7a611d71565b6122f3565b611b437f000000000000000000000000000000000000000000000000000000000000000073ffffffffffffffffffffffffffffffffffffffff166332da80a3600260009054906101000a900473ffffffffffffffffffffffffffffffffffffffff166040518263ffffffff1660e01b8152600401611afd9190613705565b602060405180830381865afa158015611b1a573d6000803e3d6000fd5b505050506040513d601f19601f82011682018060405250810190611b3e9190613ced565b6122f3565b612370565b611b55633b9aca006122f3565b612709565b6127f9565b9050611b71565b611b6e611d71565b90505b90565b7f000000000000000000000000000000000000000000000000000000000000000081565b6000600160009054906101000a900473ffffffffffffffffffffffffffffffffffffffff1673ffffffffffffffffffffffffffffffffffffffff168273ffffffffffffffffffffffffffffffffffffffff161415611bf557600080fd5b600260009054906101000a900473ffffffffffffffffffffffffffffffffffffffff1673ffffffffffffffffffffffffffffffffffffffff168273ffffffffffffffffffffffffffffffffffffffff161415611c5057600080fd5b611d147f00000000000000000000000000000000000000000000000000000000000000008373ffffffffffffffffffffffffffffffffffffffff166370a08231306040518263ffffffff1660e01b8152600401611cad9190613705565b602060405180830381865afa158015611cca573d6000803e3d6000fd5b505050506040513d601f19601f82011682018060405250810190611cee9190613ced565b8473ffffffffffffffffffffffffffffffffffffffff16612e799092919063ffffffff16565b60019050919050565b7f000000000000000000000000000000000000000000000000000000000000000081565b60106020528060005260406000206000915090508060000154908060010154908060020154908060030154905084565b600080600160009054906101000a900473ffffffffffffffffffffffffffffffffffffffff1673ffffffffffffffffffffffffffffffffffffffff166318160ddd6040518163ffffffff1660e01b8152600401602060405180830381865afa158015611de1573d6000803e3d6000fd5b505050506040513d601f19601f82011682018060405250810190611e059190613ced565b9050611e5e611e59611e43611e3d611e38611e26611e21611102565b6122f3565b611e33633b9aca006122f3565b612370565b6127f9565b84612cee565b611e54670de0b6b3a76400006122f3565b612709565b6127f9565b91505090565b611e6c61281c565b73ffffffffffffffffffffffffffffffffffffffff16611e8a611302565b73ffffffffffffffffffffffffffffffffffffffff1614611ee0576040517f08c379a0000000000000000000000000000000000000000000000000000000008152600401611ed7906139b0565b60405180910390fd5b600073ffffffffffffffffffffffffffffffffffffffff168273ffffffffffffffffffffffffffffffffffffffff161415611f1a57600080fd5b8015611f81576001600460146101000a81548160ff02191690831515021790555081600460006101000a81548173ffffffffffffffffffffffffffffffffffffffff021916908373ffffffffffffffffffffffffffffffffffffffff160217905550611fde565b6000600460146101000a81548160ff02191690831515021790555081600360006101000a81548173ffffffffffffffffffffffffffffffffffffffff021916908373ffffffffffffffffffffffffffffffffffffffff1602179055505b5050565b60058060000154908060010154908060020154908060030154908060040154908060050154905086565b7f000000000000000000000000000000000000000000000000000000000000000081565b600061208961208461207361206161204c6005600001546122f3565b61205c612057611d71565b6122f3565b612370565b61206e633b9aca006122f3565b612eff565b61207f629896806122f3565b612709565b6127f9565b90506005600201548110156120a15760056002015490505b90565b600061217161216c61215b612148600160009054906101000a900473ffffffffffffffffffffffffffffffffffffffff1673ffffffffffffffffffffffffffffffffffffffff166318160ddd6040518163ffffffff1660e01b8152600401602060405180830381865afa15801561211f573d6000803e3d6000fd5b505050506040513d601f19601f820116820180604052508101906121439190613ced565b6122f3565b6121566005600301546122f3565b612370565b612167620186a06122f3565b612709565b6127f9565b905090565b60008061219d612198612188436122f3565b6121936012546122f3565b612bad565b6127f9565b90506121d96121d46121c16121b36011546122f3565b6121bc856122f3565b612370565b6121cf6005600101546122f3565b612709565b6127f9565b91506011548211156121eb5760115491505b5090565b6121f761281c565b73ffffffffffffffffffffffffffffffffffffffff16612215611302565b73ffffffffffffffffffffffffffffffffffffffff161461226b576040517f08c379a0000000000000000000000000000000000000000000000000000000008152600401612262906139b0565b60405180910390fd5b600073ffffffffffffffffffffffffffffffffffffffff168173ffffffffffffffffffffffffffffffffffffffff1614156122db576040517f08c379a00000000000000000000000000000000000000000000000000000000081526004016122d290614070565b60405180910390fd5b6122e481612c2a565b50565b60125481565b60115481565b6122fb613432565b6123036130fd565b821115612345576040517f08c379a000000000000000000000000000000000000000000000000000000000815260040161233c90614102565b60405180910390fd5b604051806020016040528069d3c21bcecceda1000000846123669190614151565b8152509050919050565b612378613432565b60008360000151148061238f575060008260000151145b156123ab57604051806020016040528060008152509050612703565b69d3c21bcecceda1000000826000015114156123c957829050612703565b69d3c21bcecceda1000000836000015114156123e757819050612703565b600069d3c21bcecceda10000006123fd85613125565b6000015161240b91906141da565b9050600061241885613167565b600001519050600069d3c21bcecceda100000061243486613125565b6000015161244291906141da565b9050600061244f86613167565b600001519050600082856124639190614151565b9050600085146124bb5782858261247a91906141da565b146124ba576040517f08c379a00000000000000000000000000000000000000000000000000000000081526004016124b190614257565b60405180910390fd5b5b600069d3c21bcecceda1000000826124d39190614151565b9050600082146125355769d3c21bcecceda100000082826124f491906141da565b14612534576040517f08c379a000000000000000000000000000000000000000000000000000000000815260040161252b906142c3565b60405180910390fd5b5b809150600084866125469190614151565b90506000861461259e5784868261255d91906141da565b1461259d576040517f08c379a00000000000000000000000000000000000000000000000000000000081526004016125949061432f565b60405180910390fd5b5b600084886125ac9190614151565b905060008814612604578488826125c391906141da565b14612603576040517f08c379a00000000000000000000000000000000000000000000000000000000081526004016125fa9061439b565b60405180910390fd5b5b61260c6131b8565b8761261791906141da565b96506126216131b8565b8561262c91906141da565b94506000858861263c9190614151565b9050600088146126945785888261265391906141da565b14612693576040517f08c379a000000000000000000000000000000000000000000000000000000000815260040161268a90614407565b60405180910390fd5b5b600060405180602001604052808781525090506126bf81604051806020016040528087815250612eff565b90506126d981604051806020016040528086815250612eff565b90506126f381604051806020016040528085815250612eff565b9050809a50505050505050505050505b92915050565b612711613432565b600082600001511415612759576040517f08c379a000000000000000000000000000000000000000000000000000000000815260040161275090614473565b60405180910390fd5b600069d3c21bcecceda100000084600001516127759190614151565b9050836000015169d3c21bcecceda10000008261279291906141da565b146127d2576040517f08c379a00000000000000000000000000000000000000000000000000000000081526004016127c9906144df565b60405180910390fd5b60405180602001604052808460000151836127ed91906141da565b81525091505092915050565b600069d3c21bcecceda1000000826000015161281591906141da565b9050919050565b600033905090565b6000826128d157600160009054906101000a900473ffffffffffffffffffffffffffffffffffffffff1673ffffffffffffffffffffffffffffffffffffffff1663a9059cbb85846040518363ffffffff1660e01b8152600401612888929190613e84565b6020604051808303816000875af11580156128a7573d6000803e3d6000fd5b505050506040513d601f19601f820116820180604052508101906128cb9190613f9a565b50612ba3565b600460149054906101000a900460ff1615612a3d57600160009054906101000a900473ffffffffffffffffffffffffffffffffffffffff1673ffffffffffffffffffffffffffffffffffffffff1663095ea7b3600460009054906101000a900473ffffffffffffffffffffffffffffffffffffffff16846040518363ffffffff1660e01b8152600401612965929190613e84565b6020604051808303816000875af1158015612984573d6000803e3d6000fd5b505050506040513d601f19601f820116820180604052508101906129a89190613f9a565b50600460009054906101000a900473ffffffffffffffffffffffffffffffffffffffff1673ffffffffffffffffffffffffffffffffffffffff16637acb775783866040518363ffffffff1660e01b8152600401612a069291906144ff565b600060405180830381600087803b158015612a2057600080fd5b505af1158015612a34573d6000803e3d6000fd5b50505050612ba2565b600160009054906101000a900473ffffffffffffffffffffffffffffffffffffffff1673ffffffffffffffffffffffffffffffffffffffff1663095ea7b3600360009054906101000a900473ffffffffffffffffffffffffffffffffffffffff16846040518363ffffffff1660e01b8152600401612abc929190613e84565b6020604051808303816000875af1158015612adb573d6000803e3d6000fd5b505050506040513d601f19601f82011682018060405250810190612aff9190613f9a565b50600360009054906101000a900473ffffffffffffffffffffffffffffffffffffffff1673ffffffffffffffffffffffffffffffffffffffff16637acb775783866040518363ffffffff1660e01b8152600401612b5d9291906144ff565b6020604051808303816000875af1158015612b7c573d6000803e3d6000fd5b505050506040513d601f19601f82011682018060405250810190612ba09190613f9a565b505b5b8190509392505050565b612bb5613432565b816000015183600001511015612c00576040517f08c379a0000000000000000000000000000000000000000000000000000000008152600401612bf790614574565b60405180910390fd5b604051806020016040528083600001518560000151612c1f9190614594565b815250905092915050565b60008060009054906101000a900473ffffffffffffffffffffffffffffffffffffffff169050816000806101000a81548173ffffffffffffffffffffffffffffffffffffffff021916908373ffffffffffffffffffffffffffffffffffffffff1602179055508173ffffffffffffffffffffffffffffffffffffffff168173ffffffffffffffffffffffffffffffffffffffff167f8be0079c531659141344cd1fd0a4f28419497f9722a3daafe3b4186f6b6457e060405160405180910390a35050565b612cf6613432565b6000612d01846122f3565b90506000612d0e846122f3565b9050612d1a8282612709565b9250505092915050565b612d4f612d4a612d356011546122f3565b612d45612d40612176565b6122f3565b612bad565b6127f9565b60118190555043601281905550565b6000612db7612db2612da1612d8f612d7a6005600001546122f3565b612d8a612d85611d71565b6122f3565b612370565b612d9c633b9aca006122f3565b612eff565b612dad629896806122f3565b612709565b6127f9565b9050600560020154811015612dd3576005600201549050612ded565b600060056002015414612dec5760006005600201819055505b5b90565b612e73846323b872dd60e01b858585604051602401612e11939291906145c8565b604051602081830303815290604052907bffffffffffffffffffffffffffffffffffffffffffffffffffffffff19166020820180517bffffffffffffffffffffffffffffffffffffffffffffffffffffffff83818316178352505050506131c5565b50505050565b612efa8363a9059cbb60e01b8484604051602401612e98929190613e84565b604051602081830303815290604052907bffffffffffffffffffffffffffffffffffffffffffffffffffffffff19166020820180517bffffffffffffffffffffffffffffffffffffffffffffffffffffffff83818316178352505050506131c5565b505050565b612f07613432565b600082600001518460000151612f1d91906145ff565b90508360000151811015612f66576040517f08c379a0000000000000000000000000000000000000000000000000000000008152600401612f5d906146a1565b60405180910390fd5b60405180602001604052808281525091505092915050565b6000612fac612fa7612f94600b600401546122f3565b612fa2600b600301546122f3565b612eff565b6127f9565b90506000600b6001015414158015612fc45750804310155b156130fa5760006005600001549050600b60000160009054906101000a900460ff161561304257613017613012612fff6005600001546122f3565b61300d600b600101546122f3565b612eff565b6127f9565b600560000181905550600b600201546005600001541061303d576000600b600101819055505b613095565b61306e6130696130566005600001546122f3565b613064600b600101546122f3565b612bad565b6127f9565b600560000181905550600b6002015460056000015411613094576000600b600101819055505b5b43600b600401819055507fb923e581a0f83128e9e1d8297aa52b18d6744310476e0b54509c054cd7a93b2a81600560000154600b60010154600b60000160009054906101000a900460ff166040516130f094939291906146c1565b60405180910390a1505b50565b60007fffffffffffffffffffffffffffffffffffffffffffffffffffffffffffffffff905090565b61312d613432565b604051806020016040528069d3c21bcecceda100000080856000015161315391906141da565b61315d9190614151565b8152509050919050565b61316f613432565b604051806020016040528069d3c21bcecceda100000080856000015161319591906141da565b61319f9190614151565b84600001516131ae9190614594565b8152509050919050565b600064e8d4a51000905090565b6000613227826040518060400160405280602081526020017f5361666545524332303a206c6f772d6c6576656c2063616c6c206661696c65648152508573ffffffffffffffffffffffffffffffffffffffff1661328c9092919063ffffffff16565b905060008151111561328757808060200190518101906132479190613f9a565b613286576040517f08c379a000000000000000000000000000000000000000000000000000000000815260040161327d90614778565b60405180910390fd5b5b505050565b606061329b84846000856132a4565b90509392505050565b6060824710156132e9576040517f08c379a00000000000000000000000000000000000000000000000000000000081526004016132e09061480a565b60405180910390fd5b6132f2856133b8565b613331576040517f08c379a000000000000000000000000000000000000000000000000000000000815260040161332890614876565b60405180910390fd5b6000808673ffffffffffffffffffffffffffffffffffffffff16858760405161335a9190614910565b60006040518083038185875af1925050503d8060008114613397576040519150601f19603f3d011682016040523d82523d6000602084013e61339c565b606091505b50915091506133ac8282866133cb565b92505050949350505050565b600080823b905060008111915050919050565b606083156133db5782905061342b565b6000835111156133ee5782518084602001fd5b816040517f08c379a0000000000000000000000000000000000000000000000000000000008152600401613422919061497c565b60405180910390fd5b9392505050565b6040518060200160405280600081525090565b600080fd5b600073ffffffffffffffffffffffffffffffffffffffff82169050919050565b60006134758261344a565b9050919050565b6134858161346a565b811461349057600080fd5b50565b6000813590506134a28161347c565b92915050565b6000602082840312156134be576134bd613445565b5b60006134cc84828501613493565b91505092915050565b6000819050919050565b6134e8816134d5565b82525050565b600060208201905061350360008301846134df565b92915050565b60008115159050919050565b61351e81613509565b811461352957600080fd5b50565b60008135905061353b81613515565b92915050565b61354a816134d5565b811461355557600080fd5b50565b60008135905061356781613541565b92915050565b6000806000806080858703121561358757613586613445565b5b60006135958782880161352c565b94505060206135a687828801613558565b93505060406135b787828801613558565b92505060606135c887828801613558565b91505092959194509250565b600481106135e157600080fd5b50565b6000813590506135f3816135d4565b92915050565b600080604083850312156136105761360f613445565b5b600061361e858286016135e4565b925050602061362f85828601613558565b9150509250929050565b600080604083850312156136505761364f613445565b5b600061365e85828601613493565b925050602061366f8582860161352c565b9150509250929050565b61368281613509565b82525050565b600060208201905061369d6000830184613679565b92915050565b600060a0820190506136b86000830188613679565b6136c560208301876134df565b6136d260408301866134df565b6136df60608301856134df565b6136ec60808301846134df565b9695505050505050565b6136ff8161346a565b82525050565b600060208201905061371a60008301846136f6565b92915050565b600080600080600080600060e0888a03121561373f5761373e613445565b5b600061374d8a828b01613558565b975050602061375e8a828b01613558565b965050604061376f8a828b01613558565b95505060606137808a828b01613558565b94505060806137918a828b01613558565b93505060a06137a28a828b01613558565b92505060c06137b38a828b01613558565b91505092959891949750929550565b6000602082840312156137d8576137d7613445565b5b60006137e684828501613558565b91505092915050565b60008060006060848603121561380857613807613445565b5b600061381686828701613558565b935050602061382786828701613558565b925050604061383886828701613493565b9150509250925092565b600061384d8261346a565b9050919050565b61385d81613842565b811461386857600080fd5b50565b60008135905061387a81613854565b92915050565b60006020828403121561389657613895613445565b5b60006138a48482850161386b565b91505092915050565b60006080820190506138c260008301876134df565b6138cf60208301866134df565b6138dc60408301856134df565b6138e960608301846134df565b95945050505050565b600060c08201905061390760008301896134df565b61391460208301886134df565b61392160408301876134df565b61392e60608301866134df565b61393b60808301856134df565b61394860a08301846134df565b979650505050505050565b600082825260208201905092915050565b7f4f776e61626c653a2063616c6c6572206973206e6f7420746865206f776e6572600082015250565b600061399a602083613953565b91506139a582613964565b602082019050919050565b600060208201905081810360008301526139c98161398d565b9050919050565b7f496e6372656d656e7420746f6f206c6172676500000000000000000000000000600082015250565b6000613a06601383613953565b9150613a11826139d0565b602082019050919050565b60006020820190508181036000830152613a35816139f9565b9050919050565b7f4e487b7100000000000000000000000000000000000000000000000000000000600052602160045260246000fd5b7f56657374696e67206d757374206265206c6f6e676572207468616e203336206860008201527f6f75727300000000000000000000000000000000000000000000000000000000602082015250565b6000613ac7602483613953565b9150613ad282613a6b565b604082019050919050565b60006020820190508181036000830152613af681613aba565b9050919050565b7f5061796f75742063616e6e6f742062652061626f766520312070657263656e74600082015250565b6000613b33602083613953565b9150613b3e82613afd565b602082019050919050565b60006020820190508181036000830152613b6281613b26565b9050919050565b7f44414f206665652063616e6e6f7420657863656564207061796f757400000000600082015250565b6000613b9f601c83613953565b9150613baa82613b69565b602082019050919050565b60006020820190508181036000830152613bce81613b92565b9050919050565b6000819050919050565b6000819050919050565b6000613c04613bff613bfa84613bd5565b613bdf565b6134d5565b9050919050565b613c1481613be9565b82525050565b6000604082019050613c2f60008301856134df565b613c3c6020830184613c0b565b9392505050565b6000604082019050613c5860008301856134df565b613c6560208301846134df565b9392505050565b7f426f6e6473206d75737420626520696e697469616c697a65642066726f6d2030600082015250565b6000613ca2602083613953565b9150613cad82613c6c565b602082019050919050565b60006020820190508181036000830152613cd181613c95565b9050919050565b600081519050613ce781613541565b92915050565b600060208284031215613d0357613d02613445565b5b6000613d1184828501613cd8565b91505092915050565b7f496e76616c696420616464726573730000000000000000000000000000000000600082015250565b6000613d50600f83613953565b9150613d5b82613d1a565b602082019050919050565b60006020820190508181036000830152613d7f81613d43565b9050919050565b7f4d61782063617061636974792072656163686564000000000000000000000000600082015250565b6000613dbc601483613953565b9150613dc782613d86565b602082019050919050565b60006020820190508181036000830152613deb81613daf565b9050919050565b7f536c697070616765206c696d69743a206d6f7265207468616e206d617820707260008201527f6963650000000000000000000000000000000000000000000000000000000000602082015250565b6000613e4e602383613953565b9150613e5982613df2565b604082019050919050565b60006020820190508181036000830152613e7d81613e41565b9050919050565b6000604082019050613e9960008301856136f6565b613ea660208301846134df565b9392505050565b7f426f6e6420746f6f20736d616c6c000000000000000000000000000000000000600082015250565b6000613ee3600e83613953565b9150613eee82613ead565b602082019050919050565b60006020820190508181036000830152613f1281613ed6565b9050919050565b7f426f6e6420746f6f206c61726765000000000000000000000000000000000000600082015250565b6000613f4f600e83613953565b9150613f5a82613f19565b602082019050919050565b60006020820190508181036000830152613f7e81613f42565b9050919050565b600081519050613f9481613515565b92915050565b600060208284031215613fb057613faf613445565b5b6000613fbe84828501613f85565b91505092915050565b6000606082019050613fdc60008301866134df565b613fe960208301856136f6565b613ff660408301846134df565b949350505050565b7f4f776e61626c653a206e6577206f776e657220697320746865207a65726f206160008201527f6464726573730000000000000000000000000000000000000000000000000000602082015250565b600061405a602683613953565b915061406582613ffe565b604082019050919050565b600060208201905081810360008301526140898161404d565b9050919050565b7f63616e277420637265617465206669786964697479206e756d626572206c617260008201527f676572207468616e206d61784e65774669786564282900000000000000000000602082015250565b60006140ec603683613953565b91506140f782614090565b604082019050919050565b6000602082019050818103600083015261411b816140df565b9050919050565b7f4e487b7100000000000000000000000000000000000000000000000000000000600052601160045260246000fd5b600061415c826134d5565b9150614167836134d5565b9250817fffffffffffffffffffffffffffffffffffffffffffffffffffffffffffffffff04831182151516156141a05761419f614122565b5b828202905092915050565b7f4e487b7100000000000000000000000000000000000000000000000000000000600052601260045260246000fd5b60006141e5826134d5565b91506141f0836134d5565b925082614200576141ff6141ab565b5b828204905092915050565b7f6f766572666c6f77207831793120646574656374656400000000000000000000600082015250565b6000614241601683613953565b915061424c8261420b565b602082019050919050565b6000602082019050818103600083015261427081614234565b9050919050565b7f6f766572666c6f772078317931202a2066697865643120646574656374656400600082015250565b60006142ad601f83613953565b91506142b882614277565b602082019050919050565b600060208201905081810360008301526142dc816142a0565b9050919050565b7f6f766572666c6f77207832793120646574656374656400000000000000000000600082015250565b6000614319601683613953565b9150614324826142e3565b602082019050919050565b600060208201905081810360008301526143488161430c565b9050919050565b7f6f766572666c6f77207831793220646574656374656400000000000000000000600082015250565b6000614385601683613953565b91506143908261434f565b602082019050919050565b600060208201905081810360008301526143b481614378565b9050919050565b7f6f766572666c6f77207832793220646574656374656400000000000000000000600082015250565b60006143f1601683613953565b91506143fc826143bb565b602082019050919050565b60006020820190508181036000830152614420816143e4565b9050919050565b7f63616e2774206469766964652062792030000000000000000000000000000000600082015250565b600061445d601183613953565b915061446882614427565b602082019050919050565b6000602082019050818103600083015261448c81614450565b9050919050565b7f6f766572666c6f77206174206469766964650000000000000000000000000000600082015250565b60006144c9601283613953565b91506144d482614493565b602082019050919050565b600060208201905081810360008301526144f8816144bc565b9050919050565b600060408201905061451460008301856134df565b61452160208301846136f6565b9392505050565b7f737562737472616374696f6e20756e646572666c6f7720646574656374656400600082015250565b600061455e601f83613953565b915061456982614528565b602082019050919050565b6000602082019050818103600083015261458d81614551565b9050919050565b600061459f826134d5565b91506145aa836134d5565b9250828210156145bd576145bc614122565b5b828203905092915050565b60006060820190506145dd60008301866136f6565b6145ea60208301856136f6565b6145f760408301846134df565b949350505050565b600061460a826134d5565b9150614615836134d5565b9250827fffffffffffffffffffffffffffffffffffffffffffffffffffffffffffffffff0382111561464a57614649614122565b5b828201905092915050565b7f616464206f766572666c6f772064657465637465640000000000000000000000600082015250565b600061468b601583613953565b915061469682614655565b602082019050919050565b600060208201905081810360008301526146ba8161467e565b9050919050565b60006080820190506146d660008301876134df565b6146e360208301866134df565b6146f060408301856134df565b6146fd6060830184613679565b95945050505050565b7f5361666545524332303a204552433230206f7065726174696f6e20646964206e60008201527f6f74207375636365656400000000000000000000000000000000000000000000602082015250565b6000614762602a83613953565b915061476d82614706565b604082019050919050565b6000602082019050818103600083015261479181614755565b9050919050565b7f416464726573733a20696e73756666696369656e742062616c616e636520666f60008201527f722063616c6c0000000000000000000000000000000000000000000000000000602082015250565b60006147f4602683613953565b91506147ff82614798565b604082019050919050565b60006020820190508181036000830152614823816147e7565b9050919050565b7f416464726573733a2063616c6c20746f206e6f6e2d636f6e7472616374000000600082015250565b6000614860601d83613953565b915061486b8261482a565b602082019050919050565b6000602082019050818103600083015261488f81614853565b9050919050565b600081519050919050565b600081905092915050565b60005b838110156148ca5780820151818401526020810190506148af565b838111156148d9576000848401525b50505050565b60006148ea82614896565b6148f481856148a1565b93506149048185602086016148ac565b80840191505092915050565b600061491c82846148df565b915081905092915050565b600081519050919050565b6000601f19601f8301169050919050565b600061494e82614927565b6149588185613953565b93506149688185602086016148ac565b61497181614932565b840191505092915050565b600060208201905081810360008301526149968184614943565b90509291505056fea26469706673582212206836627daa13e3d5a94e8ae4bf9e3374e02fd440d4533ec26bbab63503e988d864736f6c634300080a0033",
  "immutableReferences": {
    "2772": [
      {
        "length": 32,
        "start": 3855
      },
      {
        "length": 32,
        "start": 5196
      },
      {
        "length": 32,
        "start": 5803
      },
      {
        "length": 32,
        "start": 5934
      }
    ],
    "2774": [
      {
        "length": 32,
        "start": 6140
      },
      {
        "length": 32,
        "start": 7030
      },
      {
        "length": 32,
        "start": 7253
      }
    ],
    "2776": [
      {
        "length": 32,
        "start": 4504
      },
      {
        "length": 32,
        "start": 6722
      },
      {
        "length": 32,
        "start": 8206
      }
    ],
    "2778": [
      {
        "length": 32,
        "start": 4570
      },
      {
        "length": 32,
        "start": 6788
      },
      {
        "length": 32,
        "start": 7455
      }
    ]
  },
  "source": "// SPDX-License-Identifier: AGPL-3.0-or-later\npragma solidity 0.8.10;\n\nimport \"@openzeppelin/contracts/access/Ownable.sol\";\nimport \"./Fixidity.sol\";\nimport \"@openzeppelin/contracts/token/ERC20/IERC20.sol\";\nimport \"@openzeppelin/contracts/token/ERC20/utils/SafeERC20.sol\";\n\n\ninterface IOwnable {\n  function policy() external view returns (address);\n\n  function renounceManagement() external;\n  \n  function pushManagement( address newOwner_ ) external;\n  \n  function pullManagement() external;\n  \n}\n\n\ninterface ITreasury {\n    function deposit( uint _amount, address _token, uint _profit ) external returns ( bool );\n    function valueOf( address _token, uint _amount ) external view returns ( uint value_ );\n}\n\ninterface IBondCalculator {\n    function valuation( address _LP, uint _amount ) external view returns ( uint );\n    function markdown( address _LP ) external view returns ( uint );\n}\n\ninterface IStaking {\n    function stake( uint _amount, address _recipient ) external returns ( bool );\n}\n\ninterface IStakingHelper {\n    function stake( uint _amount, address _recipient ) external;\n}\n\n\n\ncontract BossBondDepository is Ownable {\n\n    using Fixidity for *;\n    using SafeERC20 for IERC20;\n\n    /* ======== EVENTS ======== */\n    event BondCreated( uint deposit, uint indexed payout, uint indexed expires, uint indexed priceInUSD );\n    event BondRedeemed( address indexed recipient, uint payout, uint remaining );\n    event BondPriceChanged( uint indexed priceInUSD, uint indexed internalPrice, uint indexed debtRatio );\n    event ControlVariableAdjustment( uint initialBCV, uint newBCV, uint adjustment, bool addition );\n\n\n    /* ======== STATE VARIABLES ======== */\n\n    \n    IERC20 internal BOSS; // token given as payment for bond\n    IERC20 internal principle; // Token used to create bond\n    address public immutable treasury; // mints BOSS when receives principle\n    address public immutable DAO; // receives profit share from bond\n\n    bool public immutable isLiquidityBond; // LP and Reserve bonds are treated slightly different\n    address public immutable bondCalculator; // calculates value of LP tokens\n\n    address public staking; // to auto-stake payout\n    address public stakingHelper; // to stake and claim if no staking warmup\n    bool public useHelper;\n\n    Terms public terms; // stores terms for new bonds\n    Adjust public adjustment; // stores adjustment to BCV data\n\n    mapping( address => Bond ) public bondInfo; // stores bond information for depositors\n\n    uint public totalDebt; // total value of outstanding bonds; used for pricing\n    uint public lastDecay; // reference block for debt decay\n\n\n\n    /* ======== STRUCTS ======== */\n\n    // Info for creating new bonds\n    struct Terms {\n        uint controlVariable; // scaling variable for price\n        uint vestingTerm; // in blocks\n        uint minimumPrice; // vs principle value\n        uint maxPayout; // in thousandths of a %. i.e. 500 = 0.5%\n        uint fee; // as % of bond payout, in hundreths. ( 500 = 5% = 0.05 for every 1 paid)\n        uint maxDebt; // 9 decimal debt ratio, max % total supply created as debt\n    }\n\n    // Info for bond holder\n    struct Bond {\n        uint payout; // BOSS remaining to be paid\n        uint vesting; // Blocks left to vest\n        uint lastBlock; // Last interaction\n        uint pricePaid; // In DAI, for front end viewing\n    }\n\n    // Info for incremental adjustments to control variable \n    struct Adjust {\n        bool add; // addition or subtraction\n        uint rate; // increment\n        uint target; // BCV when adjustment finished\n        uint buffer; // minimum length (in blocks) between adjustments\n        uint lastBlock; // block when last adjustment made\n    }\n    \n\n    /* ======== INITIALIZATION ======== */\n\n    constructor ( \n        IERC20 _BOSS,\n        IERC20 _principle,\n        address _treasury, \n        address _DAO, \n        address _bondCalculator\n    ) {\n        require( address(_BOSS) != address(0) );\n        BOSS = _BOSS;\n        require( address(_principle) != address(0) );\n        principle = _principle;\n        require( _treasury != address(0) );\n        treasury = _treasury;\n        require( _DAO != address(0) );\n        DAO = _DAO;\n        // bondCalculator should be address(0) if not LP bond\n        bondCalculator = _bondCalculator;\n        isLiquidityBond = ( _bondCalculator != address(0) );\n    }\n\n    /**\n     *  @notice initializes bond parameters\n     *  @param _controlVariable uint\n     *  @param _vestingTerm uint\n     *  @param _minimumPrice uint\n     *  @param _maxPayout uint\n     *  @param _fee uint\n     *  @param _maxDebt uint\n     *  @param _initialDebt uint\n     */\n    function initializeBondTerms( \n        uint _controlVariable, \n        uint _vestingTerm,\n        uint _minimumPrice,\n        uint _maxPayout,\n        uint _fee,\n        uint _maxDebt,\n        uint _initialDebt\n    ) external onlyOwner {\n        require( terms.controlVariable == 0, \"Bonds must be initialized from 0\" );\n        terms = Terms ({\n            controlVariable: _controlVariable,\n            vestingTerm: _vestingTerm,\n            minimumPrice: _minimumPrice,\n            maxPayout: _maxPayout,\n            fee: _fee,\n            maxDebt: _maxDebt\n        });\n        totalDebt = _initialDebt;\n        lastDecay = block.number;\n    }\n\n\n\n    \n    /* ======== POLICY FUNCTIONS ======== */\n\n    enum PARAMETER { VESTING, PAYOUT, FEE, DEBT }\n    /**\n     *  @notice set parameters for new bonds\n     *  @param _parameter PARAMETER\n     *  @param _input uint\n     */\n    function setBondTerms ( PARAMETER _parameter, uint _input ) external onlyOwner {\n        if ( _parameter == PARAMETER.VESTING ) { // 0\n            require( _input >= 10000, \"Vesting must be longer than 36 hours\" );\n            terms.vestingTerm = _input;\n        } else if ( _parameter == PARAMETER.PAYOUT ) { // 1\n            require( _input <= 1000, \"Payout cannot be above 1 percent\" );\n            terms.maxPayout = _input;\n        } else if ( _parameter == PARAMETER.FEE ) { // 2\n            require( _input <= 10000, \"DAO fee cannot exceed payout\" );\n            terms.fee = _input;\n        } else if ( _parameter == PARAMETER.DEBT ) { // 3\n            terms.maxDebt = _input;\n        }\n    }\n\n    /**\n     *  @notice set control variable adjustment\n     *  @param _addition bool\n     *  @param _increment uint\n     *  @param _target uint\n     *  @param _buffer uint\n     */\n    function setAdjustment ( \n        bool _addition,\n        uint _increment, \n        uint _target,\n        uint _buffer \n    ) external onlyOwner {\n        require( _increment <= Fixidity.fromFixed(Fixidity.divide( Fixidity.mul( Fixidity.newFixed(terms.controlVariable) , Fixidity.newFixed(25) ) , Fixidity.newFixed(1000) )), \"Increment too large\" );\n\n        adjustment = Adjust({\n            add: _addition,\n            rate: _increment,\n            target: _target,\n            buffer: _buffer,\n            lastBlock: block.number\n        });\n    }\n\n    /**\n     *  @notice set contract for auto stake\n     *  @param _staking address\n     *  @param _helper bool\n     */\n    function setStaking( address _staking, bool _helper ) external onlyOwner {\n        require( _staking != address(0) );\n        if ( _helper ) {\n            useHelper = true;\n            stakingHelper = _staking;\n        } else {\n            useHelper = false;\n            staking = _staking;\n        }\n    }\n\n\n    \n\n    /* ======== USER FUNCTIONS ======== */\n\n    /**\n     *  @notice deposit bond\n     *  @param _amount uint\n     *  @param _maxPrice uint\n     *  @param _depositor address\n     *  @return uint\n     */\n    function deposit( \n        uint _amount, \n        uint _maxPrice,\n        address _depositor\n    ) external returns ( uint ) {\n        require( _depositor != address(0), \"Invalid address\" );\n\n        decayDebt();\n        require( totalDebt <= terms.maxDebt, \"Max capacity reached\" );\n        \n        uint priceInUSD = bondPriceInUSD(); // Stored in bond info\n        uint nativePrice = _bondPrice();\n\n        require( _maxPrice >= nativePrice, \"Slippage limit: more than max price\" ); // slippage protection\n\n        uint value = ITreasury( treasury ).valueOf( address(principle) , _amount );\n        uint payout = payoutFor( value ); // payout to bonder is computed\n\n        require( payout >= 10000000, \"Bond too small\" ); // must be > 0.01 BOSS ( underflow protection )\n        require( payout <= maxPayout(), \"Bond too large\"); // size protection because there is no slippage\n\n        // profits are calculated\n        uint fee = Fixidity.fromFixed(Fixidity.divide( Fixidity.mul( Fixidity.newFixed(payout), Fixidity.newFixed(terms.fee)) , Fixidity.newFixed(10000)));\n        uint profit = Fixidity.fromFixed(Fixidity.subtract(Fixidity.subtract( Fixidity.newFixed(value) , Fixidity.newFixed(payout)) , Fixidity.newFixed(fee)));\n\n        /**\n            principle is transferred in\n            approved and\n            deposited into the treasury, returning (_amount - profit) BOSS\n         */\n        principle.safeTransferFrom( msg.sender, address(this), _amount );\n        principle.approve( address( treasury ), _amount );\n        ITreasury( treasury ).deposit( _amount, address(principle) , profit );\n        \n        if ( fee != 0 ) { // fee is transferred to dao \n            BOSS.safeTransfer( DAO, fee ); \n        }\n        \n        // total debt is increased\n        totalDebt = Fixidity.fromFixed(Fixidity.add(Fixidity.newFixed(totalDebt) , Fixidity.newFixed(value))); \n                \n        // depositor info is stored\n        bondInfo[ _depositor ] = Bond({ \n            payout: Fixidity.fromFixed(Fixidity.add( Fixidity.newFixed(bondInfo[ _depositor ].payout) ,  Fixidity.newFixed(payout) )),\n            vesting: terms.vestingTerm,\n            lastBlock: block.number,\n            pricePaid: priceInUSD\n        });\n\n        // indexed events are emitted\n        emit BondCreated( _amount, payout, Fixidity.fromFixed(Fixidity.add( Fixidity.newFixed(block.number) , Fixidity.newFixed(terms.vestingTerm))), priceInUSD );\n        emit BondPriceChanged( bondPriceInUSD(), _bondPrice(), debtRatio() );\n\n        adjust(); // control variable is adjusted\n        return payout; \n    }\n\n    /** \n     *  @notice redeem bond for user\n     *  @param _recipient address\n     *  @param _stake bool\n     *  @return uint\n     */ \n    function redeem( address _recipient, bool _stake ) external returns ( uint ) {        \n        Bond memory info = bondInfo[ _recipient ];\n        uint percentVested = percentVestedFor( _recipient ); // (blocks since last interaction / vesting term remaining)\n\n        if ( percentVested >= 10000 ) { // if fully vested\n            delete bondInfo[ _recipient ]; // delete user info\n            emit BondRedeemed( _recipient, info.payout, 0 ); // emit bond data\n            return stakeOrSend( _recipient, _stake, info.payout ); // pay user everything due\n\n        } else { // if unfinished\n            // calculate payout vested\n            uint payout = Fixidity.fromFixed(Fixidity.divide( Fixidity.mul( Fixidity.newFixed(info.payout) , Fixidity.newFixed(percentVested) ) , Fixidity.newFixed(10000) ));\n\n            // store updated deposit info\n            bondInfo[ _recipient ] = Bond({\n                payout: Fixidity.fromFixed(Fixidity.subtract( Fixidity.newFixed(info.payout) , Fixidity.newFixed(payout)) ),\n                vesting: Fixidity.fromFixed(Fixidity.subtract( Fixidity.newFixed(info.vesting) , Fixidity.subtract( Fixidity.newFixed(block.number) , Fixidity.newFixed(info.lastBlock) ) )),\n                lastBlock: block.number,\n                pricePaid: info.pricePaid\n            });\n\n            emit BondRedeemed( _recipient, payout, bondInfo[ _recipient ].payout );\n            return stakeOrSend( _recipient, _stake, payout );\n        }\n    }\n\n\n\n    \n    /* ======== INTERNAL HELPER FUNCTIONS ======== */\n\n    /**\n     *  @notice allow user to stake payout automatically\n     *  @param _stake bool\n     *  @param _amount uint\n     *  @return uint\n     */\n    function stakeOrSend( address _recipient, bool _stake, uint _amount ) internal returns ( uint ) {\n        if ( !_stake ) { // if user does not want to stake\n             BOSS.transfer( _recipient, _amount ); // send payout\n        } else { // if user wants to stake\n            if ( useHelper ) { // use if staking warmup is 0\n                BOSS.approve( stakingHelper, _amount );\n                IStakingHelper( stakingHelper ).stake( _amount, _recipient );\n            } else {\n                BOSS.approve( staking, _amount );\n                IStaking( staking ).stake( _amount, _recipient );\n            }\n        }\n        return _amount;\n    }\n\n    /**\n     *  @notice makes incremental adjustment to control variable\n     */\n    function adjust() internal {\n        uint blockCanAdjust = Fixidity.fromFixed(Fixidity.add( Fixidity.newFixed(adjustment.lastBlock) , Fixidity.newFixed(adjustment.buffer) ));\n        if( adjustment.rate != 0 && block.number >= blockCanAdjust ) {\n            uint initial = terms.controlVariable;\n            if ( adjustment.add ) {\n                terms.controlVariable = Fixidity.fromFixed(Fixidity.add(Fixidity.newFixed(terms.controlVariable) , Fixidity.newFixed(adjustment.rate) ));\n                if ( terms.controlVariable >= adjustment.target ) {\n                    adjustment.rate = 0;\n                }\n            } else {\n                terms.controlVariable = Fixidity.fromFixed(Fixidity.subtract(Fixidity.newFixed(terms.controlVariable) ,Fixidity.newFixed(adjustment.rate) ));\n                if ( terms.controlVariable <= adjustment.target ) {\n                    adjustment.rate = 0;\n                }\n            }\n            adjustment.lastBlock = block.number;\n            emit ControlVariableAdjustment( initial, terms.controlVariable, adjustment.rate, adjustment.add );\n        }\n    }\n\n    /**\n     *  @notice reduce total debt\n     */\n    function decayDebt() internal {\n        totalDebt = Fixidity.fromFixed(Fixidity.subtract( Fixidity.newFixed(totalDebt) , Fixidity.newFixed(debtDecay()) ));\n        lastDecay = block.number;\n    }\n\n\n\n\n    /* ======== VIEW FUNCTIONS ======== */\n\n    /**\n     *  @notice determine maximum bond size\n     *  @return uint\n     */\n    function maxPayout() public view returns ( uint ) {\n        return Fixidity.fromFixed(Fixidity.divide( Fixidity.mul( Fixidity.newFixed(BOSS.totalSupply()) , Fixidity.newFixed(terms.maxPayout) ) , Fixidity.newFixed(100000) ));\n    }\n\n    /**\n     *  @notice calculate interest due for new bond\n     *  @param _value uint\n     *  @return uint\n     */\n     //TODO: Implement Fraction for fixed point using other library\n    function payoutFor( uint _value ) public view returns ( uint ) {\n        return Fixidity.fromFixed(Fixidity.divide( Fixidity.newFixedFraction( _value , bondPrice() ) , Fixidity.newFixed(1e16) ));\n    }\n\n\n    /**\n     *  @notice calculate current bond premium\n     *  @return price_ uint\n     */\n    function bondPrice() public view returns ( uint price_ ) {        \n        price_ = Fixidity.fromFixed( Fixidity.divide( Fixidity.add( Fixidity.mul( Fixidity.newFixed(terms.controlVariable) , Fixidity.newFixed(debtRatio()) ) , Fixidity.newFixed(1000000000) ) , Fixidity.newFixed(1e7) ));\n        if ( price_ < terms.minimumPrice ) {\n            price_ = terms.minimumPrice;\n        }\n    }\n\n    /**\n     *  @notice calculate current bond price and remove floor if above\n     *  @return price_ uint\n     */\n    function _bondPrice() internal returns ( uint price_ ) {\n        price_ = Fixidity.fromFixed(Fixidity.divide( Fixidity.add( Fixidity.mul( Fixidity.newFixed(terms.controlVariable) , Fixidity.newFixed(debtRatio())) , Fixidity.newFixed(1000000000) ) , Fixidity.newFixed(1e7) ));\n        if ( price_ < terms.minimumPrice ) {\n            price_ = terms.minimumPrice;        \n        } else if ( terms.minimumPrice != 0 ) {\n            terms.minimumPrice = 0;\n        }\n    }\n\n    /**\n     *  @notice converts bond price to DAI value\n     *  @return price_ uint\n     */\n    function bondPriceInUSD() public view returns ( uint price_ ) {\n        if( isLiquidityBond ) {\n            price_ = Fixidity.fromFixed(Fixidity.divide( Fixidity.mul( Fixidity.newFixed(bondPrice()) , Fixidity.newFixed(IBondCalculator( bondCalculator ).markdown( address(principle) ) )) , Fixidity.newFixed(100) ));\n        } else {\n            price_ = Fixidity.fromFixed(Fixidity.divide( Fixidity.mul( Fixidity.newFixed(bondPrice()) , Fixidity.newFixed(10 ** 18) ) , Fixidity.newFixed(100) ));\n        }\n    }\n\n\n    /**\n     *  @notice calculate current ratio of debt to BOSS supply\n     *  @return debtRatio_ uint\n     */\n    function debtRatio() public view returns ( uint debtRatio_ ) {   \n        uint supply = BOSS.totalSupply();\n        debtRatio_ = Fixidity.fromFixed(Fixidity.divide( Fixidity.newFixedFraction( Fixidity.fromFixed(Fixidity.mul( Fixidity.newFixed(currentDebt()) , Fixidity.newFixed(1e9) )) , supply ) , Fixidity.newFixed(1e18) ));\n    }\n\n    /**\n     *  @notice debt ratio in same terms for reserve or liquidity bonds\n     *  @return uint\n     */\n    function standardizedDebtRatio() external view returns ( uint ) {\n        if ( isLiquidityBond ) {\n            return Fixidity.fromFixed(Fixidity.divide( Fixidity.mul( Fixidity.newFixed(debtRatio()) , Fixidity.newFixed(IBondCalculator( bondCalculator ).markdown( address(principle) ) )) , Fixidity.newFixed(1e9) ));\n        } else {\n            return debtRatio();\n        }\n    }\n\n    /**\n     *  @notice calculate debt factoring in decay\n     *  @return uint\n     */\n    function currentDebt() public view returns ( uint ) {\n        return Fixidity.fromFixed(Fixidity.subtract( Fixidity.newFixed(totalDebt) , Fixidity.newFixed(debtDecay()) ));\n    }\n\n    /**\n     *  @notice amount to decay total debt by\n     *  @return decay_ uint\n     * TODO: TEST IF RESULTS ARE CORRECT\n     */\n    function debtDecay() public view returns ( uint decay_ ) {\n        uint blocksSinceLast = Fixidity.fromFixed(Fixidity.subtract( Fixidity.newFixed(block.number) , Fixidity.newFixed(lastDecay)) );\n        decay_ = Fixidity.fromFixed(Fixidity.divide( Fixidity.mul( Fixidity.newFixed(totalDebt) , Fixidity.newFixed(blocksSinceLast) ) , Fixidity.newFixed(terms.vestingTerm) ));\n        if ( decay_ > totalDebt ) {\n            decay_ = totalDebt;\n        }\n    }\n\n\n    /**\n     *  @notice calculate how far into vesting a depositor is\n     *  @param _depositor address\n     *  @return percentVested_ uint\n     */\n    function percentVestedFor( address _depositor ) public view returns ( uint percentVested_ ) {\n        Bond memory bond = bondInfo[ _depositor ];\n        uint blocksSinceLast = Fixidity.fromFixed(Fixidity.subtract(Fixidity.newFixed(block.number) , Fixidity.newFixed(bond.lastBlock)));\n        uint vesting = bond.vesting;\n\n        if ( vesting > 0 ) {\n            percentVested_ = Fixidity.fromFixed(Fixidity.divide( Fixidity.mul( Fixidity.newFixed(blocksSinceLast) , Fixidity.newFixed(10000)) , Fixidity.newFixed(vesting)));\n        } else {\n            percentVested_ = 0;\n        }\n    }\n\n    /**\n     *  @notice calculate amount of BOSS available for claim by depositor\n     *  @param _depositor address\n     *  @return pendingPayout_ uint\n     */\n    function pendingPayoutFor( address _depositor ) external view returns ( uint pendingPayout_ ) {\n        uint percentVested = percentVestedFor( _depositor );\n        uint payout = bondInfo[ _depositor ].payout;\n\n        if ( percentVested >= 10000 ) {\n            pendingPayout_ = payout;\n        } else {\n            pendingPayout_ = Fixidity.fromFixed(Fixidity.divide( Fixidity.mul(Fixidity.newFixed(payout) , Fixidity.newFixed(percentVested)) , Fixidity.newFixed(10000)));\n        }\n    }\n\n\n    /* ======= AUXILLIARY ======= */\n\n    /**\n     *  @notice allow anyone to send lost tokens (excluding principle or BOSS) to the DAO\n     *  @return bool\n     */\n    function recoverLostToken( IERC20 _token ) external returns ( bool ) {\n        require( address(_token) != address(BOSS) );\n        require( address(_token) != address(principle) );\n        _token.safeTransfer( DAO,  _token.balanceOf( address(this) ) );\n        return true;\n    }\n}",
  "sourcePath": "/Users/samgville/Documents/Nostra DAO /nostra-dao-contracts/contracts/BondDepository.sol",
  "compiler": {
    "name": "solc",
    "version": "0.8.10+commit.fc410830.Emscripten.clang"
  },
  "schemaVersion": "3.4.4",
  "updatedAt": "2022-01-21T00:17:48.411Z",
  "devdoc": {
    "kind": "dev",
    "methods": {
      "bondPrice()": {
        "returns": {
          "price_": "uint"
        }
      },
      "bondPriceInUSD()": {
        "returns": {
          "price_": "uint"
        }
      },
      "currentDebt()": {
        "returns": {
          "_0": "uint"
        }
      },
      "debtDecay()": {
        "returns": {
          "decay_": "uint TODO: TEST IF RESULTS ARE CORRECT"
        }
      },
      "debtRatio()": {
        "returns": {
          "debtRatio_": "uint"
        }
      },
      "deposit(uint256,uint256,address)": {
        "params": {
          "_amount": "uint",
          "_depositor": "address",
          "_maxPrice": "uint"
        },
        "returns": {
          "_0": "uint"
        }
      },
      "initializeBondTerms(uint256,uint256,uint256,uint256,uint256,uint256,uint256)": {
        "params": {
          "_controlVariable": "uint",
          "_fee": "uint",
          "_initialDebt": "uint",
          "_maxDebt": "uint",
          "_maxPayout": "uint",
          "_minimumPrice": "uint",
          "_vestingTerm": "uint"
        }
      },
      "maxPayout()": {
        "returns": {
          "_0": "uint"
        }
      },
      "owner()": {
        "details": "Returns the address of the current owner."
      },
      "payoutFor(uint256)": {
        "params": {
          "_value": "uint"
        },
        "returns": {
          "_0": "uint"
        }
      },
      "pendingPayoutFor(address)": {
        "params": {
          "_depositor": "address"
        },
        "returns": {
          "pendingPayout_": "uint"
        }
      },
      "percentVestedFor(address)": {
        "params": {
          "_depositor": "address"
        },
        "returns": {
          "percentVested_": "uint"
        }
      },
      "recoverLostToken(address)": {
        "returns": {
          "_0": "bool"
        }
      },
      "redeem(address,bool)": {
        "params": {
          "_recipient": "address",
          "_stake": "bool"
        },
        "returns": {
          "_0": "uint"
        }
      },
      "renounceOwnership()": {
        "details": "Leaves the contract without owner. It will not be possible to call `onlyOwner` functions anymore. Can only be called by the current owner. NOTE: Renouncing ownership will leave the contract without an owner, thereby removing any functionality that is only available to the owner."
      },
      "setAdjustment(bool,uint256,uint256,uint256)": {
        "params": {
          "_addition": "bool",
          "_buffer": "uint",
          "_increment": "uint",
          "_target": "uint"
        }
      },
      "setBondTerms(uint8,uint256)": {
        "params": {
          "_input": "uint",
          "_parameter": "PARAMETER"
        }
      },
      "setStaking(address,bool)": {
        "params": {
          "_helper": "bool",
          "_staking": "address"
        }
      },
      "standardizedDebtRatio()": {
        "returns": {
          "_0": "uint"
        }
      },
      "transferOwnership(address)": {
        "details": "Transfers ownership of the contract to a new account (`newOwner`). Can only be called by the current owner."
      }
    },
    "version": 1
  },
  "userdoc": {
    "kind": "user",
    "methods": {
      "bondPrice()": {
        "notice": "calculate current bond premium"
      },
      "bondPriceInUSD()": {
        "notice": "converts bond price to DAI value"
      },
      "currentDebt()": {
        "notice": "calculate debt factoring in decay"
      },
      "debtDecay()": {
        "notice": "amount to decay total debt by"
      },
      "debtRatio()": {
        "notice": "calculate current ratio of debt to BOSS supply"
      },
      "deposit(uint256,uint256,address)": {
        "notice": "deposit bond"
      },
      "initializeBondTerms(uint256,uint256,uint256,uint256,uint256,uint256,uint256)": {
        "notice": "initializes bond parameters"
      },
      "maxPayout()": {
        "notice": "determine maximum bond size"
      },
      "payoutFor(uint256)": {
        "notice": "calculate interest due for new bond"
      },
      "pendingPayoutFor(address)": {
        "notice": "calculate amount of BOSS available for claim by depositor"
      },
      "percentVestedFor(address)": {
        "notice": "calculate how far into vesting a depositor is"
      },
      "recoverLostToken(address)": {
        "notice": "allow anyone to send lost tokens (excluding principle or BOSS) to the DAO"
      },
      "redeem(address,bool)": {
        "notice": "redeem bond for user"
      },
      "setAdjustment(bool,uint256,uint256,uint256)": {
        "notice": "set control variable adjustment"
      },
      "setBondTerms(uint8,uint256)": {
        "notice": "set parameters for new bonds"
      },
      "setStaking(address,bool)": {
        "notice": "set contract for auto stake"
      },
      "standardizedDebtRatio()": {
        "notice": "debt ratio in same terms for reserve or liquidity bonds"
      }
    },
    "version": 1
  }
}