{
  "contractName": "MIMBondDepository",
  "abi": [
    {
      "inputs": [
        {
          "internalType": "contract IERC20",
          "name": "_BOSS",
          "type": "address"
        },
        {
          "internalType": "contract IERC20",
          "name": "_principle",
          "type": "address"
        },
        {
          "internalType": "address",
          "name": "_treasury",
          "type": "address"
        },
        {
          "internalType": "address",
          "name": "_DAO",
          "type": "address"
        },
        {
          "internalType": "address",
          "name": "_feed",
          "type": "address"
        }
      ],
      "stateMutability": "nonpayable",
      "type": "constructor"
    },
    {
      "anonymous": false,
      "inputs": [
        {
          "indexed": false,
          "internalType": "uint256",
          "name": "deposit",
          "type": "uint256"
        },
        {
          "indexed": true,
          "internalType": "uint256",
          "name": "payout",
          "type": "uint256"
        },
        {
          "indexed": true,
          "internalType": "uint256",
          "name": "expires",
          "type": "uint256"
        },
        {
          "indexed": true,
          "internalType": "uint256",
          "name": "priceInUSD",
          "type": "uint256"
        }
      ],
      "name": "BondCreated",
      "type": "event"
    },
    {
      "anonymous": false,
      "inputs": [
        {
          "indexed": true,
          "internalType": "uint256",
          "name": "priceInUSD",
          "type": "uint256"
        },
        {
          "indexed": true,
          "internalType": "uint256",
          "name": "internalPrice",
          "type": "uint256"
        },
        {
          "indexed": true,
          "internalType": "uint256",
          "name": "debtRatio",
          "type": "uint256"
        }
      ],
      "name": "BondPriceChanged",
      "type": "event"
    },
    {
      "anonymous": false,
      "inputs": [
        {
          "indexed": true,
          "internalType": "address",
          "name": "recipient",
          "type": "address"
        },
        {
          "indexed": false,
          "internalType": "uint256",
          "name": "payout",
          "type": "uint256"
        },
        {
          "indexed": false,
          "internalType": "uint256",
          "name": "remaining",
          "type": "uint256"
        }
      ],
      "name": "BondRedeemed",
      "type": "event"
    },
    {
      "anonymous": false,
      "inputs": [
        {
          "indexed": false,
          "internalType": "uint256",
          "name": "initialBCV",
          "type": "uint256"
        },
        {
          "indexed": false,
          "internalType": "uint256",
          "name": "newBCV",
          "type": "uint256"
        },
        {
          "indexed": false,
          "internalType": "uint256",
          "name": "adjustment",
          "type": "uint256"
        },
        {
          "indexed": false,
          "internalType": "bool",
          "name": "addition",
          "type": "bool"
        }
      ],
      "name": "ControlVariableAdjustment",
      "type": "event"
    },
    {
      "anonymous": false,
      "inputs": [
        {
          "indexed": true,
          "internalType": "address",
          "name": "previousOwner",
          "type": "address"
        },
        {
          "indexed": true,
          "internalType": "address",
          "name": "newOwner",
          "type": "address"
        }
      ],
      "name": "OwnershipPulled",
      "type": "event"
    },
    {
      "anonymous": false,
      "inputs": [
        {
          "indexed": true,
          "internalType": "address",
          "name": "previousOwner",
          "type": "address"
        },
        {
          "indexed": true,
          "internalType": "address",
          "name": "newOwner",
          "type": "address"
        }
      ],
      "name": "OwnershipPushed",
      "type": "event"
    },
    {
      "inputs": [],
      "name": "BOSS",
      "outputs": [
        {
          "internalType": "contract IERC20",
          "name": "",
          "type": "address"
        }
      ],
      "stateMutability": "view",
      "type": "function"
    },
    {
      "inputs": [],
      "name": "DAO",
      "outputs": [
        {
          "internalType": "address",
          "name": "",
          "type": "address"
        }
      ],
      "stateMutability": "view",
      "type": "function"
    },
    {
      "inputs": [],
      "name": "adjustment",
      "outputs": [
        {
          "internalType": "bool",
          "name": "add",
          "type": "bool"
        },
        {
          "internalType": "uint256",
          "name": "rate",
          "type": "uint256"
        },
        {
          "internalType": "uint256",
          "name": "target",
          "type": "uint256"
        },
        {
          "internalType": "uint256",
          "name": "buffer",
          "type": "uint256"
        },
        {
          "internalType": "uint256",
          "name": "lastBlock",
          "type": "uint256"
        }
      ],
      "stateMutability": "view",
      "type": "function"
    },
    {
      "inputs": [
        {
          "internalType": "address",
          "name": "",
          "type": "address"
        }
      ],
      "name": "bondInfo",
      "outputs": [
        {
          "internalType": "uint256",
          "name": "payout",
          "type": "uint256"
        },
        {
          "internalType": "uint256",
          "name": "vesting",
          "type": "uint256"
        },
        {
          "internalType": "uint256",
          "name": "lastBlock",
          "type": "uint256"
        },
        {
          "internalType": "uint256",
          "name": "pricePaid",
          "type": "uint256"
        }
      ],
      "stateMutability": "view",
      "type": "function"
    },
    {
      "inputs": [],
      "name": "lastDecay",
      "outputs": [
        {
          "internalType": "uint256",
          "name": "",
          "type": "uint256"
        }
      ],
      "stateMutability": "view",
      "type": "function"
    },
    {
      "inputs": [],
      "name": "policy",
      "outputs": [
        {
          "internalType": "address",
          "name": "",
          "type": "address"
        }
      ],
      "stateMutability": "view",
      "type": "function"
    },
    {
      "inputs": [],
      "name": "principle",
      "outputs": [
        {
          "internalType": "contract IERC20",
          "name": "",
          "type": "address"
        }
      ],
      "stateMutability": "view",
      "type": "function"
    },
    {
      "inputs": [],
      "name": "pullManagement",
      "outputs": [],
      "stateMutability": "nonpayable",
      "type": "function"
    },
    {
      "inputs": [
        {
          "internalType": "address",
          "name": "newOwner_",
          "type": "address"
        }
      ],
      "name": "pushManagement",
      "outputs": [],
      "stateMutability": "nonpayable",
      "type": "function"
    },
    {
      "inputs": [],
      "name": "renounceManagement",
      "outputs": [],
      "stateMutability": "nonpayable",
      "type": "function"
    },
    {
      "inputs": [],
      "name": "staking",
      "outputs": [
        {
          "internalType": "address",
          "name": "",
          "type": "address"
        }
      ],
      "stateMutability": "view",
      "type": "function"
    },
    {
      "inputs": [],
      "name": "stakingHelper",
      "outputs": [
        {
          "internalType": "address",
          "name": "",
          "type": "address"
        }
      ],
      "stateMutability": "view",
      "type": "function"
    },
    {
      "inputs": [],
      "name": "terms",
      "outputs": [
        {
          "internalType": "uint256",
          "name": "controlVariable",
          "type": "uint256"
        },
        {
          "internalType": "uint256",
          "name": "vestingTerm",
          "type": "uint256"
        },
        {
          "internalType": "uint256",
          "name": "minimumPrice",
          "type": "uint256"
        },
        {
          "internalType": "uint256",
          "name": "maxPayout",
          "type": "uint256"
        },
        {
          "internalType": "uint256",
          "name": "maxDebt",
          "type": "uint256"
        }
      ],
      "stateMutability": "view",
      "type": "function"
    },
    {
      "inputs": [],
      "name": "totalDebt",
      "outputs": [
        {
          "internalType": "uint256",
          "name": "",
          "type": "uint256"
        }
      ],
      "stateMutability": "view",
      "type": "function"
    },
    {
      "inputs": [],
      "name": "treasury",
      "outputs": [
        {
          "internalType": "address",
          "name": "",
          "type": "address"
        }
      ],
      "stateMutability": "view",
      "type": "function"
    },
    {
      "inputs": [],
      "name": "useHelper",
      "outputs": [
        {
          "internalType": "bool",
          "name": "",
          "type": "bool"
        }
      ],
      "stateMutability": "view",
      "type": "function"
    },
    {
      "inputs": [
        {
          "internalType": "uint256",
          "name": "_controlVariable",
          "type": "uint256"
        },
        {
          "internalType": "uint256",
          "name": "_vestingTerm",
          "type": "uint256"
        },
        {
          "internalType": "uint256",
          "name": "_minimumPrice",
          "type": "uint256"
        },
        {
          "internalType": "uint256",
          "name": "_maxPayout",
          "type": "uint256"
        },
        {
          "internalType": "uint256",
          "name": "_maxDebt",
          "type": "uint256"
        },
        {
          "internalType": "uint256",
          "name": "_initialDebt",
          "type": "uint256"
        }
      ],
      "name": "initializeBondTerms",
      "outputs": [],
      "stateMutability": "nonpayable",
      "type": "function"
    },
    {
      "inputs": [
        {
          "internalType": "enum MIMBondDepository.PARAMETER",
          "name": "_parameter",
          "type": "uint8"
        },
        {
          "internalType": "uint256",
          "name": "_input",
          "type": "uint256"
        }
      ],
      "name": "setBondTerms",
      "outputs": [],
      "stateMutability": "nonpayable",
      "type": "function"
    },
    {
      "inputs": [
        {
          "internalType": "bool",
          "name": "_addition",
          "type": "bool"
        },
        {
          "internalType": "uint256",
          "name": "_increment",
          "type": "uint256"
        },
        {
          "internalType": "uint256",
          "name": "_target",
          "type": "uint256"
        },
        {
          "internalType": "uint256",
          "name": "_buffer",
          "type": "uint256"
        }
      ],
      "name": "setAdjustment",
      "outputs": [],
      "stateMutability": "nonpayable",
      "type": "function"
    },
    {
      "inputs": [
        {
          "internalType": "address",
          "name": "_staking",
          "type": "address"
        },
        {
          "internalType": "bool",
          "name": "_helper",
          "type": "bool"
        }
      ],
      "name": "setStaking",
      "outputs": [],
      "stateMutability": "nonpayable",
      "type": "function"
    },
    {
      "inputs": [
        {
          "internalType": "uint256",
          "name": "_amount",
          "type": "uint256"
        },
        {
          "internalType": "uint256",
          "name": "_maxPrice",
          "type": "uint256"
        },
        {
          "internalType": "address",
          "name": "_depositor",
          "type": "address"
        }
      ],
      "name": "deposit",
      "outputs": [
        {
          "internalType": "uint256",
          "name": "",
          "type": "uint256"
        }
      ],
      "stateMutability": "nonpayable",
      "type": "function"
    },
    {
      "inputs": [
        {
          "internalType": "address",
          "name": "_recipient",
          "type": "address"
        },
        {
          "internalType": "bool",
          "name": "_stake",
          "type": "bool"
        }
      ],
      "name": "redeem",
      "outputs": [
        {
          "internalType": "uint256",
          "name": "",
          "type": "uint256"
        }
      ],
      "stateMutability": "nonpayable",
      "type": "function"
    },
    {
      "inputs": [],
      "name": "maxPayout",
      "outputs": [
        {
          "internalType": "uint256",
          "name": "",
          "type": "uint256"
        }
      ],
      "stateMutability": "view",
      "type": "function"
    },
    {
      "inputs": [
        {
          "internalType": "uint256",
          "name": "_value",
          "type": "uint256"
        }
      ],
      "name": "payoutFor",
      "outputs": [
        {
          "internalType": "uint256",
          "name": "",
          "type": "uint256"
        }
      ],
      "stateMutability": "view",
      "type": "function"
    },
    {
      "inputs": [],
      "name": "bondPrice",
      "outputs": [
        {
          "internalType": "uint256",
          "name": "price_",
          "type": "uint256"
        }
      ],
      "stateMutability": "view",
      "type": "function"
    },
    {
      "inputs": [],
      "name": "assetPrice",
      "outputs": [
        {
          "internalType": "int256",
          "name": "",
          "type": "int256"
        }
      ],
      "stateMutability": "view",
      "type": "function"
    },
    {
      "inputs": [],
      "name": "bondPriceInUSD",
      "outputs": [
        {
          "internalType": "uint256",
          "name": "price_",
          "type": "uint256"
        }
      ],
      "stateMutability": "view",
      "type": "function"
    },
    {
      "inputs": [],
      "name": "debtRatio",
      "outputs": [
        {
          "internalType": "uint256",
          "name": "debtRatio_",
          "type": "uint256"
        }
      ],
      "stateMutability": "view",
      "type": "function"
    },
    {
      "inputs": [],
      "name": "standardizedDebtRatio",
      "outputs": [
        {
          "internalType": "uint256",
          "name": "",
          "type": "uint256"
        }
      ],
      "stateMutability": "view",
      "type": "function"
    },
    {
      "inputs": [],
      "name": "currentDebt",
      "outputs": [
        {
          "internalType": "uint256",
          "name": "",
          "type": "uint256"
        }
      ],
      "stateMutability": "view",
      "type": "function"
    },
    {
      "inputs": [],
      "name": "debtDecay",
      "outputs": [
        {
          "internalType": "uint256",
          "name": "decay_",
          "type": "uint256"
        }
      ],
      "stateMutability": "view",
      "type": "function"
    },
    {
      "inputs": [
        {
          "internalType": "address",
          "name": "_depositor",
          "type": "address"
        }
      ],
      "name": "percentVestedFor",
      "outputs": [
        {
          "internalType": "uint256",
          "name": "percentVested_",
          "type": "uint256"
        }
      ],
      "stateMutability": "view",
      "type": "function"
    },
    {
      "inputs": [
        {
          "internalType": "address",
          "name": "_depositor",
          "type": "address"
        }
      ],
      "name": "pendingPayoutFor",
      "outputs": [
        {
          "internalType": "uint256",
          "name": "pendingPayout_",
          "type": "uint256"
        }
      ],
      "stateMutability": "view",
      "type": "function"
    },
    {
      "inputs": [
        {
          "internalType": "address",
          "name": "_token",
          "type": "address"
        }
      ],
      "name": "recoverLostToken",
      "outputs": [
        {
          "internalType": "bool",
          "name": "",
          "type": "bool"
        }
      ],
      "stateMutability": "nonpayable",
      "type": "function"
    }
  ],
  "bytecode": "0x60c06040523480156200001157600080fd5b5060405162004e9538038062004e958339818101604052810190620000379190620003fe565b336000806101000a81548173ffffffffffffffffffffffffffffffffffffffff021916908373ffffffffffffffffffffffffffffffffffffffff16021790555060008054906101000a900473ffffffffffffffffffffffffffffffffffffffff1673ffffffffffffffffffffffffffffffffffffffff16600073ffffffffffffffffffffffffffffffffffffffff167fea8258f2d9ddb679928cf34b78cf645b7feda9acc828e4dd82d014eaae270eba60405160405180910390a3600073ffffffffffffffffffffffffffffffffffffffff168573ffffffffffffffffffffffffffffffffffffffff1614156200012d57600080fd5b84600260006101000a81548173ffffffffffffffffffffffffffffffffffffffff021916908373ffffffffffffffffffffffffffffffffffffffff160217905550600073ffffffffffffffffffffffffffffffffffffffff168473ffffffffffffffffffffffffffffffffffffffff161415620001a957600080fd5b83600360006101000a81548173ffffffffffffffffffffffffffffffffffffffff021916908373ffffffffffffffffffffffffffffffffffffffff160217905550600073ffffffffffffffffffffffffffffffffffffffff168373ffffffffffffffffffffffffffffffffffffffff1614156200022557600080fd5b8273ffffffffffffffffffffffffffffffffffffffff1660808173ffffffffffffffffffffffffffffffffffffffff1681525050600073ffffffffffffffffffffffffffffffffffffffff168273ffffffffffffffffffffffffffffffffffffffff1614156200029457600080fd5b8173ffffffffffffffffffffffffffffffffffffffff1660a08173ffffffffffffffffffffffffffffffffffffffff1681525050600073ffffffffffffffffffffffffffffffffffffffff168173ffffffffffffffffffffffffffffffffffffffff1614156200030357600080fd5b80600460006101000a81548173ffffffffffffffffffffffffffffffffffffffff021916908373ffffffffffffffffffffffffffffffffffffffff160217905550505050505062000486565b600080fd5b600073ffffffffffffffffffffffffffffffffffffffff82169050919050565b6000620003818262000354565b9050919050565b6000620003958262000374565b9050919050565b620003a78162000388565b8114620003b357600080fd5b50565b600081519050620003c7816200039c565b92915050565b620003d88162000374565b8114620003e457600080fd5b50565b600081519050620003f881620003cd565b92915050565b600080600080600060a086880312156200041d576200041c6200034f565b5b60006200042d88828901620003b6565b95505060206200044088828901620003b6565b94505060406200045388828901620003e7565b93505060606200046688828901620003e7565b92505060806200047988828901620003e7565b9150509295509295909350565b60805160a0516149cd620004c860003960008181611bbe0152611c9d0152600081816113d601528181611742015281816118a3015261190e01526149cd6000f3fe608060405234801561001057600080fd5b50600436106102065760003560e01c80637b2617271161011a578063cea55f57116100ad578063d7ccfb0b1161007c578063d7ccfb0b146105c8578063e0176de8146105e6578063e392a26214610604578063f5c2ab5b14610622578063fc7b9c181461064057610206565b8063cea55f571461054e578063d24378eb1461056c578063d4d863ce1461058a578063d5025625146105a657610206565b806398fabd3a116100e957806398fabd3a146104af578063b4abccba146104cd578063c25af4c6146104fd578063cd1234b31461051b57610206565b80637b26172714610427578063844b5c7c146104435780638dbdbe6d14610461578063904b3ece1461049157610206565b8063451ee4a11161019d5780635a96ac0a1161016c5780635a96ac0a1461039357806361d027b31461039d578063759076e5146103bb57806377b81895146103d95780637927ebf8146103f757610206565b8063451ee4a11461030757806346f68ee9146103295780634cf088d914610345578063507930ec1461036357610206565b80631a3d0068116101d95780631a3d0068146102815780631e321a0f1461029d5780631feed31f146102b95780632f3f470a146102e957610206565b8063016a42841461020b57806301b88ee8146102295780630505c8c914610259578063089208d814610277575b600080fd5b61021361065e565b60405161022091906133a9565b60405180910390f35b610243600480360381019061023e9190613407565b610684565b604051610250919061344d565b60405180910390f35b610261610729565b60405161026e9190613477565b60405180910390f35b61027f610752565b005b61029b600480360381019061029691906134f6565b61089e565b005b6102b760048036038101906102b29190613582565b610a25565b005b6102d360048036038101906102ce91906135c2565b610bf2565b6040516102e0919061344d565b60405180910390f35b6102f1610f22565b6040516102fe9190613611565b60405180910390f35b61030f610f35565b60405161032095949392919061362c565b60405180910390f35b610343600480360381019061033e9190613407565b610f66565b005b61034d611122565b60405161035a9190613477565b60405180910390f35b61037d60048036038101906103789190613407565b611148565b60405161038a919061344d565b60405180910390f35b61039b611244565b005b6103a56113d4565b6040516103b29190613477565b60405180910390f35b6103c36113f8565b6040516103d0919061344d565b60405180910390f35b6103e161142a565b6040516103ee9190613477565b60405180910390f35b610411600480360381019061040c919061367f565b611450565b60405161041e919061344d565b60405180910390f35b610441600480360381019061043c91906136ac565b611489565b005b61044b6115d5565b604051610458919061344d565b60405180910390f35b61047b60048036038101906104769190613739565b611620565b604051610488919061344d565b60405180910390f35b610499611b70565b6040516104a6919061344d565b60405180910390f35b6104b7611bbc565b6040516104c49190613477565b60405180910390f35b6104e760048036038101906104e29190613407565b611be0565b6040516104f49190613611565b60405180910390f35b610505611d65565b60405161051291906133a9565b60405180910390f35b61053560048036038101906105309190613407565b611d8b565b604051610545949392919061378c565b60405180910390f35b610556611dbb565b604051610563919061344d565b60405180910390f35b610574611eae565b60405161058191906137ea565b60405180910390f35b6105a4600480360381019061059f91906135c2565b611f4f565b005b6105ae6120df565b6040516105bf959493929190613805565b60405180910390f35b6105d0612103565b6040516105dd919061344d565b60405180910390f35b6105ee612162565b6040516105fb919061344d565b60405180910390f35b61060c612234565b604051610619919061344d565b60405180910390f35b61062a6122ad565b604051610637919061344d565b60405180910390f35b6106486122b3565b604051610655919061344d565b60405180910390f35b600360009054906101000a900473ffffffffffffffffffffffffffffffffffffffff1681565b60008061069083611148565b90506000601160008573ffffffffffffffffffffffffffffffffffffffff1673ffffffffffffffffffffffffffffffffffffffff16815260200190815260200160002060000154905061271082106106ea57809250610722565b61071f61071a61070a6106fc846122b9565b610705866122b9565b612336565b6107156127106122b9565b6126cf565b6127bf565b92505b5050919050565b60008060009054906101000a900473ffffffffffffffffffffffffffffffffffffffff16905090565b3373ffffffffffffffffffffffffffffffffffffffff1660008054906101000a900473ffffffffffffffffffffffffffffffffffffffff1673ffffffffffffffffffffffffffffffffffffffff16146107e0576040517f08c379a00000000000000000000000000000000000000000000000000000000081526004016107d7906138b5565b60405180910390fd5b600073ffffffffffffffffffffffffffffffffffffffff1660008054906101000a900473ffffffffffffffffffffffffffffffffffffffff1673ffffffffffffffffffffffffffffffffffffffff167fea8258f2d9ddb679928cf34b78cf645b7feda9acc828e4dd82d014eaae270eba60405160405180910390a360008060006101000a81548173ffffffffffffffffffffffffffffffffffffffff021916908373ffffffffffffffffffffffffffffffffffffffff160217905550565b3373ffffffffffffffffffffffffffffffffffffffff1660008054906101000a900473ffffffffffffffffffffffffffffffffffffffff1673ffffffffffffffffffffffffffffffffffffffff161461092c576040517f08c379a0000000000000000000000000000000000000000000000000000000008152600401610923906138b5565b60405180910390fd5b6109676109626109526109436007600001546122b9565b61094d60196122b9565b612336565b61095d6103e86122b9565b6126cf565b6127bf565b8311156109a9576040517f08c379a00000000000000000000000000000000000000000000000000000000081526004016109a090613921565b60405180910390fd5b6040518060a00160405280851515815260200184815260200183815260200182815260200143815250600c60008201518160000160006101000a81548160ff0219169083151502179055506020820151816001015560408201518160020155606082015181600301556080820151816004015590505050505050565b3373ffffffffffffffffffffffffffffffffffffffff1660008054906101000a900473ffffffffffffffffffffffffffffffffffffffff1673ffffffffffffffffffffffffffffffffffffffff1614610ab3576040517f08c379a0000000000000000000000000000000000000000000000000000000008152600401610aaa906138b5565b60405180910390fd5b60006002811115610ac757610ac6613941565b5b826002811115610ada57610ad9613941565b5b1415610b3457612710811015610b25576040517f08c379a0000000000000000000000000000000000000000000000000000000008152600401610b1c906139e2565b60405180910390fd5b80600760010181905550610bee565b60016002811115610b4857610b47613941565b5b826002811115610b5b57610b5a613941565b5b1415610bb5576103e8811115610ba6576040517f08c379a0000000000000000000000000000000000000000000000000000000008152600401610b9d90613a4e565b60405180910390fd5b80600760030181905550610bed565b600280811115610bc857610bc7613941565b5b826002811115610bdb57610bda613941565b5b1415610bec57806007600401819055505b5b5b5050565b600080601160008573ffffffffffffffffffffffffffffffffffffffff1673ffffffffffffffffffffffffffffffffffffffff16815260200190815260200160002060405180608001604052908160008201548152602001600182015481526020016002820154815260200160038201548152505090506000610c7485611148565b90506127108110610d4e57601160008673ffffffffffffffffffffffffffffffffffffffff1673ffffffffffffffffffffffffffffffffffffffff16815260200190815260200160002060008082016000905560018201600090556002820160009055600382016000905550508473ffffffffffffffffffffffffffffffffffffffff167f51c99f515c87b0d95ba97f616edd182e8f161c4932eac17c6fefe9dab58b77b183600001516000604051610d2e929190613aa9565b60405180910390a2610d45858584600001516127e2565b92505050610f1c565b6000610d89610d84610d74610d62856122b9565b610d6f87600001516122b9565b612336565b610d7f6103e86122b9565b6126cf565b6127bf565b90506040518060800160405280610dbc610db7610da987600001516122b9565b610db2866122b9565b612b6b565b6127bf565b8152602001610dfc610df7610dd487602001516122b9565b610df2610de0436122b9565b610ded8a604001516122b9565b612b6b565b612b6b565b6127bf565b81526020014381526020018460600151815250601160008873ffffffffffffffffffffffffffffffffffffffff1673ffffffffffffffffffffffffffffffffffffffff168152602001908152602001600020600082015181600001556020820151816001015560408201518160020155606082015181600301559050508573ffffffffffffffffffffffffffffffffffffffff167f51c99f515c87b0d95ba97f616edd182e8f161c4932eac17c6fefe9dab58b77b182601160008a73ffffffffffffffffffffffffffffffffffffffff1673ffffffffffffffffffffffffffffffffffffffff16815260200190815260200160002060000154604051610f03929190613ad2565b60405180910390a2610f168686836127e2565b93505050505b92915050565b600660149054906101000a900460ff1681565b600c8060000160009054906101000a900460ff16908060010154908060020154908060030154908060040154905085565b3373ffffffffffffffffffffffffffffffffffffffff1660008054906101000a900473ffffffffffffffffffffffffffffffffffffffff1673ffffffffffffffffffffffffffffffffffffffff1614610ff4576040517f08c379a0000000000000000000000000000000000000000000000000000000008152600401610feb906138b5565b60405180910390fd5b600073ffffffffffffffffffffffffffffffffffffffff168173ffffffffffffffffffffffffffffffffffffffff161415611064576040517f08c379a000000000000000000000000000000000000000000000000000000000815260040161105b90613b6d565b60405180910390fd5b8073ffffffffffffffffffffffffffffffffffffffff1660008054906101000a900473ffffffffffffffffffffffffffffffffffffffff1673ffffffffffffffffffffffffffffffffffffffff167fea8258f2d9ddb679928cf34b78cf645b7feda9acc828e4dd82d014eaae270eba60405160405180910390a380600160006101000a81548173ffffffffffffffffffffffffffffffffffffffff021916908373ffffffffffffffffffffffffffffffffffffffff16021790555050565b600560009054906101000a900473ffffffffffffffffffffffffffffffffffffffff1681565b600080601160008473ffffffffffffffffffffffffffffffffffffffff1673ffffffffffffffffffffffffffffffffffffffff168152602001908152602001600020604051806080016040529081600082015481526020016001820154815260200160028201548152602001600382015481525050905060006111e76111e26111d0436122b9565b6111dd85604001516122b9565b612b6b565b6127bf565b905060008260200151905060008111156112375761123061122b61121d61120d856122b9565b6112186127106122b9565b612336565b611226846122b9565b6126cf565b6127bf565b935061123c565b600093505b505050919050565b600160009054906101000a900473ffffffffffffffffffffffffffffffffffffffff1673ffffffffffffffffffffffffffffffffffffffff163373ffffffffffffffffffffffffffffffffffffffff16146112d4576040517f08c379a00000000000000000000000000000000000000000000000000000000081526004016112cb90613bff565b60405180910390fd5b600160009054906101000a900473ffffffffffffffffffffffffffffffffffffffff1673ffffffffffffffffffffffffffffffffffffffff1660008054906101000a900473ffffffffffffffffffffffffffffffffffffffff1673ffffffffffffffffffffffffffffffffffffffff167faa151555690c956fc3ea32f106bb9f119b5237a061eaa8557cff3e51e3792c8d60405160405180910390a3600160009054906101000a900473ffffffffffffffffffffffffffffffffffffffff166000806101000a81548173ffffffffffffffffffffffffffffffffffffffff021916908373ffffffffffffffffffffffffffffffffffffffff160217905550565b7f000000000000000000000000000000000000000000000000000000000000000081565b600061142561142061140b6012546122b9565b61141b611416612234565b6122b9565b612b6b565b6127bf565b905090565b600660009054906101000a900473ffffffffffffffffffffffffffffffffffffffff1681565b600061148261147d61146984611464612103565b612be8565b611478655af3107a40006122b9565b6126cf565b6127bf565b9050919050565b3373ffffffffffffffffffffffffffffffffffffffff1660008054906101000a900473ffffffffffffffffffffffffffffffffffffffff1673ffffffffffffffffffffffffffffffffffffffff1614611517576040517f08c379a000000000000000000000000000000000000000000000000000000000815260040161150e906138b5565b60405180910390fd5b60006115216113f8565b14611561576040517f08c379a000000000000000000000000000000000000000000000000000000000815260040161155890613c91565b60405180910390fd5b6040518060a0016040528087815260200186815260200185815260200184815260200183815250600760008201518160000155602082015181600101556040820151816002015560608201518160030155608082015181600401559050508060128190555043601381905550505050505050565b600061161b6116166116056115f06115eb612103565b6122b9565b6116006115fb611eae565b6122b9565b612336565b611611620f42406122b9565b612336565b6127bf565b905090565b60008073ffffffffffffffffffffffffffffffffffffffff168273ffffffffffffffffffffffffffffffffffffffff161415611691576040517f08c379a000000000000000000000000000000000000000000000000000000000815260040161168890613cfd565b60405180910390fd5b611699612c1e565b60076004015460125411156116e3576040517f08c379a00000000000000000000000000000000000000000000000000000000081526004016116da90613d69565b60405180910390fd5b60006116ed6115d5565b905060006116f9612c58565b90508085101561173e576040517f08c379a000000000000000000000000000000000000000000000000000000000815260040161173590613dfb565b60405180910390fd5b60007f000000000000000000000000000000000000000000000000000000000000000073ffffffffffffffffffffffffffffffffffffffff16631eec5a9a600360009054906101000a900473ffffffffffffffffffffffffffffffffffffffff16896040518363ffffffff1660e01b81526004016117bd929190613e1b565b602060405180830381865afa1580156117da573d6000803e3d6000fd5b505050506040513d601f19601f820116820180604052508101906117fe9190613e59565b9050600061180b82611450565b905062989680811015611853576040517f08c379a000000000000000000000000000000000000000000000000000000000815260040161184a90613ed2565b60405180910390fd5b61185b612162565b81111561189d576040517f08c379a000000000000000000000000000000000000000000000000000000000815260040161189490613f3e565b60405180910390fd5b61190c337f00000000000000000000000000000000000000000000000000000000000000008a600360009054906101000a900473ffffffffffffffffffffffffffffffffffffffff1673ffffffffffffffffffffffffffffffffffffffff16612cd5909392919063ffffffff16565b7f000000000000000000000000000000000000000000000000000000000000000073ffffffffffffffffffffffffffffffffffffffff16636a20de9230836040518363ffffffff1660e01b8152600401611967929190613e1b565b600060405180830381600087803b15801561198157600080fd5b505af1158015611995573d6000803e3d6000fd5b505050506119bd6119b86119aa6012546122b9565b6119b3856122b9565b612d5e565b6127bf565b6012819055506040518060800160405280611a32611a2d611a1f601160008c73ffffffffffffffffffffffffffffffffffffffff1673ffffffffffffffffffffffffffffffffffffffff168152602001908152602001600020600001546122b9565b611a28866122b9565b612d5e565b6127bf565b8152602001600760010154815260200143815260200185815250601160008873ffffffffffffffffffffffffffffffffffffffff1673ffffffffffffffffffffffffffffffffffffffff1681526020019081526020016000206000820151816000015560208201518160010155604082015181600201556060820151816003015590505083611ade611ad9611ac6436122b9565b611ad46007600101546122b9565b612d5e565b6127bf565b827f1fec6dc81f140574bf43f6b1e420ae1dd47928b9d57db8cbd7b8611063b85ae58b604051611b0e919061344d565b60405180910390a4611b1e611dbb565b611b26612c58565b611b2e6115d5565b7f375b221f40939bfd8f49723a17cf7bc6d576ebf72efe2cc3e991826f5b3f390a60405160405180910390a4611b62612ddd565b809450505050509392505050565b6000611bb7611bb2611ba0611b8b611b86611dbb565b6122b9565b611b9b611b96611eae565b6122b9565b612336565b611bad6305f5e1006122b9565b6126cf565b6127bf565b905090565b7f000000000000000000000000000000000000000000000000000000000000000081565b6000600260009054906101000a900473ffffffffffffffffffffffffffffffffffffffff1673ffffffffffffffffffffffffffffffffffffffff168273ffffffffffffffffffffffffffffffffffffffff161415611c3d57600080fd5b600360009054906101000a900473ffffffffffffffffffffffffffffffffffffffff1673ffffffffffffffffffffffffffffffffffffffff168273ffffffffffffffffffffffffffffffffffffffff161415611c9857600080fd5b611d5c7f00000000000000000000000000000000000000000000000000000000000000008373ffffffffffffffffffffffffffffffffffffffff166370a08231306040518263ffffffff1660e01b8152600401611cf59190613477565b602060405180830381865afa158015611d12573d6000803e3d6000fd5b505050506040513d601f19601f82011682018060405250810190611d369190613e59565b8473ffffffffffffffffffffffffffffffffffffffff16612f5c9092919063ffffffff16565b60019050919050565b600260009054906101000a900473ffffffffffffffffffffffffffffffffffffffff1681565b60116020528060005260406000206000915090508060000154908060010154908060020154908060030154905084565b600080600260009054906101000a900473ffffffffffffffffffffffffffffffffffffffff1673ffffffffffffffffffffffffffffffffffffffff166318160ddd6040518163ffffffff1660e01b8152600401602060405180830381865afa158015611e2b573d6000803e3d6000fd5b505050506040513d601f19601f82011682018060405250810190611e4f9190613e59565b9050611ea8611ea3611e8d611e87611e82611e70611e6b6113f8565b6122b9565b611e7d633b9aca006122b9565b612336565b6127bf565b84612be8565b611e9e670de0b6b3a76400006122b9565b6126cf565b6127bf565b91505090565b600080600460009054906101000a900473ffffffffffffffffffffffffffffffffffffffff1673ffffffffffffffffffffffffffffffffffffffff1663feaf968c6040518163ffffffff1660e01b815260040160a060405180830381865afa158015611f1e573d6000803e3d6000fd5b505050506040513d601f19601f82011682018060405250810190611f429190613fcc565b5050509150508091505090565b3373ffffffffffffffffffffffffffffffffffffffff1660008054906101000a900473ffffffffffffffffffffffffffffffffffffffff1673ffffffffffffffffffffffffffffffffffffffff1614611fdd576040517f08c379a0000000000000000000000000000000000000000000000000000000008152600401611fd4906138b5565b60405180910390fd5b600073ffffffffffffffffffffffffffffffffffffffff168273ffffffffffffffffffffffffffffffffffffffff16141561201757600080fd5b801561207e576001600660146101000a81548160ff02191690831515021790555081600660006101000a81548173ffffffffffffffffffffffffffffffffffffffff021916908373ffffffffffffffffffffffffffffffffffffffff1602179055506120db565b6000600660146101000a81548160ff02191690831515021790555081600560006101000a81548173ffffffffffffffffffffffffffffffffffffffff021916908373ffffffffffffffffffffffffffffffffffffffff1602179055505b5050565b60078060000154908060010154908060020154908060030154908060040154905085565b600061214761214261213161211c6007600001546122b9565b61212c612127611dbb565b6122b9565b612336565b61213d620186a06122b9565b6126cf565b6127bf565b905060076002015481101561215f5760076002015490505b90565b600061222f61222a612219612206600260009054906101000a900473ffffffffffffffffffffffffffffffffffffffff1673ffffffffffffffffffffffffffffffffffffffff166318160ddd6040518163ffffffff1660e01b8152600401602060405180830381865afa1580156121dd573d6000803e3d6000fd5b505050506040513d601f19601f820116820180604052508101906122019190613e59565b6122b9565b6122146007600301546122b9565b612336565b612225620186a06122b9565b6126cf565b6127bf565b905090565b60008061225b612256612246436122b9565b6122516013546122b9565b612b6b565b6127bf565b905061229761229261227f6122716012546122b9565b61227a856122b9565b612336565b61228d6007600101546122b9565b6126cf565b6127bf565b91506012548211156122a95760125491505b5090565b60135481565b60125481565b6122c1613317565b6122c9612fe2565b82111561230b576040517f08c379a0000000000000000000000000000000000000000000000000000000008152600401612302906140b9565b60405180910390fd5b604051806020016040528069d3c21bcecceda10000008461232c9190614108565b8152509050919050565b61233e613317565b600083600001511480612355575060008260000151145b15612371576040518060200160405280600081525090506126c9565b69d3c21bcecceda10000008260000151141561238f578290506126c9565b69d3c21bcecceda1000000836000015114156123ad578190506126c9565b600069d3c21bcecceda10000006123c38561300a565b600001516123d19190614191565b905060006123de8561304c565b600001519050600069d3c21bcecceda10000006123fa8661300a565b600001516124089190614191565b905060006124158661304c565b600001519050600082856124299190614108565b905060008514612481578285826124409190614191565b14612480576040517f08c379a00000000000000000000000000000000000000000000000000000000081526004016124779061420e565b60405180910390fd5b5b600069d3c21bcecceda1000000826124999190614108565b9050600082146124fb5769d3c21bcecceda100000082826124ba9190614191565b146124fa576040517f08c379a00000000000000000000000000000000000000000000000000000000081526004016124f19061427a565b60405180910390fd5b5b8091506000848661250c9190614108565b905060008614612564578486826125239190614191565b14612563576040517f08c379a000000000000000000000000000000000000000000000000000000000815260040161255a906142e6565b60405180910390fd5b5b600084886125729190614108565b9050600088146125ca578488826125899190614191565b146125c9576040517f08c379a00000000000000000000000000000000000000000000000000000000081526004016125c090614352565b60405180910390fd5b5b6125d261309d565b876125dd9190614191565b96506125e761309d565b856125f29190614191565b9450600085886126029190614108565b90506000881461265a578588826126199190614191565b14612659576040517f08c379a0000000000000000000000000000000000000000000000000000000008152600401612650906143be565b60405180910390fd5b5b6000604051806020016040528087815250905061268581604051806020016040528087815250612d5e565b905061269f81604051806020016040528086815250612d5e565b90506126b981604051806020016040528085815250612d5e565b9050809a50505050505050505050505b92915050565b6126d7613317565b60008260000151141561271f576040517f08c379a00000000000000000000000000000000000000000000000000000000081526004016127169061442a565b60405180910390fd5b600069d3c21bcecceda1000000846000015161273b9190614108565b9050836000015169d3c21bcecceda1000000826127589190614191565b14612798576040517f08c379a000000000000000000000000000000000000000000000000000000000815260040161278f90614496565b60405180910390fd5b60405180602001604052808460000151836127b39190614191565b81525091505092915050565b600069d3c21bcecceda100000082600001516127db9190614191565b9050919050565b60008261288f57600260009054906101000a900473ffffffffffffffffffffffffffffffffffffffff1673ffffffffffffffffffffffffffffffffffffffff1663a9059cbb85846040518363ffffffff1660e01b8152600401612846929190613e1b565b6020604051808303816000875af1158015612865573d6000803e3d6000fd5b505050506040513d601f19601f8201168201806040525081019061288991906144cb565b50612b61565b600660149054906101000a900460ff16156129fb57600260009054906101000a900473ffffffffffffffffffffffffffffffffffffffff1673ffffffffffffffffffffffffffffffffffffffff1663095ea7b3600660009054906101000a900473ffffffffffffffffffffffffffffffffffffffff16846040518363ffffffff1660e01b8152600401612923929190613e1b565b6020604051808303816000875af1158015612942573d6000803e3d6000fd5b505050506040513d601f19601f8201168201806040525081019061296691906144cb565b50600660009054906101000a900473ffffffffffffffffffffffffffffffffffffffff1673ffffffffffffffffffffffffffffffffffffffff16637acb775783866040518363ffffffff1660e01b81526004016129c49291906144f8565b600060405180830381600087803b1580156129de57600080fd5b505af11580156129f2573d6000803e3d6000fd5b50505050612b60565b600260009054906101000a900473ffffffffffffffffffffffffffffffffffffffff1673ffffffffffffffffffffffffffffffffffffffff1663095ea7b3600560009054906101000a900473ffffffffffffffffffffffffffffffffffffffff16846040518363ffffffff1660e01b8152600401612a7a929190613e1b565b6020604051808303816000875af1158015612a99573d6000803e3d6000fd5b505050506040513d601f19601f82011682018060405250810190612abd91906144cb565b50600560009054906101000a900473ffffffffffffffffffffffffffffffffffffffff1673ffffffffffffffffffffffffffffffffffffffff16637acb775783866040518363ffffffff1660e01b8152600401612b1b9291906144f8565b6020604051808303816000875af1158015612b3a573d6000803e3d6000fd5b505050506040513d601f19601f82011682018060405250810190612b5e91906144cb565b505b5b8190509392505050565b612b73613317565b816000015183600001511015612bbe576040517f08c379a0000000000000000000000000000000000000000000000000000000008152600401612bb59061456d565b60405180910390fd5b604051806020016040528083600001518560000151612bdd919061458d565b815250905092915050565b612bf0613317565b6000612bfb846122b9565b90506000612c08846122b9565b9050612c1482826126cf565b9250505092915050565b612c49612c44612c2f6012546122b9565b612c3f612c3a612234565b6122b9565b612b6b565b6127bf565b60128190555043601381905550565b6000612c9c612c97612c86612c716007600001546122b9565b612c81612c7c611dbb565b6122b9565b612336565b612c92620186a06122b9565b6126cf565b6127bf565b9050600760020154811015612cb8576007600201549050612cd2565b600060076002015414612cd15760006007600201819055505b5b90565b612d58846323b872dd60e01b858585604051602401612cf6939291906145c1565b604051602081830303815290604052907bffffffffffffffffffffffffffffffffffffffffffffffffffffffff19166020820180517bffffffffffffffffffffffffffffffffffffffffffffffffffffffff83818316178352505050506130aa565b50505050565b612d66613317565b600082600001518460000151612d7c91906145f8565b90508360000151811015612dc5576040517f08c379a0000000000000000000000000000000000000000000000000000000008152600401612dbc9061469a565b60405180910390fd5b60405180602001604052808281525091505092915050565b6000612e0b612e06612df3600c600401546122b9565b612e01600c600301546122b9565b612d5e565b6127bf565b90506000600c6001015414158015612e235750804310155b15612f595760006007600001549050600c60000160009054906101000a900460ff1615612ea157612e76612e71612e5e6007600001546122b9565b612e6c600c600101546122b9565b612d5e565b6127bf565b600760000181905550600c6002015460076000015410612e9c576000600c600101819055505b612ef4565b612ecd612ec8612eb56007600001546122b9565b612ec3600c600101546122b9565b612b6b565b6127bf565b600760000181905550600c6002015460076000015411612ef3576000600c600101819055505b5b43600c600401819055507fb923e581a0f83128e9e1d8297aa52b18d6744310476e0b54509c054cd7a93b2a81600760000154600c60010154600c60000160009054906101000a900460ff16604051612f4f94939291906146ba565b60405180910390a1505b50565b612fdd8363a9059cbb60e01b8484604051602401612f7b929190613e1b565b604051602081830303815290604052907bffffffffffffffffffffffffffffffffffffffffffffffffffffffff19166020820180517bffffffffffffffffffffffffffffffffffffffffffffffffffffffff83818316178352505050506130aa565b505050565b60007fffffffffffffffffffffffffffffffffffffffffffffffffffffffffffffffff905090565b613012613317565b604051806020016040528069d3c21bcecceda10000008085600001516130389190614191565b6130429190614108565b8152509050919050565b613054613317565b604051806020016040528069d3c21bcecceda100000080856000015161307a9190614191565b6130849190614108565b8460000151613093919061458d565b8152509050919050565b600064e8d4a51000905090565b600061310c826040518060400160405280602081526020017f5361666545524332303a206c6f772d6c6576656c2063616c6c206661696c65648152508573ffffffffffffffffffffffffffffffffffffffff166131719092919063ffffffff16565b905060008151111561316c578080602001905181019061312c91906144cb565b61316b576040517f08c379a000000000000000000000000000000000000000000000000000000000815260040161316290614771565b60405180910390fd5b5b505050565b60606131808484600085613189565b90509392505050565b6060824710156131ce576040517f08c379a00000000000000000000000000000000000000000000000000000000081526004016131c590614803565b60405180910390fd5b6131d78561329d565b613216576040517f08c379a000000000000000000000000000000000000000000000000000000000815260040161320d9061486f565b60405180910390fd5b6000808673ffffffffffffffffffffffffffffffffffffffff16858760405161323f9190614909565b60006040518083038185875af1925050503d806000811461327c576040519150601f19603f3d011682016040523d82523d6000602084013e613281565b606091505b50915091506132918282866132b0565b92505050949350505050565b600080823b905060008111915050919050565b606083156132c057829050613310565b6000835111156132d35782518084602001fd5b816040517f08c379a00000000000000000000000000000000000000000000000000000000081526004016133079190614975565b60405180910390fd5b9392505050565b6040518060200160405280600081525090565b600073ffffffffffffffffffffffffffffffffffffffff82169050919050565b6000819050919050565b600061336f61336a6133658461332a565b61334a565b61332a565b9050919050565b600061338182613354565b9050919050565b600061339382613376565b9050919050565b6133a381613388565b82525050565b60006020820190506133be600083018461339a565b92915050565b600080fd5b60006133d48261332a565b9050919050565b6133e4816133c9565b81146133ef57600080fd5b50565b600081359050613401816133db565b92915050565b60006020828403121561341d5761341c6133c4565b5b600061342b848285016133f2565b91505092915050565b6000819050919050565b61344781613434565b82525050565b6000602082019050613462600083018461343e565b92915050565b613471816133c9565b82525050565b600060208201905061348c6000830184613468565b92915050565b60008115159050919050565b6134a781613492565b81146134b257600080fd5b50565b6000813590506134c48161349e565b92915050565b6134d381613434565b81146134de57600080fd5b50565b6000813590506134f0816134ca565b92915050565b600080600080608085870312156135105761350f6133c4565b5b600061351e878288016134b5565b945050602061352f878288016134e1565b9350506040613540878288016134e1565b9250506060613551878288016134e1565b91505092959194509250565b6003811061356a57600080fd5b50565b60008135905061357c8161355d565b92915050565b60008060408385031215613599576135986133c4565b5b60006135a78582860161356d565b92505060206135b8858286016134e1565b9150509250929050565b600080604083850312156135d9576135d86133c4565b5b60006135e7858286016133f2565b92505060206135f8858286016134b5565b9150509250929050565b61360b81613492565b82525050565b60006020820190506136266000830184613602565b92915050565b600060a0820190506136416000830188613602565b61364e602083018761343e565b61365b604083018661343e565b613668606083018561343e565b613675608083018461343e565b9695505050505050565b600060208284031215613695576136946133c4565b5b60006136a3848285016134e1565b91505092915050565b60008060008060008060c087890312156136c9576136c86133c4565b5b60006136d789828a016134e1565b96505060206136e889828a016134e1565b95505060406136f989828a016134e1565b945050606061370a89828a016134e1565b935050608061371b89828a016134e1565b92505060a061372c89828a016134e1565b9150509295509295509295565b600080600060608486031215613752576137516133c4565b5b6000613760868287016134e1565b9350506020613771868287016134e1565b9250506040613782868287016133f2565b9150509250925092565b60006080820190506137a1600083018761343e565b6137ae602083018661343e565b6137bb604083018561343e565b6137c8606083018461343e565b95945050505050565b6000819050919050565b6137e4816137d1565b82525050565b60006020820190506137ff60008301846137db565b92915050565b600060a08201905061381a600083018861343e565b613827602083018761343e565b613834604083018661343e565b613841606083018561343e565b61384e608083018461343e565b9695505050505050565b600082825260208201905092915050565b7f4f776e61626c653a2063616c6c6572206973206e6f7420746865206f776e6572600082015250565b600061389f602083613858565b91506138aa82613869565b602082019050919050565b600060208201905081810360008301526138ce81613892565b9050919050565b7f496e6372656d656e7420746f6f206c6172676500000000000000000000000000600082015250565b600061390b601383613858565b9150613916826138d5565b602082019050919050565b6000602082019050818103600083015261393a816138fe565b9050919050565b7f4e487b7100000000000000000000000000000000000000000000000000000000600052602160045260246000fd5b7f56657374696e67206d757374206265206c6f6e676572207468616e203336206860008201527f6f75727300000000000000000000000000000000000000000000000000000000602082015250565b60006139cc602483613858565b91506139d782613970565b604082019050919050565b600060208201905081810360008301526139fb816139bf565b9050919050565b7f5061796f75742063616e6e6f742062652061626f766520312070657263656e74600082015250565b6000613a38602083613858565b9150613a4382613a02565b602082019050919050565b60006020820190508181036000830152613a6781613a2b565b9050919050565b6000819050919050565b6000613a93613a8e613a8984613a6e565b61334a565b613434565b9050919050565b613aa381613a78565b82525050565b6000604082019050613abe600083018561343e565b613acb6020830184613a9a565b9392505050565b6000604082019050613ae7600083018561343e565b613af4602083018461343e565b9392505050565b7f4f776e61626c653a206e6577206f776e657220697320746865207a65726f206160008201527f6464726573730000000000000000000000000000000000000000000000000000602082015250565b6000613b57602683613858565b9150613b6282613afb565b604082019050919050565b60006020820190508181036000830152613b8681613b4a565b9050919050565b7f4f776e61626c653a206d757374206265206e6577206f776e657220746f20707560008201527f6c6c000000000000000000000000000000000000000000000000000000000000602082015250565b6000613be9602283613858565b9150613bf482613b8d565b604082019050919050565b60006020820190508181036000830152613c1881613bdc565b9050919050565b7f44656274206d757374206265203020666f7220696e697469616c697a6174696f60008201527f6e00000000000000000000000000000000000000000000000000000000000000602082015250565b6000613c7b602183613858565b9150613c8682613c1f565b604082019050919050565b60006020820190508181036000830152613caa81613c6e565b9050919050565b7f496e76616c696420616464726573730000000000000000000000000000000000600082015250565b6000613ce7600f83613858565b9150613cf282613cb1565b602082019050919050565b60006020820190508181036000830152613d1681613cda565b9050919050565b7f4d61782063617061636974792072656163686564000000000000000000000000600082015250565b6000613d53601483613858565b9150613d5e82613d1d565b602082019050919050565b60006020820190508181036000830152613d8281613d46565b9050919050565b7f536c697070616765206c696d69743a206d6f7265207468616e206d617820707260008201527f6963650000000000000000000000000000000000000000000000000000000000602082015250565b6000613de5602383613858565b9150613df082613d89565b604082019050919050565b60006020820190508181036000830152613e1481613dd8565b9050919050565b6000604082019050613e306000830185613468565b613e3d602083018461343e565b9392505050565b600081519050613e53816134ca565b92915050565b600060208284031215613e6f57613e6e6133c4565b5b6000613e7d84828501613e44565b91505092915050565b7f426f6e6420746f6f20736d616c6c000000000000000000000000000000000000600082015250565b6000613ebc600e83613858565b9150613ec782613e86565b602082019050919050565b60006020820190508181036000830152613eeb81613eaf565b9050919050565b7f426f6e6420746f6f206c61726765000000000000000000000000000000000000600082015250565b6000613f28600e83613858565b9150613f3382613ef2565b602082019050919050565b60006020820190508181036000830152613f5781613f1b565b9050919050565b600069ffffffffffffffffffff82169050919050565b613f7d81613f5e565b8114613f8857600080fd5b50565b600081519050613f9a81613f74565b92915050565b613fa9816137d1565b8114613fb457600080fd5b50565b600081519050613fc681613fa0565b92915050565b600080600080600060a08688031215613fe857613fe76133c4565b5b6000613ff688828901613f8b565b955050602061400788828901613fb7565b945050604061401888828901613e44565b935050606061402988828901613e44565b925050608061403a88828901613f8b565b9150509295509295909350565b7f63616e277420637265617465206669786964697479206e756d626572206c617260008201527f676572207468616e206d61784e65774669786564282900000000000000000000602082015250565b60006140a3603683613858565b91506140ae82614047565b604082019050919050565b600060208201905081810360008301526140d281614096565b9050919050565b7f4e487b7100000000000000000000000000000000000000000000000000000000600052601160045260246000fd5b600061411382613434565b915061411e83613434565b9250817fffffffffffffffffffffffffffffffffffffffffffffffffffffffffffffffff0483118215151615614157576141566140d9565b5b828202905092915050565b7f4e487b7100000000000000000000000000000000000000000000000000000000600052601260045260246000fd5b600061419c82613434565b91506141a783613434565b9250826141b7576141b6614162565b5b828204905092915050565b7f6f766572666c6f77207831793120646574656374656400000000000000000000600082015250565b60006141f8601683613858565b9150614203826141c2565b602082019050919050565b60006020820190508181036000830152614227816141eb565b9050919050565b7f6f766572666c6f772078317931202a2066697865643120646574656374656400600082015250565b6000614264601f83613858565b915061426f8261422e565b602082019050919050565b6000602082019050818103600083015261429381614257565b9050919050565b7f6f766572666c6f77207832793120646574656374656400000000000000000000600082015250565b60006142d0601683613858565b91506142db8261429a565b602082019050919050565b600060208201905081810360008301526142ff816142c3565b9050919050565b7f6f766572666c6f77207831793220646574656374656400000000000000000000600082015250565b600061433c601683613858565b915061434782614306565b602082019050919050565b6000602082019050818103600083015261436b8161432f565b9050919050565b7f6f766572666c6f77207832793220646574656374656400000000000000000000600082015250565b60006143a8601683613858565b91506143b382614372565b602082019050919050565b600060208201905081810360008301526143d78161439b565b9050919050565b7f63616e2774206469766964652062792030000000000000000000000000000000600082015250565b6000614414601183613858565b915061441f826143de565b602082019050919050565b6000602082019050818103600083015261444381614407565b9050919050565b7f6f766572666c6f77206174206469766964650000000000000000000000000000600082015250565b6000614480601283613858565b915061448b8261444a565b602082019050919050565b600060208201905081810360008301526144af81614473565b9050919050565b6000815190506144c58161349e565b92915050565b6000602082840312156144e1576144e06133c4565b5b60006144ef848285016144b6565b91505092915050565b600060408201905061450d600083018561343e565b61451a6020830184613468565b9392505050565b7f737562737472616374696f6e20756e646572666c6f7720646574656374656400600082015250565b6000614557601f83613858565b915061456282614521565b602082019050919050565b600060208201905081810360008301526145868161454a565b9050919050565b600061459882613434565b91506145a383613434565b9250828210156145b6576145b56140d9565b5b828203905092915050565b60006060820190506145d66000830186613468565b6145e36020830185613468565b6145f0604083018461343e565b949350505050565b600061460382613434565b915061460e83613434565b9250827fffffffffffffffffffffffffffffffffffffffffffffffffffffffffffffffff03821115614643576146426140d9565b5b828201905092915050565b7f616464206f766572666c6f772064657465637465640000000000000000000000600082015250565b6000614684601583613858565b915061468f8261464e565b602082019050919050565b600060208201905081810360008301526146b381614677565b9050919050565b60006080820190506146cf600083018761343e565b6146dc602083018661343e565b6146e9604083018561343e565b6146f66060830184613602565b95945050505050565b7f5361666545524332303a204552433230206f7065726174696f6e20646964206e60008201527f6f74207375636365656400000000000000000000000000000000000000000000602082015250565b600061475b602a83613858565b9150614766826146ff565b604082019050919050565b6000602082019050818103600083015261478a8161474e565b9050919050565b7f416464726573733a20696e73756666696369656e742062616c616e636520666f60008201527f722063616c6c0000000000000000000000000000000000000000000000000000602082015250565b60006147ed602683613858565b91506147f882614791565b604082019050919050565b6000602082019050818103600083015261481c816147e0565b9050919050565b7f416464726573733a2063616c6c20746f206e6f6e2d636f6e7472616374000000600082015250565b6000614859601d83613858565b915061486482614823565b602082019050919050565b600060208201905081810360008301526148888161484c565b9050919050565b600081519050919050565b600081905092915050565b60005b838110156148c35780820151818401526020810190506148a8565b838111156148d2576000848401525b50505050565b60006148e38261488f565b6148ed818561489a565b93506148fd8185602086016148a5565b80840191505092915050565b600061491582846148d8565b915081905092915050565b600081519050919050565b6000601f19601f8301169050919050565b600061494782614920565b6149518185613858565b93506149618185602086016148a5565b61496a8161492b565b840191505092915050565b6000602082019050818103600083015261498f818461493c565b90509291505056fea26469706673582212205157507023361e16a608cebc26d20aa20fdcbbcd5a486de207f1f2cbd46885d364736f6c634300080a0033",
  "immutableReferences": {
    "7693": [
      {
        "length": 32,
        "start": 5078
      },
      {
        "length": 32,
        "start": 5954
      },
      {
        "length": 32,
        "start": 6307
      },
      {
        "length": 32,
        "start": 6414
      }
    ],
    "7695": [
      {
        "length": 32,
        "start": 7102
      },
      {
        "length": 32,
        "start": 7325
      }
    ]
  },
  "source": "// SPDX-License-Identifier: AGPL-3.0-or-later\npragma solidity 0.8.10;\n\nimport \"./Fixidity.sol\";\nimport \"@openzeppelin/contracts/token/ERC20/ERC20.sol\";\nimport \"@openzeppelin/contracts/token/ERC20/utils/SafeERC20.sol\";\n\ninterface IOwnable {\n  function policy() external view returns (address);\n\n  function renounceManagement() external;\n  \n  function pushManagement( address newOwner_ ) external;\n  \n  function pullManagement() external;\n}\n\ncontract Ownable is IOwnable {\n\n    address internal _owner;\n    address internal _newOwner;\n\n    event OwnershipPushed(address indexed previousOwner, address indexed newOwner);\n    event OwnershipPulled(address indexed previousOwner, address indexed newOwner);\n\n    constructor () {\n        _owner = msg.sender;\n        emit OwnershipPushed( address(0), _owner );\n    }\n\n    function policy() public view override returns (address) {\n        return _owner;\n    }\n\n    modifier onlyPolicy() {\n        require( _owner == msg.sender, \"Ownable: caller is not the owner\" );\n        _;\n    }\n\n    function renounceManagement() public virtual override onlyPolicy() {\n        emit OwnershipPushed( _owner, address(0) );\n        _owner = address(0);\n    }\n\n    function pushManagement( address newOwner_ ) public virtual override onlyPolicy() {\n        require( newOwner_ != address(0), \"Ownable: new owner is the zero address\");\n        emit OwnershipPushed( _owner, newOwner_ );\n        _newOwner = newOwner_;\n    }\n    \n    function pullManagement() public virtual override {\n        require( msg.sender == _newOwner, \"Ownable: must be new owner to pull\");\n        emit OwnershipPulled( _owner, _newOwner );\n        _owner = _newOwner;\n    }\n}\n\ninterface AggregatorV3Interface {\n\n  function decimals() external view returns (uint8);\n  function description() external view returns (string memory);\n  function version() external view returns (uint256);\n\n  // getRoundData and latestRoundData should both raise \"No data present\"\n  // if they do not have data to report, instead of returning unset values\n  // which could be misinterpreted as actual reported values.\n  function getRoundData(uint80 _roundId)\n    external\n    view\n    returns (\n      uint80 roundId,\n      int256 answer,\n      uint256 startedAt,\n      uint256 updatedAt,\n      uint80 answeredInRound\n    );\n  function latestRoundData()\n    external\n    view\n    returns (\n      uint80 roundId,\n      int256 answer,\n      uint256 startedAt,\n      uint256 updatedAt,\n      uint80 answeredInRound\n    );\n}\n\ninterface ITreasury {\n    function deposit( uint _amount, address _token, uint _profit ) external returns ( bool );\n    function valueOf( address _token, uint _amount ) external view returns ( uint value_ );\n    function mintRewards( address _recipient, uint _amount ) external;\n}\n\ninterface IStaking {\n    function stake( uint _amount, address _recipient ) external returns ( bool );\n}\n\ninterface IStakingHelper {\n    function stake( uint _amount, address _recipient ) external;\n}\n\ncontract MIMBondDepository is Ownable {\n\n\n     using SafeERC20 for IERC20;\n\n    /* ======== EVENTS ======== */\n\n    event BondCreated( uint deposit, uint indexed payout, uint indexed expires, uint indexed priceInUSD );\n    event BondRedeemed( address indexed recipient, uint payout, uint remaining );\n    event BondPriceChanged( uint indexed priceInUSD, uint indexed internalPrice, uint indexed debtRatio );\n    event ControlVariableAdjustment( uint initialBCV, uint newBCV, uint adjustment, bool addition );\n\n\n\n\n    /* ======== STATE VARIABLES ======== */\n\n    IERC20 public BOSS; // token given as payment for bond\n    IERC20 public principle; // token used to create bond\n    address public immutable treasury; // mints BOSS when receives principle\n    address public immutable DAO; // receives profit share from bond\n\n    AggregatorV3Interface internal priceFeed;\n\n    address public staking; // to auto-stake payout\n    address public stakingHelper; // to stake and claim if no staking warmup\n    bool public useHelper;\n\n    Terms public terms; // stores terms for new bonds\n    Adjust public adjustment; // stores adjustment to BCV data\n\n    mapping( address => Bond ) public bondInfo; // stores bond information for depositors\n\n    uint public totalDebt; // total value of outstanding bonds; used for pricing\n    uint public lastDecay; // reference block for debt decay\n\n\n\n\n    /* ======== STRUCTS ======== */\n\n    // Info for creating new bonds\n    struct Terms {\n        uint controlVariable; // scaling variable for price\n        uint vestingTerm; // in blocks\n        uint minimumPrice; // vs principle value. 4 decimals (1500 = 0.15)\n        uint maxPayout; // in thousandths of a %. i.e. 500 = 0.5%\n        uint maxDebt; // 9 decimal debt ratio, max % total supply created as debt\n    }\n\n    // Info for bond holder\n    struct Bond {\n        uint payout; // BOSS remaining to be paid\n        uint vesting; // Blocks left to vest\n        uint lastBlock; // Last interaction\n        uint pricePaid; // In DAI, for front end viewing\n    }\n\n    // Info for incremental adjustments to control variable \n    struct Adjust {\n        bool add; // addition or subtraction\n        uint rate; // increment\n        uint target; // BCV when adjustment finished\n        uint buffer; // minimum length (in blocks) between adjustments\n        uint lastBlock; // block when last adjustment made\n    }\n\n\n\n\n    /* ======== INITIALIZATION ======== */\n\n    constructor ( \n        IERC20 _BOSS,\n        IERC20 _principle,\n        address _treasury, \n        address _DAO,\n        address _feed\n    ) {\n        require( address(_BOSS) != address(0) );\n        BOSS = _BOSS;\n        require(  address(_principle) != address(0) );\n        principle = _principle;\n        require( _treasury != address(0) );\n        treasury = _treasury;\n        require( _DAO != address(0) );\n        DAO = _DAO;\n        require( _feed != address(0) );\n        priceFeed = AggregatorV3Interface( _feed );\n    }\n\n    /**\n     *  @notice initializes bond parameters\n     *  @param _controlVariable uint\n     *  @param _vestingTerm uint\n     *  @param _minimumPrice uint\n     *  @param _maxPayout uint\n     *  @param _maxDebt uint\n     *  @param _initialDebt uint\n     */\n    function initializeBondTerms( \n        uint _controlVariable, \n        uint _vestingTerm,\n        uint _minimumPrice,\n        uint _maxPayout,\n        uint _maxDebt,\n        uint _initialDebt\n    ) external onlyPolicy() {\n        require( currentDebt() == 0, \"Debt must be 0 for initialization\" );\n        terms = Terms ({\n            controlVariable: _controlVariable,\n            vestingTerm: _vestingTerm,\n            minimumPrice: _minimumPrice,\n            maxPayout: _maxPayout,\n            maxDebt: _maxDebt\n        });\n        totalDebt = _initialDebt;\n        lastDecay = block.number;\n    }\n\n\n\n    \n    /* ======== POLICY FUNCTIONS ======== */\n\n    enum PARAMETER { VESTING, PAYOUT, DEBT }\n    /**\n     *  @notice set parameters for new bonds\n     *  @param _parameter PARAMETER\n     *  @param _input uint\n     */\n    function setBondTerms ( PARAMETER _parameter, uint _input ) external onlyPolicy() {\n        if ( _parameter == PARAMETER.VESTING ) { // 0\n            require( _input >= 10000, \"Vesting must be longer than 36 hours\" );\n            terms.vestingTerm = _input;\n        } else if ( _parameter == PARAMETER.PAYOUT ) { // 1\n            require( _input <= 1000, \"Payout cannot be above 1 percent\" );\n            terms.maxPayout = _input;\n        } else if ( _parameter == PARAMETER.DEBT ) { // 3\n            terms.maxDebt = _input;\n        }\n    }\n\n    /**\n     *  @notice set control variable adjustment\n     *  @param _addition bool\n     *  @param _increment uint\n     *  @param _target uint\n     *  @param _buffer uint\n     */\n    function setAdjustment ( \n        bool _addition,\n        uint _increment, \n        uint _target,\n        uint _buffer \n    ) external onlyPolicy() {\n        require( _increment <= Fixidity.fromFixed( Fixidity.divide(\n            Fixidity.mul(Fixidity.newFixed(terms.controlVariable), Fixidity.newFixed(25) ) , \n            Fixidity.newFixed(1000) ) ), \n            \"Increment too large\" );\n//TODO: Review if newFixed(1000) or 10000\n        adjustment = Adjust({\n            add: _addition,\n            rate: _increment,\n            target: _target,\n            buffer: _buffer,\n            lastBlock: block.number\n        });\n    }\n\n    /**\n     *  @notice set contract for auto stake\n     *  @param _staking address\n     *  @param _helper bool\n     */\n    function setStaking( address _staking, bool _helper ) external onlyPolicy() {\n        require( _staking != address(0) );\n        if ( _helper ) {\n            useHelper = true;\n            stakingHelper = _staking;\n        } else {\n            useHelper = false;\n            staking = _staking;\n        }\n    }\n\n\n    \n\n    /* ======== USER FUNCTIONS ======== */\n\n    /**\n     *  @notice deposit bond\n     *  @param _amount uint\n     *  @param _maxPrice uint\n     *  @param _depositor address\n     *  @return uint\n     */\n    function deposit( \n        uint _amount, \n        uint _maxPrice,\n        address _depositor\n    ) external returns ( uint ) {\n        require( _depositor != address(0), \"Invalid address\" );\n\n        decayDebt();\n        require( totalDebt <= terms.maxDebt, \"Max capacity reached\" );\n        \n        uint priceInUSD = bondPriceInUSD(); // Stored in bond info\n        uint nativePrice = _bondPrice();\n\n        require( _maxPrice >= nativePrice, \"Slippage limit: more than max price\" ); // slippage protection\n\n        uint value = ITreasury( treasury ).valueOf( address(principle), _amount );\n        uint payout = payoutFor( value ); // payout to bonder is computed\n\n        require( payout >= 10000000, \"Bond too small\" ); // must be > 0.01 BOSS ( underflow protection )\n        require( payout <= maxPayout(), \"Bond too large\"); // size protection because there is no slippage\n\n        /**\n            asset carries risk and is not minted against\n            asset transfered to treasury and rewards minted as payout\n         */\n        principle.safeTransferFrom( msg.sender, treasury, _amount );\n        ITreasury( treasury ).mintRewards( address(this), payout );\n        \n        // total debt is increased\n        totalDebt = Fixidity.fromFixed(Fixidity.add(Fixidity.newFixed(totalDebt) , Fixidity.newFixed(value))); \n                \n        // depositor info is stored\n        bondInfo[ _depositor ] = Bond({ \n            payout: Fixidity.fromFixed(Fixidity.add(Fixidity.newFixed(bondInfo[ _depositor ].payout) , Fixidity.newFixed(payout))), \n            vesting: terms.vestingTerm,\n            lastBlock: block.number,\n            pricePaid: priceInUSD\n        });\n\n        // indexed events are emitted\n        emit BondCreated( _amount, payout, \n        Fixidity.fromFixed(Fixidity.add(Fixidity.newFixed(block.number) , Fixidity.newFixed(terms.vestingTerm))),\n        priceInUSD );\n        emit BondPriceChanged( bondPriceInUSD(), _bondPrice(), debtRatio() );\n\n        adjust(); // control variable is adjusted\n        return payout; \n    }\n\n    /** \n     *  @notice redeem bond for user\n     *  @param _recipient address\n     *  @param _stake bool\n     *  @return uint\n     */ \n    function redeem( address _recipient, bool _stake ) external returns ( uint ) {        \n        Bond memory info = bondInfo[ _recipient ];\n        uint percentVested = percentVestedFor( _recipient ); // (blocks since last interaction / vesting term remaining)\n\n        if ( percentVested >= 10000 ) { // if fully vested\n            delete bondInfo[ _recipient ]; // delete user info\n            emit BondRedeemed( _recipient, info.payout, 0 ); // emit bond data\n            return stakeOrSend( _recipient, _stake, info.payout ); // pay user everything due\n\n        } else { // if unfinished\n            // calculate payout vested\n            uint payout = Fixidity.fromFixed(Fixidity.divide(\n                Fixidity.mul(\n                    Fixidity.newFixed(percentVested),Fixidity.newFixed(info.payout)),Fixidity.newFixed(1000)));\n\n            // store updated deposit info\n            bondInfo[ _recipient ] = Bond({\n                payout: Fixidity.fromFixed(Fixidity.subtract(Fixidity.newFixed(info.payout) , Fixidity.newFixed(payout))),\n                vesting: Fixidity.fromFixed(Fixidity.subtract( Fixidity.newFixed(info.vesting) , Fixidity.subtract(Fixidity.newFixed(block.number) , Fixidity.newFixed(info.lastBlock)))),\n                lastBlock: block.number,\n                pricePaid: info.pricePaid\n            });\n\n            emit BondRedeemed( _recipient, payout, bondInfo[ _recipient ].payout );\n            return stakeOrSend( _recipient, _stake, payout );\n        }\n    }\n\n\n\n    \n    /* ======== INTERNAL HELPER FUNCTIONS ======== */\n\n    /**\n     *  @notice allow user to stake payout automatically\n     *  @param _stake bool\n     *  @param _amount uint\n     *  @return uint\n     */\n    function stakeOrSend( address _recipient, bool _stake, uint _amount ) internal returns ( uint ) {\n        if ( !_stake ) { // if user does not want to stake\n            BOSS.transfer( _recipient, _amount ); // send payout\n        } else { // if user wants to stake\n            if ( useHelper ) { // use if staking warmup is 0\n                BOSS.approve( stakingHelper, _amount );\n                IStakingHelper( stakingHelper ).stake( _amount, _recipient );\n            } else {\n                BOSS.approve( staking, _amount );\n                IStaking( staking ).stake( _amount, _recipient );\n            }\n        }\n        return _amount;\n    }\n\n    /**\n     *  @notice makes incremental adjustment to control variable\n     */\n    function adjust() internal {\n        uint blockCanAdjust = Fixidity.fromFixed(Fixidity.add(Fixidity.newFixed(adjustment.lastBlock) , Fixidity.newFixed(adjustment.buffer)));        \n        if( adjustment.rate != 0 && block.number >= blockCanAdjust ) {\n            uint initial = terms.controlVariable;\n            if ( adjustment.add ) {\n                terms.controlVariable = Fixidity.fromFixed(Fixidity.add(Fixidity.newFixed(terms.controlVariable) , Fixidity.newFixed(adjustment.rate)));\n                if ( terms.controlVariable >= adjustment.target ) {\n                    adjustment.rate = 0;\n                }\n            } else {\n                terms.controlVariable = Fixidity.fromFixed(Fixidity.subtract(Fixidity.newFixed(terms.controlVariable) , Fixidity.newFixed(adjustment.rate)));\n                if ( terms.controlVariable <= adjustment.target ) {\n                    adjustment.rate = 0;\n                }\n            }\n            adjustment.lastBlock = block.number;\n            emit ControlVariableAdjustment( initial, terms.controlVariable, adjustment.rate, adjustment.add );\n        }\n    }\n\n    /**\n     *  @notice reduce total debt\n     */\n    function decayDebt() internal {\n        totalDebt = Fixidity.fromFixed(Fixidity.subtract(Fixidity.newFixed(totalDebt) , Fixidity.newFixed(debtDecay() )));\n        lastDecay = block.number;\n    }\n\n\n\n\n    /* ======== VIEW FUNCTIONS ======== */\n\n    /**\n     *  @notice determine maximum bond size\n     *  @return uint\n     */\n    function maxPayout() public view returns ( uint ) {\n        return Fixidity.fromFixed( Fixidity.divide(\n            Fixidity.mul(Fixidity.newFixed(BOSS.totalSupply()), Fixidity.newFixed(terms.maxPayout) ) , \n            Fixidity.newFixed(100000) ) );\n    }\n\n    /**\n     *  @notice calculate interest due for new bond\n     *  @param _value uint\n     *  @return uint\n     */\n    function payoutFor( uint _value ) public view returns ( uint ) {\n        return Fixidity.fromFixed( Fixidity.divide(\n            Fixidity.newFixedFraction(_value, bondPrice()), \n            Fixidity.newFixed(1e14) ) );\n    }\n\n\n    /**\n     *  @notice calculate current bond premium\n     *  @return price_ uint\n     */\n    function bondPrice() public view returns ( uint price_ ) {        \n        price_ = Fixidity.fromFixed( Fixidity.divide(\n            Fixidity.mul(Fixidity.newFixed(terms.controlVariable), Fixidity.newFixed(debtRatio())), \n            Fixidity.newFixed(1e5) ) );\n        if ( price_ < terms.minimumPrice ) {\n            price_ = terms.minimumPrice;\n        }\n    }\n\n    /**\n     *  @notice calculate current bond price and remove floor if above\n     *  @return price_ uint\n     */\n    function _bondPrice() internal returns ( uint price_ ) {\n        price_ = Fixidity.fromFixed( Fixidity.divide(\n            Fixidity.mul(Fixidity.newFixed(terms.controlVariable), Fixidity.newFixed(debtRatio())), \n            Fixidity.newFixed(1e5) ) );\n        if ( price_ < terms.minimumPrice ) {\n            price_ = terms.minimumPrice;        \n        } else if ( terms.minimumPrice != 0 ) {\n            terms.minimumPrice = 0;\n        }\n    }\n\n    /**\n     *  @notice get asset price from chainlink\n     */\n    function assetPrice() public view returns (int) {\n        ( , int price, , , ) = priceFeed.latestRoundData();\n        return price;\n    }\n\n    /**\n     *  @notice converts bond price to DAI value\n     *  @return price_ uint\n     */\n    function bondPriceInUSD() public view returns ( uint price_ ) {\n        price_ = Fixidity.fromFixed( Fixidity.mul(\n            Fixidity.mul(Fixidity.newFixed(bondPrice()), Fixidity.newFixed(uint( assetPrice() ))), \n            Fixidity.newFixed(1e6) ) );\n    }\n\n\n    /**\n     *  @notice calculate current ratio of debt to BOSS supply\n     *  @return debtRatio_ uint\n     */\n    function debtRatio() public view returns ( uint debtRatio_ ) {   \n        uint supply = BOSS.totalSupply();\n        debtRatio_ = Fixidity.fromFixed(Fixidity.divide(\n            Fixidity.newFixedFraction(\n                Fixidity.fromFixed(Fixidity.mul( Fixidity.newFixed(currentDebt()) , Fixidity.newFixed(1e9))),\n                supply),\n                Fixidity.newFixed(1e18)));\n    }\n\n    /**\n     *  @notice debt ratio in same terms as reserve bonds\n     *  @return uint\n     */\n    function standardizedDebtRatio() external view returns ( uint ) {\n        return Fixidity.fromFixed( Fixidity.divide(\n            Fixidity.mul(Fixidity.newFixed(debtRatio()), Fixidity.newFixed(uint( assetPrice() ))), \n            Fixidity.newFixed(1e8) ) ); // ETH feed is 8 decimals\n    }\n\n    /**\n     *  @notice calculate debt factoring in decay\n     *  @return uint\n     */\n    function currentDebt() public view returns ( uint ) {\n        return Fixidity.fromFixed(Fixidity.subtract(Fixidity.newFixed(totalDebt), Fixidity.newFixed(debtDecay())));\n    }\n\n    /**\n     *  @notice amount to decay total debt by\n     *  @return decay_ uint\n     */\n    function debtDecay() public view returns ( uint decay_ ) {\n        uint blocksSinceLast = Fixidity.fromFixed(Fixidity.subtract(Fixidity.newFixed(block.number), Fixidity.newFixed(lastDecay)));\n        decay_ = Fixidity.fromFixed( Fixidity.divide(\n            Fixidity.mul(Fixidity.newFixed(totalDebt), Fixidity.newFixed(blocksSinceLast)), \n            Fixidity.newFixed(terms.vestingTerm) ) );\n        if ( decay_ > totalDebt ) {\n            decay_ = totalDebt;\n        }\n    }\n\n\n    /**\n     *  @notice calculate how far into vesting a depositor is\n     *  @param _depositor address\n     *  @return percentVested_ uint\n     */\n    function percentVestedFor( address _depositor ) public view returns ( uint percentVested_ ) {\n        Bond memory bond = bondInfo[ _depositor ];\n        uint blocksSinceLast = Fixidity.fromFixed(Fixidity.subtract(Fixidity.newFixed(block.number), Fixidity.newFixed(bond.lastBlock )));\n        uint vesting = bond.vesting;\n\n        if ( vesting > 0 ) {\n            percentVested_ = Fixidity.fromFixed( Fixidity.divide(\n            Fixidity.mul(Fixidity.newFixed(blocksSinceLast), Fixidity.newFixed(10000)), \n            Fixidity.newFixed(vesting) ) );\n        } else {\n            percentVested_ = 0;\n        }\n    }\n\n    /**\n     *  @notice calculate amount of BOSS available for claim by depositor\n     *  @param _depositor address\n     *  @return pendingPayout_ uint\n     */\n    function pendingPayoutFor( address _depositor ) external view returns ( uint pendingPayout_ ) {\n        uint percentVested = percentVestedFor( _depositor );\n        uint payout = bondInfo[ _depositor ].payout;\n\n        if ( percentVested >= 10000 ) {\n            pendingPayout_ = payout;\n        } else {\n            pendingPayout_ = Fixidity.fromFixed( Fixidity.divide(\n            Fixidity.mul(Fixidity.newFixed(payout), Fixidity.newFixed(percentVested)), \n            Fixidity.newFixed(10000) ) );\n        }\n    }\n\n\n\n\n    /* ======= AUXILLIARY ======= */\n\n    /**\n     *  @notice allow anyone to send lost tokens (excluding principle or BOSS) to the DAO\n     *  @return bool\n     */\n    function recoverLostToken( address _token ) external returns ( bool ) {\n        require( _token != address(BOSS) );\n        require( _token != address(principle) );\n         IERC20(_token).safeTransfer( DAO,  ERC20(_token).balanceOf( address(this) ) );\n        return true;\n    }\n}",
  "sourcePath": "/Users/samgville/Documents/Nostra DAO /nostra-dao-contracts/contracts/MIMBondDepository.sol",
  "compiler": {
    "name": "solc",
    "version": "0.8.10+commit.fc410830.Emscripten.clang"
  },
  "schemaVersion": "3.4.4",
  "updatedAt": "2022-01-21T00:17:48.742Z",
  "devdoc": {
    "kind": "dev",
    "methods": {
      "bondPrice()": {
        "returns": {
          "price_": "uint"
        }
      },
      "bondPriceInUSD()": {
        "returns": {
          "price_": "uint"
        }
      },
      "currentDebt()": {
        "returns": {
          "_0": "uint"
        }
      },
      "debtDecay()": {
        "returns": {
          "decay_": "uint"
        }
      },
      "debtRatio()": {
        "returns": {
          "debtRatio_": "uint"
        }
      },
      "deposit(uint256,uint256,address)": {
        "params": {
          "_amount": "uint",
          "_depositor": "address",
          "_maxPrice": "uint"
        },
        "returns": {
          "_0": "uint"
        }
      },
      "initializeBondTerms(uint256,uint256,uint256,uint256,uint256,uint256)": {
        "params": {
          "_controlVariable": "uint",
          "_initialDebt": "uint",
          "_maxDebt": "uint",
          "_maxPayout": "uint",
          "_minimumPrice": "uint",
          "_vestingTerm": "uint"
        }
      },
      "maxPayout()": {
        "returns": {
          "_0": "uint"
        }
      },
      "payoutFor(uint256)": {
        "params": {
          "_value": "uint"
        },
        "returns": {
          "_0": "uint"
        }
      },
      "pendingPayoutFor(address)": {
        "params": {
          "_depositor": "address"
        },
        "returns": {
          "pendingPayout_": "uint"
        }
      },
      "percentVestedFor(address)": {
        "params": {
          "_depositor": "address"
        },
        "returns": {
          "percentVested_": "uint"
        }
      },
      "recoverLostToken(address)": {
        "returns": {
          "_0": "bool"
        }
      },
      "redeem(address,bool)": {
        "params": {
          "_recipient": "address",
          "_stake": "bool"
        },
        "returns": {
          "_0": "uint"
        }
      },
      "setAdjustment(bool,uint256,uint256,uint256)": {
        "params": {
          "_addition": "bool",
          "_buffer": "uint",
          "_increment": "uint",
          "_target": "uint"
        }
      },
      "setBondTerms(uint8,uint256)": {
        "params": {
          "_input": "uint",
          "_parameter": "PARAMETER"
        }
      },
      "setStaking(address,bool)": {
        "params": {
          "_helper": "bool",
          "_staking": "address"
        }
      },
      "standardizedDebtRatio()": {
        "returns": {
          "_0": "uint"
        }
      }
    },
    "version": 1
  },
  "userdoc": {
    "kind": "user",
    "methods": {
      "assetPrice()": {
        "notice": "get asset price from chainlink"
      },
      "bondPrice()": {
        "notice": "calculate current bond premium"
      },
      "bondPriceInUSD()": {
        "notice": "converts bond price to DAI value"
      },
      "currentDebt()": {
        "notice": "calculate debt factoring in decay"
      },
      "debtDecay()": {
        "notice": "amount to decay total debt by"
      },
      "debtRatio()": {
        "notice": "calculate current ratio of debt to BOSS supply"
      },
      "deposit(uint256,uint256,address)": {
        "notice": "deposit bond"
      },
      "initializeBondTerms(uint256,uint256,uint256,uint256,uint256,uint256)": {
        "notice": "initializes bond parameters"
      },
      "maxPayout()": {
        "notice": "determine maximum bond size"
      },
      "payoutFor(uint256)": {
        "notice": "calculate interest due for new bond"
      },
      "pendingPayoutFor(address)": {
        "notice": "calculate amount of BOSS available for claim by depositor"
      },
      "percentVestedFor(address)": {
        "notice": "calculate how far into vesting a depositor is"
      },
      "recoverLostToken(address)": {
        "notice": "allow anyone to send lost tokens (excluding principle or BOSS) to the DAO"
      },
      "redeem(address,bool)": {
        "notice": "redeem bond for user"
      },
      "setAdjustment(bool,uint256,uint256,uint256)": {
        "notice": "set control variable adjustment"
      },
      "setBondTerms(uint8,uint256)": {
        "notice": "set parameters for new bonds"
      },
      "setStaking(address,bool)": {
        "notice": "set contract for auto stake"
      },
      "standardizedDebtRatio()": {
        "notice": "debt ratio in same terms as reserve bonds"
      }
    },
    "version": 1
  }
}